{
  "address": "0xa1f206f3dF721AF747D007AE135901240fb74fb0",
  "abi": [
    {
      "inputs": [
        {
          "internalType": "contract IStrategyManager",
          "name": "_strategyManager",
          "type": "address"
        },
        {
          "internalType": "contract ISlasher",
          "name": "_slasher",
          "type": "address"
        }
      ],
      "stateMutability": "nonpayable",
      "type": "constructor"
    },
    {
      "anonymous": false,
      "inputs": [
        {
          "indexed": false,
          "internalType": "uint8",
          "name": "version",
          "type": "uint8"
        }
      ],
      "name": "Initialized",
      "type": "event"
    },
    {
      "anonymous": false,
      "inputs": [
        {
          "indexed": false,
          "internalType": "uint256",
          "name": "previousValue",
          "type": "uint256"
        },
        {
          "indexed": false,
          "internalType": "uint256",
          "name": "newValue",
          "type": "uint256"
        }
      ],
      "name": "MinWithdrawalDelaySet",
      "type": "event"
    },
    {
      "anonymous": false,
      "inputs": [
        {
          "indexed": true,
          "internalType": "address",
          "name": "operator",
          "type": "address"
        },
        {
          "components": [
            {
              "internalType": "address",
              "name": "earningsReceiver",
              "type": "address"
            },
            {
              "internalType": "address",
              "name": "delegationApprover",
              "type": "address"
            },
            {
              "internalType": "uint32",
              "name": "stakerOptOutWindow",
              "type": "uint32"
            }
          ],
          "indexed": false,
          "internalType": "struct IDelegationManager.OperatorDetails",
          "name": "newOperatorDetails",
          "type": "tuple"
        }
      ],
      "name": "OperatorDetailsModified",
      "type": "event"
    },
    {
      "anonymous": false,
      "inputs": [
        {
          "indexed": true,
          "internalType": "address",
          "name": "operator",
          "type": "address"
        },
        {
          "indexed": false,
          "internalType": "string",
          "name": "metadataURI",
          "type": "string"
        }
      ],
      "name": "OperatorMetadataURIUpdated",
      "type": "event"
    },
    {
      "anonymous": false,
      "inputs": [
        {
          "indexed": true,
          "internalType": "address",
          "name": "operator",
          "type": "address"
        },
        {
          "components": [
            {
              "internalType": "address",
              "name": "earningsReceiver",
              "type": "address"
            },
            {
              "internalType": "address",
              "name": "delegationApprover",
              "type": "address"
            },
            {
              "internalType": "uint32",
              "name": "stakerOptOutWindow",
              "type": "uint32"
            }
          ],
          "indexed": false,
          "internalType": "struct IDelegationManager.OperatorDetails",
          "name": "operatorDetails",
          "type": "tuple"
        }
      ],
      "name": "OperatorRegistered",
      "type": "event"
    },
    {
      "anonymous": false,
      "inputs": [
        {
          "indexed": true,
          "internalType": "address",
          "name": "operator",
          "type": "address"
        },
        {
          "indexed": false,
          "internalType": "address",
          "name": "staker",
          "type": "address"
        },
        {
          "indexed": false,
          "internalType": "contract IStrategy",
          "name": "strategy",
          "type": "address"
        },
        {
          "indexed": false,
          "internalType": "uint256",
          "name": "shares",
          "type": "uint256"
        }
      ],
      "name": "OperatorSharesDecreased",
      "type": "event"
    },
    {
      "anonymous": false,
      "inputs": [
        {
          "indexed": true,
          "internalType": "address",
          "name": "operator",
          "type": "address"
        },
        {
          "indexed": false,
          "internalType": "address",
          "name": "staker",
          "type": "address"
        },
        {
          "indexed": false,
          "internalType": "contract IStrategy",
          "name": "strategy",
          "type": "address"
        },
        {
          "indexed": false,
          "internalType": "uint256",
          "name": "shares",
          "type": "uint256"
        }
      ],
      "name": "OperatorSharesIncreased",
      "type": "event"
    },
    {
      "anonymous": false,
      "inputs": [
        {
          "indexed": true,
          "internalType": "address",
          "name": "previousOwner",
          "type": "address"
        },
        {
          "indexed": true,
          "internalType": "address",
          "name": "newOwner",
          "type": "address"
        }
      ],
      "name": "OwnershipTransferred",
      "type": "event"
    },
    {
      "anonymous": false,
      "inputs": [
        {
          "indexed": true,
          "internalType": "address",
          "name": "account",
          "type": "address"
        },
        {
          "indexed": false,
          "internalType": "uint256",
          "name": "newPausedStatus",
          "type": "uint256"
        }
      ],
      "name": "Paused",
      "type": "event"
    },
    {
      "anonymous": false,
      "inputs": [
        {
          "indexed": false,
          "internalType": "contract IPauserRegistry",
          "name": "pauserRegistry",
          "type": "address"
        },
        {
          "indexed": false,
          "internalType": "contract IPauserRegistry",
          "name": "newPauserRegistry",
          "type": "address"
        }
      ],
      "name": "PauserRegistrySet",
      "type": "event"
    },
    {
      "anonymous": false,
      "inputs": [
        {
          "indexed": true,
          "internalType": "address",
          "name": "staker",
          "type": "address"
        },
        {
          "indexed": true,
          "internalType": "address",
          "name": "operator",
          "type": "address"
        }
      ],
      "name": "StakerDelegated",
      "type": "event"
    },
    {
      "anonymous": false,
      "inputs": [
        {
          "indexed": true,
          "internalType": "address",
          "name": "staker",
          "type": "address"
        },
        {
          "indexed": true,
          "internalType": "address",
          "name": "operator",
          "type": "address"
        }
      ],
      "name": "StakerForceUndelegated",
      "type": "event"
    },
    {
      "anonymous": false,
      "inputs": [
        {
          "indexed": true,
          "internalType": "address",
          "name": "staker",
          "type": "address"
        },
        {
          "indexed": true,
          "internalType": "address",
          "name": "operator",
          "type": "address"
        }
      ],
      "name": "StakerUndelegated",
      "type": "event"
    },
    {
      "anonymous": false,
      "inputs": [
        {
          "indexed": false,
          "internalType": "contract IStrategy",
          "name": "strategy",
          "type": "address"
        },
        {
          "indexed": false,
          "internalType": "uint256",
          "name": "previousValue",
          "type": "uint256"
        },
        {
          "indexed": false,
          "internalType": "uint256",
          "name": "newValue",
          "type": "uint256"
        }
      ],
      "name": "StrategyWithdrawalDelaySet",
      "type": "event"
    },
    {
      "anonymous": false,
      "inputs": [
        {
          "indexed": true,
          "internalType": "address",
          "name": "account",
          "type": "address"
        },
        {
          "indexed": false,
          "internalType": "uint256",
          "name": "newPausedStatus",
          "type": "uint256"
        }
      ],
      "name": "Unpaused",
      "type": "event"
    },
    {
      "anonymous": false,
      "inputs": [
        {
          "indexed": false,
          "internalType": "address",
          "name": "previousGateway",
          "type": "address"
        },
        {
          "indexed": false,
          "internalType": "address",
          "name": "currentGateway",
          "type": "address"
        }
      ],
      "name": "UpdateWrappedTokenGateway",
      "type": "event"
    },
    {
      "anonymous": false,
      "inputs": [
        {
          "indexed": false,
          "internalType": "bytes32",
          "name": "withdrawalRoot",
          "type": "bytes32"
        }
      ],
      "name": "WithdrawalCompleted",
      "type": "event"
    },
    {
      "anonymous": false,
      "inputs": [
        {
          "indexed": false,
          "internalType": "bytes32",
          "name": "withdrawalRoot",
          "type": "bytes32"
        },
        {
          "components": [
            {
              "internalType": "address",
              "name": "staker",
              "type": "address"
            },
            {
              "internalType": "address",
              "name": "delegatedTo",
              "type": "address"
            },
            {
              "internalType": "address",
              "name": "withdrawer",
              "type": "address"
            },
            {
              "internalType": "uint256",
              "name": "nonce",
              "type": "uint256"
            },
            {
              "internalType": "uint32",
              "name": "startTimestamp",
              "type": "uint32"
            },
            {
              "internalType": "contract IStrategy[]",
              "name": "strategies",
              "type": "address[]"
            },
            {
              "internalType": "uint256[]",
              "name": "shares",
              "type": "uint256[]"
            }
          ],
          "indexed": false,
          "internalType": "struct IDelegationManager.Withdrawal",
          "name": "withdrawal",
          "type": "tuple"
        }
      ],
      "name": "WithdrawalQueued",
      "type": "event"
    },
    {
      "inputs": [],
      "name": "DELEGATION_APPROVAL_TYPEHASH",
      "outputs": [
        {
          "internalType": "bytes32",
          "name": "",
          "type": "bytes32"
        }
      ],
      "stateMutability": "view",
      "type": "function"
    },
    {
      "inputs": [],
      "name": "DOMAIN_TYPEHASH",
      "outputs": [
        {
          "internalType": "bytes32",
          "name": "",
          "type": "bytes32"
        }
      ],
      "stateMutability": "view",
      "type": "function"
    },
    {
      "inputs": [],
      "name": "MAX_STAKER_OPT_OUT_WINDOW",
      "outputs": [
        {
          "internalType": "uint256",
          "name": "",
          "type": "uint256"
        }
      ],
      "stateMutability": "view",
      "type": "function"
    },
    {
      "inputs": [],
      "name": "MAX_WITHDRAWAL_DELAY",
      "outputs": [
        {
          "internalType": "uint256",
          "name": "",
          "type": "uint256"
        }
      ],
      "stateMutability": "view",
      "type": "function"
    },
    {
      "inputs": [],
      "name": "STAKER_DELEGATION_TYPEHASH",
      "outputs": [
        {
          "internalType": "bytes32",
          "name": "",
          "type": "bytes32"
        }
      ],
      "stateMutability": "view",
      "type": "function"
    },
    {
      "inputs": [
        {
          "internalType": "address",
          "name": "staker",
          "type": "address"
        },
        {
          "internalType": "address",
          "name": "operator",
          "type": "address"
        },
        {
          "internalType": "uint256",
          "name": "expiry",
          "type": "uint256"
        }
      ],
      "name": "calculateCurrentStakerDelegationDigestHash",
      "outputs": [
        {
          "internalType": "bytes32",
          "name": "",
          "type": "bytes32"
        }
      ],
      "stateMutability": "view",
      "type": "function"
    },
    {
      "inputs": [
        {
          "internalType": "address",
          "name": "staker",
          "type": "address"
        },
        {
          "internalType": "address",
          "name": "operator",
          "type": "address"
        },
        {
          "internalType": "address",
          "name": "_delegationApprover",
          "type": "address"
        },
        {
          "internalType": "bytes32",
          "name": "approverSalt",
          "type": "bytes32"
        },
        {
          "internalType": "uint256",
          "name": "expiry",
          "type": "uint256"
        }
      ],
      "name": "calculateDelegationApprovalDigestHash",
      "outputs": [
        {
          "internalType": "bytes32",
          "name": "",
          "type": "bytes32"
        }
      ],
      "stateMutability": "view",
      "type": "function"
    },
    {
      "inputs": [
        {
          "internalType": "address",
          "name": "staker",
          "type": "address"
        },
        {
          "internalType": "uint256",
          "name": "_stakerNonce",
          "type": "uint256"
        },
        {
          "internalType": "address",
          "name": "operator",
          "type": "address"
        },
        {
          "internalType": "uint256",
          "name": "expiry",
          "type": "uint256"
        }
      ],
      "name": "calculateStakerDelegationDigestHash",
      "outputs": [
        {
          "internalType": "bytes32",
          "name": "",
          "type": "bytes32"
        }
      ],
      "stateMutability": "view",
      "type": "function"
    },
    {
      "inputs": [
        {
          "components": [
            {
              "internalType": "address",
              "name": "staker",
              "type": "address"
            },
            {
              "internalType": "address",
              "name": "delegatedTo",
              "type": "address"
            },
            {
              "internalType": "address",
              "name": "withdrawer",
              "type": "address"
            },
            {
              "internalType": "uint256",
              "name": "nonce",
              "type": "uint256"
            },
            {
              "internalType": "uint32",
              "name": "startTimestamp",
              "type": "uint32"
            },
            {
              "internalType": "contract IStrategy[]",
              "name": "strategies",
              "type": "address[]"
            },
            {
              "internalType": "uint256[]",
              "name": "shares",
              "type": "uint256[]"
            }
          ],
          "internalType": "struct IDelegationManager.Withdrawal",
          "name": "withdrawal",
          "type": "tuple"
        }
      ],
      "name": "calculateWithdrawalRoot",
      "outputs": [
        {
          "internalType": "bytes32",
          "name": "",
          "type": "bytes32"
        }
      ],
      "stateMutability": "pure",
      "type": "function"
    },
    {
      "inputs": [
        {
          "components": [
            {
              "internalType": "address",
              "name": "staker",
              "type": "address"
            },
            {
              "internalType": "address",
              "name": "delegatedTo",
              "type": "address"
            },
            {
              "internalType": "address",
              "name": "withdrawer",
              "type": "address"
            },
            {
              "internalType": "uint256",
              "name": "nonce",
              "type": "uint256"
            },
            {
              "internalType": "uint32",
              "name": "startTimestamp",
              "type": "uint32"
            },
            {
              "internalType": "contract IStrategy[]",
              "name": "strategies",
              "type": "address[]"
            },
            {
              "internalType": "uint256[]",
              "name": "shares",
              "type": "uint256[]"
            }
          ],
          "internalType": "struct IDelegationManager.Withdrawal",
          "name": "withdrawal",
          "type": "tuple"
        },
        {
          "internalType": "contract IERC20[]",
          "name": "tokens",
          "type": "address[]"
        },
        {
          "internalType": "uint256",
          "name": "middlewareTimesIndex",
          "type": "uint256"
        },
        {
          "internalType": "bool",
          "name": "receiveAsTokens",
          "type": "bool"
        }
      ],
      "name": "completeQueuedWithdrawal",
      "outputs": [],
      "stateMutability": "nonpayable",
      "type": "function"
    },
    {
      "inputs": [
        {
          "components": [
            {
              "internalType": "address",
              "name": "staker",
              "type": "address"
            },
            {
              "internalType": "address",
              "name": "delegatedTo",
              "type": "address"
            },
            {
              "internalType": "address",
              "name": "withdrawer",
              "type": "address"
            },
            {
              "internalType": "uint256",
              "name": "nonce",
              "type": "uint256"
            },
            {
              "internalType": "uint32",
              "name": "startTimestamp",
              "type": "uint32"
            },
            {
              "internalType": "contract IStrategy[]",
              "name": "strategies",
              "type": "address[]"
            },
            {
              "internalType": "uint256[]",
              "name": "shares",
              "type": "uint256[]"
            }
          ],
          "internalType": "struct IDelegationManager.Withdrawal[]",
          "name": "withdrawals",
          "type": "tuple[]"
        },
        {
          "internalType": "contract IERC20[][]",
          "name": "tokens",
          "type": "address[][]"
        },
        {
          "internalType": "uint256[]",
          "name": "middlewareTimesIndexes",
          "type": "uint256[]"
        },
        {
          "internalType": "bool[]",
          "name": "receiveAsTokens",
          "type": "bool[]"
        }
      ],
      "name": "completeQueuedWithdrawals",
      "outputs": [],
      "stateMutability": "nonpayable",
      "type": "function"
    },
    {
      "inputs": [
        {
          "internalType": "address",
          "name": "",
          "type": "address"
        }
      ],
      "name": "cumulativeWithdrawalsQueued",
      "outputs": [
        {
          "internalType": "uint256",
          "name": "",
          "type": "uint256"
        }
      ],
      "stateMutability": "view",
      "type": "function"
    },
    {
      "inputs": [
        {
          "internalType": "address",
          "name": "staker",
          "type": "address"
        },
        {
          "internalType": "contract IStrategy",
          "name": "strategy",
          "type": "address"
        },
        {
          "internalType": "uint256",
          "name": "shares",
          "type": "uint256"
        }
      ],
      "name": "decreaseDelegatedShares",
      "outputs": [],
      "stateMutability": "nonpayable",
      "type": "function"
    },
    {
      "inputs": [
        {
          "internalType": "address",
          "name": "operator",
          "type": "address"
        },
        {
          "components": [
            {
              "internalType": "bytes",
              "name": "signature",
              "type": "bytes"
            },
            {
              "internalType": "uint256",
              "name": "expiry",
              "type": "uint256"
            }
          ],
          "internalType": "struct ISignatureUtils.SignatureWithExpiry",
          "name": "approverSignatureAndExpiry",
          "type": "tuple"
        },
        {
          "internalType": "bytes32",
          "name": "approverSalt",
          "type": "bytes32"
        }
      ],
      "name": "delegateTo",
      "outputs": [],
      "stateMutability": "nonpayable",
      "type": "function"
    },
    {
      "inputs": [
        {
          "internalType": "address",
          "name": "staker",
          "type": "address"
        },
        {
          "internalType": "address",
          "name": "operator",
          "type": "address"
        },
        {
          "components": [
            {
              "internalType": "bytes",
              "name": "signature",
              "type": "bytes"
            },
            {
              "internalType": "uint256",
              "name": "expiry",
              "type": "uint256"
            }
          ],
          "internalType": "struct ISignatureUtils.SignatureWithExpiry",
          "name": "stakerSignatureAndExpiry",
          "type": "tuple"
        },
        {
          "components": [
            {
              "internalType": "bytes",
              "name": "signature",
              "type": "bytes"
            },
            {
              "internalType": "uint256",
              "name": "expiry",
              "type": "uint256"
            }
          ],
          "internalType": "struct ISignatureUtils.SignatureWithExpiry",
          "name": "approverSignatureAndExpiry",
          "type": "tuple"
        },
        {
          "internalType": "bytes32",
          "name": "approverSalt",
          "type": "bytes32"
        }
      ],
      "name": "delegateToBySignature",
      "outputs": [],
      "stateMutability": "nonpayable",
      "type": "function"
    },
    {
      "inputs": [
        {
          "internalType": "address",
          "name": "",
          "type": "address"
        }
      ],
      "name": "delegatedTo",
      "outputs": [
        {
          "internalType": "address",
          "name": "",
          "type": "address"
        }
      ],
      "stateMutability": "view",
      "type": "function"
    },
    {
      "inputs": [
        {
          "internalType": "address",
          "name": "operator",
          "type": "address"
        }
      ],
      "name": "delegationApprover",
      "outputs": [
        {
          "internalType": "address",
          "name": "",
          "type": "address"
        }
      ],
      "stateMutability": "view",
      "type": "function"
    },
    {
      "inputs": [
        {
          "internalType": "address",
          "name": "",
          "type": "address"
        },
        {
          "internalType": "bytes32",
          "name": "",
          "type": "bytes32"
        }
      ],
      "name": "delegationApproverSaltIsSpent",
      "outputs": [
        {
          "internalType": "bool",
          "name": "",
          "type": "bool"
        }
      ],
      "stateMutability": "view",
      "type": "function"
    },
    {
      "inputs": [],
      "name": "domainSeparator",
      "outputs": [
        {
          "internalType": "bytes32",
          "name": "",
          "type": "bytes32"
        }
      ],
      "stateMutability": "view",
      "type": "function"
    },
    {
      "inputs": [
        {
          "internalType": "address",
          "name": "operator",
          "type": "address"
        }
      ],
      "name": "earningsReceiver",
      "outputs": [
        {
          "internalType": "address",
          "name": "",
          "type": "address"
        }
      ],
      "stateMutability": "view",
      "type": "function"
    },
    {
      "inputs": [
        {
          "internalType": "address",
          "name": "staker",
          "type": "address"
        }
      ],
      "name": "getDelegatableShares",
      "outputs": [
        {
          "internalType": "contract IStrategy[]",
          "name": "",
          "type": "address[]"
        },
        {
          "internalType": "uint256[]",
          "name": "",
          "type": "uint256[]"
        }
      ],
      "stateMutability": "view",
      "type": "function"
    },
    {
      "inputs": [
        {
          "internalType": "address",
          "name": "operator",
          "type": "address"
        },
        {
          "internalType": "contract IStrategy[]",
          "name": "strategies",
          "type": "address[]"
        }
      ],
      "name": "getOperatorShares",
      "outputs": [
        {
          "internalType": "uint256[]",
          "name": "",
          "type": "uint256[]"
        }
      ],
      "stateMutability": "view",
      "type": "function"
    },
    {
      "inputs": [
        {
          "internalType": "contract IStrategy[]",
          "name": "strategies",
          "type": "address[]"
        }
      ],
      "name": "getWithdrawalDelay",
      "outputs": [
        {
          "internalType": "uint256",
          "name": "",
          "type": "uint256"
        }
      ],
      "stateMutability": "view",
      "type": "function"
    },
    {
      "inputs": [
        {
          "internalType": "address",
          "name": "staker",
          "type": "address"
        },
        {
          "internalType": "contract IStrategy",
          "name": "strategy",
          "type": "address"
        },
        {
          "internalType": "uint256",
          "name": "shares",
          "type": "uint256"
        }
      ],
      "name": "increaseDelegatedShares",
      "outputs": [],
      "stateMutability": "nonpayable",
      "type": "function"
    },
    {
      "inputs": [
        {
          "internalType": "address",
          "name": "initialOwner",
          "type": "address"
        },
        {
          "internalType": "contract IPauserRegistry",
          "name": "_pauserRegistry",
          "type": "address"
        },
        {
          "internalType": "uint256",
          "name": "initialPausedStatus",
          "type": "uint256"
        },
        {
          "internalType": "uint256",
          "name": "_minWithdrawalDelay",
          "type": "uint256"
        },
        {
          "internalType": "contract IStrategy[]",
          "name": "_strategies",
          "type": "address[]"
        },
        {
          "internalType": "uint256[]",
          "name": "_withdrawalDelay",
          "type": "uint256[]"
        }
      ],
      "name": "initialize",
      "outputs": [],
      "stateMutability": "nonpayable",
      "type": "function"
    },
    {
      "inputs": [
        {
          "internalType": "address",
          "name": "staker",
          "type": "address"
        }
      ],
      "name": "isDelegated",
      "outputs": [
        {
          "internalType": "bool",
          "name": "",
          "type": "bool"
        }
      ],
      "stateMutability": "view",
      "type": "function"
    },
    {
      "inputs": [
        {
          "internalType": "address",
          "name": "operator",
          "type": "address"
        }
      ],
      "name": "isOperator",
      "outputs": [
        {
          "internalType": "bool",
          "name": "",
          "type": "bool"
        }
      ],
      "stateMutability": "view",
      "type": "function"
    },
    {
      "inputs": [],
      "name": "minWithdrawalDelay",
      "outputs": [
        {
          "internalType": "uint256",
          "name": "",
          "type": "uint256"
        }
      ],
      "stateMutability": "view",
      "type": "function"
    },
    {
      "inputs": [
        {
          "components": [
            {
              "internalType": "address",
              "name": "earningsReceiver",
              "type": "address"
            },
            {
              "internalType": "address",
              "name": "delegationApprover",
              "type": "address"
            },
            {
              "internalType": "uint32",
              "name": "stakerOptOutWindow",
              "type": "uint32"
            }
          ],
          "internalType": "struct IDelegationManager.OperatorDetails",
          "name": "newOperatorDetails",
          "type": "tuple"
        }
      ],
      "name": "modifyOperatorDetails",
      "outputs": [],
      "stateMutability": "nonpayable",
      "type": "function"
    },
    {
      "inputs": [
        {
          "internalType": "address",
          "name": "operator",
          "type": "address"
        }
      ],
      "name": "operatorDetails",
      "outputs": [
        {
          "components": [
            {
              "internalType": "address",
              "name": "earningsReceiver",
              "type": "address"
            },
            {
              "internalType": "address",
              "name": "delegationApprover",
              "type": "address"
            },
            {
              "internalType": "uint32",
              "name": "stakerOptOutWindow",
              "type": "uint32"
            }
          ],
          "internalType": "struct IDelegationManager.OperatorDetails",
          "name": "",
          "type": "tuple"
        }
      ],
      "stateMutability": "view",
      "type": "function"
    },
    {
      "inputs": [
        {
          "internalType": "address",
          "name": "",
          "type": "address"
        },
        {
          "internalType": "contract IStrategy",
          "name": "",
          "type": "address"
        }
      ],
      "name": "operatorShares",
      "outputs": [
        {
          "internalType": "uint256",
          "name": "",
          "type": "uint256"
        }
      ],
      "stateMutability": "view",
      "type": "function"
    },
    {
      "inputs": [],
      "name": "owner",
      "outputs": [
        {
          "internalType": "address",
          "name": "",
          "type": "address"
        }
      ],
      "stateMutability": "view",
      "type": "function"
    },
    {
      "inputs": [
        {
          "internalType": "uint256",
          "name": "newPausedStatus",
          "type": "uint256"
        }
      ],
      "name": "pause",
      "outputs": [],
      "stateMutability": "nonpayable",
      "type": "function"
    },
    {
      "inputs": [],
      "name": "pauseAll",
      "outputs": [],
      "stateMutability": "nonpayable",
      "type": "function"
    },
    {
      "inputs": [
        {
          "internalType": "uint8",
          "name": "index",
          "type": "uint8"
        }
      ],
      "name": "paused",
      "outputs": [
        {
          "internalType": "bool",
          "name": "",
          "type": "bool"
        }
      ],
      "stateMutability": "view",
      "type": "function"
    },
    {
      "inputs": [],
      "name": "paused",
      "outputs": [
        {
          "internalType": "uint256",
          "name": "",
          "type": "uint256"
        }
      ],
      "stateMutability": "view",
      "type": "function"
    },
    {
      "inputs": [],
      "name": "pauserRegistry",
      "outputs": [
        {
          "internalType": "contract IPauserRegistry",
          "name": "",
          "type": "address"
        }
      ],
      "stateMutability": "view",
      "type": "function"
    },
    {
      "inputs": [
        {
          "internalType": "bytes32",
          "name": "",
          "type": "bytes32"
        }
      ],
      "name": "pendingWithdrawals",
      "outputs": [
        {
          "internalType": "bool",
          "name": "",
          "type": "bool"
        }
      ],
      "stateMutability": "view",
      "type": "function"
    },
    {
      "inputs": [
        {
          "components": [
            {
              "internalType": "contract IStrategy[]",
              "name": "strategies",
              "type": "address[]"
            },
            {
              "internalType": "uint256[]",
              "name": "shares",
              "type": "uint256[]"
            },
            {
              "internalType": "address",
              "name": "withdrawer",
              "type": "address"
            }
          ],
          "internalType": "struct IDelegationManager.QueuedWithdrawalParams[]",
          "name": "queuedWithdrawalParams",
          "type": "tuple[]"
        }
      ],
      "name": "queueWithdrawals",
      "outputs": [
        {
          "internalType": "bytes32[]",
          "name": "",
          "type": "bytes32[]"
        }
      ],
      "stateMutability": "nonpayable",
      "type": "function"
    },
    {
      "inputs": [
        {
          "components": [
            {
              "internalType": "address",
              "name": "earningsReceiver",
              "type": "address"
            },
            {
              "internalType": "address",
              "name": "delegationApprover",
              "type": "address"
            },
            {
              "internalType": "uint32",
              "name": "stakerOptOutWindow",
              "type": "uint32"
            }
          ],
          "internalType": "struct IDelegationManager.OperatorDetails",
          "name": "registeringOperatorDetails",
          "type": "tuple"
        },
        {
          "internalType": "string",
          "name": "metadataURI",
          "type": "string"
        }
      ],
      "name": "registerAsOperator",
      "outputs": [],
      "stateMutability": "nonpayable",
      "type": "function"
    },
    {
      "inputs": [],
      "name": "renounceOwnership",
      "outputs": [],
      "stateMutability": "nonpayable",
      "type": "function"
    },
    {
      "inputs": [
        {
          "internalType": "uint256",
          "name": "newMinWithdrawalDelay",
          "type": "uint256"
        }
      ],
      "name": "setMinWithdrawalDelay",
      "outputs": [],
      "stateMutability": "nonpayable",
      "type": "function"
    },
    {
      "inputs": [
        {
          "internalType": "contract IPauserRegistry",
          "name": "newPauserRegistry",
          "type": "address"
        }
      ],
      "name": "setPauserRegistry",
      "outputs": [],
      "stateMutability": "nonpayable",
      "type": "function"
    },
    {
      "inputs": [
        {
          "internalType": "contract IStrategy[]",
          "name": "strategies",
          "type": "address[]"
        },
        {
          "internalType": "uint256[]",
          "name": "withdrawalDelay",
          "type": "uint256[]"
        }
      ],
      "name": "setStrategyWithdrawalDelay",
      "outputs": [],
      "stateMutability": "nonpayable",
      "type": "function"
    },
    {
      "inputs": [],
      "name": "slasher",
      "outputs": [
        {
          "internalType": "contract ISlasher",
          "name": "",
          "type": "address"
        }
      ],
      "stateMutability": "view",
      "type": "function"
    },
    {
      "inputs": [
        {
          "internalType": "address",
          "name": "",
          "type": "address"
        }
      ],
      "name": "stakerNonce",
      "outputs": [
        {
          "internalType": "uint256",
          "name": "",
          "type": "uint256"
        }
      ],
      "stateMutability": "view",
      "type": "function"
    },
    {
      "inputs": [
        {
          "internalType": "address",
          "name": "operator",
          "type": "address"
        }
      ],
      "name": "stakerOptOutWindow",
      "outputs": [
        {
          "internalType": "uint256",
          "name": "",
          "type": "uint256"
        }
      ],
      "stateMutability": "view",
      "type": "function"
    },
    {
      "inputs": [],
      "name": "strategyManager",
      "outputs": [
        {
          "internalType": "contract IStrategyManager",
          "name": "",
          "type": "address"
        }
      ],
      "stateMutability": "view",
      "type": "function"
    },
    {
      "inputs": [
        {
          "internalType": "contract IStrategy",
          "name": "",
          "type": "address"
        }
      ],
      "name": "strategyWithdrawalDelay",
      "outputs": [
        {
          "internalType": "uint256",
          "name": "",
          "type": "uint256"
        }
      ],
      "stateMutability": "view",
      "type": "function"
    },
    {
      "inputs": [
        {
          "internalType": "address",
          "name": "newOwner",
          "type": "address"
        }
      ],
      "name": "transferOwnership",
      "outputs": [],
      "stateMutability": "nonpayable",
      "type": "function"
    },
    {
      "inputs": [
        {
          "internalType": "address",
          "name": "staker",
          "type": "address"
        }
      ],
      "name": "undelegate",
      "outputs": [
        {
          "internalType": "bytes32[]",
          "name": "withdrawalRoots",
          "type": "bytes32[]"
        }
      ],
      "stateMutability": "nonpayable",
      "type": "function"
    },
    {
      "inputs": [
        {
          "internalType": "uint256",
          "name": "newPausedStatus",
          "type": "uint256"
        }
      ],
      "name": "unpause",
      "outputs": [],
      "stateMutability": "nonpayable",
      "type": "function"
    },
    {
      "inputs": [
        {
          "internalType": "string",
          "name": "metadataURI",
          "type": "string"
        }
      ],
      "name": "updateOperatorMetadataURI",
      "outputs": [],
      "stateMutability": "nonpayable",
      "type": "function"
    },
    {
      "inputs": [
        {
          "internalType": "address",
          "name": "_newWrappedTokenGateway",
          "type": "address"
        }
      ],
      "name": "updateWrappedTokenGateway",
      "outputs": [],
      "stateMutability": "nonpayable",
      "type": "function"
    },
    {
      "inputs": [],
      "name": "wrappedTokenGateway",
      "outputs": [
        {
          "internalType": "address",
          "name": "",
          "type": "address"
        }
      ],
      "stateMutability": "view",
      "type": "function"
    }
  ],
  "transactionHash": "0x929e0552218ccd7a14e4d9ac71da7ea973d5369368a62c7a88b145ed1b25ae41",
  "args": [
    "0xB36307B06beC1Fe002f08f98B223A62C1E3AFb88",
    "0x74D9d2324965688D0c712763CA01566a1a6c53A6"
  ],
  "numDeployments": 1,
  "solcInputHash": "73a843c7df9a0737c5f562139718a87a",
  "bytecode": "0x60e06040523480156200001157600080fd5b5060405162005b5838038062005b58833981016040819052620000349162000137565b6001600160a01b03808316608052811660a052620000516200005d565b50504660c05262000176565b600054610100900460ff1615620000ca5760405162461bcd60e51b815260206004820152602760248201527f496e697469616c697a61626c653a20636f6e747261637420697320696e697469604482015266616c697a696e6760c81b606482015260840160405180910390fd5b60005460ff908116146200011c576000805460ff191660ff9081179091556040519081527f7f26b83ff96e1f2b6a682f133852f6798a09c465da95921460cefb38474024989060200160405180910390a15b565b6001600160a01b03811681146200013457600080fd5b50565b600080604083850312156200014b57600080fd5b825162000158816200011e565b60208401519092506200016b816200011e565b809150509250929050565b60805160a05160c051615981620001d76000396000612546015260006107d30152600081816105450152818161118c0152818161161e01528181611e400152818161298601528181612b220152818161413f015261466001526159816000f3fe608060405234801561001057600080fd5b506004361061036d5760003560e01c806365108e92116101d3578063b134427111610104578063da8be864116100a2578063f16172b01161007c578063f16172b014610979578063f2fde38b1461098c578063f698da251461099f578063fabc1cbc146109a757600080fd5b8063da8be86414610933578063e9007a5214610946578063eea9064b1461096657600080fd5b8063be0525d7116100de578063be0525d714610846578063c5e480db14610859578063c94b5111146108ff578063cf80873e1461091257600080fd5b8063b1344271146107ce578063b7f06ebe146107f5578063bb45fef21461081857600080fd5b8063886f119511610171578063973a67961161014b578063973a67961461078757806399be81c814610791578063a1788484146107a4578063a238f9df146107c457600080fd5b8063886f1195146107435780638da5cb5b14610756578063900413471461076757600080fd5b80636d70f7ae116101ad5780636d70f7ae146106cf578063715018a6146106fd578063778e55f3146107055780637f5480711461073057600080fd5b806365108e9214610680578063651878101461069357806365da1264146106a657600080fd5b806322bf40e4116102ad578063433773821161024b5780635ac86ab7116102255780635ac86ab7146106165780635c975abb146106395780635f966f141461064157806360d7faed1461066d57600080fd5b806343377382146105d4578063595c6a67146105fb578063597b36da1461060357600080fd5b80633340439611610287578063334043961461052d57806339b70e38146105405780633cdeb5e0146105675780633e28391d1461059657600080fd5b806322bf40e4146104e757806328a573ae146104fa57806329c77d4f1461050d57600080fd5b806310d67a2f1161031a5780631bbce091116102f45780631bbce091146104495780631d1bf7f21461045c5780631e1198381461049557806320606b70146104c057600080fd5b806310d67a2f14610410578063132d496714610423578063136439dd1461043657600080fd5b80630d5b00671161034b5780630d5b0067146103d25780630dd8dd02146103db5780630f589e59146103fb57600080fd5b80630449ca391461037257806304a4f979146103985780630b9f487a146103bf575b600080fd5b610385610380366004614987565b6109ba565b6040519081526020015b60405180910390f35b6103857f14bde674c9f64b2ad00eaaee4a8bed1fabef35c7507e3c5b9cfc9436909a2dad81565b6103856103cd3660046149e2565b610a41565b610385609e5481565b6103ee6103e9366004614987565b610b03565b60405161038f9190614a3d565b61040e610409366004614adb565b610f10565b005b61040e61041e366004614b2f565b611078565b61040e610431366004614b53565b611181565b61040e610444366004614b94565b611256565b610385610457366004614b53565b6113eb565b61038561046a366004614b2f565b6001600160a01b03166000908152609a6020526040902060010154600160a01b900463ffffffff1690565b60a2546104a8906001600160a01b031681565b6040516001600160a01b03909116815260200161038f565b6103857f8cad95687ba82c2ce50e74f7b754645e5117c3a5bec8151c0726d5857980a86681565b61040e6104f5366004614bad565b611419565b61040e610508366004614b53565b611613565b61038561051b366004614b2f565b609c6020526000908152604090205481565b61040e61053b366004614c55565b6116e1565b6104a87f000000000000000000000000000000000000000000000000000000000000000081565b6104a8610575366004614b2f565b6001600160a01b039081166000908152609a60205260409020600101541690565b6105c46105a4366004614b2f565b6001600160a01b039081166000908152609b602052604090205416151590565b604051901515815260200161038f565b6103857f39111bc4a4d688e1f685123d7497d4615370152a8ee4a0593e647bd06ad8bb0b81565b61040e6117f7565b610385610611366004614f58565b611914565b6105c4610624366004614f95565b606654600160ff9092169190911b9081161490565b606654610385565b6104a861064f366004614b2f565b6001600160a01b039081166000908152609a60205260409020541690565b61040e61067b366004614fc6565b611944565b61040e61068e366004614b2f565b6119c3565b61040e6106a1366004615056565b611a34565b6104a86106b4366004614b2f565b609b602052600090815260409020546001600160a01b031681565b6105c46106dd366004614b2f565b6001600160a01b039081166000908152609a602052604090205416151590565b61040e611a48565b6103856107133660046150c2565b609960209081526000928352604080842090915290825290205481565b61040e61073e3660046151a4565b611a5c565b6065546104a8906001600160a01b031681565b6033546001600160a01b03166104a8565b61077a610775366004615235565b611b61565b60405161038f91906152c0565b61038562ed4e0081565b61040e61079f3660046152d3565b611c3c565b6103856107b2366004614b2f565b60a06020526000908152604090205481565b61038562278d0081565b6104a87f000000000000000000000000000000000000000000000000000000000000000081565b6105c4610803366004614b94565b609f6020526000908152604090205460ff1681565b6105c4610826366004615309565b609d60209081526000928352604080842090915290825290205460ff1681565b61040e610854366004614b94565b611d34565b6108c9610867366004614b2f565b6040805160608082018352600080835260208084018290529284018190526001600160a01b039485168152609a8352839020835191820184528054851682526001015493841691810191909152600160a01b90920463ffffffff169082015290565b6040805182516001600160a01b039081168252602080850151909116908201529181015163ffffffff169082015260600161038f565b61038561090d366004615335565b611d45565b610925610920366004614b2f565b611dfe565b60405161038f9291906153b6565b6103ee610941366004614b2f565b611ebb565b610385610954366004614b2f565b60a16020526000908152604090205481565b61040e6109743660046153db565b6123ee565b61040e610987366004615434565b6123fa565b61040e61099a366004614b2f565b6124b5565b610385612542565b61040e6109b5366004614b94565b61261d565b609e54600090815b83811015610a3757600060a160008787858181106109e2576109e2615450565b90506020020160208101906109f79190614b2f565b6001600160a01b03166001600160a01b0316815260200190815260200160002054905082811115610a26578092505b50610a308161547c565b90506109c2565b5090505b92915050565b604080517f14bde674c9f64b2ad00eaaee4a8bed1fabef35c7507e3c5b9cfc9436909a2dad6020808301919091526001600160a01b038681168385015288811660608401528716608083015260a0820185905260c08083018590528351808403909101815260e0909201909252805191012060009081610abf612542565b60405161190160f01b602082015260228101919091526042810183905260620160408051808303601f19018152919052805160209091012098975050505050505050565b606654606090600190600290811603610b635760405162461bcd60e51b815260206004820152601960248201527f5061757361626c653a20696e646578206973207061757365640000000000000060448201526064015b60405180910390fd5b60008367ffffffffffffffff811115610b7e57610b7e614cf8565b604051908082528060200260200182016040528015610ba7578160200160208202803683370190505b50336000908152609b60205260408120549192506001600160a01b03909116905b85811015610f0557868682818110610be257610be2615450565b9050602002810190610bf49190615495565b610c029060208101906154b5565b9050878783818110610c1657610c16615450565b9050602002810190610c289190615495565b610c3290806154b5565b905014610ca75760405162461bcd60e51b815260206004820152603860248201527f44656c65676174696f6e4d616e616765722e717565756557697468647261776160448201527f6c3a20696e707574206c656e677468206d69736d6174636800000000000000006064820152608401610b5a565b33878783818110610cba57610cba615450565b9050602002810190610ccc9190615495565b610cdd906060810190604001614b2f565b6001600160a01b03161480610d39575060a2546001600160a01b0316878783818110610d0b57610d0b615450565b9050602002810190610d1d9190615495565b610d2e906060810190604001614b2f565b6001600160a01b0316145b610dd15760405162461bcd60e51b815260206004820152605560248201527f44656c65676174696f6e4d616e616765722e717565756557697468647261776160448201527f6c3a2077697468647261776572206d757374206265207374616b6572206f722060648201527f7772617070656420746f6b656e20676174657761790000000000000000000000608482015260a401610b5a565b610ed63383898985818110610de857610de8615450565b9050602002810190610dfa9190615495565b610e0b906060810190604001614b2f565b8a8a86818110610e1d57610e1d615450565b9050602002810190610e2f9190615495565b610e3990806154b5565b808060200260200160405190810160405280939291908181526020018383602002808284376000920191909152508e92508d9150889050818110610e7f57610e7f615450565b9050602002810190610e919190615495565b610e9f9060208101906154b5565b808060200260200160405190810160405280939291908181526020018383602002808284376000920191909152506127cf92505050565b838281518110610ee857610ee8615450565b602090810291909101015280610efd8161547c565b915050610bc8565b509095945050505050565b336000908152609a60205260409020546001600160a01b031615610fc25760405162461bcd60e51b815260206004820152604560248201527f44656c65676174696f6e4d616e616765722e726567697374657241734f70657260448201527f61746f723a206f70657261746f722068617320616c726561647920726567697360648201527f7465726564000000000000000000000000000000000000000000000000000000608482015260a401610b5a565b610fcc3384612d03565b604080518082019091526060815260006020820152610fee3380836000612f9c565b336001600160a01b03167f8e8485583a2310d41f7c82b9427d0bd49bad74bb9cff9d3402a29d8f9b28a0e28560405161102791906154ff565b60405180910390a2336001600160a01b03167f02a919ed0e2acad1dd90f17ef2fa4ae5462ee1339170034a8531cca4b6708090848460405161106a929190615551565b60405180910390a250505050565b606560009054906101000a90046001600160a01b03166001600160a01b031663eab66d7a6040518163ffffffff1660e01b8152600401602060405180830381865afa1580156110cb573d6000803e3d6000fd5b505050506040513d601f19601f820116820180604052508101906110ef9190615580565b6001600160a01b0316336001600160a01b0316146111755760405162461bcd60e51b815260206004820152602a60248201527f6d73672e73656e646572206973206e6f74207065726d697373696f6e6564206160448201527f7320756e706175736572000000000000000000000000000000000000000000006064820152608401610b5a565b61117e816133ac565b50565b336001600160a01b037f000000000000000000000000000000000000000000000000000000000000000016146112085760405162461bcd60e51b815260206004820152602660248201527f44656c65676174696f6e4d616e616765723a206f6e6c7953747261746567794d60448201526530b730b3b2b960d11b6064820152608401610b5a565b6001600160a01b038084166000908152609b60205260409020541615611251576001600160a01b038084166000908152609b60205260409020541661124f818585856134b7565b505b505050565b60655460405163237dfb4760e11b81523360048201526001600160a01b03909116906346fbf68e90602401602060405180830381865afa15801561129e573d6000803e3d6000fd5b505050506040513d601f19601f820116820180604052508101906112c2919061559d565b6113345760405162461bcd60e51b815260206004820152602860248201527f6d73672e73656e646572206973206e6f74207065726d697373696f6e6564206160448201527f73207061757365720000000000000000000000000000000000000000000000006064820152608401610b5a565b606654818116146113ad5760405162461bcd60e51b815260206004820152603860248201527f5061757361626c652e70617573653a20696e76616c696420617474656d70742060448201527f746f20756e70617573652066756e6374696f6e616c69747900000000000000006064820152608401610b5a565b606681905560405181815233907fab40a374bc51de372200a8bc981af8c9ecdc08dfdaef0bb6e09f88f3c616ef3d906020015b60405180910390a250565b6001600160a01b0383166000908152609c602052604081205461141085828686611d45565b95945050505050565b600054610100900460ff16158080156114395750600054600160ff909116105b806114535750303b158015611453575060005460ff166001145b6114c55760405162461bcd60e51b815260206004820152602e60248201527f496e697469616c697a61626c653a20636f6e747261637420697320616c72656160448201527f647920696e697469616c697a65640000000000000000000000000000000000006064820152608401610b5a565b6000805460ff1916600117905580156114e8576000805461ff0019166101001790555b6114f28888613540565b604080518082018252600881527f42696e4c6179657200000000000000000000000000000000000000000000000060209182015281517f8cad95687ba82c2ce50e74f7b754645e5117c3a5bec8151c0726d5857980a866818301527fc3e1ab4858383d79d3a0e54f9365ec1da08f828fcebd1952f7ea695e26718a6081840152466060820152306080808301919091528351808303909101815260a090910190925281519101206098556115a4613640565b6115ad896136c5565b6115b686613717565b6115c2858585856137f7565b8015611608576000805461ff0019169055604051600181527f7f26b83ff96e1f2b6a682f133852f6798a09c465da95921460cefb38474024989060200160405180910390a15b505050505050505050565b336001600160a01b037f0000000000000000000000000000000000000000000000000000000000000000161461169a5760405162461bcd60e51b815260206004820152602660248201527f44656c65676174696f6e4d616e616765723a206f6e6c7953747261746567794d60448201526530b730b3b2b960d11b6064820152608401610b5a565b6001600160a01b038084166000908152609b60205260409020541615611251576001600160a01b038084166000908152609b60205260409020541661124f81858585613a0d565b6066546002906004908116036117395760405162461bcd60e51b815260206004820152601960248201527f5061757361626c653a20696e64657820697320706175736564000000000000006044820152606401610b5a565b611741613a96565b60005b888110156117ec576117dc8a8a8381811061176157611761615450565b905060200281019061177391906155ba565b89898481811061178557611785615450565b905060200281019061179791906154b5565b8989868181106117a9576117a9615450565b905060200201358888878181106117c2576117c2615450565b90506020020160208101906117d791906155d0565b613aef565b6117e58161547c565b9050611744565b50611608600160d455565b60655460405163237dfb4760e11b81523360048201526001600160a01b03909116906346fbf68e90602401602060405180830381865afa15801561183f573d6000803e3d6000fd5b505050506040513d601f19601f82011682018060405250810190611863919061559d565b6118d55760405162461bcd60e51b815260206004820152602860248201527f6d73672e73656e646572206973206e6f74207065726d697373696f6e6564206160448201527f73207061757365720000000000000000000000000000000000000000000000006064820152608401610b5a565b600019606681905560405190815233907fab40a374bc51de372200a8bc981af8c9ecdc08dfdaef0bb6e09f88f3c616ef3d9060200160405180910390a2565b6000816040516020016119279190615662565b604051602081830303815290604052805190602001209050919050565b60665460029060049081160361199c5760405162461bcd60e51b815260206004820152601960248201527f5061757361626c653a20696e64657820697320706175736564000000000000006044820152606401610b5a565b6119a4613a96565b6119b18686868686613aef565b6119bb600160d455565b505050505050565b6119cb61432f565b60a254604080516001600160a01b03928316815291831660208301527f6ed22dc7330f7d5d7c2ceacb5a19323d459493561529441177421938a434815b910160405180910390a160a280546001600160a01b0319166001600160a01b0392909216919091179055565b611a3c61432f565b61124f848484846137f7565b611a5061432f565b611a5a60006136c5565b565b4283602001511015611ae05760405162461bcd60e51b815260206004820152604160248201527f44656c65676174696f6e4d616e616765722e64656c6567617465546f4279536960448201527f676e61747572653a207374616b6572207369676e6174757265206578706972656064820152601960fa1b608482015260a401610b5a565b6000609c6000876001600160a01b03166001600160a01b031681526020019081526020016000205490506000611b1c8783888860200151611d45565b6001600160a01b0388166000908152609c602052604090206001840190558551909150611b4c9088908390614389565b611b5887878686612f9c565b50505050505050565b60606000825167ffffffffffffffff811115611b7f57611b7f614cf8565b604051908082528060200260200182016040528015611ba8578160200160208202803683370190505b50905060005b8351811015610a37576001600160a01b03851660009081526099602052604081208551909190869084908110611be657611be6615450565b60200260200101516001600160a01b03166001600160a01b0316815260200190815260200160002054828281518110611c2157611c21615450565b6020908102919091010152611c358161547c565b9050611bae565b336000908152609a60205260409020546001600160a01b0316611ced5760405162461bcd60e51b815260206004820152604760248201527f44656c65676174696f6e4d616e616765722e7570646174654f70657261746f7260448201527f4d657461646174615552493a2063616c6c6572206d75737420626520616e206f60648201527f70657261746f7200000000000000000000000000000000000000000000000000608482015260a401610b5a565b336001600160a01b03167f02a919ed0e2acad1dd90f17ef2fa4ae5462ee1339170034a8531cca4b67080908383604051611d28929190615551565b60405180910390a25050565b611d3c61432f565b61117e81613717565b604080517f39111bc4a4d688e1f685123d7497d4615370152a8ee4a0593e647bd06ad8bb0b6020808301919091526001600160a01b0387811683850152851660608301526080820186905260a08083018590528351808403909101815260c0909201909252805191012060009081611dbb612542565b60405161190160f01b602082015260228101919091526042810183905260620160408051808303601f190181529190528051602090910120979650505050505050565b6040517f94f649dd0000000000000000000000000000000000000000000000000000000081526001600160a01b038281166004830152606091829160009182917f000000000000000000000000000000000000000000000000000000000000000016906394f649dd90602401600060405180830381865afa158015611e87573d6000803e3d6000fd5b505050506040513d6000823e601f3d908101601f19168201604052611eaf91908101906156d0565b90969095509350505050565b606654606090600190600290811603611f165760405162461bcd60e51b815260206004820152601960248201527f5061757361626c653a20696e64657820697320706175736564000000000000006044820152606401610b5a565b6001600160a01b038084166000908152609b602052604090205416611fca5760405162461bcd60e51b8152602060048201526044602482018190527f44656c65676174696f6e4d616e616765722e756e64656c65676174653a207374908201527f616b6572206d7573742062652064656c65676174656420746f20756e64656c6560648201527f6761746500000000000000000000000000000000000000000000000000000000608482015260a401610b5a565b6001600160a01b038084166000908152609a602052604090205416156120585760405162461bcd60e51b815260206004820152603d60248201527f44656c65676174696f6e4d616e616765722e756e64656c65676174653a206f7060448201527f657261746f72732063616e6e6f7420626520756e64656c6567617465640000006064820152608401610b5a565b6001600160a01b0383166120d45760405162461bcd60e51b815260206004820152603c60248201527f44656c65676174696f6e4d616e616765722e756e64656c65676174653a20636160448201527f6e6e6f7420756e64656c6567617465207a65726f2061646472657373000000006064820152608401610b5a565b6001600160a01b038084166000818152609b6020526040902054909116903314806121075750336001600160a01b038216145b8061212e57506001600160a01b038181166000908152609a60205260409020600101541633145b6121a05760405162461bcd60e51b815260206004820152603d60248201527f44656c65676174696f6e4d616e616765722e756e64656c65676174653a20636160448201527f6c6c65722063616e6e6f7420756e64656c6567617465207374616b65720000006064820152608401610b5a565b6000806121ac86611dfe565b9092509050336001600160a01b0387161461220257826001600160a01b0316866001600160a01b03167ff0eddf07e6ea14f388b47e1e94a0f464ecbd9eed4171130e0fc0e99fb4030a8a60405160405180910390a35b826001600160a01b0316866001600160a01b03167ffee30966a256b71e14bc0ebfc94315e28ef4a97a7131a9e2b7a310a73af4467660405160405180910390a36001600160a01b0386166000908152609b6020526040812080546001600160a01b0319169055825190036122865760408051600081526020810190915294506123e5565b815167ffffffffffffffff8111156122a0576122a0614cf8565b6040519080825280602002602001820160405280156122c9578160200160208202803683370190505b50945060005b82518110156123e35760408051600180825281830190925260009160208083019080368337505060408051600180825281830190925292935060009291506020808301908036833701905050905084838151811061232f5761232f615450565b60200260200101518260008151811061234a5761234a615450565b60200260200101906001600160a01b031690816001600160a01b03168152505083838151811061237c5761237c615450565b60200260200101518160008151811061239757612397615450565b6020026020010181815250506123b089878b85856127cf565b8884815181106123c2576123c2615450565b602002602001018181525050505080806123db9061547c565b9150506122cf565b505b50505050919050565b61125133848484612f9c565b336000908152609a60205260409020546001600160a01b03166124ab5760405162461bcd60e51b815260206004820152604360248201527f44656c65676174696f6e4d616e616765722e6d6f646966794f70657261746f7260448201527f44657461696c733a2063616c6c6572206d75737420626520616e206f7065726160648201527f746f720000000000000000000000000000000000000000000000000000000000608482015260a401610b5a565b61117e3382612d03565b6124bd61432f565b6001600160a01b0381166125395760405162461bcd60e51b815260206004820152602660248201527f4f776e61626c653a206e6577206f776e657220697320746865207a65726f206160448201527f64647265737300000000000000000000000000000000000000000000000000006064820152608401610b5a565b61117e816136c5565b60007f00000000000000000000000000000000000000000000000000000000000000004603612572575060985490565b50604080518082018252600881527f42696e4c6179657200000000000000000000000000000000000000000000000060209182015281517f8cad95687ba82c2ce50e74f7b754645e5117c3a5bec8151c0726d5857980a866818301527fc3e1ab4858383d79d3a0e54f9365ec1da08f828fcebd1952f7ea695e26718a6081840152466060820152306080808301919091528351808303909101815260a0909101909252815191012090565b606560009054906101000a90046001600160a01b03166001600160a01b031663eab66d7a6040518163ffffffff1660e01b8152600401602060405180830381865afa158015612670573d6000803e3d6000fd5b505050506040513d601f19601f820116820180604052508101906126949190615580565b6001600160a01b0316336001600160a01b03161461271a5760405162461bcd60e51b815260206004820152602a60248201527f6d73672e73656e646572206973206e6f74207065726d697373696f6e6564206160448201527f7320756e706175736572000000000000000000000000000000000000000000006064820152608401610b5a565b6066541981196066541916146127985760405162461bcd60e51b815260206004820152603860248201527f5061757361626c652e756e70617573653a20696e76616c696420617474656d7060448201527f7420746f2070617573652066756e6374696f6e616c69747900000000000000006064820152608401610b5a565b606681905560405181815233907f3582d1828e26bf56bd801502bc021ac0bc8afb57c826e4986b45593c8fad389c906020016113e0565b60006001600160a01b0386166128735760405162461bcd60e51b815260206004820152605060248201527f44656c65676174696f6e4d616e616765722e5f72656d6f76655368617265734160448201527f6e6451756575655769746864726177616c3a207374616b65722063616e6e6f7460648201527f206265207a65726f206164647265737300000000000000000000000000000000608482015260a401610b5a565b82516000036129105760405162461bcd60e51b815260206004820152604d60248201527f44656c65676174696f6e4d616e616765722e5f72656d6f76655368617265734160448201527f6e6451756575655769746864726177616c3a207374726174656769657320636160648201527f6e6e6f7420626520656d70747900000000000000000000000000000000000000608482015260a401610b5a565b60005b8351811015612c11576001600160a01b0386161561296957612969868886848151811061294257612942615450565b602002602001015186858151811061295c5761295c615450565b60200260200101516134b7565b846001600160a01b0316876001600160a01b03161480612a3b57507f00000000000000000000000000000000000000000000000000000000000000006001600160a01b0316639b4da03d8583815181106129c5576129c5615450565b60200260200101516040518263ffffffff1660e01b81526004016129f891906001600160a01b0391909116815260200190565b602060405180830381865afa158015612a15573d6000803e3d6000fd5b505050506040513d601f19601f82011682018060405250810190612a39919061559d565b155b612b205760405162461bcd60e51b8152602060048201526084602482018190527f44656c65676174696f6e4d616e616765722e5f72656d6f76655368617265734160448301527f6e6451756575655769746864726177616c3a2077697468647261776572206d7560648301527f73742062652073616d652061646472657373206173207374616b657220696620908201527f746869726450617274795472616e7366657273466f7262696464656e2061726560a48201527f207365740000000000000000000000000000000000000000000000000000000060c482015260e401610b5a565b7f00000000000000000000000000000000000000000000000000000000000000006001600160a01b0316638c80d4e588868481518110612b6257612b62615450565b6020026020010151868581518110612b7c57612b7c615450565b60209081029190910101516040517fffffffff0000000000000000000000000000000000000000000000000000000060e086901b1681526001600160a01b0393841660048201529290911660248301526044820152606401600060405180830381600087803b158015612bee57600080fd5b505af1158015612c02573d6000803e3d6000fd5b50505050806001019050612913565b506001600160a01b038616600090815260a060205260408120805491829190612c398361547c565b919050555060006040518060e00160405280896001600160a01b03168152602001886001600160a01b03168152602001876001600160a01b031681526020018381526020014263ffffffff1681526020018681526020018581525090506000612ca182611914565b6000818152609f602052604090819020805460ff19166001179055519091507f9009ab153e8014fbfb02f2217f5cde7aa7f9ad734ae85ca3ee3f4ca2fdd499f990612cef908390859061578b565b60405180910390a198975050505050505050565b6000612d126020830183614b2f565b6001600160a01b031603612db45760405162461bcd60e51b815260206004820152605460248201527f44656c65676174696f6e4d616e616765722e5f7365744f70657261746f72446560448201527f7461696c733a2063616e6e6f742073657420606561726e696e6773526563656960648201527f7665726020746f207a65726f2061646472657373000000000000000000000000608482015260a401610b5a565b62ed4e00612dc860608301604084016157a4565b63ffffffff161115612e685760405162461bcd60e51b815260206004820152605f60248201527f44656c65676174696f6e4d616e616765722e5f7365744f70657261746f72446560448201527f7461696c733a207374616b65724f70744f757457696e646f772063616e6e6f7460648201527f206265203e204d41585f5354414b45525f4f50545f4f55545f57494e444f5700608482015260a401610b5a565b6001600160a01b0382166000908152609a60205260409081902060010154600160a01b900463ffffffff1690612ea490606084019084016157a4565b63ffffffff161015612f445760405162461bcd60e51b815260206004820152604d60248201527f44656c65676174696f6e4d616e616765722e5f7365744f70657261746f72446560448201527f7461696c733a207374616b65724f70744f757457696e646f772063616e6e6f7460648201527f2062652064656372656173656400000000000000000000000000000000000000608482015260a401610b5a565b6001600160a01b0382166000908152609a602052604090208190612f6882826157c1565b505060405133907ffebe5cd24b2cbc7b065b9d0fdeb904461e4afcff57dd57acda1e7832031ba7ac90611d289084906154ff565b606654600090600190811603612ff45760405162461bcd60e51b815260206004820152601960248201527f5061757361626c653a20696e64657820697320706175736564000000000000006044820152606401610b5a565b6001600160a01b038086166000908152609b6020526040902054161561308c5760405162461bcd60e51b815260206004820152604160248201527f44656c65676174696f6e4d616e616765722e5f64656c65676174653a2073746160448201527f6b657220697320616c7265616479206163746976656c792064656c65676174656064820152601960fa1b608482015260a401610b5a565b6001600160a01b038085166000908152609a60205260409020541661313f5760405162461bcd60e51b815260206004820152604360248201527f44656c65676174696f6e4d616e616765722e5f64656c65676174653a206f706560448201527f7261746f72206973206e6f74207265676973746572656420696e2042696e4c6160648201527f7965720000000000000000000000000000000000000000000000000000000000608482015260a401610b5a565b6001600160a01b038085166000908152609a60205260409020600101541680158015906131755750336001600160a01b03821614155b801561318a5750336001600160a01b03861614155b156132f75742846020015110156132095760405162461bcd60e51b815260206004820152603760248201527f44656c65676174696f6e4d616e616765722e5f64656c65676174653a2061707060448201527f726f766572207369676e617475726520657870697265640000000000000000006064820152608401610b5a565b6001600160a01b0381166000908152609d6020908152604080832086845290915290205460ff16156132a35760405162461bcd60e51b815260206004820152603760248201527f44656c65676174696f6e4d616e616765722e5f64656c65676174653a2061707060448201527f726f76657253616c7420616c7265616479207370656e740000000000000000006064820152608401610b5a565b6001600160a01b0381166000908152609d6020908152604080832086845282528220805460ff191660011790558501516132e4908890889085908890610a41565b90506132f582828760000151614389565b505b6001600160a01b038681166000818152609b602052604080822080546001600160a01b031916948a169485179055517fc3ee9f2e5fda98e8066a1f745b2df9285f416fe98cf2559cd21484b3d87433049190a360008061335688611dfe565b9150915060005b8251811015611608576133a4888a85848151811061337d5761337d615450565b602002602001015185858151811061339757613397615450565b6020026020010151613a0d565b60010161335d565b6001600160a01b03811661344e5760405162461bcd60e51b815260206004820152604960248201527f5061757361626c652e5f73657450617573657252656769737472793a206e657760448201527f50617573657252656769737472792063616e6e6f7420626520746865207a657260648201527f6f20616464726573730000000000000000000000000000000000000000000000608482015260a401610b5a565b606554604080516001600160a01b03928316815291831660208301527f6e9fcd539896fca60e8b0f01dd580233e48a6b0f7df013b89ba7f565869acdb6910160405180910390a1606580546001600160a01b0319166001600160a01b0392909216919091179055565b6001600160a01b038085166000908152609960209081526040808320938616835292905290812080548392906134ee90849061586b565b9091555050604080516001600160a01b0385811682528481166020830152918101839052908516907f6909600037b75d7b4733aedd815442b5ec018a827751c832aaff64eba5d6d2dd9060600161106a565b6065546001600160a01b031615801561356157506001600160a01b03821615155b6135f95760405162461bcd60e51b815260206004820152604760248201527f5061757361626c652e5f696e697469616c697a655061757365723a205f696e6960448201527f7469616c697a6550617573657228292063616e206f6e6c792062652063616c6c60648201527f6564206f6e636500000000000000000000000000000000000000000000000000608482015260a401610b5a565b606681905560405181815233907fab40a374bc51de372200a8bc981af8c9ecdc08dfdaef0bb6e09f88f3c616ef3d9060200160405180910390a261363c826133ac565b5050565b600054610100900460ff166136bd5760405162461bcd60e51b815260206004820152602b60248201527f496e697469616c697a61626c653a20636f6e7472616374206973206e6f74206960448201527f6e697469616c697a696e670000000000000000000000000000000000000000006064820152608401610b5a565b611a5a614594565b603380546001600160a01b038381166001600160a01b0319831681179093556040519116919082907f8be0079c531659141344cd1fd0a4f28419497f9722a3daafe3b4186f6b6457e090600090a35050565b62278d008111156137b65760405162461bcd60e51b815260206004820152605e60248201527f44656c65676174696f6e4d616e616765722e5f7365744d696e5769746864726160448201527f77616c44656c61793a205f6d696e5769746864726177616c44656c617920636160648201527f6e6e6f74206265203e204d41585f5749544844524157414c5f44454c41590000608482015260a401610b5a565b609e5460408051918252602082018390527f338caf1431dddfb34caa16bfc51573f97922fa2f8eb6d70d27476d8b4a89d5c3910160405180910390a1609e55565b8281146138935760405162461bcd60e51b8152602060048201526044602482018190527f44656c65676174696f6e4d616e616765722e5f73657453747261746567795769908201527f746864726177616c44656c61793a20696e707574206c656e677468206d69736d60648201527f6174636800000000000000000000000000000000000000000000000000000000608482015260a401610b5a565b8260005b818110156119bb5760008686838181106138b3576138b3615450565b90506020020160208101906138c89190614b2f565b6001600160a01b038116600090815260a160205260408120549192508686858181106138f6576138f6615450565b90506020020135905062278d0081111561399e5760405162461bcd60e51b815260206004820152606060248201527f44656c65676174696f6e4d616e616765722e5f7365745374726174656779576960448201527f746864726177616c44656c61793a205f7769746864726177616c44656c61792060648201527f63616e6e6f74206265203e204d41585f5749544844524157414c5f44454c4159608482015260a401610b5a565b6001600160a01b038316600081815260a160209081526040918290208490558151928352820184905281018290527f4be295c8d739bae6e60f607ccde1aa068970dc43209682f7290d10726efc02e59060600160405180910390a150505080613a069061547c565b9050613897565b6001600160a01b03808516600090815260996020908152604080832093861683529290529081208054839290613a4490849061587e565b9091555050604080516001600160a01b0385811682528481166020830152918101839052908516907f1ec042c965e2edd7107b51188ee0f383e22e76179041ab3a9d18ff151405166c9060600161106a565b600260d45403613ae85760405162461bcd60e51b815260206004820152601f60248201527f5265656e7472616e637947756172643a207265656e7472616e742063616c6c006044820152606401610b5a565b600260d455565b6000613afd61061187615891565b6000818152609f602052604090205490915060ff16613baa5760405162461bcd60e51b815260206004820152604360248201527f44656c65676174696f6e4d616e616765722e5f636f6d706c657465517565756560448201527f645769746864726177616c3a20616374696f6e206973206e6f7420696e20717560648201527f6575650000000000000000000000000000000000000000000000000000000000608482015260a401610b5a565b609e544290613bbf60a0890160808a016157a4565b63ffffffff16613bcf919061587e565b1115613c695760405162461bcd60e51b815260206004820152605960248201527f44656c65676174696f6e4d616e616765722e5f636f6d706c657465517565756560448201527f645769746864726177616c3a206d696e5769746864726177616c44656c61792060648201527f706572696f6420686173206e6f74207965742070617373656400000000000000608482015260a401610b5a565b613c796060870160408801614b2f565b6001600160a01b0316336001600160a01b031614613d255760405162461bcd60e51b815260206004820152605060248201527f44656c65676174696f6e4d616e616765722e5f636f6d706c657465517565756560448201527f645769746864726177616c3a206f6e6c7920776974686472617765722063616e60648201527f20636f6d706c65746520616374696f6e00000000000000000000000000000000608482015260a401610b5a565b8115613dd457613d3860a08701876154b5565b85149050613dd45760405162461bcd60e51b815260206004820152604260248201527f44656c65676174696f6e4d616e616765722e5f636f6d706c657465517565756560448201527f645769746864726177616c3a20696e707574206c656e677468206d69736d617460648201527f6368000000000000000000000000000000000000000000000000000000000000608482015260a401610b5a565b6000818152609f60205260409020805460ff191690558115613fdb5760005b613e0060a08801886154b5565b9050811015613fd5574260a16000613e1b60a08b018b6154b5565b85818110613e2b57613e2b615450565b9050602002016020810190613e409190614b2f565b6001600160a01b03168152602081019190915260400160002054613e6a60a08a0160808b016157a4565b63ffffffff16613e7a919061587e565b1115613f3a5760405162461bcd60e51b815260206004820152606860248201527f44656c65676174696f6e4d616e616765722e5f636f6d706c657465517565756560448201527f645769746864726177616c3a207769746864726177616c44656c61792070657260648201527f696f6420686173206e6f74207965742070617373656420666f7220746869732060848201527f737472617465677900000000000000000000000000000000000000000000000060a482015260c401610b5a565b613fcd613f4a6020890189614b2f565b33613f5860a08b018b6154b5565b85818110613f6857613f68615450565b9050602002016020810190613f7d9190614b2f565b613f8a60c08c018c6154b5565b86818110613f9a57613f9a615450565b905060200201358a8a87818110613fb357613fb3615450565b9050602002016020810190613fc89190614b2f565b614611565b600101613df3565b506142ed565b336000908152609b60205260408120546001600160a01b0316905b61400360a08901896154b5565b90508110156142ea574260a1600061401e60a08c018c6154b5565b8581811061402e5761402e615450565b90506020020160208101906140439190614b2f565b6001600160a01b0316815260208101919091526040016000205461406d60a08b0160808c016157a4565b63ffffffff1661407d919061587e565b111561413d5760405162461bcd60e51b815260206004820152606860248201527f44656c65676174696f6e4d616e616765722e5f636f6d706c657465517565756560448201527f645769746864726177616c3a207769746864726177616c44656c61792070657260648201527f696f6420686173206e6f74207965742070617373656420666f7220746869732060848201527f737472617465677900000000000000000000000000000000000000000000000060a482015260c401610b5a565b7f00000000000000000000000000000000000000000000000000000000000000006001600160a01b031663c4623ea13389898581811061417f5761417f615450565b90506020020160208101906141949190614b2f565b6141a160a08d018d6154b5565b868181106141b1576141b1615450565b90506020020160208101906141c69190614b2f565b6141d360c08e018e6154b5565b878181106141e3576141e3615450565b60405160e088901b7fffffffff000000000000000000000000000000000000000000000000000000001681526001600160a01b03968716600482015294861660248601529290941660448401526020909102013560648201526084019050600060405180830381600087803b15801561425b57600080fd5b505af115801561426f573d6000803e3d6000fd5b505050506001600160a01b038216156142e2576142e2823361429460a08c018c6154b5565b858181106142a4576142a4615450565b90506020020160208101906142b99190614b2f565b6142c660c08d018d6154b5565b868181106142d6576142d6615450565b90506020020135613a0d565b600101613ff6565b50505b6040518181527fc97098c2f658800b4df29001527f7324bcdffcf6e8751a699ab920a1eced5b1d9060200160405180910390a1505050505050565b600160d455565b6033546001600160a01b03163314611a5a5760405162461bcd60e51b815260206004820181905260248201527f4f776e61626c653a2063616c6c6572206973206e6f7420746865206f776e65726044820152606401610b5a565b6001600160a01b0383163b156144de576040517f1626ba7e00000000000000000000000000000000000000000000000000000000808252906001600160a01b03851690631626ba7e906143e2908690869060040161589d565b602060405180830381865afa1580156143ff573d6000803e3d6000fd5b505050506040513d601f19601f8201168201806040525081019061442391906158f3565b7fffffffff0000000000000000000000000000000000000000000000000000000016146112515760405162461bcd60e51b815260206004820152605360248201527f454950313237315369676e61747572655574696c732e636865636b5369676e6160448201527f747572655f454950313237313a2045524331323731207369676e61747572652060648201527f766572696669636174696f6e206661696c656400000000000000000000000000608482015260a401610b5a565b826001600160a01b03166144f283836146b8565b6001600160a01b0316146112515760405162461bcd60e51b815260206004820152604760248201527f454950313237315369676e61747572655574696c732e636865636b5369676e6160448201527f747572655f454950313237313a207369676e6174757265206e6f742066726f6d60648201527f207369676e657200000000000000000000000000000000000000000000000000608482015260a401610b5a565b600054610100900460ff166143285760405162461bcd60e51b815260206004820152602b60248201527f496e697469616c697a61626c653a20636f6e7472616374206973206e6f74206960448201527f6e697469616c697a696e670000000000000000000000000000000000000000006064820152608401610b5a565b6040517fc608c7f30000000000000000000000000000000000000000000000000000000081526001600160a01b03858116600483015284811660248301526044820184905282811660648301527f0000000000000000000000000000000000000000000000000000000000000000169063c608c7f390608401600060405180830381600087803b1580156146a457600080fd5b505af1158015611608573d6000803e3d6000fd5b60008060006146c785856146d4565b91509150610a3781614719565b600080825160410361470a5760208301516040840151606085015160001a6146fe8782858561487e565b94509450505050614712565b506000905060025b9250929050565b600081600481111561472d5761472d615935565b036147355750565b600181600481111561474957614749615935565b036147965760405162461bcd60e51b815260206004820152601860248201527f45434453413a20696e76616c6964207369676e617475726500000000000000006044820152606401610b5a565b60028160048111156147aa576147aa615935565b036147f75760405162461bcd60e51b815260206004820152601f60248201527f45434453413a20696e76616c6964207369676e6174757265206c656e677468006044820152606401610b5a565b600381600481111561480b5761480b615935565b0361117e5760405162461bcd60e51b815260206004820152602260248201527f45434453413a20696e76616c6964207369676e6174757265202773272076616c60448201527f75650000000000000000000000000000000000000000000000000000000000006064820152608401610b5a565b6000807f7fffffffffffffffffffffffffffffff5d576e7357a4501ddfe92f46681b20a08311156148b55750600090506003614939565b6040805160008082526020820180845289905260ff881692820192909252606081018690526080810185905260019060a0016020604051602081039080840390855afa158015614909573d6000803e3d6000fd5b5050604051601f1901519150506001600160a01b03811661493257600060019250925050614939565b9150600090505b94509492505050565b60008083601f84011261495457600080fd5b50813567ffffffffffffffff81111561496c57600080fd5b6020830191508360208260051b850101111561471257600080fd5b6000806020838503121561499a57600080fd5b823567ffffffffffffffff8111156149b157600080fd5b611eaf85828601614942565b6001600160a01b038116811461117e57600080fd5b80356149dd816149bd565b919050565b600080600080600060a086880312156149fa57600080fd5b8535614a05816149bd565b94506020860135614a15816149bd565b93506040860135614a25816149bd565b94979396509394606081013594506080013592915050565b6020808252825182820181905260009190848201906040850190845b81811015614a7557835183529284019291840191600101614a59565b50909695505050505050565b600060608284031215614a9357600080fd5b50919050565b60008083601f840112614aab57600080fd5b50813567ffffffffffffffff811115614ac357600080fd5b60208301915083602082850101111561471257600080fd5b600080600060808486031215614af057600080fd5b614afa8585614a81565b9250606084013567ffffffffffffffff811115614b1657600080fd5b614b2286828701614a99565b9497909650939450505050565b600060208284031215614b4157600080fd5b8135614b4c816149bd565b9392505050565b600080600060608486031215614b6857600080fd5b8335614b73816149bd565b92506020840135614b83816149bd565b929592945050506040919091013590565b600060208284031215614ba657600080fd5b5035919050565b60008060008060008060008060c0898b031215614bc957600080fd5b8835614bd4816149bd565b97506020890135614be4816149bd565b96506040890135955060608901359450608089013567ffffffffffffffff80821115614c0f57600080fd5b614c1b8c838d01614942565b909650945060a08b0135915080821115614c3457600080fd5b50614c418b828c01614942565b999c989b5096995094979396929594505050565b6000806000806000806000806080898b031215614c7157600080fd5b883567ffffffffffffffff80821115614c8957600080fd5b614c958c838d01614942565b909a50985060208b0135915080821115614cae57600080fd5b614cba8c838d01614942565b909850965060408b0135915080821115614cd357600080fd5b614cdf8c838d01614942565b909650945060608b0135915080821115614c3457600080fd5b634e487b7160e01b600052604160045260246000fd5b60405160e0810167ffffffffffffffff81118282101715614d3157614d31614cf8565b60405290565b6040805190810167ffffffffffffffff81118282101715614d3157614d31614cf8565b604051601f8201601f1916810167ffffffffffffffff81118282101715614d8357614d83614cf8565b604052919050565b63ffffffff8116811461117e57600080fd5b80356149dd81614d8b565b600067ffffffffffffffff821115614dc257614dc2614cf8565b5060051b60200190565b600082601f830112614ddd57600080fd5b81356020614df2614ded83614da8565b614d5a565b82815260059290921b84018101918181019086841115614e1157600080fd5b8286015b84811015614e35578035614e28816149bd565b8352918301918301614e15565b509695505050505050565b600082601f830112614e5157600080fd5b81356020614e61614ded83614da8565b82815260059290921b84018101918181019086841115614e8057600080fd5b8286015b84811015614e355780358352918301918301614e84565b600060e08284031215614ead57600080fd5b614eb5614d0e565b9050614ec0826149d2565b8152614ece602083016149d2565b6020820152614edf604083016149d2565b604082015260608201356060820152614efa60808301614d9d565b608082015260a082013567ffffffffffffffff80821115614f1a57600080fd5b614f2685838601614dcc565b60a084015260c0840135915080821115614f3f57600080fd5b50614f4c84828501614e40565b60c08301525092915050565b600060208284031215614f6a57600080fd5b813567ffffffffffffffff811115614f8157600080fd5b614f8d84828501614e9b565b949350505050565b600060208284031215614fa757600080fd5b813560ff81168114614b4c57600080fd5b801515811461117e57600080fd5b600080600080600060808688031215614fde57600080fd5b853567ffffffffffffffff80821115614ff657600080fd5b9087019060e0828a03121561500a57600080fd5b9095506020870135908082111561502057600080fd5b5061502d88828901614942565b90955093505060408601359150606086013561504881614fb8565b809150509295509295909350565b6000806000806040858703121561506c57600080fd5b843567ffffffffffffffff8082111561508457600080fd5b61509088838901614942565b909650945060208701359150808211156150a957600080fd5b506150b687828801614942565b95989497509550505050565b600080604083850312156150d557600080fd5b82356150e0816149bd565b915060208301356150f0816149bd565b809150509250929050565b60006040828403121561510d57600080fd5b615115614d37565b9050813567ffffffffffffffff8082111561512f57600080fd5b818401915084601f83011261514357600080fd5b813560208282111561515757615157614cf8565b615169601f8301601f19168201614d5a565b9250818352868183860101111561517f57600080fd5b8181850182850137600081838501015282855280860135818601525050505092915050565b600080600080600060a086880312156151bc57600080fd5b85356151c7816149bd565b945060208601356151d7816149bd565b9350604086013567ffffffffffffffff808211156151f457600080fd5b61520089838a016150fb565b9450606088013591508082111561521657600080fd5b50615223888289016150fb565b95989497509295608001359392505050565b6000806040838503121561524857600080fd5b8235615253816149bd565b9150602083013567ffffffffffffffff81111561526f57600080fd5b61527b85828601614dcc565b9150509250929050565b600081518084526020808501945080840160005b838110156152b557815187529582019590820190600101615299565b509495945050505050565b602081526000614b4c6020830184615285565b600080602083850312156152e657600080fd5b823567ffffffffffffffff8111156152fd57600080fd5b611eaf85828601614a99565b6000806040838503121561531c57600080fd5b8235615327816149bd565b946020939093013593505050565b6000806000806080858703121561534b57600080fd5b8435615356816149bd565b935060208501359250604085013561536d816149bd565b9396929550929360600135925050565b600081518084526020808501945080840160005b838110156152b55781516001600160a01b031687529582019590820190600101615391565b6040815260006153c9604083018561537d565b82810360208401526114108185615285565b6000806000606084860312156153f057600080fd5b83356153fb816149bd565b9250602084013567ffffffffffffffff81111561541757600080fd5b615423868287016150fb565b925050604084013590509250925092565b60006060828403121561544657600080fd5b614b4c8383614a81565b634e487b7160e01b600052603260045260246000fd5b634e487b7160e01b600052601160045260246000fd5b60006001820161548e5761548e615466565b5060010190565b60008235605e198336030181126154ab57600080fd5b9190910192915050565b6000808335601e198436030181126154cc57600080fd5b83018035915067ffffffffffffffff8211156154e757600080fd5b6020019150600581901b360382131561471257600080fd5b60608101823561550e816149bd565b6001600160a01b03908116835260208401359061552a826149bd565b166020830152604083013561553e81614d8b565b63ffffffff811660408401525092915050565b60208152816020820152818360408301376000818301604090810191909152601f909201601f19160101919050565b60006020828403121561559257600080fd5b8151614b4c816149bd565b6000602082840312156155af57600080fd5b8151614b4c81614fb8565b6000823560de198336030181126154ab57600080fd5b6000602082840312156155e257600080fd5b8135614b4c81614fb8565b60006001600160a01b03808351168452806020840151166020850152806040840151166040850152506060820151606084015263ffffffff608083015116608084015260a082015160e060a085015261564960e085018261537d565b905060c083015184820360c08601526114108282615285565b602081526000614b4c60208301846155ed565b600082601f83011261568657600080fd5b81516020615696614ded83614da8565b82815260059290921b840181019181810190868411156156b557600080fd5b8286015b84811015614e3557805183529183019183016156b9565b600080604083850312156156e357600080fd5b825167ffffffffffffffff808211156156fb57600080fd5b818501915085601f83011261570f57600080fd5b8151602061571f614ded83614da8565b82815260059290921b8401810191818101908984111561573e57600080fd5b948201945b83861015615765578551615756816149bd565b82529482019490820190615743565b9188015191965090935050508082111561577e57600080fd5b5061527b85828601615675565b828152604060208201526000614f8d60408301846155ed565b6000602082840312156157b657600080fd5b8135614b4c81614d8b565b81356157cc816149bd565b81546001600160a01b0319166001600160a01b038216178255506001810160208301356157f8816149bd565b81546001600160a01b0319166001600160a01b03821617825550604083013561582081614d8b565b81547fffffffffffffffff00000000ffffffffffffffffffffffffffffffffffffffff1660a09190911b77ffffffff0000000000000000000000000000000000000000161790555050565b81810381811115610a3b57610a3b615466565b80820180821115610a3b57610a3b615466565b6000610a3b3683614e9b565b82815260006020604081840152835180604085015260005b818110156158d1578581018301518582016060015282016158b5565b506000606082860101526060601f19601f830116850101925050509392505050565b60006020828403121561590557600080fd5b81517fffffffff0000000000000000000000000000000000000000000000000000000081168114614b4c57600080fd5b634e487b7160e01b600052602160045260246000fdfea26469706673582212208bb0a63349fbd1ccc4e7abb1ddca9e13e8ca119e675dffac51635fea7de5652664736f6c63430008140033",
  "devdoc": {
    "events": {
      "Initialized(uint8)": {
        "details": "Triggered when the contract has been initialized or reinitialized."
      },
      "OperatorMetadataURIUpdated(address,string)": {
        "details": "Note that these strings are *never stored in storage* and are instead purely emitted in events for off-chain indexing"
      },
      "WithdrawalQueued(bytes32,(address,address,address,uint256,uint32,address[],uint256[]))": {
        "params": {
          "withdrawal": "Is the withdrawal itself.",
          "withdrawalRoot": "Is the hash of the `withdrawal`."
        }
      }
    },
    "kind": "dev",
    "methods": {
      "calculateCurrentStakerDelegationDigestHash(address,address,uint256)": {
        "params": {
          "expiry": "The desired expiry time of the staker's signature",
          "operator": "The operator who is being delegated to",
          "staker": "The signing staker"
        }
      },
      "calculateDelegationApprovalDigestHash(address,address,address,bytes32,uint256)": {
        "params": {
          "_delegationApprover": "the operator's `delegationApprover` who will be signing the delegationHash (in general)",
          "approverSalt": "A unique and single use value associated with the approver signature.",
          "expiry": "Time after which the approver's signature becomes invalid",
          "operator": "The account receiving delegated stake",
          "staker": "The account delegating their stake"
        }
      },
      "calculateStakerDelegationDigestHash(address,uint256,address,uint256)": {
        "params": {
          "_stakerNonce": "The nonce of the staker. In practice we use the staker's current nonce, stored at `stakerNonce[staker]`",
          "expiry": "The desired expiry time of the staker's signature",
          "operator": "The operator who is being delegated to",
          "staker": "The signing staker"
        }
      },
      "completeQueuedWithdrawal((address,address,address,uint256,uint32,address[],uint256[]),address[],uint256,bool)": {
        "details": "middlewareTimesIndex is unused, but will be used in the Slasher eventuallybeaconChainETHStrategy shares are non-transferrable, so if `receiveAsTokens = false` and `withdrawal.withdrawer != withdrawal.staker`, note that any beaconChainETHStrategy shares in the `withdrawal` will be _returned to the staker_, rather than transferred to the withdrawer, unlike shares in any other strategies, which will be transferred to the withdrawer.",
        "params": {
          "middlewareTimesIndex": "is the index in the operator that the staker who triggered the withdrawal was delegated to's middleware times array",
          "receiveAsTokens": "If true, the shares specified in the withdrawal will be withdrawn from the specified strategies themselves and sent to the caller, through calls to `withdrawal.strategies[i].withdraw`. If false, then the shares in the specified strategies will simply be transferred to the caller directly.",
          "tokens": "Array in which the i-th entry specifies the `token` input to the 'withdraw' function of the i-th Strategy in the `withdrawal.strategies` array. This input can be provided with zero length if `receiveAsTokens` is set to 'false' (since in that case, this input will be unused)",
          "withdrawal": "The Withdrawal to complete."
        }
      },
      "completeQueuedWithdrawals((address,address,address,uint256,uint32,address[],uint256[])[],address[][],uint256[],bool[])": {
        "details": "See `completeQueuedWithdrawal` for relevant dev tags",
        "params": {
          "middlewareTimesIndexes": "One index to reference per Withdrawal. See `completeQueuedWithdrawal` for the usage of a single index.",
          "receiveAsTokens": "Whether or not to complete each withdrawal as tokens. See `completeQueuedWithdrawal` for the usage of a single boolean.",
          "tokens": "Array of tokens for each Withdrawal. See `completeQueuedWithdrawal` for the usage of a single array.",
          "withdrawals": "The Withdrawals to complete."
        }
      },
      "constructor": {
        "details": "Initializes the immutable addresses of the strategy mananger and slasher."
      },
      "decreaseDelegatedShares(address,address,uint256)": {
        "details": "*If the staker is actively delegated*, then decreases the `staker`'s delegated shares in `strategy` by `shares`. Otherwise does nothing.Callable only by the StrategyManager or EigenPodManager.",
        "params": {
          "shares": "The number of shares to decrease.",
          "staker": "The address to increase the delegated shares for their operator.",
          "strategy": "The strategy in which to decrease the delegated shares."
        }
      },
      "delegateTo(address,(bytes,uint256),bytes32)": {
        "details": "The approverSignatureAndExpiry is used in the event that:          1) the operator's `delegationApprover` address is set to a non-zero value.                  AND          2) neither the operator nor their `delegationApprover` is the `msg.sender`, since in the event that the operator             or their delegationApprover is the `msg.sender`, then approval is assumed.In the event that `approverSignatureAndExpiry` is not checked, its content is ignored entirely; it's recommended to use an empty input in this case to save on complexity + gas costs",
        "params": {
          "approverSalt": "A unique single use value tied to an individual signature.",
          "approverSignatureAndExpiry": "Verifies the operator approves of this delegation",
          "operator": "The account (`msg.sender`) is delegating its assets to for use in serving applications built on BinLayer."
        }
      },
      "delegateToBySignature(address,address,(bytes,uint256),(bytes,uint256),bytes32)": {
        "details": "If `staker` is an EOA, then `stakerSignature` is verified to be a valid ECDSA stakerSignature from `staker`, indicating their intention for this action.If `staker` is a contract, then `stakerSignature` will be checked according to EIP-1271.the operator's `delegationApprover` address is set to a non-zero value.neither the operator nor their `delegationApprover` is the `msg.sender`, since in the event that the operator or their delegationApprover is the `msg.sender`, then approval is assumed.This function will revert if the current `block.timestamp` is equal to or exceeds the expiryIn the case that `approverSignatureAndExpiry` is not checked, its content is ignored entirely; it's recommended to use an empty input in this case to save on complexity + gas costs",
        "params": {
          "approverSalt": "Is a salt used to help guarantee signature uniqueness. Each salt can only be used once by a given approver.",
          "approverSignatureAndExpiry": "is a parameter that will be used for verifying that the operator approves of this delegation action in the event that:",
          "operator": "The account (`staker`) is delegating its assets to for use in serving applications built on BinLayer.",
          "staker": "The account delegating stake to an `operator` account",
          "stakerSignatureAndExpiry": "Signed data from the staker authorizing delegating stake to an operator"
        }
      },
      "domainSeparator()": {
        "details": "The domain separator will change in the event of a fork that changes the ChainID.By introducing a domain separator the DApp developers are guaranteed that there can be no signature collision. for more detailed information please read EIP-712."
      },
      "getDelegatableShares(address)": {
        "details": "Returns two empty arrays in the case that the Staker has no actively-delegateable shares."
      },
      "getWithdrawalDelay(address[])": {
        "params": {
          "strategies": "The strategies to check withdrawal delays for"
        }
      },
      "increaseDelegatedShares(address,address,uint256)": {
        "details": "*If the staker is actively delegated*, then increases the `staker`'s delegated shares in `strategy` by `shares`. Otherwise does nothing.Callable only by the StrategyManager.",
        "params": {
          "shares": "The number of shares to increase.",
          "staker": "The address to increase the delegated shares for their operator.",
          "strategy": "The strategy in which to increase the delegated shares."
        }
      },
      "initialize(address,address,uint256,uint256,address[],uint256[])": {
        "details": "Initializes the addresses of the initial owner, pauser registry, and paused status. minWithdrawalDelay is set only once here"
      },
      "modifyOperatorDetails((address,address,uint32))": {
        "details": "The caller must have previously registered as an operator in BinLayer.This function will revert if the caller attempts to set their `earningsReceiver` to address(0).",
        "params": {
          "newOperatorDetails": "is the updated `OperatorDetails` for the operator, to replace their current OperatorDetails`."
        }
      },
      "owner()": {
        "details": "Returns the address of the current owner."
      },
      "pause(uint256)": {
        "details": "This function can only pause functionality, and thus cannot 'unflip' any bit in `_paused` from 1 to 0.",
        "params": {
          "newPausedStatus": "represents the new value for `_paused` to take, which means it may flip several bits at once."
        }
      },
      "registerAsOperator((address,address,uint32),string)": {
        "details": "Once an operator is registered, they cannot 'deregister' as an operator, and they will forever be considered \"delegated to themself\".This function will revert if the caller attempts to set their `earningsReceiver` to address(0).Note that the `metadataURI` is *never stored * and is only emitted in the `OperatorMetadataURIUpdated` event",
        "params": {
          "metadataURI": "is a URI for the operator's metadata, i.e. a link providing more details on the operator.",
          "registeringOperatorDetails": "is the `OperatorDetails` for the operator."
        }
      },
      "renounceOwnership()": {
        "details": "Leaves the contract without owner. It will not be possible to call `onlyOwner` functions. Can only be called by the current owner. NOTE: Renouncing ownership will leave the contract without an owner, thereby disabling any functionality that is only available to the owner."
      },
      "setMinWithdrawalDelay(uint256)": {
        "params": {
          "newMinWithdrawalDelay": "new value of `minWithdrawalDelay`."
        }
      },
      "setStrategyWithdrawalDelay(address[],uint256[])": {
        "params": {
          "strategies": "The strategies to set the minimum withdrawal delay for",
          "withdrawalDelay": "The minimum withdrawal delay to set for each strategy"
        }
      },
      "transferOwnership(address)": {
        "details": "Transfers ownership of the contract to a new account (`newOwner`). Can only be called by the current owner."
      },
      "unpause(uint256)": {
        "details": "This function can only unpause functionality, and thus cannot 'flip' any bit in `_paused` from 0 to 1.",
        "params": {
          "newPausedStatus": "represents the new value for `_paused` to take, which means it may flip several bits at once."
        }
      },
      "updateOperatorMetadataURI(string)": {
        "params": {
          "metadataURI": "The URI for metadata associated with an operator"
        }
      },
      "updateWrappedTokenGateway(address)": {
        "params": {
          "_newWrappedTokenGateway": "New wrapped token gateway address"
        }
      }
    },
    "title": "DelegationManager",
    "version": 1
  },
  "userdoc": {
    "events": {
      "MinWithdrawalDelaySet(uint256,uint256)": {
        "notice": "Emitted when the `minWithdrawalDelay` variable is modified from `previousValue` to `newValue`."
      },
      "OperatorDetailsModified(address,(address,address,uint32))": {
        "notice": "Emitted when an operator updates their OperatorDetails to @param newOperatorDetails"
      },
      "OperatorMetadataURIUpdated(address,string)": {
        "notice": "Emitted when @param operator indicates that they are updating their MetadataURI string"
      },
      "OperatorSharesDecreased(address,address,address,uint256)": {
        "notice": "Emitted whenever an operator's shares are decreased for a given strategy. Note that shares is the delta in the operator's shares."
      },
      "OperatorSharesIncreased(address,address,address,uint256)": {
        "notice": "Emitted whenever an operator's shares are increased for a given strategy. Note that shares is the delta in the operator's shares."
      },
      "Paused(address,uint256)": {
        "notice": "Emitted when the pause is triggered by `account`, and changed to `newPausedStatus`."
      },
      "PauserRegistrySet(address,address)": {
        "notice": "Emitted when the `pauserRegistry` is set to `newPauserRegistry`."
      },
      "StakerDelegated(address,address)": {
        "notice": "Emitted when @param staker delegates to @param operator."
      },
      "StakerForceUndelegated(address,address)": {
        "notice": "Emitted when @param staker is undelegated via a call not originating from the staker themself"
      },
      "StakerUndelegated(address,address)": {
        "notice": "Emitted when @param staker undelegates from @param operator."
      },
      "StrategyWithdrawalDelaySet(address,uint256,uint256)": {
        "notice": "Emitted when the `strategyWithdrawalDelay` variable is modified from `previousValue` to `newValue`."
      },
      "Unpaused(address,uint256)": {
        "notice": "Emitted when the pause is lifted by `account`, and changed to `newPausedStatus`."
      },
      "WithdrawalCompleted(bytes32)": {
        "notice": "Emitted when a queued withdrawal is completed"
      },
      "WithdrawalQueued(bytes32,(address,address,address,uint256,uint32,address[],uint256[]))": {
        "notice": "Emitted when a new withdrawal is queued."
      }
    },
    "kind": "user",
    "methods": {
      "DELEGATION_APPROVAL_TYPEHASH()": {
        "notice": "The EIP-712 typehash for the `DelegationApproval` struct used by the contract"
      },
      "DOMAIN_TYPEHASH()": {
        "notice": "The EIP-712 typehash for the contract's domain"
      },
      "STAKER_DELEGATION_TYPEHASH()": {
        "notice": "The EIP-712 typehash for the `StakerDelegation` struct used by the contract"
      },
      "calculateCurrentStakerDelegationDigestHash(address,address,uint256)": {
        "notice": "Calculates the digestHash for a `staker` to sign to delegate to an `operator`"
      },
      "calculateDelegationApprovalDigestHash(address,address,address,bytes32,uint256)": {
        "notice": "Calculates the digest hash to be signed by the operator's delegationApprove and used in the `delegateTo` and `delegateToBySignature` functions."
      },
      "calculateStakerDelegationDigestHash(address,uint256,address,uint256)": {
        "notice": "Calculates the digest hash to be signed and used in the `delegateToBySignature` function"
      },
      "calculateWithdrawalRoot((address,address,address,uint256,uint32,address[],uint256[]))": {
        "notice": "Returns the keccak256 hash of `withdrawal`."
      },
      "completeQueuedWithdrawal((address,address,address,uint256,uint32,address[],uint256[]),address[],uint256,bool)": {
        "notice": "Used to complete the specified `withdrawal`. The caller must match `withdrawal.withdrawer`"
      },
      "completeQueuedWithdrawals((address,address,address,uint256,uint32,address[],uint256[])[],address[][],uint256[],bool[])": {
        "notice": "Array-ified version of `completeQueuedWithdrawal`. Used to complete the specified `withdrawals`. The function caller must match `withdrawals[...].withdrawer`"
      },
      "cumulativeWithdrawalsQueued(address)": {
        "notice": "Mapping: staker => cumulative number of queued withdrawals they have ever initiated."
      },
      "decreaseDelegatedShares(address,address,uint256)": {
        "notice": "Decreases a staker's delegated share balance in a strategy."
      },
      "delegateTo(address,(bytes,uint256),bytes32)": {
        "notice": "Caller delegates their stake to an operator."
      },
      "delegateToBySignature(address,address,(bytes,uint256),(bytes,uint256),bytes32)": {
        "notice": "Caller delegates a staker's stake to an operator with valid signatures from both parties."
      },
      "delegatedTo(address)": {
        "notice": "Mapping: staker => operator whom the staker is currently delegated to."
      },
      "delegationApprover(address)": {
        "notice": "Returns the delegationApprover account for an operator"
      },
      "delegationApproverSaltIsSpent(address,bytes32)": {
        "notice": "Mapping: delegationApprover => 32-byte salt => whether or not the salt has already been used by the delegationApprover."
      },
      "domainSeparator()": {
        "notice": "Getter function for the current EIP-712 domain separator for this contract."
      },
      "getDelegatableShares(address)": {
        "notice": "Returns the number of actively-delegatable shares a staker has across all strategies."
      },
      "getOperatorShares(address,address[])": {
        "notice": "Given array of strategies, returns array of shares for the operator"
      },
      "getWithdrawalDelay(address[])": {
        "notice": "Given a list of strategies, return the minimum cooldown that must pass to withdraw from all the inputted strategies. Return value is >= minWithdrawalDelay as this is the global min withdrawal delay."
      },
      "increaseDelegatedShares(address,address,uint256)": {
        "notice": "Increases a staker's delegated share balance in a strategy."
      },
      "isDelegated(address)": {
        "notice": "Returns 'true' if `staker` *is* actively delegated, and 'false' otherwise."
      },
      "isOperator(address)": {
        "notice": "Returns true is an operator has previously registered for delegation."
      },
      "minWithdrawalDelay()": {
        "notice": "Global minimum withdrawal delay for all strategy withdrawals. In a prior Goerli release, we only had a global min withdrawal delay across all strategies. In addition, we now also configure withdrawal delays on a per-strategy basis. To withdraw from a strategy, max(minWithdrawalDelay, strategyWithdrawalDelay[strategy]) number of timestamp must have passed. See mapping strategyWithdrawalDelay below for per-strategy withdrawal delays."
      },
      "modifyOperatorDetails((address,address,uint32))": {
        "notice": "Updates an operator's stored `OperatorDetails`."
      },
      "operatorDetails(address)": {
        "notice": "Returns the OperatorDetails struct associated with an `operator`."
      },
      "operatorShares(address,address)": {
        "notice": "returns the total number of shares in `strategy` that are delegated to `operator`.Mapping: operator => strategy => total number of shares in the strategy delegated to the operator."
      },
      "pause(uint256)": {
        "notice": "This function is used to pause an BinLayer contract's functionality. It is permissioned to the `pauser` address, which is expected to be a low threshold multisig."
      },
      "pauseAll()": {
        "notice": "Alias for `pause(type(uint256).max)`."
      },
      "paused()": {
        "notice": "Returns the current paused status as a uint256."
      },
      "paused(uint8)": {
        "notice": "Returns 'true' if the `indexed`th bit of `_paused` is 1, and 'false' otherwise"
      },
      "pauserRegistry()": {
        "notice": "Address of the `PauserRegistry` contract that this contract defers to for determining access control (for pausing)."
      },
      "pendingWithdrawals(bytes32)": {
        "notice": "Mapping: hash of withdrawal inputs, aka 'withdrawalRoot' => whether the withdrawal is pending"
      },
      "queueWithdrawals((address[],uint256[],address)[])": {
        "notice": "Allows a staker to withdraw some shares. Withdrawn shares/strategies are immediately removed from the staker. If the staker is delegated, withdrawn shares/strategies are also removed from their operator. All withdrawn shares/strategies are placed in a queue and can be fully withdrawn after a delay."
      },
      "registerAsOperator((address,address,uint32),string)": {
        "notice": "Registers the caller as an operator in BinLayer."
      },
      "setMinWithdrawalDelay(uint256)": {
        "notice": "Owner-only function for modifying the value of the `minWithdrawalDelay` variable."
      },
      "setPauserRegistry(address)": {
        "notice": "Allows the unpauser to set a new pauser registry"
      },
      "setStrategyWithdrawalDelay(address[],uint256[])": {
        "notice": "Called by owner to set the minimum withdrawal delay for each passed in strategy Note that the min cooldown to complete a withdrawal of a strategy is MAX(minWithdrawalDelay, strategyWithdrawalDelay[strategy])"
      },
      "slasher()": {
        "notice": "The Slasher contract for BinLayer"
      },
      "stakerNonce(address)": {
        "notice": "Mapping: staker => number of signed messages (used in `delegateToBySignature`) from the staker that this contract has already checked."
      },
      "stakerOptOutWindow(address)": {
        "notice": "Returns the stakerOptOutWindow for an operator"
      },
      "strategyManager()": {
        "notice": "The StrategyManager contract for BinLayer"
      },
      "strategyWithdrawalDelay(address)": {
        "notice": "Minimum delay enforced by this contract per Strategy for completing queued withdrawals. Measured in timestamp, and adjustable by this contract's owner, up to a maximum of `MAX_WITHDRAWAL_DELAY`. Minimum value is 0 (i.e. no delay enforced)."
      },
      "undelegate(address)": {
        "notice": "Allows the staker, the staker's operator, or that operator's delegationApprover to undelegate a staker from their operator. Undelegation immediately removes ALL active shares/strategies from both the staker and operator, and places the shares and strategies in the withdrawal queue"
      },
      "unpause(uint256)": {
        "notice": "This function is used to unpause an BinLayer contract's functionality. It is permissioned to the `unpauser` address, which is expected to be a high threshold multisig or governance contract."
      },
      "updateOperatorMetadataURI(string)": {
        "notice": "Called by an operator to emit an `OperatorMetadataURIUpdated` event indicating the information has updated."
      },
      "updateWrappedTokenGateway(address)": {
        "notice": "Called by owner to update the wrapped token gateway"
      },
      "wrappedTokenGateway()": {
        "notice": "Wrapped token gateway"
      }
    },
    "notice": "This is the contract for delegation in BinLayer. The main functionalities of this contract are - enabling anyone to register as an operator in BinLayer - allowing operators to specify parameters related to stakers who delegate to them - enabling any staker to delegate its stake to the operator of its choice (a given staker can only delegate to a single operator at a time) - enabling a staker to undelegate its assets from the operator it is delegated to (performed as part of the withdrawal process, initiated through the StrategyManager)",
    "version": 1
  },
  "storageLayout": {
    "storage": [
      {
        "astId": 139,
        "contract": "contracts/core/DelegationManager.sol:DelegationManager",
        "label": "_initialized",
        "offset": 0,
        "slot": "0",
        "type": "t_uint8"
      },
      {
        "astId": 142,
        "contract": "contracts/core/DelegationManager.sol:DelegationManager",
        "label": "_initializing",
        "offset": 1,
        "slot": "0",
        "type": "t_bool"
      },
      {
        "astId": 766,
        "contract": "contracts/core/DelegationManager.sol:DelegationManager",
        "label": "__gap",
        "offset": 0,
        "slot": "1",
        "type": "t_array(t_uint256)50_storage"
      },
      {
        "astId": 11,
        "contract": "contracts/core/DelegationManager.sol:DelegationManager",
        "label": "_owner",
        "offset": 0,
        "slot": "51",
        "type": "t_address"
      },
      {
        "astId": 131,
        "contract": "contracts/core/DelegationManager.sol:DelegationManager",
        "label": "__gap",
        "offset": 0,
        "slot": "52",
        "type": "t_array(t_uint256)49_storage"
      },
      {
        "astId": 10308,
        "contract": "contracts/core/DelegationManager.sol:DelegationManager",
        "label": "pauserRegistry",
        "offset": 0,
        "slot": "101",
        "type": "t_contract(IPauserRegistry)7893"
      },
      {
        "astId": 10311,
        "contract": "contracts/core/DelegationManager.sol:DelegationManager",
        "label": "_paused",
        "offset": 0,
        "slot": "102",
        "type": "t_uint256"
      },
      {
        "astId": 10593,
        "contract": "contracts/core/DelegationManager.sol:DelegationManager",
        "label": "__gap",
        "offset": 0,
        "slot": "103",
        "type": "t_array(t_uint256)49_storage"
      },
      {
        "astId": 5882,
        "contract": "contracts/core/DelegationManager.sol:DelegationManager",
        "label": "_DOMAIN_SEPARATOR",
        "offset": 0,
        "slot": "152",
        "type": "t_bytes32"
      },
      {
        "astId": 5901,
        "contract": "contracts/core/DelegationManager.sol:DelegationManager",
        "label": "operatorShares",
        "offset": 0,
        "slot": "153",
        "type": "t_mapping(t_address,t_mapping(t_contract(IStrategy)8266,t_uint256))"
      },
      {
        "astId": 5907,
        "contract": "contracts/core/DelegationManager.sol:DelegationManager",
        "label": "_operatorDetails",
        "offset": 0,
        "slot": "154",
        "type": "t_mapping(t_address,t_struct(OperatorDetails)7271_storage)"
      },
      {
        "astId": 5912,
        "contract": "contracts/core/DelegationManager.sol:DelegationManager",
        "label": "delegatedTo",
        "offset": 0,
        "slot": "155",
        "type": "t_mapping(t_address,t_address)"
      },
      {
        "astId": 5917,
        "contract": "contracts/core/DelegationManager.sol:DelegationManager",
        "label": "stakerNonce",
        "offset": 0,
        "slot": "156",
        "type": "t_mapping(t_address,t_uint256)"
      },
      {
        "astId": 5924,
        "contract": "contracts/core/DelegationManager.sol:DelegationManager",
        "label": "delegationApproverSaltIsSpent",
        "offset": 0,
        "slot": "157",
        "type": "t_mapping(t_address,t_mapping(t_bytes32,t_bool))"
      },
      {
        "astId": 5927,
        "contract": "contracts/core/DelegationManager.sol:DelegationManager",
        "label": "minWithdrawalDelay",
        "offset": 0,
        "slot": "158",
        "type": "t_uint256"
      },
      {
        "astId": 5932,
        "contract": "contracts/core/DelegationManager.sol:DelegationManager",
        "label": "pendingWithdrawals",
        "offset": 0,
        "slot": "159",
        "type": "t_mapping(t_bytes32,t_bool)"
      },
      {
        "astId": 5937,
        "contract": "contracts/core/DelegationManager.sol:DelegationManager",
        "label": "cumulativeWithdrawalsQueued",
        "offset": 0,
        "slot": "160",
        "type": "t_mapping(t_address,t_uint256)"
      },
      {
        "astId": 5943,
        "contract": "contracts/core/DelegationManager.sol:DelegationManager",
        "label": "strategyWithdrawalDelay",
        "offset": 0,
        "slot": "161",
        "type": "t_mapping(t_contract(IStrategy)8266,t_uint256)"
      },
      {
        "astId": 5946,
        "contract": "contracts/core/DelegationManager.sol:DelegationManager",
        "label": "wrappedTokenGateway",
        "offset": 0,
        "slot": "162",
        "type": "t_address"
      },
      {
        "astId": 5969,
        "contract": "contracts/core/DelegationManager.sol:DelegationManager",
        "label": "__gap",
        "offset": 0,
        "slot": "163",
        "type": "t_array(t_uint256)49_storage"
      },
      {
        "astId": 316,
        "contract": "contracts/core/DelegationManager.sol:DelegationManager",
        "label": "_status",
        "offset": 0,
        "slot": "212",
        "type": "t_uint256"
      },
      {
        "astId": 385,
        "contract": "contracts/core/DelegationManager.sol:DelegationManager",
        "label": "__gap",
        "offset": 0,
        "slot": "213",
        "type": "t_array(t_uint256)49_storage"
      }
    ],
    "types": {
      "t_address": {
        "encoding": "inplace",
        "label": "address",
        "numberOfBytes": "20"
      },
      "t_array(t_uint256)49_storage": {
        "base": "t_uint256",
        "encoding": "inplace",
        "label": "uint256[49]",
        "numberOfBytes": "1568"
      },
      "t_array(t_uint256)50_storage": {
        "base": "t_uint256",
        "encoding": "inplace",
        "label": "uint256[50]",
        "numberOfBytes": "1600"
      },
      "t_bool": {
        "encoding": "inplace",
        "label": "bool",
        "numberOfBytes": "1"
      },
      "t_bytes32": {
        "encoding": "inplace",
        "label": "bytes32",
        "numberOfBytes": "32"
      },
      "t_contract(IPauserRegistry)7893": {
        "encoding": "inplace",
        "label": "contract IPauserRegistry",
        "numberOfBytes": "20"
      },
      "t_contract(IStrategy)8266": {
        "encoding": "inplace",
        "label": "contract IStrategy",
        "numberOfBytes": "20"
      },
      "t_mapping(t_address,t_address)": {
        "encoding": "mapping",
        "key": "t_address",
        "label": "mapping(address => address)",
        "numberOfBytes": "32",
        "value": "t_address"
      },
      "t_mapping(t_address,t_mapping(t_bytes32,t_bool))": {
        "encoding": "mapping",
        "key": "t_address",
        "label": "mapping(address => mapping(bytes32 => bool))",
        "numberOfBytes": "32",
        "value": "t_mapping(t_bytes32,t_bool)"
      },
      "t_mapping(t_address,t_mapping(t_contract(IStrategy)8266,t_uint256))": {
        "encoding": "mapping",
        "key": "t_address",
        "label": "mapping(address => mapping(contract IStrategy => uint256))",
        "numberOfBytes": "32",
        "value": "t_mapping(t_contract(IStrategy)8266,t_uint256)"
      },
      "t_mapping(t_address,t_struct(OperatorDetails)7271_storage)": {
        "encoding": "mapping",
        "key": "t_address",
        "label": "mapping(address => struct IDelegationManager.OperatorDetails)",
        "numberOfBytes": "32",
        "value": "t_struct(OperatorDetails)7271_storage"
      },
      "t_mapping(t_address,t_uint256)": {
        "encoding": "mapping",
        "key": "t_address",
        "label": "mapping(address => uint256)",
        "numberOfBytes": "32",
        "value": "t_uint256"
      },
      "t_mapping(t_bytes32,t_bool)": {
        "encoding": "mapping",
        "key": "t_bytes32",
        "label": "mapping(bytes32 => bool)",
        "numberOfBytes": "32",
        "value": "t_bool"
      },
      "t_mapping(t_contract(IStrategy)8266,t_uint256)": {
        "encoding": "mapping",
        "key": "t_contract(IStrategy)8266",
        "label": "mapping(contract IStrategy => uint256)",
        "numberOfBytes": "32",
        "value": "t_uint256"
      },
      "t_struct(OperatorDetails)7271_storage": {
        "encoding": "inplace",
        "label": "struct IDelegationManager.OperatorDetails",
        "members": [
          {
            "astId": 7264,
            "contract": "contracts/core/DelegationManager.sol:DelegationManager",
            "label": "earningsReceiver",
            "offset": 0,
            "slot": "0",
            "type": "t_address"
          },
          {
            "astId": 7267,
            "contract": "contracts/core/DelegationManager.sol:DelegationManager",
            "label": "delegationApprover",
            "offset": 0,
            "slot": "1",
            "type": "t_address"
          },
          {
            "astId": 7270,
            "contract": "contracts/core/DelegationManager.sol:DelegationManager",
            "label": "stakerOptOutWindow",
            "offset": 20,
            "slot": "1",
            "type": "t_uint32"
          }
        ],
        "numberOfBytes": "64"
      },
      "t_uint256": {
        "encoding": "inplace",
        "label": "uint256",
        "numberOfBytes": "32"
      },
      "t_uint32": {
        "encoding": "inplace",
        "label": "uint32",
        "numberOfBytes": "4"
      },
      "t_uint8": {
        "encoding": "inplace",
        "label": "uint8",
        "numberOfBytes": "1"
      }
    }
  }
}