{
  "address": "0x073402A2BA391fdBf8BC77f38e8F0b08db9D5668",
  "abi": [
    {
      "inputs": [
        {
          "internalType": "contract IStrategyManager",
          "name": "",
          "type": "address"
        },
        {
          "internalType": "contract IDelegationManager",
          "name": "",
          "type": "address"
        }
      ],
      "stateMutability": "nonpayable",
      "type": "constructor"
    },
    {
      "anonymous": false,
      "inputs": [
        {
          "indexed": true,
          "internalType": "address",
          "name": "previouslySlashedAddress",
          "type": "address"
        }
      ],
      "name": "FrozenStatusReset",
      "type": "event"
    },
    {
      "anonymous": false,
      "inputs": [
        {
          "indexed": false,
          "internalType": "uint8",
          "name": "version",
          "type": "uint8"
        }
      ],
      "name": "Initialized",
      "type": "event"
    },
    {
      "anonymous": false,
      "inputs": [
        {
          "indexed": false,
          "internalType": "address",
          "name": "operator",
          "type": "address"
        },
        {
          "indexed": false,
          "internalType": "uint256",
          "name": "index",
          "type": "uint256"
        },
        {
          "indexed": false,
          "internalType": "uint32",
          "name": "stalestUpdateTimestamp",
          "type": "uint32"
        },
        {
          "indexed": false,
          "internalType": "uint32",
          "name": "latestServeUntilTimestamp",
          "type": "uint32"
        }
      ],
      "name": "MiddlewareTimesAdded",
      "type": "event"
    },
    {
      "anonymous": false,
      "inputs": [
        {
          "indexed": true,
          "internalType": "address",
          "name": "slashedOperator",
          "type": "address"
        },
        {
          "indexed": true,
          "internalType": "address",
          "name": "slashingContract",
          "type": "address"
        }
      ],
      "name": "OperatorFrozen",
      "type": "event"
    },
    {
      "anonymous": false,
      "inputs": [
        {
          "indexed": true,
          "internalType": "address",
          "name": "operator",
          "type": "address"
        },
        {
          "indexed": true,
          "internalType": "address",
          "name": "contractAddress",
          "type": "address"
        }
      ],
      "name": "OptedIntoSlashing",
      "type": "event"
    },
    {
      "anonymous": false,
      "inputs": [
        {
          "indexed": true,
          "internalType": "address",
          "name": "previousOwner",
          "type": "address"
        },
        {
          "indexed": true,
          "internalType": "address",
          "name": "newOwner",
          "type": "address"
        }
      ],
      "name": "OwnershipTransferred",
      "type": "event"
    },
    {
      "anonymous": false,
      "inputs": [
        {
          "indexed": true,
          "internalType": "address",
          "name": "account",
          "type": "address"
        },
        {
          "indexed": false,
          "internalType": "uint256",
          "name": "newPausedStatus",
          "type": "uint256"
        }
      ],
      "name": "Paused",
      "type": "event"
    },
    {
      "anonymous": false,
      "inputs": [
        {
          "indexed": false,
          "internalType": "contract IPauserRegistry",
          "name": "pauserRegistry",
          "type": "address"
        },
        {
          "indexed": false,
          "internalType": "contract IPauserRegistry",
          "name": "newPauserRegistry",
          "type": "address"
        }
      ],
      "name": "PauserRegistrySet",
      "type": "event"
    },
    {
      "anonymous": false,
      "inputs": [
        {
          "indexed": true,
          "internalType": "address",
          "name": "operator",
          "type": "address"
        },
        {
          "indexed": true,
          "internalType": "address",
          "name": "contractAddress",
          "type": "address"
        },
        {
          "indexed": false,
          "internalType": "uint32",
          "name": "contractCanSlashOperatorUntilTimestamp",
          "type": "uint32"
        }
      ],
      "name": "SlashingAbilityRevoked",
      "type": "event"
    },
    {
      "anonymous": false,
      "inputs": [
        {
          "indexed": true,
          "internalType": "address",
          "name": "account",
          "type": "address"
        },
        {
          "indexed": false,
          "internalType": "uint256",
          "name": "newPausedStatus",
          "type": "uint256"
        }
      ],
      "name": "Unpaused",
      "type": "event"
    },
    {
      "inputs": [
        {
          "internalType": "address",
          "name": "",
          "type": "address"
        },
        {
          "internalType": "address",
          "name": "",
          "type": "address"
        }
      ],
      "name": "canSlash",
      "outputs": [
        {
          "internalType": "bool",
          "name": "",
          "type": "bool"
        }
      ],
      "stateMutability": "view",
      "type": "function"
    },
    {
      "inputs": [
        {
          "internalType": "address",
          "name": "",
          "type": "address"
        },
        {
          "internalType": "uint32",
          "name": "",
          "type": "uint32"
        },
        {
          "internalType": "uint256",
          "name": "",
          "type": "uint256"
        }
      ],
      "name": "canWithdraw",
      "outputs": [
        {
          "internalType": "bool",
          "name": "",
          "type": "bool"
        }
      ],
      "stateMutability": "nonpayable",
      "type": "function"
    },
    {
      "inputs": [
        {
          "internalType": "address",
          "name": "",
          "type": "address"
        },
        {
          "internalType": "address",
          "name": "",
          "type": "address"
        }
      ],
      "name": "contractCanSlashOperatorUntilTimestamp",
      "outputs": [
        {
          "internalType": "uint32",
          "name": "",
          "type": "uint32"
        }
      ],
      "stateMutability": "view",
      "type": "function"
    },
    {
      "inputs": [],
      "name": "delegation",
      "outputs": [
        {
          "internalType": "contract IDelegationManager",
          "name": "",
          "type": "address"
        }
      ],
      "stateMutability": "view",
      "type": "function"
    },
    {
      "inputs": [
        {
          "internalType": "address",
          "name": "",
          "type": "address"
        }
      ],
      "name": "freezeOperator",
      "outputs": [],
      "stateMutability": "nonpayable",
      "type": "function"
    },
    {
      "inputs": [
        {
          "internalType": "address",
          "name": "",
          "type": "address"
        },
        {
          "internalType": "uint32",
          "name": "",
          "type": "uint32"
        }
      ],
      "name": "getCorrectValueForInsertAfter",
      "outputs": [
        {
          "internalType": "uint256",
          "name": "",
          "type": "uint256"
        }
      ],
      "stateMutability": "view",
      "type": "function"
    },
    {
      "inputs": [
        {
          "internalType": "address",
          "name": "",
          "type": "address"
        },
        {
          "internalType": "uint32",
          "name": "",
          "type": "uint32"
        }
      ],
      "name": "getMiddlewareTimesIndexServeUntilTimestamp",
      "outputs": [
        {
          "internalType": "uint32",
          "name": "",
          "type": "uint32"
        }
      ],
      "stateMutability": "view",
      "type": "function"
    },
    {
      "inputs": [
        {
          "internalType": "address",
          "name": "",
          "type": "address"
        },
        {
          "internalType": "uint32",
          "name": "",
          "type": "uint32"
        }
      ],
      "name": "getMiddlewareTimesIndexStalestUpdateTimestamp",
      "outputs": [
        {
          "internalType": "uint32",
          "name": "",
          "type": "uint32"
        }
      ],
      "stateMutability": "view",
      "type": "function"
    },
    {
      "inputs": [
        {
          "internalType": "address",
          "name": "",
          "type": "address"
        },
        {
          "internalType": "contract IPauserRegistry",
          "name": "",
          "type": "address"
        },
        {
          "internalType": "uint256",
          "name": "",
          "type": "uint256"
        }
      ],
      "name": "initialize",
      "outputs": [],
      "stateMutability": "nonpayable",
      "type": "function"
    },
    {
      "inputs": [
        {
          "internalType": "address",
          "name": "",
          "type": "address"
        }
      ],
      "name": "isFrozen",
      "outputs": [
        {
          "internalType": "bool",
          "name": "",
          "type": "bool"
        }
      ],
      "stateMutability": "view",
      "type": "function"
    },
    {
      "inputs": [
        {
          "internalType": "address",
          "name": "",
          "type": "address"
        },
        {
          "internalType": "address",
          "name": "",
          "type": "address"
        }
      ],
      "name": "latestUpdateTimestamp",
      "outputs": [
        {
          "internalType": "uint32",
          "name": "",
          "type": "uint32"
        }
      ],
      "stateMutability": "view",
      "type": "function"
    },
    {
      "inputs": [
        {
          "internalType": "address",
          "name": "",
          "type": "address"
        }
      ],
      "name": "middlewareTimesLength",
      "outputs": [
        {
          "internalType": "uint256",
          "name": "",
          "type": "uint256"
        }
      ],
      "stateMutability": "view",
      "type": "function"
    },
    {
      "inputs": [
        {
          "internalType": "address",
          "name": "",
          "type": "address"
        },
        {
          "internalType": "uint256",
          "name": "",
          "type": "uint256"
        }
      ],
      "name": "operatorToMiddlewareTimes",
      "outputs": [
        {
          "components": [
            {
              "internalType": "uint32",
              "name": "stalestUpdateTimestamp",
              "type": "uint32"
            },
            {
              "internalType": "uint32",
              "name": "latestServeUntilTimestamp",
              "type": "uint32"
            }
          ],
          "internalType": "struct ISlasher.MiddlewareTimes",
          "name": "",
          "type": "tuple"
        }
      ],
      "stateMutability": "view",
      "type": "function"
    },
    {
      "inputs": [
        {
          "internalType": "address",
          "name": "",
          "type": "address"
        },
        {
          "internalType": "address",
          "name": "",
          "type": "address"
        }
      ],
      "name": "operatorWhitelistedContractsLinkedListEntry",
      "outputs": [
        {
          "internalType": "bool",
          "name": "",
          "type": "bool"
        },
        {
          "internalType": "uint256",
          "name": "",
          "type": "uint256"
        },
        {
          "internalType": "uint256",
          "name": "",
          "type": "uint256"
        }
      ],
      "stateMutability": "view",
      "type": "function"
    },
    {
      "inputs": [
        {
          "internalType": "address",
          "name": "",
          "type": "address"
        }
      ],
      "name": "operatorWhitelistedContractsLinkedListSize",
      "outputs": [
        {
          "internalType": "uint256",
          "name": "",
          "type": "uint256"
        }
      ],
      "stateMutability": "view",
      "type": "function"
    },
    {
      "inputs": [
        {
          "internalType": "address",
          "name": "",
          "type": "address"
        }
      ],
      "name": "optIntoSlashing",
      "outputs": [],
      "stateMutability": "nonpayable",
      "type": "function"
    },
    {
      "inputs": [],
      "name": "owner",
      "outputs": [
        {
          "internalType": "address",
          "name": "",
          "type": "address"
        }
      ],
      "stateMutability": "view",
      "type": "function"
    },
    {
      "inputs": [
        {
          "internalType": "uint256",
          "name": "newPausedStatus",
          "type": "uint256"
        }
      ],
      "name": "pause",
      "outputs": [],
      "stateMutability": "nonpayable",
      "type": "function"
    },
    {
      "inputs": [],
      "name": "pauseAll",
      "outputs": [],
      "stateMutability": "nonpayable",
      "type": "function"
    },
    {
      "inputs": [
        {
          "internalType": "uint8",
          "name": "index",
          "type": "uint8"
        }
      ],
      "name": "paused",
      "outputs": [
        {
          "internalType": "bool",
          "name": "",
          "type": "bool"
        }
      ],
      "stateMutability": "view",
      "type": "function"
    },
    {
      "inputs": [],
      "name": "paused",
      "outputs": [
        {
          "internalType": "uint256",
          "name": "",
          "type": "uint256"
        }
      ],
      "stateMutability": "view",
      "type": "function"
    },
    {
      "inputs": [],
      "name": "pauserRegistry",
      "outputs": [
        {
          "internalType": "contract IPauserRegistry",
          "name": "",
          "type": "address"
        }
      ],
      "stateMutability": "view",
      "type": "function"
    },
    {
      "inputs": [
        {
          "internalType": "address",
          "name": "",
          "type": "address"
        },
        {
          "internalType": "uint32",
          "name": "",
          "type": "uint32"
        }
      ],
      "name": "recordFirstStakeUpdate",
      "outputs": [],
      "stateMutability": "nonpayable",
      "type": "function"
    },
    {
      "inputs": [
        {
          "internalType": "address",
          "name": "",
          "type": "address"
        },
        {
          "internalType": "uint32",
          "name": "",
          "type": "uint32"
        }
      ],
      "name": "recordLastStakeUpdateAndRevokeSlashingAbility",
      "outputs": [],
      "stateMutability": "nonpayable",
      "type": "function"
    },
    {
      "inputs": [
        {
          "internalType": "address",
          "name": "",
          "type": "address"
        },
        {
          "internalType": "uint32",
          "name": "",
          "type": "uint32"
        },
        {
          "internalType": "uint32",
          "name": "",
          "type": "uint32"
        },
        {
          "internalType": "uint256",
          "name": "",
          "type": "uint256"
        }
      ],
      "name": "recordStakeUpdate",
      "outputs": [],
      "stateMutability": "nonpayable",
      "type": "function"
    },
    {
      "inputs": [],
      "name": "renounceOwnership",
      "outputs": [],
      "stateMutability": "nonpayable",
      "type": "function"
    },
    {
      "inputs": [
        {
          "internalType": "address[]",
          "name": "",
          "type": "address[]"
        }
      ],
      "name": "resetFrozenStatus",
      "outputs": [],
      "stateMutability": "nonpayable",
      "type": "function"
    },
    {
      "inputs": [
        {
          "internalType": "contract IPauserRegistry",
          "name": "newPauserRegistry",
          "type": "address"
        }
      ],
      "name": "setPauserRegistry",
      "outputs": [],
      "stateMutability": "nonpayable",
      "type": "function"
    },
    {
      "inputs": [],
      "name": "strategyManager",
      "outputs": [
        {
          "internalType": "contract IStrategyManager",
          "name": "",
          "type": "address"
        }
      ],
      "stateMutability": "view",
      "type": "function"
    },
    {
      "inputs": [
        {
          "internalType": "address",
          "name": "newOwner",
          "type": "address"
        }
      ],
      "name": "transferOwnership",
      "outputs": [],
      "stateMutability": "nonpayable",
      "type": "function"
    },
    {
      "inputs": [
        {
          "internalType": "uint256",
          "name": "newPausedStatus",
          "type": "uint256"
        }
      ],
      "name": "unpause",
      "outputs": [],
      "stateMutability": "nonpayable",
      "type": "function"
    },
    {
      "inputs": [
        {
          "internalType": "address",
          "name": "",
          "type": "address"
        },
        {
          "internalType": "address",
          "name": "",
          "type": "address"
        }
      ],
      "name": "whitelistedContractDetails",
      "outputs": [
        {
          "components": [
            {
              "internalType": "uint32",
              "name": "registrationMayBeginAtTimestamp",
              "type": "uint32"
            },
            {
              "internalType": "uint32",
              "name": "contractCanSlashOperatorUntilTimestamp",
              "type": "uint32"
            },
            {
              "internalType": "uint32",
              "name": "latestUpdateTimestamp",
              "type": "uint32"
            }
          ],
          "internalType": "struct ISlasher.MiddlewareDetails",
          "name": "",
          "type": "tuple"
        }
      ],
      "stateMutability": "view",
      "type": "function"
    }
  ],
  "transactionHash": "0xcece24c660504abd284593f96dab8becadc8a7da95fa151386269486af0e7ccf",
  "args": [
    "0xB36307B06beC1Fe002f08f98B223A62C1E3AFb88",
    "0xDF8843c6580BC4b92B203d63E0aA662536eD8B7E"
  ],
  "numDeployments": 1,
  "solcInputHash": "73a843c7df9a0737c5f562139718a87a",
  "bytecode": "0x608060405234801561001057600080fd5b5060405161101b38038061101b83398101604081905261002f9161004e565b5050610088565b6001600160a01b038116811461004b57600080fd5b50565b6000806040838503121561006157600080fd5b825161006c81610036565b602084015190925061007d81610036565b809150509250929050565b610f84806100976000396000f3fe608060405234801561001057600080fd5b50600436106101f05760003560e01c8063855fcc4a1161010f578063df5cf723116100a2578063e9b164e811610071578063e9b164e814610430578063f2fde38b1461044c578063f73b75191461027e578063fabc1cbc1461045f57600080fd5b8063df5cf7231461028f578063e442994e14610430578063e58398361461043e578063e921d4fa146103b857600080fd5b8063c747075b116100de578063c747075b146103cc578063d1b70e64146102ff578063d7b7fa13146103e0578063d98128c01461042257600080fd5b8063855fcc4a1461035d578063886f1195146103945780638da5cb5b146103a7578063a49db732146103b857600080fd5b8063595c6a671161018757806371e7bbaf1161015657806371e7bbaf146102ff578063723e59c71461032a5780637cf72bba146103385780638105e0431461034657600080fd5b8063595c6a67146102aa5780635ac86ab7146102b25780635c975abb146102e5578063715018a6146102f757600080fd5b80631794bb3c116101c35780631794bb3c1461022f578063282670fc1461024257806338c8ee641461027e57806339b70e381461028f57600080fd5b80630ffabbce146101f557806310d67a2f14610209578063136439dd1461021c578063175d3205146101f5575b600080fd5b610207610203366004610cd4565b5050565b005b610207610217366004610d09565b610472565b61020761022a366004610d2d565b61057d565b61020761023d366004610d46565b505050565b610255610250366004610d87565b610712565b60408051825163ffffffff90811682526020938401511692810192909252015b60405180910390f35b61020761028c366004610d09565b50565b60005b6040516001600160a01b039091168152602001610275565b61020761072d565b6102d56102c0366004610db3565b606654600160ff9092169190911b9081161490565b6040519015158152602001610275565b6066545b604051908152602001610275565b61020761084a565b61031561030d366004610dd6565b600092915050565b60405163ffffffff9091168152602001610275565b6102e961030d366004610cd4565b610207610203366004610e0f565b6102d5610354366004610e84565b60009392505050565b61037761036b366004610dd6565b60008060009250925092565b604080519315158452602084019290925290820152606001610275565b606554610292906001600160a01b031681565b6033546001600160a01b0316610292565b6102e96103c6366004610d09565b50600090565b6102076103da366004610ec2565b50505050565b6103f36103ee366004610dd6565b61085e565b60408051825163ffffffff90811682526020808501518216908301529282015190921690820152606001610275565b6102d561030d366004610dd6565b61031561030d366004610cd4565b6102d56103c6366004610d09565b61020761045a366004610d09565b610880565b61020761046d366004610d2d565b61090d565b606560009054906101000a90046001600160a01b03166001600160a01b031663eab66d7a6040518163ffffffff1660e01b8152600401602060405180830381865afa1580156104c5573d6000803e3d6000fd5b505050506040513d601f19601f820116820180604052508101906104e99190610f0f565b6001600160a01b0316336001600160a01b0316146105745760405162461bcd60e51b815260206004820152602a60248201527f6d73672e73656e646572206973206e6f74207065726d697373696f6e6564206160448201527f7320756e7061757365720000000000000000000000000000000000000000000060648201526084015b60405180910390fd5b61028c81610abf565b60655460405163237dfb4760e11b81523360048201526001600160a01b03909116906346fbf68e90602401602060405180830381865afa1580156105c5573d6000803e3d6000fd5b505050506040513d601f19601f820116820180604052508101906105e99190610f2c565b61065b5760405162461bcd60e51b815260206004820152602860248201527f6d73672e73656e646572206973206e6f74207065726d697373696f6e6564206160448201527f7320706175736572000000000000000000000000000000000000000000000000606482015260840161056b565b606654818116146106d45760405162461bcd60e51b815260206004820152603860248201527f5061757361626c652e70617573653a20696e76616c696420617474656d70742060448201527f746f20756e70617573652066756e6374696f6e616c6974790000000000000000606482015260840161056b565b606681905560405181815233907fab40a374bc51de372200a8bc981af8c9ecdc08dfdaef0bb6e09f88f3c616ef3d906020015b60405180910390a250565b60408051808201909152600080825260208201525b92915050565b60655460405163237dfb4760e11b81523360048201526001600160a01b03909116906346fbf68e90602401602060405180830381865afa158015610775573d6000803e3d6000fd5b505050506040513d601f19601f820116820180604052508101906107999190610f2c565b61080b5760405162461bcd60e51b815260206004820152602860248201527f6d73672e73656e646572206973206e6f74207065726d697373696f6e6564206160448201527f7320706175736572000000000000000000000000000000000000000000000000606482015260840161056b565b600019606681905560405190815233907fab40a374bc51de372200a8bc981af8c9ecdc08dfdaef0bb6e09f88f3c616ef3d9060200160405180910390a2565b610852610be2565b61085c6000610c3c565b565b6040805160608101825260008082526020820181905291810191909152610727565b610888610be2565b6001600160a01b0381166109045760405162461bcd60e51b815260206004820152602660248201527f4f776e61626c653a206e6577206f776e657220697320746865207a65726f206160448201527f6464726573730000000000000000000000000000000000000000000000000000606482015260840161056b565b61028c81610c3c565b606560009054906101000a90046001600160a01b03166001600160a01b031663eab66d7a6040518163ffffffff1660e01b8152600401602060405180830381865afa158015610960573d6000803e3d6000fd5b505050506040513d601f19601f820116820180604052508101906109849190610f0f565b6001600160a01b0316336001600160a01b031614610a0a5760405162461bcd60e51b815260206004820152602a60248201527f6d73672e73656e646572206973206e6f74207065726d697373696f6e6564206160448201527f7320756e70617573657200000000000000000000000000000000000000000000606482015260840161056b565b606654198119606654191614610a885760405162461bcd60e51b815260206004820152603860248201527f5061757361626c652e756e70617573653a20696e76616c696420617474656d7060448201527f7420746f2070617573652066756e6374696f6e616c6974790000000000000000606482015260840161056b565b606681905560405181815233907f3582d1828e26bf56bd801502bc021ac0bc8afb57c826e4986b45593c8fad389c90602001610707565b6001600160a01b038116610b615760405162461bcd60e51b815260206004820152604960248201527f5061757361626c652e5f73657450617573657252656769737472793a206e657760448201527f50617573657252656769737472792063616e6e6f7420626520746865207a657260648201527f6f20616464726573730000000000000000000000000000000000000000000000608482015260a40161056b565b606554604080516001600160a01b03928316815291831660208301527f6e9fcd539896fca60e8b0f01dd580233e48a6b0f7df013b89ba7f565869acdb6910160405180910390a1606580547fffffffffffffffffffffffff0000000000000000000000000000000000000000166001600160a01b0392909216919091179055565b6033546001600160a01b0316331461085c5760405162461bcd60e51b815260206004820181905260248201527f4f776e61626c653a2063616c6c6572206973206e6f7420746865206f776e6572604482015260640161056b565b603380546001600160a01b038381167fffffffffffffffffffffffff0000000000000000000000000000000000000000831681179093556040519116919082907f8be0079c531659141344cd1fd0a4f28419497f9722a3daafe3b4186f6b6457e090600090a35050565b6001600160a01b038116811461028c57600080fd5b803563ffffffff81168114610ccf57600080fd5b919050565b60008060408385031215610ce757600080fd5b8235610cf281610ca6565b9150610d0060208401610cbb565b90509250929050565b600060208284031215610d1b57600080fd5b8135610d2681610ca6565b9392505050565b600060208284031215610d3f57600080fd5b5035919050565b600080600060608486031215610d5b57600080fd5b8335610d6681610ca6565b92506020840135610d7681610ca6565b929592945050506040919091013590565b60008060408385031215610d9a57600080fd5b8235610da581610ca6565b946020939093013593505050565b600060208284031215610dc557600080fd5b813560ff81168114610d2657600080fd5b60008060408385031215610de957600080fd5b8235610df481610ca6565b91506020830135610e0481610ca6565b809150509250929050565b60008060208385031215610e2257600080fd5b823567ffffffffffffffff80821115610e3a57600080fd5b818501915085601f830112610e4e57600080fd5b813581811115610e5d57600080fd5b8660208260051b8501011115610e7257600080fd5b60209290920196919550909350505050565b600080600060608486031215610e9957600080fd5b8335610ea481610ca6565b9250610eb260208501610cbb565b9150604084013590509250925092565b60008060008060808587031215610ed857600080fd5b8435610ee381610ca6565b9350610ef160208601610cbb565b9250610eff60408601610cbb565b9396929550929360600135925050565b600060208284031215610f2157600080fd5b8151610d2681610ca6565b600060208284031215610f3e57600080fd5b81518015158114610d2657600080fdfea26469706673582212207fcb277880673ff885264191f70bb56de90ac0e233d406f02354b91464bc8e4b64736f6c63430008140033",
  "devdoc": {
    "events": {
      "Initialized(uint8)": {
        "details": "Triggered when the contract has been initialized or reinitialized."
      },
      "OperatorFrozen(address,address)": {
        "details": "The `slashingContract` must have permission to slash the `slashedOperator`, i.e. `canSlash(slasherOperator, slashingContract)` must return 'true'."
      }
    },
    "kind": "dev",
    "methods": {
      "owner()": {
        "details": "Returns the address of the current owner."
      },
      "pause(uint256)": {
        "details": "This function can only pause functionality, and thus cannot 'unflip' any bit in `_paused` from 1 to 0.",
        "params": {
          "newPausedStatus": "represents the new value for `_paused` to take, which means it may flip several bits at once."
        }
      },
      "renounceOwnership()": {
        "details": "Leaves the contract without owner. It will not be possible to call `onlyOwner` functions. Can only be called by the current owner. NOTE: Renouncing ownership will leave the contract without an owner, thereby disabling any functionality that is only available to the owner."
      },
      "transferOwnership(address)": {
        "details": "Transfers ownership of the contract to a new account (`newOwner`). Can only be called by the current owner."
      },
      "unpause(uint256)": {
        "details": "This function can only unpause functionality, and thus cannot 'flip' any bit in `_paused` from 0 to 1.",
        "params": {
          "newPausedStatus": "represents the new value for `_paused` to take, which means it may flip several bits at once."
        }
      }
    },
    "version": 1
  },
  "userdoc": {
    "events": {
      "FrozenStatusReset(address)": {
        "notice": "Emitted when `previouslySlashedAddress` is 'unfrozen', allowing them to again move deposited funds within BinLayer."
      },
      "MiddlewareTimesAdded(address,uint256,uint32,uint32)": {
        "notice": "Emitted when a middleware times is added to `operator`'s array."
      },
      "OperatorFrozen(address,address)": {
        "notice": "Emitted when `slashingContract` 'freezes' the `slashedOperator`."
      },
      "OptedIntoSlashing(address,address)": {
        "notice": "Emitted when `operator` begins to allow `contractAddress` to slash them."
      },
      "Paused(address,uint256)": {
        "notice": "Emitted when the pause is triggered by `account`, and changed to `newPausedStatus`."
      },
      "PauserRegistrySet(address,address)": {
        "notice": "Emitted when the `pauserRegistry` is set to `newPauserRegistry`."
      },
      "SlashingAbilityRevoked(address,address,uint32)": {
        "notice": "Emitted when `contractAddress` signals that it will no longer be able to slash `operator` after the `contractCanSlashOperatorUntilTimestamp`."
      },
      "Unpaused(address,uint256)": {
        "notice": "Emitted when the pause is lifted by `account`, and changed to `newPausedStatus`."
      }
    },
    "kind": "user",
    "methods": {
      "delegation()": {
        "notice": "The DelegationManager contract of BinLayer"
      },
      "pause(uint256)": {
        "notice": "This function is used to pause an BinLayer contract's functionality. It is permissioned to the `pauser` address, which is expected to be a low threshold multisig."
      },
      "pauseAll()": {
        "notice": "Alias for `pause(type(uint256).max)`."
      },
      "paused()": {
        "notice": "Returns the current paused status as a uint256."
      },
      "paused(uint8)": {
        "notice": "Returns 'true' if the `indexed`th bit of `_paused` is 1, and 'false' otherwise"
      },
      "pauserRegistry()": {
        "notice": "Address of the `PauserRegistry` contract that this contract defers to for determining access control (for pausing)."
      },
      "setPauserRegistry(address)": {
        "notice": "Allows the unpauser to set a new pauser registry"
      },
      "strategyManager()": {
        "notice": "The StrategyManager contract of BinLayer"
      },
      "unpause(uint256)": {
        "notice": "This function is used to unpause an BinLayer contract's functionality. It is permissioned to the `unpauser` address, which is expected to be a high threshold multisig or governance contract."
      }
    },
    "notice": "This contract is not in use as of the BinLayer release.",
    "version": 1
  },
  "storageLayout": {
    "storage": [
      {
        "astId": 139,
        "contract": "contracts/core/Slasher.sol:Slasher",
        "label": "_initialized",
        "offset": 0,
        "slot": "0",
        "type": "t_uint8"
      },
      {
        "astId": 142,
        "contract": "contracts/core/Slasher.sol:Slasher",
        "label": "_initializing",
        "offset": 1,
        "slot": "0",
        "type": "t_bool"
      },
      {
        "astId": 766,
        "contract": "contracts/core/Slasher.sol:Slasher",
        "label": "__gap",
        "offset": 0,
        "slot": "1",
        "type": "t_array(t_uint256)50_storage"
      },
      {
        "astId": 11,
        "contract": "contracts/core/Slasher.sol:Slasher",
        "label": "_owner",
        "offset": 0,
        "slot": "51",
        "type": "t_address"
      },
      {
        "astId": 131,
        "contract": "contracts/core/Slasher.sol:Slasher",
        "label": "__gap",
        "offset": 0,
        "slot": "52",
        "type": "t_array(t_uint256)49_storage"
      },
      {
        "astId": 10308,
        "contract": "contracts/core/Slasher.sol:Slasher",
        "label": "pauserRegistry",
        "offset": 0,
        "slot": "101",
        "type": "t_contract(IPauserRegistry)7893"
      },
      {
        "astId": 10311,
        "contract": "contracts/core/Slasher.sol:Slasher",
        "label": "_paused",
        "offset": 0,
        "slot": "102",
        "type": "t_uint256"
      },
      {
        "astId": 10593,
        "contract": "contracts/core/Slasher.sol:Slasher",
        "label": "__gap",
        "offset": 0,
        "slot": "103",
        "type": "t_array(t_uint256)49_storage"
      }
    ],
    "types": {
      "t_address": {
        "encoding": "inplace",
        "label": "address",
        "numberOfBytes": "20"
      },
      "t_array(t_uint256)49_storage": {
        "base": "t_uint256",
        "encoding": "inplace",
        "label": "uint256[49]",
        "numberOfBytes": "1568"
      },
      "t_array(t_uint256)50_storage": {
        "base": "t_uint256",
        "encoding": "inplace",
        "label": "uint256[50]",
        "numberOfBytes": "1600"
      },
      "t_bool": {
        "encoding": "inplace",
        "label": "bool",
        "numberOfBytes": "1"
      },
      "t_contract(IPauserRegistry)7893": {
        "encoding": "inplace",
        "label": "contract IPauserRegistry",
        "numberOfBytes": "20"
      },
      "t_uint256": {
        "encoding": "inplace",
        "label": "uint256",
        "numberOfBytes": "32"
      },
      "t_uint8": {
        "encoding": "inplace",
        "label": "uint8",
        "numberOfBytes": "1"
      }
    }
  }
}