{
  "address": "0x5ac652dC32469a1F04a75DD8c05AAF77780234E5",
  "abi": [
    {
      "inputs": [
        {
          "internalType": "contract IDelegationManager",
          "name": "_delegation",
          "type": "address"
        },
        {
          "internalType": "contract ISlasher",
          "name": "_slasher",
          "type": "address"
        }
      ],
      "stateMutability": "nonpayable",
      "type": "constructor"
    },
    {
      "anonymous": false,
      "inputs": [
        {
          "indexed": false,
          "internalType": "address",
          "name": "staker",
          "type": "address"
        },
        {
          "indexed": false,
          "internalType": "contract IERC20",
          "name": "token",
          "type": "address"
        },
        {
          "indexed": false,
          "internalType": "contract IStrategy",
          "name": "strategy",
          "type": "address"
        },
        {
          "indexed": false,
          "internalType": "uint256",
          "name": "shares",
          "type": "uint256"
        }
      ],
      "name": "Deposit",
      "type": "event"
    },
    {
      "anonymous": false,
      "inputs": [
        {
          "indexed": false,
          "internalType": "uint8",
          "name": "version",
          "type": "uint8"
        }
      ],
      "name": "Initialized",
      "type": "event"
    },
    {
      "anonymous": false,
      "inputs": [
        {
          "indexed": true,
          "internalType": "address",
          "name": "previousOwner",
          "type": "address"
        },
        {
          "indexed": true,
          "internalType": "address",
          "name": "newOwner",
          "type": "address"
        }
      ],
      "name": "OwnershipTransferred",
      "type": "event"
    },
    {
      "anonymous": false,
      "inputs": [
        {
          "indexed": true,
          "internalType": "address",
          "name": "account",
          "type": "address"
        },
        {
          "indexed": false,
          "internalType": "uint256",
          "name": "newPausedStatus",
          "type": "uint256"
        }
      ],
      "name": "Paused",
      "type": "event"
    },
    {
      "anonymous": false,
      "inputs": [
        {
          "indexed": false,
          "internalType": "contract IPauserRegistry",
          "name": "pauserRegistry",
          "type": "address"
        },
        {
          "indexed": false,
          "internalType": "contract IPauserRegistry",
          "name": "newPauserRegistry",
          "type": "address"
        }
      ],
      "name": "PauserRegistrySet",
      "type": "event"
    },
    {
      "anonymous": false,
      "inputs": [
        {
          "indexed": false,
          "internalType": "contract IStrategy",
          "name": "strategy",
          "type": "address"
        }
      ],
      "name": "StrategyAddedToDepositWhitelist",
      "type": "event"
    },
    {
      "anonymous": false,
      "inputs": [
        {
          "indexed": false,
          "internalType": "contract IStrategy",
          "name": "strategy",
          "type": "address"
        }
      ],
      "name": "StrategyRemovedFromDepositWhitelist",
      "type": "event"
    },
    {
      "anonymous": false,
      "inputs": [
        {
          "indexed": false,
          "internalType": "address",
          "name": "previousAddress",
          "type": "address"
        },
        {
          "indexed": false,
          "internalType": "address",
          "name": "newAddress",
          "type": "address"
        }
      ],
      "name": "StrategyWhitelisterChanged",
      "type": "event"
    },
    {
      "anonymous": false,
      "inputs": [
        {
          "indexed": true,
          "internalType": "address",
          "name": "account",
          "type": "address"
        },
        {
          "indexed": false,
          "internalType": "uint256",
          "name": "newPausedStatus",
          "type": "uint256"
        }
      ],
      "name": "Unpaused",
      "type": "event"
    },
    {
      "anonymous": false,
      "inputs": [
        {
          "indexed": false,
          "internalType": "contract IStrategy",
          "name": "strategy",
          "type": "address"
        },
        {
          "indexed": false,
          "internalType": "bool",
          "name": "value",
          "type": "bool"
        }
      ],
      "name": "UpdatedThirdPartyTransfersForbidden",
      "type": "event"
    },
    {
      "inputs": [],
      "name": "DEPOSIT_TYPEHASH",
      "outputs": [
        {
          "internalType": "bytes32",
          "name": "",
          "type": "bytes32"
        }
      ],
      "stateMutability": "view",
      "type": "function"
    },
    {
      "inputs": [],
      "name": "DOMAIN_TYPEHASH",
      "outputs": [
        {
          "internalType": "bytes32",
          "name": "",
          "type": "bytes32"
        }
      ],
      "stateMutability": "view",
      "type": "function"
    },
    {
      "inputs": [
        {
          "internalType": "address",
          "name": "staker",
          "type": "address"
        },
        {
          "internalType": "contract IERC20",
          "name": "token",
          "type": "address"
        },
        {
          "internalType": "contract IStrategy",
          "name": "strategy",
          "type": "address"
        },
        {
          "internalType": "uint256",
          "name": "shares",
          "type": "uint256"
        }
      ],
      "name": "addShares",
      "outputs": [],
      "stateMutability": "nonpayable",
      "type": "function"
    },
    {
      "inputs": [
        {
          "internalType": "contract IStrategy[]",
          "name": "strategiesToWhitelist",
          "type": "address[]"
        },
        {
          "internalType": "bool[]",
          "name": "thirdPartyTransfersForbiddenValues",
          "type": "bool[]"
        }
      ],
      "name": "addStrategiesToDepositWhitelist",
      "outputs": [],
      "stateMutability": "nonpayable",
      "type": "function"
    },
    {
      "inputs": [],
      "name": "delegation",
      "outputs": [
        {
          "internalType": "contract IDelegationManager",
          "name": "",
          "type": "address"
        }
      ],
      "stateMutability": "view",
      "type": "function"
    },
    {
      "inputs": [
        {
          "internalType": "contract IStrategy",
          "name": "strategy",
          "type": "address"
        },
        {
          "internalType": "contract IERC20",
          "name": "token",
          "type": "address"
        },
        {
          "internalType": "uint256",
          "name": "amount",
          "type": "uint256"
        }
      ],
      "name": "depositIntoStrategy",
      "outputs": [
        {
          "internalType": "uint256",
          "name": "shares",
          "type": "uint256"
        }
      ],
      "stateMutability": "nonpayable",
      "type": "function"
    },
    {
      "inputs": [
        {
          "internalType": "contract IStrategy",
          "name": "strategy",
          "type": "address"
        },
        {
          "internalType": "contract IERC20",
          "name": "token",
          "type": "address"
        },
        {
          "internalType": "uint256",
          "name": "amount",
          "type": "uint256"
        },
        {
          "internalType": "address",
          "name": "staker",
          "type": "address"
        },
        {
          "internalType": "uint256",
          "name": "expiry",
          "type": "uint256"
        },
        {
          "internalType": "bytes",
          "name": "signature",
          "type": "bytes"
        }
      ],
      "name": "depositIntoStrategyWithSignature",
      "outputs": [
        {
          "internalType": "uint256",
          "name": "shares",
          "type": "uint256"
        }
      ],
      "stateMutability": "nonpayable",
      "type": "function"
    },
    {
      "inputs": [
        {
          "internalType": "address",
          "name": "staker",
          "type": "address"
        },
        {
          "internalType": "contract IStrategy",
          "name": "strategy",
          "type": "address"
        },
        {
          "internalType": "contract IERC20",
          "name": "token",
          "type": "address"
        },
        {
          "internalType": "uint256",
          "name": "amount",
          "type": "uint256"
        }
      ],
      "name": "depositIntoStrategyWithStaker",
      "outputs": [
        {
          "internalType": "uint256",
          "name": "shares",
          "type": "uint256"
        }
      ],
      "stateMutability": "nonpayable",
      "type": "function"
    },
    {
      "inputs": [],
      "name": "domainSeparator",
      "outputs": [
        {
          "internalType": "bytes32",
          "name": "",
          "type": "bytes32"
        }
      ],
      "stateMutability": "view",
      "type": "function"
    },
    {
      "inputs": [
        {
          "internalType": "address",
          "name": "staker",
          "type": "address"
        }
      ],
      "name": "getDeposits",
      "outputs": [
        {
          "internalType": "contract IStrategy[]",
          "name": "",
          "type": "address[]"
        },
        {
          "internalType": "uint256[]",
          "name": "",
          "type": "uint256[]"
        }
      ],
      "stateMutability": "view",
      "type": "function"
    },
    {
      "inputs": [
        {
          "internalType": "address",
          "name": "initialOwner",
          "type": "address"
        },
        {
          "internalType": "address",
          "name": "initialStrategyWhitelister",
          "type": "address"
        },
        {
          "internalType": "contract IPauserRegistry",
          "name": "_pauserRegistry",
          "type": "address"
        },
        {
          "internalType": "uint256",
          "name": "initialPausedStatus",
          "type": "uint256"
        }
      ],
      "name": "initialize",
      "outputs": [],
      "stateMutability": "nonpayable",
      "type": "function"
    },
    {
      "inputs": [
        {
          "internalType": "address",
          "name": "",
          "type": "address"
        }
      ],
      "name": "nonces",
      "outputs": [
        {
          "internalType": "uint256",
          "name": "",
          "type": "uint256"
        }
      ],
      "stateMutability": "view",
      "type": "function"
    },
    {
      "inputs": [],
      "name": "owner",
      "outputs": [
        {
          "internalType": "address",
          "name": "",
          "type": "address"
        }
      ],
      "stateMutability": "view",
      "type": "function"
    },
    {
      "inputs": [
        {
          "internalType": "uint256",
          "name": "newPausedStatus",
          "type": "uint256"
        }
      ],
      "name": "pause",
      "outputs": [],
      "stateMutability": "nonpayable",
      "type": "function"
    },
    {
      "inputs": [],
      "name": "pauseAll",
      "outputs": [],
      "stateMutability": "nonpayable",
      "type": "function"
    },
    {
      "inputs": [
        {
          "internalType": "uint8",
          "name": "index",
          "type": "uint8"
        }
      ],
      "name": "paused",
      "outputs": [
        {
          "internalType": "bool",
          "name": "",
          "type": "bool"
        }
      ],
      "stateMutability": "view",
      "type": "function"
    },
    {
      "inputs": [],
      "name": "paused",
      "outputs": [
        {
          "internalType": "uint256",
          "name": "",
          "type": "uint256"
        }
      ],
      "stateMutability": "view",
      "type": "function"
    },
    {
      "inputs": [],
      "name": "pauserRegistry",
      "outputs": [
        {
          "internalType": "contract IPauserRegistry",
          "name": "",
          "type": "address"
        }
      ],
      "stateMutability": "view",
      "type": "function"
    },
    {
      "inputs": [
        {
          "internalType": "address",
          "name": "staker",
          "type": "address"
        },
        {
          "internalType": "contract IStrategy",
          "name": "strategy",
          "type": "address"
        },
        {
          "internalType": "uint256",
          "name": "shares",
          "type": "uint256"
        }
      ],
      "name": "removeShares",
      "outputs": [],
      "stateMutability": "nonpayable",
      "type": "function"
    },
    {
      "inputs": [
        {
          "internalType": "contract IStrategy[]",
          "name": "strategiesToRemoveFromWhitelist",
          "type": "address[]"
        }
      ],
      "name": "removeStrategiesFromDepositWhitelist",
      "outputs": [],
      "stateMutability": "nonpayable",
      "type": "function"
    },
    {
      "inputs": [],
      "name": "renounceOwnership",
      "outputs": [],
      "stateMutability": "nonpayable",
      "type": "function"
    },
    {
      "inputs": [
        {
          "internalType": "contract IPauserRegistry",
          "name": "newPauserRegistry",
          "type": "address"
        }
      ],
      "name": "setPauserRegistry",
      "outputs": [],
      "stateMutability": "nonpayable",
      "type": "function"
    },
    {
      "inputs": [
        {
          "internalType": "address",
          "name": "newStrategyWhitelister",
          "type": "address"
        }
      ],
      "name": "setStrategyWhitelister",
      "outputs": [],
      "stateMutability": "nonpayable",
      "type": "function"
    },
    {
      "inputs": [
        {
          "internalType": "contract IStrategy",
          "name": "strategy",
          "type": "address"
        },
        {
          "internalType": "bool",
          "name": "value",
          "type": "bool"
        }
      ],
      "name": "setThirdPartyTransfersForbidden",
      "outputs": [],
      "stateMutability": "nonpayable",
      "type": "function"
    },
    {
      "inputs": [],
      "name": "slasher",
      "outputs": [
        {
          "internalType": "contract ISlasher",
          "name": "",
          "type": "address"
        }
      ],
      "stateMutability": "view",
      "type": "function"
    },
    {
      "inputs": [
        {
          "internalType": "address",
          "name": "",
          "type": "address"
        },
        {
          "internalType": "uint256",
          "name": "",
          "type": "uint256"
        }
      ],
      "name": "stakerStrategyList",
      "outputs": [
        {
          "internalType": "contract IStrategy",
          "name": "",
          "type": "address"
        }
      ],
      "stateMutability": "view",
      "type": "function"
    },
    {
      "inputs": [
        {
          "internalType": "address",
          "name": "staker",
          "type": "address"
        }
      ],
      "name": "stakerStrategyListLength",
      "outputs": [
        {
          "internalType": "uint256",
          "name": "",
          "type": "uint256"
        }
      ],
      "stateMutability": "view",
      "type": "function"
    },
    {
      "inputs": [
        {
          "internalType": "address",
          "name": "",
          "type": "address"
        },
        {
          "internalType": "contract IStrategy",
          "name": "",
          "type": "address"
        }
      ],
      "name": "stakerStrategyShares",
      "outputs": [
        {
          "internalType": "uint256",
          "name": "",
          "type": "uint256"
        }
      ],
      "stateMutability": "view",
      "type": "function"
    },
    {
      "inputs": [
        {
          "internalType": "contract IStrategy",
          "name": "",
          "type": "address"
        }
      ],
      "name": "strategyIsWhitelistedForDeposit",
      "outputs": [
        {
          "internalType": "bool",
          "name": "",
          "type": "bool"
        }
      ],
      "stateMutability": "view",
      "type": "function"
    },
    {
      "inputs": [],
      "name": "strategyWhitelister",
      "outputs": [
        {
          "internalType": "address",
          "name": "",
          "type": "address"
        }
      ],
      "stateMutability": "view",
      "type": "function"
    },
    {
      "inputs": [
        {
          "internalType": "contract IStrategy",
          "name": "",
          "type": "address"
        }
      ],
      "name": "thirdPartyTransfersForbidden",
      "outputs": [
        {
          "internalType": "bool",
          "name": "",
          "type": "bool"
        }
      ],
      "stateMutability": "view",
      "type": "function"
    },
    {
      "inputs": [
        {
          "internalType": "address",
          "name": "newOwner",
          "type": "address"
        }
      ],
      "name": "transferOwnership",
      "outputs": [],
      "stateMutability": "nonpayable",
      "type": "function"
    },
    {
      "inputs": [
        {
          "internalType": "uint256",
          "name": "newPausedStatus",
          "type": "uint256"
        }
      ],
      "name": "unpause",
      "outputs": [],
      "stateMutability": "nonpayable",
      "type": "function"
    },
    {
      "inputs": [
        {
          "internalType": "address",
          "name": "recipient",
          "type": "address"
        },
        {
          "internalType": "contract IStrategy",
          "name": "strategy",
          "type": "address"
        },
        {
          "internalType": "uint256",
          "name": "shares",
          "type": "uint256"
        },
        {
          "internalType": "contract IERC20",
          "name": "token",
          "type": "address"
        }
      ],
      "name": "withdrawSharesAsTokens",
      "outputs": [],
      "stateMutability": "nonpayable",
      "type": "function"
    }
  ],
  "transactionHash": "0x4e8fe85f4a15b6a94cb342747e21842e02e6d2f395b9b96c9493ca75caf60a96",
  "args": [
    "0xDF8843c6580BC4b92B203d63E0aA662536eD8B7E",
    "0x74D9d2324965688D0c712763CA01566a1a6c53A6"
  ],
  "numDeployments": 1,
  "solcInputHash": "73a843c7df9a0737c5f562139718a87a",
  "bytecode": "0x60e06040523480156200001157600080fd5b50604051620039c8380380620039c8833981016040819052620000349162000137565b6001600160a01b03808316608052811660a052620000516200005d565b50504660c05262000176565b600054610100900460ff1615620000ca5760405162461bcd60e51b815260206004820152602760248201527f496e697469616c697a61626c653a20636f6e747261637420697320696e697469604482015266616c697a696e6760c81b606482015260840160405180910390fd5b60005460ff908116146200011c576000805460ff191660ff9081179091556040519081527f7f26b83ff96e1f2b6a682f133852f6798a09c465da95921460cefb38474024989060200160405180910390a15b565b6001600160a01b03811681146200013457600080fd5b50565b600080604083850312156200014b57600080fd5b825162000158816200011e565b60208401519092506200016b816200011e565b809150509250929050565b60805160a05160c051613806620001c260003960006119f30152600061046701526000818161051301528181610cf3015281816110fc015281816111a801526121a901526138066000f3fe608060405234801561001057600080fd5b50600436106102265760003560e01c806394f649dd1161012a578063cbc2bd62116100bd578063e46842b71161008c578063f2fde38b11610071578063f2fde38b1461055b578063f698da251461056e578063fabc1cbc1461057657600080fd5b8063e46842b714610535578063e7a050aa1461054857600080fd5b8063cbc2bd62146104d5578063cf756fdf146104e8578063df5b3547146104fb578063df5cf7231461050e57600080fd5b8063b5d8b5b8116100f9578063b5d8b5b814610489578063c4623ea11461049c578063c608c7f3146104af578063c6656702146104c257600080fd5b806394f649dd1461040b578063967fc0d21461042c5780639b4da03d1461043f578063b13442711461046257600080fd5b80635c975abb116101bd5780637ecebe001161018c5780638b8aac3c116101715780638b8aac3c146103be5780638c80d4e5146103e75780638da5cb5b146103fa57600080fd5b80637ecebe0014610373578063886f11951461039357600080fd5b80635c975abb14610315578063663c1de41461031d578063715018a6146103405780637a7e0d921461034857600080fd5b806348825e94116101f957806348825e94146102a05780634e5a4263146102c7578063595c6a67146102da5780635ac86ab7146102e257600080fd5b806310d67a2f1461022b578063136439dd1461024057806320606b701461025357806332e89ace1461028d575b600080fd5b61023e6102393660046131a1565b610589565b005b61023e61024e3660046131be565b610697565b61027a7f8cad95687ba82c2ce50e74f7b754645e5117c3a5bec8151c0726d5857980a86681565b6040519081526020015b60405180910390f35b61027a61029b3660046131ed565b61082c565b61027a7f4337f82d142e41f2a8c10547cd8c859bddb92262a61058e77842e24d9dea922481565b61023e6102d53660046132f6565b610b1b565b61023e610bb7565b6103056102f036600461332f565b609854600160ff9092169190911b9081161490565b6040519015158152602001610284565b60985461027a565b61030561032b3660046131a1565b60cf6020526000908152604090205460ff1681565b61023e610cd4565b61027a610356366004613352565b60cd60209081526000928352604080842090915290825290205481565b61027a6103813660046131a1565b60cb6020526000908152604090205481565b6097546103a6906001600160a01b031681565b6040516001600160a01b039091168152602001610284565b61027a6103cc3660046131a1565b6001600160a01b0316600090815260ce602052604090205490565b61023e6103f5366004613380565b610ce8565b6033546001600160a01b03166103a6565b61041e6104193660046131a1565b610d99565b6040516102849291906133c1565b60cc546103a6906001600160a01b031681565b61030561044d3660046131a1565b60d06020526000908152604090205460ff1681565b6103a67f000000000000000000000000000000000000000000000000000000000000000081565b61023e61049736600461348a565b610f19565b61023e6104aa3660046134cc565b6110f1565b61023e6104bd36600461351d565b61119d565b61023e6104d03660046131a1565b6112c6565b6103a66104e3366004613570565b6112d7565b61023e6104f63660046134cc565b61130f565b61023e61050936600461359c565b6114f9565b6103a67f000000000000000000000000000000000000000000000000000000000000000081565b61027a6105433660046134cc565b611798565b61027a610556366004613380565b6118e0565b61023e6105693660046131a1565b611962565b61027a6119ef565b61023e6105843660046131be565b611aca565b609760009054906101000a90046001600160a01b03166001600160a01b031663eab66d7a6040518163ffffffff1660e01b8152600401602060405180830381865afa1580156105dc573d6000803e3d6000fd5b505050506040513d601f19601f820116820180604052508101906106009190613608565b6001600160a01b0316336001600160a01b03161461068b5760405162461bcd60e51b815260206004820152602a60248201527f6d73672e73656e646572206973206e6f74207065726d697373696f6e6564206160448201527f7320756e7061757365720000000000000000000000000000000000000000000060648201526084015b60405180910390fd5b61069481611c7c565b50565b60975460405163237dfb4760e11b81523360048201526001600160a01b03909116906346fbf68e90602401602060405180830381865afa1580156106df573d6000803e3d6000fd5b505050506040513d601f19601f820116820180604052508101906107039190613625565b6107755760405162461bcd60e51b815260206004820152602860248201527f6d73672e73656e646572206973206e6f74207065726d697373696f6e6564206160448201527f73207061757365720000000000000000000000000000000000000000000000006064820152608401610682565b609854818116146107ee5760405162461bcd60e51b815260206004820152603860248201527f5061757361626c652e70617573653a20696e76616c696420617474656d70742060448201527f746f20756e70617573652066756e6374696f6e616c69747900000000000000006064820152608401610682565b609881905560405181815233907fab40a374bc51de372200a8bc981af8c9ecdc08dfdaef0bb6e09f88f3c616ef3d906020015b60405180910390a250565b60985460009081906001908116036108865760405162461bcd60e51b815260206004820152601960248201527f5061757361626c653a20696e64657820697320706175736564000000000000006044820152606401610682565b61088e611d94565b6001600160a01b038816600090815260d0602052604090205460ff16156109435760405162461bcd60e51b815260206004820152604a60248201527f53747261746567794d616e616765722e6465706f736974496e746f537472617460448201527f656779576974685369676e61747572653a207468697264207472616e7366657260648201527f732064697361626c656400000000000000000000000000000000000000000000608482015260a401610682565b428410156109df5760405162461bcd60e51b815260206004820152604360248201527f53747261746567794d616e616765722e6465706f736974496e746f537472617460448201527f656779576974685369676e61747572653a207369676e6174757265206578706960648201527f7265640000000000000000000000000000000000000000000000000000000000608482015260a401610682565b6001600160a01b03858116600081815260cb602090815260408083205481517f4337f82d142e41f2a8c10547cd8c859bddb92262a61058e77842e24d9dea922493810193909352908201939093528b84166060820152928a16608084015260a0830189905260c0830182905260e0830187905290916101000160408051601f1981840301815291815281516020928301206001600160a01b038a16600090815260cb9093529082206001850190559150610a976119ef565b6040517f19010000000000000000000000000000000000000000000000000000000000006020820152602281019190915260428101839052606201604051602081830303815290604052805190602001209050610af5888288611ded565b610b01888c8c8c611ffd565b9450505050610b106001606555565b509695505050505050565b60cc546001600160a01b03163314610ba95760405162461bcd60e51b8152602060048201526044602482018190527f53747261746567794d616e616765722e6f6e6c79537472617465677957686974908201527f656c69737465723a206e6f742074686520737472617465677957686974656c6960648201526339ba32b960e11b608482015260a401610682565b610bb38282612215565b5050565b60975460405163237dfb4760e11b81523360048201526001600160a01b03909116906346fbf68e90602401602060405180830381865afa158015610bff573d6000803e3d6000fd5b505050506040513d601f19601f82011682018060405250810190610c239190613625565b610c955760405162461bcd60e51b815260206004820152602860248201527f6d73672e73656e646572206973206e6f74207065726d697373696f6e6564206160448201527f73207061757365720000000000000000000000000000000000000000000000006064820152608401610682565b600019609881905560405190815233907fab40a374bc51de372200a8bc981af8c9ecdc08dfdaef0bb6e09f88f3c616ef3d9060200160405180910390a2565b610cdc612283565b610ce660006122dd565b565b336001600160a01b037f00000000000000000000000000000000000000000000000000000000000000001614610d88576040805162461bcd60e51b81526020600482015260248101919091527f53747261746567794d616e616765722e6f6e6c7944656c65676174696f6e4d6160448201527f6e616765723a206e6f74207468652044656c65676174696f6e4d616e616765726064820152608401610682565b610d9383838361233c565b50505050565b6001600160a01b038116600090815260ce60205260408120546060918291908167ffffffffffffffff811115610dd157610dd16131d7565b604051908082528060200260200182016040528015610dfa578160200160208202803683370190505b50905060005b82811015610e8b576001600160a01b038616600090815260cd6020908152604080832060ce9092528220805491929184908110610e3f57610e3f613642565b60009182526020808320909101546001600160a01b031683528201929092526040019020548251839083908110610e7857610e78613642565b6020908102919091010152600101610e00565b5060ce6000866001600160a01b03166001600160a01b031681526020019081526020016000208181805480602002602001604051908101604052809291908181526020018280548015610f0757602002820191906000526020600020905b81546001600160a01b03168152600190910190602001808311610ee9575b50505050509150935093505050915091565b60cc546001600160a01b03163314610fa75760405162461bcd60e51b8152602060048201526044602482018190527f53747261746567794d616e616765722e6f6e6c79537472617465677957686974908201527f656c69737465723a206e6f742074686520737472617465677957686974656c6960648201526339ba32b960e11b608482015260a401610682565b8060005b81811015610d935760cf6000858584818110610fc957610fc9613642565b9050602002016020810190610fde91906131a1565b6001600160a01b0316815260208101919091526040016000205460ff16156110e957600060cf600086868581811061101857611018613642565b905060200201602081019061102d91906131a1565b6001600160a01b031681526020810191909152604001600020805460ff19169115159190911790557f4074413b4b443e4e58019f2855a8765113358c7c72e39509c6af45fc0f5ba03084848381811061108857611088613642565b905060200201602081019061109d91906131a1565b6040516001600160a01b03909116815260200160405180910390a16110e98484838181106110cd576110cd613642565b90506020020160208101906110e291906131a1565b6000612215565b600101610fab565b336001600160a01b037f00000000000000000000000000000000000000000000000000000000000000001614611191576040805162461bcd60e51b81526020600482015260248101919091527f53747261746567794d616e616765722e6f6e6c7944656c65676174696f6e4d6160448201527f6e616765723a206e6f74207468652044656c65676174696f6e4d616e616765726064820152608401610682565b610d93848484846124a7565b336001600160a01b037f0000000000000000000000000000000000000000000000000000000000000000161461123d576040805162461bcd60e51b81526020600482015260248101919091527f53747261746567794d616e616765722e6f6e6c7944656c65676174696f6e4d6160448201527f6e616765723a206e6f74207468652044656c65676174696f6e4d616e616765726064820152608401610682565b6040517fd9caed120000000000000000000000000000000000000000000000000000000081526001600160a01b03858116600483015282811660248301526044820184905284169063d9caed1290606401600060405180830381600087803b1580156112a857600080fd5b505af11580156112bc573d6000803e3d6000fd5b5050505050505050565b6112ce612283565b6106948161275c565b60ce60205281600052604060002081815481106112f357600080fd5b6000918252602090912001546001600160a01b03169150829050565b600054610100900460ff161580801561132f5750600054600160ff909116105b806113495750303b158015611349575060005460ff166001145b6113bb5760405162461bcd60e51b815260206004820152602e60248201527f496e697469616c697a61626c653a20636f6e747261637420697320616c72656160448201527f647920696e697469616c697a65640000000000000000000000000000000000006064820152608401610682565b6000805460ff1916600117905580156113de576000805461ff0019166101001790555b604080518082018252600881527f42696e4c6179657200000000000000000000000000000000000000000000000060209182015281517f8cad95687ba82c2ce50e74f7b754645e5117c3a5bec8151c0726d5857980a866818301527fc3e1ab4858383d79d3a0e54f9365ec1da08f828fcebd1952f7ea695e26718a6081840152466060820152306080808301919091528351808303909101815260a0909101909252815191012060ca556114906127d2565b61149a8383612857565b6114a3856122dd565b6114ac8461275c565b80156114f2576000805461ff0019169055604051600181527f7f26b83ff96e1f2b6a682f133852f6798a09c465da95921460cefb38474024989060200160405180910390a15b5050505050565b60cc546001600160a01b031633146115875760405162461bcd60e51b8152602060048201526044602482018190527f53747261746567794d616e616765722e6f6e6c79537472617465677957686974908201527f656c69737465723a206e6f742074686520737472617465677957686974656c6960648201526339ba32b960e11b608482015260a401610682565b8281146116225760405162461bcd60e51b815260206004820152604b60248201527f53747261746567794d616e616765722e61646453747261746567696573546f4460448201527f65706f73697457686974656c6973743a206172726179206c656e67746873206460648201527f6f206e6f74206d61746368000000000000000000000000000000000000000000608482015260a401610682565b8260005b818110156117905760cf600087878481811061164457611644613642565b905060200201602081019061165991906131a1565b6001600160a01b0316815260208101919091526040016000205460ff1661178857600160cf600088888581811061169257611692613642565b90506020020160208101906116a791906131a1565b6001600160a01b031681526020810191909152604001600020805460ff19169115159190911790557f0c35b17d91c96eb2751cd456e1252f42a386e524ef9ff26ecc9950859fdc04fe86868381811061170257611702613642565b905060200201602081019061171791906131a1565b6040516001600160a01b03909116815260200160405180910390a161178886868381811061174757611747613642565b905060200201602081019061175c91906131a1565b85858481811061176e5761176e613642565b90506020020160208101906117839190613658565b612215565b600101611626565b505050505050565b60985460009081906001908116036117f25760405162461bcd60e51b815260206004820152601960248201527f5061757361626c653a20696e64657820697320706175736564000000000000006044820152606401610682565b6117fa611d94565b6001600160a01b03861633146118bf576001600160a01b038516600090815260d0602052604090205460ff16156118bf5760405162461bcd60e51b815260206004820152604760248201527f53747261746567794d616e616765722e6465706f736974496e746f537472617460448201527f656779576974685374616b65723a207468697264207472616e7366657273206460648201527f697361626c656400000000000000000000000000000000000000000000000000608482015260a401610682565b6118cb86868686611ffd565b91506118d76001606555565b50949350505050565b609854600090819060019081160361193a5760405162461bcd60e51b815260206004820152601960248201527f5061757361626c653a20696e64657820697320706175736564000000000000006044820152606401610682565b611942611d94565b61194e33868686611ffd565b915061195a6001606555565b509392505050565b61196a612283565b6001600160a01b0381166119e65760405162461bcd60e51b815260206004820152602660248201527f4f776e61626c653a206e6577206f776e657220697320746865207a65726f206160448201527f64647265737300000000000000000000000000000000000000000000000000006064820152608401610682565b610694816122dd565b60007f00000000000000000000000000000000000000000000000000000000000000004603611a1f575060ca5490565b50604080518082018252600881527f42696e4c6179657200000000000000000000000000000000000000000000000060209182015281517f8cad95687ba82c2ce50e74f7b754645e5117c3a5bec8151c0726d5857980a866818301527fc3e1ab4858383d79d3a0e54f9365ec1da08f828fcebd1952f7ea695e26718a6081840152466060820152306080808301919091528351808303909101815260a0909101909252815191012090565b609760009054906101000a90046001600160a01b03166001600160a01b031663eab66d7a6040518163ffffffff1660e01b8152600401602060405180830381865afa158015611b1d573d6000803e3d6000fd5b505050506040513d601f19601f82011682018060405250810190611b419190613608565b6001600160a01b0316336001600160a01b031614611bc75760405162461bcd60e51b815260206004820152602a60248201527f6d73672e73656e646572206973206e6f74207065726d697373696f6e6564206160448201527f7320756e706175736572000000000000000000000000000000000000000000006064820152608401610682565b609854198119609854191614611c455760405162461bcd60e51b815260206004820152603860248201527f5061757361626c652e756e70617573653a20696e76616c696420617474656d7060448201527f7420746f2070617573652066756e6374696f6e616c69747900000000000000006064820152608401610682565b609881905560405181815233907f3582d1828e26bf56bd801502bc021ac0bc8afb57c826e4986b45593c8fad389c90602001610821565b6001600160a01b038116611d1e5760405162461bcd60e51b815260206004820152604960248201527f5061757361626c652e5f73657450617573657252656769737472793a206e657760448201527f50617573657252656769737472792063616e6e6f7420626520746865207a657260648201527f6f20616464726573730000000000000000000000000000000000000000000000608482015260a401610682565b609754604080516001600160a01b03928316815291831660208301527f6e9fcd539896fca60e8b0f01dd580233e48a6b0f7df013b89ba7f565869acdb6910160405180910390a16097805473ffffffffffffffffffffffffffffffffffffffff19166001600160a01b0392909216919091179055565b600260655403611de65760405162461bcd60e51b815260206004820152601f60248201527f5265656e7472616e637947756172643a207265656e7472616e742063616c6c006044820152606401610682565b6002606555565b6001600160a01b0383163b15611f47576040517f1626ba7e00000000000000000000000000000000000000000000000000000000808252906001600160a01b03851690631626ba7e90611e4690869086906004016136c5565b602060405180830381865afa158015611e63573d6000803e3d6000fd5b505050506040513d601f19601f82011682018060405250810190611e8791906136de565b7fffffffff000000000000000000000000000000000000000000000000000000001614611f425760405162461bcd60e51b815260206004820152605360248201527f454950313237315369676e61747572655574696c732e636865636b5369676e6160448201527f747572655f454950313237313a2045524331323731207369676e61747572652060648201527f766572696669636174696f6e206661696c656400000000000000000000000000608482015260a401610682565b505050565b826001600160a01b0316611f5b8383612953565b6001600160a01b031614611f425760405162461bcd60e51b815260206004820152604760248201527f454950313237315369676e61747572655574696c732e636865636b5369676e6160448201527f747572655f454950313237313a207369676e6174757265206e6f742066726f6d60648201527f207369676e657200000000000000000000000000000000000000000000000000608482015260a401610682565b6001600160a01b038316600090815260cf6020526040812054849060ff166120b35760405162461bcd60e51b815260206004820152604d60248201527f53747261746567794d616e616765722e6f6e6c7953747261746567696573576860448201527f6974656c6973746564466f724465706f7369743a207374726174656779206e6f60648201527f742077686974656c697374656400000000000000000000000000000000000000608482015260a401610682565b6120c86001600160a01b038516338786612979565b6040517f47e7ef240000000000000000000000000000000000000000000000000000000081526001600160a01b038581166004830152602482018590528616906347e7ef24906044016020604051808303816000875af1158015612130573d6000803e3d6000fd5b505050506040513d601f19601f820116820180604052508101906121549190613720565b9150612162868587856124a7565b6040517f28a573ae0000000000000000000000000000000000000000000000000000000081526001600160a01b0387811660048301528681166024830152604482018490527f000000000000000000000000000000000000000000000000000000000000000016906328a573ae90606401600060405180830381600087803b1580156121ed57600080fd5b505af1158015612201573d6000803e3d6000fd5b5050505050949350505050565b6001606555565b604080516001600160a01b038416815282151560208201527f77d930df4937793473a95024d87a98fd2ccb9e92d3c2463b3dacd65d3e6a5786910160405180910390a16001600160a01b0391909116600090815260d060205260409020805460ff1916911515919091179055565b6033546001600160a01b03163314610ce65760405162461bcd60e51b815260206004820181905260248201527f4f776e61626c653a2063616c6c6572206973206e6f7420746865206f776e65726044820152606401610682565b603380546001600160a01b0383811673ffffffffffffffffffffffffffffffffffffffff19831681179093556040519116919082907f8be0079c531659141344cd1fd0a4f28419497f9722a3daafe3b4186f6b6457e090600090a35050565b6000816000036123b45760405162461bcd60e51b815260206004820152603e60248201527f53747261746567794d616e616765722e5f72656d6f76655368617265733a207360448201527f68617265416d6f756e742073686f756c64206e6f74206265207a65726f2100006064820152608401610682565b6001600160a01b03808516600090815260cd6020908152604080832093871683529290522054808311156124505760405162461bcd60e51b815260206004820152603360248201527f53747261746567794d616e616765722e5f72656d6f76655368617265733a207360448201527f68617265416d6f756e7420746f6f2068696768000000000000000000000000006064820152608401610682565b6001600160a01b03808616600090815260cd602090815260408083209388168352929052908120918490039182905581900361249a576124908585612a01565b60019150506124a0565b60009150505b9392505050565b6001600160a01b0384166125235760405162461bcd60e51b815260206004820152603960248201527f53747261746567794d616e616765722e5f6164645368617265733a207374616b60448201527f65722063616e6e6f74206265207a65726f2061646472657373000000000000006064820152608401610682565b806000036125995760405162461bcd60e51b815260206004820152603660248201527f53747261746567794d616e616765722e5f6164645368617265733a207368617260448201527f65732073686f756c64206e6f74206265207a65726f21000000000000000000006064820152608401610682565b6001600160a01b03808516600090815260cd6020908152604080832093861683529290529081205490036126c8576001600160a01b038416600090815260ce60209081526040909120541061267c5760405162461bcd60e51b815260206004820152605060248201527f53747261746567794d616e616765722e5f6164645368617265733a206465706f60448201527f73697420776f756c6420657863656564204d41585f5354414b45525f5354524160648201527f544547595f4c4953545f4c454e47544800000000000000000000000000000000608482015260a401610682565b6001600160a01b03848116600090815260ce6020908152604082208054600181018255908352912001805473ffffffffffffffffffffffffffffffffffffffff19169184169190911790555b6001600160a01b03808516600090815260cd60209081526040808320938616835292905290812080548392906126ff90849061374f565b9091555050604080516001600160a01b03868116825285811660208301528416818301526060810183905290517f7cfff908a4b583f36430b25d75964c458d8ede8a99bd61be750e97ee1b2f3a969181900360800190a150505050565b60cc54604080516001600160a01b03928316815291831660208301527f4264275e593955ff9d6146a51a4525f6ddace2e81db9391abcc9d1ca48047d29910160405180910390a160cc805473ffffffffffffffffffffffffffffffffffffffff19166001600160a01b0392909216919091179055565b600054610100900460ff1661284f5760405162461bcd60e51b815260206004820152602b60248201527f496e697469616c697a61626c653a20636f6e7472616374206973206e6f74206960448201527f6e697469616c697a696e670000000000000000000000000000000000000000006064820152608401610682565b610ce6612c12565b6097546001600160a01b031615801561287857506001600160a01b03821615155b6129105760405162461bcd60e51b815260206004820152604760248201527f5061757361626c652e5f696e697469616c697a655061757365723a205f696e6960448201527f7469616c697a6550617573657228292063616e206f6e6c792062652063616c6c60648201527f6564206f6e636500000000000000000000000000000000000000000000000000608482015260a401610682565b609881905560405181815233907fab40a374bc51de372200a8bc981af8c9ecdc08dfdaef0bb6e09f88f3c616ef3d9060200160405180910390a2610bb382611c7c565b60008060006129628585612c8f565b9150915061296f81612cd4565b5090505b92915050565b604080516001600160a01b0385811660248301528416604482015260648082018490528251808303909101815260849091019091526020810180517bffffffffffffffffffffffffffffffffffffffffffffffffffffffff167f23b872dd00000000000000000000000000000000000000000000000000000000179052610d93908590612e39565b6001600160a01b038216600090815260ce6020526040812054905b81811015612b1b576001600160a01b03848116600090815260ce6020526040902080549185169183908110612a5357612a53613642565b6000918252602090912001546001600160a01b031603612b13576001600160a01b038416600090815260ce602052604090208054612a9390600190613762565b81548110612aa357612aa3613642565b60009182526020808320909101546001600160a01b03878116845260ce9092526040909220805491909216919083908110612ae057612ae0613642565b9060005260206000200160006101000a8154816001600160a01b0302191690836001600160a01b03160217905550612b1b565b600101612a1c565b818103612bb65760405162461bcd60e51b815260206004820152604960248201527f53747261746567794d616e616765722e5f72656d6f766553747261746567794660448201527f726f6d5374616b657253747261746567794c6973743a2073747261746567792060648201527f6e6f7420666f756e640000000000000000000000000000000000000000000000608482015260a401610682565b6001600160a01b038416600090815260ce60205260409020805480612bdd57612bdd613775565b6000828152602090208101600019908101805473ffffffffffffffffffffffffffffffffffffffff1916905501905550505050565b600054610100900460ff1661220e5760405162461bcd60e51b815260206004820152602b60248201527f496e697469616c697a61626c653a20636f6e7472616374206973206e6f74206960448201527f6e697469616c697a696e670000000000000000000000000000000000000000006064820152608401610682565b6000808251604103612cc55760208301516040840151606085015160001a612cb987828585612f21565b94509450505050612ccd565b506000905060025b9250929050565b6000816004811115612ce857612ce861378b565b03612cf05750565b6001816004811115612d0457612d0461378b565b03612d515760405162461bcd60e51b815260206004820152601860248201527f45434453413a20696e76616c6964207369676e617475726500000000000000006044820152606401610682565b6002816004811115612d6557612d6561378b565b03612db25760405162461bcd60e51b815260206004820152601f60248201527f45434453413a20696e76616c6964207369676e6174757265206c656e677468006044820152606401610682565b6003816004811115612dc657612dc661378b565b036106945760405162461bcd60e51b815260206004820152602260248201527f45434453413a20696e76616c6964207369676e6174757265202773272076616c60448201527f75650000000000000000000000000000000000000000000000000000000000006064820152608401610682565b6000612e8e826040518060400160405280602081526020017f5361666545524332303a206c6f772d6c6576656c2063616c6c206661696c6564815250856001600160a01b0316612fe59092919063ffffffff16565b9050805160001480612eaf575080806020019051810190612eaf9190613625565b611f425760405162461bcd60e51b815260206004820152602a60248201527f5361666545524332303a204552433230206f7065726174696f6e20646964206e60448201527f6f742073756363656564000000000000000000000000000000000000000000006064820152608401610682565b6000807f7fffffffffffffffffffffffffffffff5d576e7357a4501ddfe92f46681b20a0831115612f585750600090506003612fdc565b6040805160008082526020820180845289905260ff881692820192909252606081018690526080810185905260019060a0016020604051602081039080840390855afa158015612fac573d6000803e3d6000fd5b5050604051601f1901519150506001600160a01b038116612fd557600060019250925050612fdc565b9150600090505b94509492505050565b6060612ff48484600085612ffc565b949350505050565b6060824710156130745760405162461bcd60e51b815260206004820152602660248201527f416464726573733a20696e73756666696369656e742062616c616e636520666f60448201527f722063616c6c00000000000000000000000000000000000000000000000000006064820152608401610682565b600080866001600160a01b0316858760405161309091906137a1565b60006040518083038185875af1925050503d80600081146130cd576040519150601f19603f3d011682016040523d82523d6000602084013e6130d2565b606091505b50915091506130e3878383876130ee565b979650505050505050565b6060831561315d578251600003613156576001600160a01b0385163b6131565760405162461bcd60e51b815260206004820152601d60248201527f416464726573733a2063616c6c20746f206e6f6e2d636f6e74726163740000006044820152606401610682565b5081612ff4565b612ff483838151156131725781518083602001fd5b8060405162461bcd60e51b815260040161068291906137bd565b6001600160a01b038116811461069457600080fd5b6000602082840312156131b357600080fd5b81356124a08161318c565b6000602082840312156131d057600080fd5b5035919050565b634e487b7160e01b600052604160045260246000fd5b60008060008060008060c0878903121561320657600080fd5b86356132118161318c565b955060208701356132218161318c565b94506040870135935060608701356132388161318c565b92506080870135915060a087013567ffffffffffffffff8082111561325c57600080fd5b818901915089601f83011261327057600080fd5b813581811115613282576132826131d7565b604051601f8201601f19908116603f011681019083821181831017156132aa576132aa6131d7565b816040528281528c60208487010111156132c357600080fd5b8260208601602083013760006020848301015280955050505050509295509295509295565b801515811461069457600080fd5b6000806040838503121561330957600080fd5b82356133148161318c565b91506020830135613324816132e8565b809150509250929050565b60006020828403121561334157600080fd5b813560ff811681146124a057600080fd5b6000806040838503121561336557600080fd5b82356133708161318c565b915060208301356133248161318c565b60008060006060848603121561339557600080fd5b83356133a08161318c565b925060208401356133b08161318c565b929592945050506040919091013590565b604080825283519082018190526000906020906060840190828701845b828110156134035781516001600160a01b0316845292840192908401906001016133de565b5050508381038285015284518082528583019183019060005b818110156134385783518352928401929184019160010161341c565b5090979650505050505050565b60008083601f84011261345757600080fd5b50813567ffffffffffffffff81111561346f57600080fd5b6020830191508360208260051b8501011115612ccd57600080fd5b6000806020838503121561349d57600080fd5b823567ffffffffffffffff8111156134b457600080fd5b6134c085828601613445565b90969095509350505050565b600080600080608085870312156134e257600080fd5b84356134ed8161318c565b935060208501356134fd8161318c565b9250604085013561350d8161318c565b9396929550929360600135925050565b6000806000806080858703121561353357600080fd5b843561353e8161318c565b9350602085013561354e8161318c565b92506040850135915060608501356135658161318c565b939692955090935050565b6000806040838503121561358357600080fd5b823561358e8161318c565b946020939093013593505050565b600080600080604085870312156135b257600080fd5b843567ffffffffffffffff808211156135ca57600080fd5b6135d688838901613445565b909650945060208701359150808211156135ef57600080fd5b506135fc87828801613445565b95989497509550505050565b60006020828403121561361a57600080fd5b81516124a08161318c565b60006020828403121561363757600080fd5b81516124a0816132e8565b634e487b7160e01b600052603260045260246000fd5b60006020828403121561366a57600080fd5b81356124a0816132e8565b60005b83811015613690578181015183820152602001613678565b50506000910152565b600081518084526136b1816020860160208601613675565b601f01601f19169290920160200192915050565b828152604060208201526000612ff46040830184613699565b6000602082840312156136f057600080fd5b81517fffffffff00000000000000000000000000000000000000000000000000000000811681146124a057600080fd5b60006020828403121561373257600080fd5b5051919050565b634e487b7160e01b600052601160045260246000fd5b8082018082111561297357612973613739565b8181038181111561297357612973613739565b634e487b7160e01b600052603160045260246000fd5b634e487b7160e01b600052602160045260246000fd5b600082516137b3818460208701613675565b9190910192915050565b6020815260006124a0602083018461369956fea26469706673582212202c219b8fbef74adfcc469c04b5d5c997d2a3a4ecdcbeb6ba9bffb87340a576ab64736f6c63430008140033",
  "devdoc": {
    "events": {
      "Deposit(address,address,address,uint256)": {
        "params": {
          "shares": "Is the number of new shares `staker` has been granted in `strategy`.",
          "staker": "Is the staker who is depositing funds into BinLayer.",
          "strategy": "Is the strategy that `staker` has deposited into.",
          "token": "Is the token that `staker` deposited."
        }
      },
      "Initialized(uint8)": {
        "details": "Triggered when the contract has been initialized or reinitialized."
      }
    },
    "kind": "dev",
    "methods": {
      "addStrategiesToDepositWhitelist(address[],bool[])": {
        "params": {
          "strategiesToWhitelist": "Strategies that will be added to the `strategyIsWhitelistedForDeposit` mapping (if they aren't in it already)",
          "thirdPartyTransfersForbiddenValues": "bool values to set `thirdPartyTransfersForbidden` to for each strategy"
        }
      },
      "constructor": {
        "params": {
          "_delegation": "The delegation contract of BinLayer.",
          "_slasher": "The primary slashing contract of BinLayer."
        }
      },
      "depositIntoStrategy(address,address,uint256)": {
        "details": "The `msg.sender` must have previously approved this contract to transfer at least `amount` of `token` on their behalf. WARNING: Depositing tokens that allow reentrancy (eg. ERC-777) into a strategy is not recommended.  This can lead to attack vectors          where the token balance and corresponding strategy shares are not in sync upon reentrancy.",
        "params": {
          "amount": "is the amount of token to be deposited in the strategy by the staker",
          "strategy": "is the specified strategy where deposit is to be made,",
          "token": "is the denomination in which the deposit is to be made,"
        },
        "returns": {
          "shares": "The amount of new shares in the `strategy` created as part of the action."
        }
      },
      "depositIntoStrategyWithSignature(address,address,uint256,address,uint256,bytes)": {
        "details": "The `msg.sender` must have previously approved this contract to transfer at least `amount` of `token` on their behalf.A signature is required for this function to eliminate the possibility of griefing attacks, specifically those targeting stakers who may be attempting to undelegate.Cannot be called if thirdPartyTransfersForbidden is set to true for this strategy  WARNING: Depositing tokens that allow reentrancy (eg. ERC-777) into a strategy is not recommended.  This can lead to attack vectors          where the token balance and corresponding strategy shares are not in sync upon reentrancy",
        "params": {
          "amount": "is the amount of token to be deposited in the strategy by the staker",
          "expiry": "the timestamp at which the signature expires",
          "signature": "is a valid signature from the `staker`. either an ECDSA signature if the `staker` is an EOA, or data to forward following EIP-1271 if the `staker` is a contract",
          "staker": "the staker that the deposited assets will be credited to",
          "strategy": "is the specified strategy where deposit is to be made,",
          "token": "is the denomination in which the deposit is to be made,"
        },
        "returns": {
          "shares": "The amount of new shares in the `strategy` created as part of the action."
        }
      },
      "depositIntoStrategyWithStaker(address,address,address,uint256)": {
        "details": "The `msg.sender` must have previously approved this contract to transfer at least `amount` of `token` on their behalf. WARNING: Depositing tokens that allow reentrancy (eg. ERC-777) into a strategy is not recommended.  This can lead to attack vectors          where the token balance and corresponding strategy shares are not in sync upon reentrancy.",
        "params": {
          "amount": "is the amount of token to be deposited in the strategy by the staker",
          "staker": "Staker address",
          "strategy": "is the specified strategy where deposit is to be made,",
          "token": "is the denomination in which the deposit is to be made,"
        },
        "returns": {
          "shares": "The amount of new shares in the `strategy` created as part of the action."
        }
      },
      "domainSeparator()": {
        "details": "The domain separator will change in the event of a fork that changes the ChainID."
      },
      "getDeposits(address)": {
        "params": {
          "staker": "The staker of interest, whose deposits this function will fetch"
        },
        "returns": {
          "_0": "(staker's strategies, shares in these strategies)"
        }
      },
      "initialize(address,address,address,uint256)": {
        "params": {
          "_pauserRegistry": "Used for access control of pausing.",
          "initialOwner": "Ownership of this contract is transferred to this address.",
          "initialPausedStatus": "The initial value of `_paused` to set.",
          "initialStrategyWhitelister": "The initial value of `strategyWhitelister` to set."
        }
      },
      "owner()": {
        "details": "Returns the address of the current owner."
      },
      "pause(uint256)": {
        "details": "This function can only pause functionality, and thus cannot 'unflip' any bit in `_paused` from 1 to 0.",
        "params": {
          "newPausedStatus": "represents the new value for `_paused` to take, which means it may flip several bits at once."
        }
      },
      "removeStrategiesFromDepositWhitelist(address[])": {
        "params": {
          "strategiesToRemoveFromWhitelist": "Strategies that will be removed to the `strategyIsWhitelistedForDeposit` mapping (if they are in it)"
        }
      },
      "renounceOwnership()": {
        "details": "Leaves the contract without owner. It will not be possible to call `onlyOwner` functions. Can only be called by the current owner. NOTE: Renouncing ownership will leave the contract without an owner, thereby disabling any functionality that is only available to the owner."
      },
      "setStrategyWhitelister(address)": {
        "params": {
          "newStrategyWhitelister": "new address for the `strategyWhitelister`."
        }
      },
      "setThirdPartyTransfersForbidden(address,bool)": {
        "params": {
          "strategy": "The strategy to set `thirdPartyTransfersForbidden` value to",
          "value": "bool value to set `thirdPartyTransfersForbidden` to"
        }
      },
      "transferOwnership(address)": {
        "details": "Transfers ownership of the contract to a new account (`newOwner`). Can only be called by the current owner."
      },
      "unpause(uint256)": {
        "details": "This function can only unpause functionality, and thus cannot 'flip' any bit in `_paused` from 0 to 1.",
        "params": {
          "newPausedStatus": "represents the new value for `_paused` to take, which means it may flip several bits at once."
        }
      }
    },
    "title": "The primary entry- and exit-point for funds into and out of BinLayer.",
    "version": 1
  },
  "userdoc": {
    "events": {
      "Deposit(address,address,address,uint256)": {
        "notice": "Emitted when a new deposit occurs on behalf of `staker`."
      },
      "Paused(address,uint256)": {
        "notice": "Emitted when the pause is triggered by `account`, and changed to `newPausedStatus`."
      },
      "PauserRegistrySet(address,address)": {
        "notice": "Emitted when the `pauserRegistry` is set to `newPauserRegistry`."
      },
      "StrategyAddedToDepositWhitelist(address)": {
        "notice": "Emitted when a strategy is added to the approved list of strategies for deposit"
      },
      "StrategyRemovedFromDepositWhitelist(address)": {
        "notice": "Emitted when a strategy is removed from the approved list of strategies for deposit"
      },
      "StrategyWhitelisterChanged(address,address)": {
        "notice": "Emitted when the `strategyWhitelister` is changed"
      },
      "Unpaused(address,uint256)": {
        "notice": "Emitted when the pause is lifted by `account`, and changed to `newPausedStatus`."
      },
      "UpdatedThirdPartyTransfersForbidden(address,bool)": {
        "notice": "Emitted when `thirdPartyTransfersForbidden` is updated for a strategy and value by the owner"
      }
    },
    "kind": "user",
    "methods": {
      "DEPOSIT_TYPEHASH()": {
        "notice": "The EIP-712 typehash for the deposit struct used by the contract"
      },
      "DOMAIN_TYPEHASH()": {
        "notice": "The EIP-712 typehash for the contract's domain"
      },
      "addShares(address,address,address,uint256)": {
        "notice": "Used by the DelegationManager to award a Staker some shares that have passed through the withdrawal queue"
      },
      "addStrategiesToDepositWhitelist(address[],bool[])": {
        "notice": "Owner-only function that adds the provided Strategies to the 'whitelist' of strategies that stakers can deposit into"
      },
      "delegation()": {
        "notice": "Returns the single, central Delegation contract of BinLayer"
      },
      "depositIntoStrategy(address,address,uint256)": {
        "notice": "Deposits `amount` of `token` into the specified `strategy`, with the resultant shares credited to `msg.sender`"
      },
      "depositIntoStrategyWithSignature(address,address,uint256,address,uint256,bytes)": {
        "notice": "Used for depositing an asset into the specified strategy with the resultant shares credited to `staker`, who must sign off on the action. Note that the assets are transferred out/from the `msg.sender`, not from the `staker`; this function is explicitly designed purely to help one address deposit 'for' another."
      },
      "depositIntoStrategyWithStaker(address,address,address,uint256)": {
        "notice": "Deposits `amount` of `token` into the specified `strategy`, with the resultant shares credited to `staker`"
      },
      "domainSeparator()": {
        "notice": "Getter function for the current EIP-712 domain separator for this contract."
      },
      "getDeposits(address)": {
        "notice": "Get all details on the staker's deposits and corresponding shares"
      },
      "initialize(address,address,address,uint256)": {
        "notice": "Initializes the strategy manager contract. Sets the `pauserRegistry` (currently **not** modifiable after being set), and transfers contract ownership to the specified `initialOwner`."
      },
      "pause(uint256)": {
        "notice": "This function is used to pause an BinLayer contract's functionality. It is permissioned to the `pauser` address, which is expected to be a low threshold multisig."
      },
      "pauseAll()": {
        "notice": "Alias for `pause(type(uint256).max)`."
      },
      "paused()": {
        "notice": "Returns the current paused status as a uint256."
      },
      "paused(uint8)": {
        "notice": "Returns 'true' if the `indexed`th bit of `_paused` is 1, and 'false' otherwise"
      },
      "pauserRegistry()": {
        "notice": "Address of the `PauserRegistry` contract that this contract defers to for determining access control (for pausing)."
      },
      "removeShares(address,address,uint256)": {
        "notice": "Used by the DelegationManager to remove a Staker's shares from a particular strategy when entering the withdrawal queue"
      },
      "removeStrategiesFromDepositWhitelist(address[])": {
        "notice": "Owner-only function that removes the provided Strategies from the 'whitelist' of strategies that stakers can deposit into"
      },
      "setPauserRegistry(address)": {
        "notice": "Allows the unpauser to set a new pauser registry"
      },
      "setStrategyWhitelister(address)": {
        "notice": "Owner-only function to change the `strategyWhitelister` address."
      },
      "setThirdPartyTransfersForbidden(address,bool)": {
        "notice": "If true for a strategy, a user cannot depositIntoStrategyWithSignature into that strategy for another staker and also when performing DelegationManager.queueWithdrawals, a staker can only withdraw to themselves. Defaulted to false for all existing strategies."
      },
      "slasher()": {
        "notice": "Returns the single, central Slasher contract of BinLayer"
      },
      "stakerStrategyList(address,uint256)": {
        "notice": "Mapping: staker => array of strategies in which they have nonzero shares"
      },
      "stakerStrategyListLength(address)": {
        "notice": "Simple getter function that returns `stakerStrategyList[staker].length`."
      },
      "stakerStrategyShares(address,address)": {
        "notice": "Mapping: staker => Strategy => number of shares which they currently hold"
      },
      "strategyIsWhitelistedForDeposit(address)": {
        "notice": "Mapping: strategy => whether or not stakers are allowed to deposit into it"
      },
      "strategyWhitelister()": {
        "notice": "Permissioned role, which can be changed by the contract owner. Has the ability to edit the strategy whitelist"
      },
      "thirdPartyTransfersForbidden(address)": {
        "notice": "Mapping: strategy => whether or not stakers are allowed to transfer strategy shares to another address if true for a strategy, a user cannot depositIntoStrategyWithSignature into that strategy for another staker and also when performing queueWithdrawals, a staker can only withdraw to themselves"
      },
      "unpause(uint256)": {
        "notice": "This function is used to unpause an BinLayer contract's functionality. It is permissioned to the `unpauser` address, which is expected to be a high threshold multisig or governance contract."
      },
      "withdrawSharesAsTokens(address,address,uint256,address)": {
        "notice": "Used by the DelegationManager to convert withdrawn shares to tokens and send them to a recipient"
      }
    },
    "notice": "This contract is for managing deposits in different strategies. The main functionalities are: - adding and removing strategies that any delegator can deposit into - enabling deposit of assets into specified strategy(s)",
    "version": 1
  },
  "storageLayout": {
    "storage": [
      {
        "astId": 139,
        "contract": "contracts/core/StrategyManager.sol:StrategyManager",
        "label": "_initialized",
        "offset": 0,
        "slot": "0",
        "type": "t_uint8"
      },
      {
        "astId": 142,
        "contract": "contracts/core/StrategyManager.sol:StrategyManager",
        "label": "_initializing",
        "offset": 1,
        "slot": "0",
        "type": "t_bool"
      },
      {
        "astId": 766,
        "contract": "contracts/core/StrategyManager.sol:StrategyManager",
        "label": "__gap",
        "offset": 0,
        "slot": "1",
        "type": "t_array(t_uint256)50_storage"
      },
      {
        "astId": 11,
        "contract": "contracts/core/StrategyManager.sol:StrategyManager",
        "label": "_owner",
        "offset": 0,
        "slot": "51",
        "type": "t_address"
      },
      {
        "astId": 131,
        "contract": "contracts/core/StrategyManager.sol:StrategyManager",
        "label": "__gap",
        "offset": 0,
        "slot": "52",
        "type": "t_array(t_uint256)49_storage"
      },
      {
        "astId": 316,
        "contract": "contracts/core/StrategyManager.sol:StrategyManager",
        "label": "_status",
        "offset": 0,
        "slot": "101",
        "type": "t_uint256"
      },
      {
        "astId": 385,
        "contract": "contracts/core/StrategyManager.sol:StrategyManager",
        "label": "__gap",
        "offset": 0,
        "slot": "102",
        "type": "t_array(t_uint256)49_storage"
      },
      {
        "astId": 10308,
        "contract": "contracts/core/StrategyManager.sol:StrategyManager",
        "label": "pauserRegistry",
        "offset": 0,
        "slot": "151",
        "type": "t_contract(IPauserRegistry)7893"
      },
      {
        "astId": 10311,
        "contract": "contracts/core/StrategyManager.sol:StrategyManager",
        "label": "_paused",
        "offset": 0,
        "slot": "152",
        "type": "t_uint256"
      },
      {
        "astId": 10593,
        "contract": "contracts/core/StrategyManager.sol:StrategyManager",
        "label": "__gap",
        "offset": 0,
        "slot": "153",
        "type": "t_array(t_uint256)49_storage"
      },
      {
        "astId": 7196,
        "contract": "contracts/core/StrategyManager.sol:StrategyManager",
        "label": "_DOMAIN_SEPARATOR",
        "offset": 0,
        "slot": "202",
        "type": "t_bytes32"
      },
      {
        "astId": 7200,
        "contract": "contracts/core/StrategyManager.sol:StrategyManager",
        "label": "nonces",
        "offset": 0,
        "slot": "203",
        "type": "t_mapping(t_address,t_uint256)"
      },
      {
        "astId": 7203,
        "contract": "contracts/core/StrategyManager.sol:StrategyManager",
        "label": "strategyWhitelister",
        "offset": 0,
        "slot": "204",
        "type": "t_address"
      },
      {
        "astId": 7211,
        "contract": "contracts/core/StrategyManager.sol:StrategyManager",
        "label": "stakerStrategyShares",
        "offset": 0,
        "slot": "205",
        "type": "t_mapping(t_address,t_mapping(t_contract(IStrategy)8266,t_uint256))"
      },
      {
        "astId": 7218,
        "contract": "contracts/core/StrategyManager.sol:StrategyManager",
        "label": "stakerStrategyList",
        "offset": 0,
        "slot": "206",
        "type": "t_mapping(t_address,t_array(t_contract(IStrategy)8266)dyn_storage)"
      },
      {
        "astId": 7224,
        "contract": "contracts/core/StrategyManager.sol:StrategyManager",
        "label": "strategyIsWhitelistedForDeposit",
        "offset": 0,
        "slot": "207",
        "type": "t_mapping(t_contract(IStrategy)8266,t_bool)"
      },
      {
        "astId": 7230,
        "contract": "contracts/core/StrategyManager.sol:StrategyManager",
        "label": "thirdPartyTransfersForbidden",
        "offset": 0,
        "slot": "208",
        "type": "t_mapping(t_contract(IStrategy)8266,t_bool)"
      },
      {
        "astId": 7253,
        "contract": "contracts/core/StrategyManager.sol:StrategyManager",
        "label": "__gap",
        "offset": 0,
        "slot": "209",
        "type": "t_array(t_uint256)49_storage"
      }
    ],
    "types": {
      "t_address": {
        "encoding": "inplace",
        "label": "address",
        "numberOfBytes": "20"
      },
      "t_array(t_contract(IStrategy)8266)dyn_storage": {
        "base": "t_contract(IStrategy)8266",
        "encoding": "dynamic_array",
        "label": "contract IStrategy[]",
        "numberOfBytes": "32"
      },
      "t_array(t_uint256)49_storage": {
        "base": "t_uint256",
        "encoding": "inplace",
        "label": "uint256[49]",
        "numberOfBytes": "1568"
      },
      "t_array(t_uint256)50_storage": {
        "base": "t_uint256",
        "encoding": "inplace",
        "label": "uint256[50]",
        "numberOfBytes": "1600"
      },
      "t_bool": {
        "encoding": "inplace",
        "label": "bool",
        "numberOfBytes": "1"
      },
      "t_bytes32": {
        "encoding": "inplace",
        "label": "bytes32",
        "numberOfBytes": "32"
      },
      "t_contract(IPauserRegistry)7893": {
        "encoding": "inplace",
        "label": "contract IPauserRegistry",
        "numberOfBytes": "20"
      },
      "t_contract(IStrategy)8266": {
        "encoding": "inplace",
        "label": "contract IStrategy",
        "numberOfBytes": "20"
      },
      "t_mapping(t_address,t_array(t_contract(IStrategy)8266)dyn_storage)": {
        "encoding": "mapping",
        "key": "t_address",
        "label": "mapping(address => contract IStrategy[])",
        "numberOfBytes": "32",
        "value": "t_array(t_contract(IStrategy)8266)dyn_storage"
      },
      "t_mapping(t_address,t_mapping(t_contract(IStrategy)8266,t_uint256))": {
        "encoding": "mapping",
        "key": "t_address",
        "label": "mapping(address => mapping(contract IStrategy => uint256))",
        "numberOfBytes": "32",
        "value": "t_mapping(t_contract(IStrategy)8266,t_uint256)"
      },
      "t_mapping(t_address,t_uint256)": {
        "encoding": "mapping",
        "key": "t_address",
        "label": "mapping(address => uint256)",
        "numberOfBytes": "32",
        "value": "t_uint256"
      },
      "t_mapping(t_contract(IStrategy)8266,t_bool)": {
        "encoding": "mapping",
        "key": "t_contract(IStrategy)8266",
        "label": "mapping(contract IStrategy => bool)",
        "numberOfBytes": "32",
        "value": "t_bool"
      },
      "t_mapping(t_contract(IStrategy)8266,t_uint256)": {
        "encoding": "mapping",
        "key": "t_contract(IStrategy)8266",
        "label": "mapping(contract IStrategy => uint256)",
        "numberOfBytes": "32",
        "value": "t_uint256"
      },
      "t_uint256": {
        "encoding": "inplace",
        "label": "uint256",
        "numberOfBytes": "32"
      },
      "t_uint8": {
        "encoding": "inplace",
        "label": "uint8",
        "numberOfBytes": "1"
      }
    }
  }
}