{
  "address": "0xE133dC70781eBEFD46FECA9Ac5F6e75289957c7e",
  "abi": [
    {
      "inputs": [
        {
          "internalType": "contract IDelegationController",
          "name": "_delegation",
          "type": "address"
        }
      ],
      "stateMutability": "nonpayable",
      "type": "constructor"
    },
    {
      "anonymous": false,
      "inputs": [
        {
          "indexed": true,
          "internalType": "address",
          "name": "avs",
          "type": "address"
        },
        {
          "indexed": false,
          "internalType": "string",
          "name": "metadataURI",
          "type": "string"
        }
      ],
      "name": "AVSMetadataURIUpdated",
      "type": "event"
    },
    {
      "anonymous": false,
      "inputs": [
        {
          "indexed": false,
          "internalType": "uint8",
          "name": "version",
          "type": "uint8"
        }
      ],
      "name": "Initialized",
      "type": "event"
    },
    {
      "anonymous": false,
      "inputs": [
        {
          "indexed": true,
          "internalType": "address",
          "name": "operator",
          "type": "address"
        },
        {
          "indexed": true,
          "internalType": "address",
          "name": "avs",
          "type": "address"
        },
        {
          "indexed": false,
          "internalType": "enum IAVSDirectory.OperatorAVSRegistrationStatus",
          "name": "status",
          "type": "uint8"
        }
      ],
      "name": "OperatorAVSRegistrationStatusUpdated",
      "type": "event"
    },
    {
      "anonymous": false,
      "inputs": [
        {
          "indexed": true,
          "internalType": "address",
          "name": "previousOwner",
          "type": "address"
        },
        {
          "indexed": true,
          "internalType": "address",
          "name": "newOwner",
          "type": "address"
        }
      ],
      "name": "OwnershipTransferred",
      "type": "event"
    },
    {
      "anonymous": false,
      "inputs": [
        {
          "indexed": true,
          "internalType": "address",
          "name": "account",
          "type": "address"
        },
        {
          "indexed": false,
          "internalType": "uint256",
          "name": "newPausedStatus",
          "type": "uint256"
        }
      ],
      "name": "Paused",
      "type": "event"
    },
    {
      "anonymous": false,
      "inputs": [
        {
          "indexed": false,
          "internalType": "contract IPauserRegistry",
          "name": "pauserRegistry",
          "type": "address"
        },
        {
          "indexed": false,
          "internalType": "contract IPauserRegistry",
          "name": "newPauserRegistry",
          "type": "address"
        }
      ],
      "name": "PauserRegistrySet",
      "type": "event"
    },
    {
      "anonymous": false,
      "inputs": [
        {
          "indexed": true,
          "internalType": "address",
          "name": "account",
          "type": "address"
        },
        {
          "indexed": false,
          "internalType": "uint256",
          "name": "newPausedStatus",
          "type": "uint256"
        }
      ],
      "name": "Unpaused",
      "type": "event"
    },
    {
      "inputs": [],
      "name": "DOMAIN_TYPEHASH",
      "outputs": [
        {
          "internalType": "bytes32",
          "name": "",
          "type": "bytes32"
        }
      ],
      "stateMutability": "view",
      "type": "function"
    },
    {
      "inputs": [],
      "name": "OPERATOR_AVS_REGISTRATION_TYPEHASH",
      "outputs": [
        {
          "internalType": "bytes32",
          "name": "",
          "type": "bytes32"
        }
      ],
      "stateMutability": "view",
      "type": "function"
    },
    {
      "inputs": [
        {
          "internalType": "address",
          "name": "",
          "type": "address"
        },
        {
          "internalType": "address",
          "name": "",
          "type": "address"
        }
      ],
      "name": "avsOperatorStatus",
      "outputs": [
        {
          "internalType": "enum IAVSDirectory.OperatorAVSRegistrationStatus",
          "name": "",
          "type": "uint8"
        }
      ],
      "stateMutability": "view",
      "type": "function"
    },
    {
      "inputs": [
        {
          "internalType": "address",
          "name": "operator",
          "type": "address"
        },
        {
          "internalType": "address",
          "name": "avs",
          "type": "address"
        },
        {
          "internalType": "bytes32",
          "name": "salt",
          "type": "bytes32"
        },
        {
          "internalType": "uint256",
          "name": "expiry",
          "type": "uint256"
        }
      ],
      "name": "calculateOperatorAVSRegistrationDigestHash",
      "outputs": [
        {
          "internalType": "bytes32",
          "name": "",
          "type": "bytes32"
        }
      ],
      "stateMutability": "view",
      "type": "function"
    },
    {
      "inputs": [
        {
          "internalType": "bytes32",
          "name": "salt",
          "type": "bytes32"
        }
      ],
      "name": "cancelSalt",
      "outputs": [],
      "stateMutability": "nonpayable",
      "type": "function"
    },
    {
      "inputs": [],
      "name": "delegation",
      "outputs": [
        {
          "internalType": "contract IDelegationController",
          "name": "",
          "type": "address"
        }
      ],
      "stateMutability": "view",
      "type": "function"
    },
    {
      "inputs": [
        {
          "internalType": "address",
          "name": "operator",
          "type": "address"
        }
      ],
      "name": "deregisterOperatorFromAVS",
      "outputs": [],
      "stateMutability": "nonpayable",
      "type": "function"
    },
    {
      "inputs": [],
      "name": "domainSeparator",
      "outputs": [
        {
          "internalType": "bytes32",
          "name": "",
          "type": "bytes32"
        }
      ],
      "stateMutability": "view",
      "type": "function"
    },
    {
      "inputs": [
        {
          "internalType": "address",
          "name": "initialOwner",
          "type": "address"
        },
        {
          "internalType": "contract IPauserRegistry",
          "name": "_pauserRegistry",
          "type": "address"
        },
        {
          "internalType": "uint256",
          "name": "initialPausedStatus",
          "type": "uint256"
        }
      ],
      "name": "initialize",
      "outputs": [],
      "stateMutability": "nonpayable",
      "type": "function"
    },
    {
      "inputs": [
        {
          "internalType": "address",
          "name": "",
          "type": "address"
        },
        {
          "internalType": "bytes32",
          "name": "",
          "type": "bytes32"
        }
      ],
      "name": "operatorSaltIsSpent",
      "outputs": [
        {
          "internalType": "bool",
          "name": "",
          "type": "bool"
        }
      ],
      "stateMutability": "view",
      "type": "function"
    },
    {
      "inputs": [],
      "name": "owner",
      "outputs": [
        {
          "internalType": "address",
          "name": "",
          "type": "address"
        }
      ],
      "stateMutability": "view",
      "type": "function"
    },
    {
      "inputs": [
        {
          "internalType": "uint256",
          "name": "newPausedStatus",
          "type": "uint256"
        }
      ],
      "name": "pause",
      "outputs": [],
      "stateMutability": "nonpayable",
      "type": "function"
    },
    {
      "inputs": [],
      "name": "pauseAll",
      "outputs": [],
      "stateMutability": "nonpayable",
      "type": "function"
    },
    {
      "inputs": [
        {
          "internalType": "uint8",
          "name": "index",
          "type": "uint8"
        }
      ],
      "name": "paused",
      "outputs": [
        {
          "internalType": "bool",
          "name": "",
          "type": "bool"
        }
      ],
      "stateMutability": "view",
      "type": "function"
    },
    {
      "inputs": [],
      "name": "paused",
      "outputs": [
        {
          "internalType": "uint256",
          "name": "",
          "type": "uint256"
        }
      ],
      "stateMutability": "view",
      "type": "function"
    },
    {
      "inputs": [],
      "name": "pauserRegistry",
      "outputs": [
        {
          "internalType": "contract IPauserRegistry",
          "name": "",
          "type": "address"
        }
      ],
      "stateMutability": "view",
      "type": "function"
    },
    {
      "inputs": [
        {
          "internalType": "address",
          "name": "operator",
          "type": "address"
        },
        {
          "components": [
            {
              "internalType": "bytes",
              "name": "signature",
              "type": "bytes"
            },
            {
              "internalType": "bytes32",
              "name": "salt",
              "type": "bytes32"
            },
            {
              "internalType": "uint256",
              "name": "expiry",
              "type": "uint256"
            }
          ],
          "internalType": "struct ISignatureUtils.SignatureWithSaltAndExpiry",
          "name": "operatorSignature",
          "type": "tuple"
        }
      ],
      "name": "registerOperatorToAVS",
      "outputs": [],
      "stateMutability": "nonpayable",
      "type": "function"
    },
    {
      "inputs": [],
      "name": "renounceOwnership",
      "outputs": [],
      "stateMutability": "nonpayable",
      "type": "function"
    },
    {
      "inputs": [
        {
          "internalType": "contract IPauserRegistry",
          "name": "newPauserRegistry",
          "type": "address"
        }
      ],
      "name": "setPauserRegistry",
      "outputs": [],
      "stateMutability": "nonpayable",
      "type": "function"
    },
    {
      "inputs": [
        {
          "internalType": "address",
          "name": "newOwner",
          "type": "address"
        }
      ],
      "name": "transferOwnership",
      "outputs": [],
      "stateMutability": "nonpayable",
      "type": "function"
    },
    {
      "inputs": [
        {
          "internalType": "uint256",
          "name": "newPausedStatus",
          "type": "uint256"
        }
      ],
      "name": "unpause",
      "outputs": [],
      "stateMutability": "nonpayable",
      "type": "function"
    },
    {
      "inputs": [
        {
          "internalType": "string",
          "name": "metadataURI",
          "type": "string"
        }
      ],
      "name": "updateAVSMetadataURI",
      "outputs": [],
      "stateMutability": "nonpayable",
      "type": "function"
    }
  ],
  "transactionHash": "0x073d4c0ac999be64080ed5794a4d36a936b5eb576a79217b9acc67095d536ee0",
  "args": [
    "0xcC4b428124C226c87872d0932b7549DA0531e364"
  ],
  "numDeployments": 1,
  "solcInputHash": "ec9ec5098c5cbac6ea24657050d64207",
  "bytecode": "0x60c06040523480156200001157600080fd5b5060405162001ebd38038062001ebd833981016040819052620000349162000117565b6001600160a01b0381166080526200004b62000056565b504660a05262000149565b600054610100900460ff1615620000c35760405162461bcd60e51b815260206004820152602760248201527f496e697469616c697a61626c653a20636f6e747261637420697320696e697469604482015266616c697a696e6760c81b606482015260840160405180910390fd5b60005460ff9081161462000115576000805460ff191660ff9081179091556040519081527f7f26b83ff96e1f2b6a682f133852f6798a09c465da95921460cefb38474024989060200160405180910390a15b565b6000602082840312156200012a57600080fd5b81516001600160a01b03811681146200014257600080fd5b9392505050565b60805160a051611d47620001766000396000610f4c0152600081816103640152610a910152611d476000f3fe608060405234801561001057600080fd5b50600436106101825760003560e01c80638da5cb5b116100d8578063d79aceab1161008c578063f2fde38b11610066578063f2fde38b14610399578063f698da25146103ac578063fabc1cbc146103b457600080fd5b8063d79aceab14610338578063df5cf7231461035f578063ec76f4421461038657600080fd5b8063a1060c88116100bd578063a1060c88146102ff578063a364f4da14610312578063a98fb3551461032557600080fd5b80638da5cb5b146102db5780639926ee7d146102ec57600080fd5b806349075da31161013a5780635c975abb116101145780635c975abb146102a0578063715018a6146102a8578063886f1195146102b057600080fd5b806349075da31461023a578063595c6a67146102755780635ac86ab71461027d57600080fd5b80631794bb3c1161016b5780631794bb3c146101af57806320606b70146101c2578063374823b5146101fc57600080fd5b806310d67a2f14610187578063136439dd1461019c575b600080fd5b61019a610195366004611894565b6103c7565b005b61019a6101aa3660046118b8565b6104a0565b61019a6101bd3660046118d1565b6105dd565b6101e97f8cad95687ba82c2ce50e74f7b754645e5117c3a5bec8151c0726d5857980a86681565b6040519081526020015b60405180910390f35b61022a61020a366004611912565b609a60209081526000928352604080842090915290825290205460ff1681565b60405190151581526020016101f3565b61026861024836600461193e565b609960209081526000928352604080842090915290825290205460ff1681565b6040516101f3919061198d565b61019a6107b5565b61022a61028b3660046119b5565b606654600160ff9092169190911b9081161490565b6066546101e9565b61019a610899565b6065546102c3906001600160a01b031681565b6040516001600160a01b0390911681526020016101f3565b6033546001600160a01b03166102c3565b61019a6102fa366004611a48565b6108ad565b6101e961030d366004611b2f565b610bec565b61019a610320366004611894565b610cc0565b61019a610333366004611b75565b610ddc565b6101e97fda2c89bafdd34776a2b8bb9c83c82f419e20cc8c67207f70edd58249b92661bd81565b6102c37f000000000000000000000000000000000000000000000000000000000000000081565b61019a6103943660046118b8565b610e23565b61019a6103a7366004611894565b610ebb565b6101e9610f48565b61019a6103c23660046118b8565b611023565b606560009054906101000a90046001600160a01b03166001600160a01b031663eab66d7a6040518163ffffffff1660e01b8152600401602060405180830381865afa15801561041a573d6000803e3d6000fd5b505050506040513d601f19601f8201168201806040525081019061043e9190611be7565b6001600160a01b0316336001600160a01b031614604051806040016040528060018152602001601960f91b815250906104935760405162461bcd60e51b815260040161048a9190611c4a565b60405180910390fd5b5061049d8161117f565b50565b60655460405163237dfb4760e11b81523360048201526001600160a01b03909116906346fbf68e90602401602060405180830381865afa1580156104e8573d6000803e3d6000fd5b505050506040513d601f19601f8201168201806040525081019061050c9190611c5d565b604051806040016040528060018152602001603160f81b815250906105445760405162461bcd60e51b815260040161048a9190611c4a565b5060665460408051808201909152600181527f37000000000000000000000000000000000000000000000000000000000000006020820152908281161461059e5760405162461bcd60e51b815260040161048a9190611c4a565b50606681905560405181815233907fab40a374bc51de372200a8bc981af8c9ecdc08dfdaef0bb6e09f88f3c616ef3d906020015b60405180910390a250565b600054610100900460ff16158080156105fd5750600054600160ff909116105b806106175750303b158015610617575060005460ff166001145b6106895760405162461bcd60e51b815260206004820152602e60248201527f496e697469616c697a61626c653a20636f6e747261637420697320616c72656160448201527f647920696e697469616c697a6564000000000000000000000000000000000000606482015260840161048a565b6000805460ff1916600117905580156106ac576000805461ff0019166101001790555b6106b6838361125c565b604080518082018252600881527f42696e4c6179657200000000000000000000000000000000000000000000000060209182015281517f8cad95687ba82c2ce50e74f7b754645e5117c3a5bec8151c0726d5857980a866818301527fc3e1ab4858383d79d3a0e54f9365ec1da08f828fcebd1952f7ea695e26718a6081840152466060820152306080808301919091528351808303909101815260a0909101909252815191012060985561076984611319565b80156107af576000805461ff0019169055604051600181527f7f26b83ff96e1f2b6a682f133852f6798a09c465da95921460cefb38474024989060200160405180910390a15b50505050565b60655460405163237dfb4760e11b81523360048201526001600160a01b03909116906346fbf68e90602401602060405180830381865afa1580156107fd573d6000803e3d6000fd5b505050506040513d601f19601f820116820180604052508101906108219190611c5d565b604051806040016040528060018152602001603160f81b815250906108595760405162461bcd60e51b815260040161048a9190611c4a565b50600019606681905560405190815233907fab40a374bc51de372200a8bc981af8c9ecdc08dfdaef0bb6e09f88f3c616ef3d9060200160405180910390a2565b6108a1611383565b6108ab6000611319565b565b606654604080518082019091526001808252603560f81b60208301526000928116036108ec5760405162461bcd60e51b815260040161048a9190611c4a565b5042826040015110156040518060400160405280600281526020017f3133000000000000000000000000000000000000000000000000000000000000815250906109495760405162461bcd60e51b815260040161048a9190611c4a565b5060013360009081526099602090815260408083206001600160a01b038816845290915290205460ff16600181111561098457610984611977565b14156040518060400160405280600281526020017f3230000000000000000000000000000000000000000000000000000000000000815250906109da5760405162461bcd60e51b815260040161048a9190611c4a565b506001600160a01b0383166000908152609a60209081526040808320858301518452825291829020548251808401909352600283527f33310000000000000000000000000000000000000000000000000000000000009183019190915260ff1615610a585760405162461bcd60e51b815260040161048a9190611c4a565b506040517f6d70f7ae0000000000000000000000000000000000000000000000000000000081526001600160a01b0384811660048301527f00000000000000000000000000000000000000000000000000000000000000001690636d70f7ae90602401602060405180830381865afa158015610ad8573d6000803e3d6000fd5b505050506040513d601f19601f82011682018060405250810190610afc9190611c5d565b60405180604001604052806002815260200161033360f41b81525090610b355760405162461bcd60e51b815260040161048a9190611c4a565b506000610b4c843385602001518660400151610bec565b9050610b5d848285600001516113dd565b3360008181526099602090815260408083206001600160a01b0389168085529083528184208054600160ff199182168117909255609a85528386208a860151875290945293829020805490931684179092555190917ff0952b1c65271d819d39983d2abb044b9cace59bcc4d4dd389f586ebdcb15b4191610bde919061198d565b60405180910390a350505050565b604080517fda2c89bafdd34776a2b8bb9c83c82f419e20cc8c67207f70edd58249b92661bd6020808301919091526001600160a01b0387811683850152861660608301526080820185905260a08083018590528351808403909101815260c0909201909252805191012060009081610c62610f48565b6040517f1901000000000000000000000000000000000000000000000000000000000000602082015260228101919091526042810183905260620160408051808303601f190181529190528051602090910120979650505050505050565b606654604080518082019091526001808252603560f81b6020830152600092811603610cff5760405162461bcd60e51b815260040161048a9190611c4a565b5060013360009081526099602090815260408083206001600160a01b038716845290915290205460ff166001811115610d3a57610d3a611977565b1460405180604001604052806002815260200161033360f41b81525090610d745760405162461bcd60e51b815260040161048a9190611c4a565b503360008181526099602090815260408083206001600160a01b0387168085529252808320805460ff191690555190917ff0952b1c65271d819d39983d2abb044b9cace59bcc4d4dd389f586ebdcb15b4191610dd0919061198d565b60405180910390a35050565b336001600160a01b03167fa89c1dc243d8908a96dd84944bcc97d6bc6ac00dd78e20621576be6a3c9437138383604051610e17929190611c7f565b60405180910390a25050565b336000908152609a60209081526040808320848452825291829020548251808401909352600283527f34380000000000000000000000000000000000000000000000000000000000009183019190915260ff1615610e945760405162461bcd60e51b815260040161048a9190611c4a565b50336000908152609a6020908152604080832093835292905220805460ff19166001179055565b610ec3611383565b6001600160a01b038116610f3f5760405162461bcd60e51b815260206004820152602660248201527f4f776e61626c653a206e6577206f776e657220697320746865207a65726f206160448201527f6464726573730000000000000000000000000000000000000000000000000000606482015260840161048a565b61049d81611319565b60007f00000000000000000000000000000000000000000000000000000000000000004603610f78575060985490565b50604080518082018252600881527f42696e4c6179657200000000000000000000000000000000000000000000000060209182015281517f8cad95687ba82c2ce50e74f7b754645e5117c3a5bec8151c0726d5857980a866818301527fc3e1ab4858383d79d3a0e54f9365ec1da08f828fcebd1952f7ea695e26718a6081840152466060820152306080808301919091528351808303909101815260a0909101909252815191012090565b606560009054906101000a90046001600160a01b03166001600160a01b031663eab66d7a6040518163ffffffff1660e01b8152600401602060405180830381865afa158015611076573d6000803e3d6000fd5b505050506040513d601f19601f8201168201806040525081019061109a9190611be7565b6001600160a01b0316336001600160a01b031614604051806040016040528060018152602001601960f91b815250906110e65760405162461bcd60e51b815260040161048a9190611c4a565b506066541981196066541916146040518060400160405280600181526020017f3800000000000000000000000000000000000000000000000000000000000000815250906111475760405162461bcd60e51b815260040161048a9190611c4a565b50606681905560405181815233907f3582d1828e26bf56bd801502bc021ac0bc8afb57c826e4986b45593c8fad389c906020016105d2565b60408051808201909152600181527f330000000000000000000000000000000000000000000000000000000000000060208201526001600160a01b0382166111da5760405162461bcd60e51b815260040161048a9190611c4a565b50606554604080516001600160a01b03928316815291831660208301527f6e9fcd539896fca60e8b0f01dd580233e48a6b0f7df013b89ba7f565869acdb6910160405180910390a1606580547fffffffffffffffffffffffff0000000000000000000000000000000000000000166001600160a01b0392909216919091179055565b6065546001600160a01b031615801561127d57506001600160a01b03821615155b6040518060400160405280600181526020017f3600000000000000000000000000000000000000000000000000000000000000815250906112d15760405162461bcd60e51b815260040161048a9190611c4a565b50606681905560405181815233907fab40a374bc51de372200a8bc981af8c9ecdc08dfdaef0bb6e09f88f3c616ef3d9060200160405180910390a26113158261117f565b5050565b603380546001600160a01b038381167fffffffffffffffffffffffff0000000000000000000000000000000000000000831681179093556040519116919082907f8be0079c531659141344cd1fd0a4f28419497f9722a3daafe3b4186f6b6457e090600090a35050565b6033546001600160a01b031633146108ab5760405162461bcd60e51b815260206004820181905260248201527f4f776e61626c653a2063616c6c6572206973206e6f7420746865206f776e6572604482015260640161048a565b6001600160a01b0383163b15611537576040517f1626ba7e00000000000000000000000000000000000000000000000000000000808252906001600160a01b03851690631626ba7e906114369086908690600401611cae565b602060405180830381865afa158015611453573d6000803e3d6000fd5b505050506040513d601f19601f820116820180604052508101906114779190611ccf565b7fffffffff0000000000000000000000000000000000000000000000000000000016146115325760405162461bcd60e51b815260206004820152605360248201527f454950313237315369676e61747572655574696c732e636865636b5369676e6160448201527f747572655f454950313237313a2045524331323731207369676e61747572652060648201527f766572696669636174696f6e206661696c656400000000000000000000000000608482015260a40161048a565b505050565b826001600160a01b031661154b83836115ed565b6001600160a01b0316146115325760405162461bcd60e51b815260206004820152604760248201527f454950313237315369676e61747572655574696c732e636865636b5369676e6160448201527f747572655f454950313237313a207369676e6174757265206e6f742066726f6d60648201527f207369676e657200000000000000000000000000000000000000000000000000608482015260a40161048a565b60008060006115fc8585611611565b9150915061160981611656565b509392505050565b60008082516041036116475760208301516040840151606085015160001a61163b878285856117bb565b9450945050505061164f565b506000905060025b9250929050565b600081600481111561166a5761166a611977565b036116725750565b600181600481111561168657611686611977565b036116d35760405162461bcd60e51b815260206004820152601860248201527f45434453413a20696e76616c6964207369676e61747572650000000000000000604482015260640161048a565b60028160048111156116e7576116e7611977565b036117345760405162461bcd60e51b815260206004820152601f60248201527f45434453413a20696e76616c6964207369676e6174757265206c656e67746800604482015260640161048a565b600381600481111561174857611748611977565b0361049d5760405162461bcd60e51b815260206004820152602260248201527f45434453413a20696e76616c6964207369676e6174757265202773272076616c60448201527f7565000000000000000000000000000000000000000000000000000000000000606482015260840161048a565b6000807f7fffffffffffffffffffffffffffffff5d576e7357a4501ddfe92f46681b20a08311156117f25750600090506003611876565b6040805160008082526020820180845289905260ff881692820192909252606081018690526080810185905260019060a0016020604051602081039080840390855afa158015611846573d6000803e3d6000fd5b5050604051601f1901519150506001600160a01b03811661186f57600060019250925050611876565b9150600090505b94509492505050565b6001600160a01b038116811461049d57600080fd5b6000602082840312156118a657600080fd5b81356118b18161187f565b9392505050565b6000602082840312156118ca57600080fd5b5035919050565b6000806000606084860312156118e657600080fd5b83356118f18161187f565b925060208401356119018161187f565b929592945050506040919091013590565b6000806040838503121561192557600080fd5b82356119308161187f565b946020939093013593505050565b6000806040838503121561195157600080fd5b823561195c8161187f565b9150602083013561196c8161187f565b809150509250929050565b634e487b7160e01b600052602160045260246000fd5b60208101600283106119af57634e487b7160e01b600052602160045260246000fd5b91905290565b6000602082840312156119c757600080fd5b813560ff811681146118b157600080fd5b634e487b7160e01b600052604160045260246000fd5b6040516060810167ffffffffffffffff81118282101715611a1157611a116119d8565b60405290565b604051601f8201601f1916810167ffffffffffffffff81118282101715611a4057611a406119d8565b604052919050565b60008060408385031215611a5b57600080fd5b8235611a668161187f565b915060208381013567ffffffffffffffff80821115611a8457600080fd5b9085019060608288031215611a9857600080fd5b611aa06119ee565b823582811115611aaf57600080fd5b8301601f81018913611ac057600080fd5b803583811115611ad257611ad26119d8565b611ae4601f8201601f19168701611a17565b93508084528986828401011115611afa57600080fd5b808683018786013760008682860101525050818152838301358482015260408301356040820152809450505050509250929050565b60008060008060808587031215611b4557600080fd5b8435611b508161187f565b93506020850135611b608161187f565b93969395505050506040820135916060013590565b60008060208385031215611b8857600080fd5b823567ffffffffffffffff80821115611ba057600080fd5b818501915085601f830112611bb457600080fd5b813581811115611bc357600080fd5b866020828501011115611bd557600080fd5b60209290920196919550909350505050565b600060208284031215611bf957600080fd5b81516118b18161187f565b6000815180845260005b81811015611c2a57602081850181015186830182015201611c0e565b506000602082860101526020601f19601f83011685010191505092915050565b6020815260006118b16020830184611c04565b600060208284031215611c6f57600080fd5b815180151581146118b157600080fd5b60208152816020820152818360408301376000818301604090810191909152601f909201601f19160101919050565b828152604060208201526000611cc76040830184611c04565b949350505050565b600060208284031215611ce157600080fd5b81517fffffffff00000000000000000000000000000000000000000000000000000000811681146118b157600080fdfea26469706673582212209c2d0853919ca7b16626695e6fd67ed99d4b31e585d3f86de72b5c46d3da7fcb64736f6c63430008140033",
  "devdoc": {
    "events": {
      "AVSMetadataURIUpdated(address,string)": {
        "details": "Note that these strings are *never stored in storage* and are instead purely emitted in events for off-chain indexing"
      },
      "Initialized(uint8)": {
        "details": "Triggered when the contract has been initialized or reinitialized."
      }
    },
    "kind": "dev",
    "methods": {
      "calculateOperatorAVSRegistrationDigestHash(address,address,bytes32,uint256)": {
        "params": {
          "avs": "The address of the service manager contract for the AVS that the operator is registering to",
          "expiry": "Time after which the approver's signature becomes invalid",
          "operator": "The account registering as an operator",
          "salt": "A unique and single use value associated with the approver signature."
        }
      },
      "cancelSalt(bytes32)": {
        "params": {
          "salt": "A unique and single use value associated with the approver signature."
        }
      },
      "constructor": {
        "details": "Initializes the immutable addresses of the delegation controller contracts"
      },
      "deregisterOperatorFromAVS(address)": {
        "params": {
          "operator": "The address of the operator to deregister."
        }
      },
      "domainSeparator()": {
        "details": "The domain separator will change in the event of a fork that changes the ChainID."
      },
      "initialize(address,address,uint256)": {
        "details": "Initializes the addresses of the initial owner, pauser registry, and paused status. minWithdrawalDelayBlocks is set only once here"
      },
      "owner()": {
        "details": "Returns the address of the current owner."
      },
      "pause(uint256)": {
        "details": "This function can only pause functionality, and thus cannot 'unflip' any bit in `_paused` from 1 to 0.",
        "params": {
          "newPausedStatus": "represents the new value for `_paused` to take, which means it may flip several bits at once."
        }
      },
      "registerOperatorToAVS(address,(bytes,bytes32,uint256))": {
        "params": {
          "operator": "The address of the operator to register.",
          "operatorSignature": "The signature, salt, and expiry of the operator's signature."
        }
      },
      "renounceOwnership()": {
        "details": "Leaves the contract without owner. It will not be possible to call `onlyOwner` functions. Can only be called by the current owner. NOTE: Renouncing ownership will leave the contract without an owner, thereby disabling any functionality that is only available to the owner."
      },
      "transferOwnership(address)": {
        "details": "Transfers ownership of the contract to a new account (`newOwner`). Can only be called by the current owner."
      },
      "unpause(uint256)": {
        "details": "This function can only unpause functionality, and thus cannot 'flip' any bit in `_paused` from 0 to 1.",
        "params": {
          "newPausedStatus": "represents the new value for `_paused` to take, which means it may flip several bits at once."
        }
      },
      "updateAVSMetadataURI(string)": {
        "params": {
          "metadataURI": "The URI for metadata associated with an avs"
        }
      }
    },
    "version": 1
  },
  "userdoc": {
    "events": {
      "AVSMetadataURIUpdated(address,string)": {
        "notice": "Emitted when @param avs indicates that they are updating their MetadataURI string"
      },
      "OperatorAVSRegistrationStatusUpdated(address,address,uint8)": {
        "notice": "Emitted when an operator's registration status for an AVS is updated"
      },
      "Paused(address,uint256)": {
        "notice": "Emitted when the pause is triggered by `account`, and changed to `newPausedStatus`."
      },
      "PauserRegistrySet(address,address)": {
        "notice": "Emitted when the `pauserRegistry` is set to `newPauserRegistry`."
      },
      "Unpaused(address,uint256)": {
        "notice": "Emitted when the pause is lifted by `account`, and changed to `newPausedStatus`."
      }
    },
    "kind": "user",
    "methods": {
      "DOMAIN_TYPEHASH()": {
        "notice": "The EIP-712 typehash for the contract's domain"
      },
      "OPERATOR_AVS_REGISTRATION_TYPEHASH()": {
        "notice": "The EIP-712 typehash for the `Registration` struct used by the contract"
      },
      "avsOperatorStatus(address,address)": {
        "notice": "Mapping: AVS => operator => enum of operator status to the AVS"
      },
      "calculateOperatorAVSRegistrationDigestHash(address,address,bytes32,uint256)": {
        "notice": "Calculates the digest hash to be signed by an operator to register with an AVS"
      },
      "cancelSalt(bytes32)": {
        "notice": "Called by an operator to cancel a salt that has been used to register with an AVS."
      },
      "delegation()": {
        "notice": "The DelegationController contract for BinLayer"
      },
      "deregisterOperatorFromAVS(address)": {
        "notice": "Called by an avs to deregister an operator with the avs."
      },
      "domainSeparator()": {
        "notice": "Getter function for the current EIP-712 domain separator for this contract."
      },
      "operatorSaltIsSpent(address,bytes32)": {
        "notice": "Mapping: operator => 32-byte salt => whether or not the salt has already been used by the operator."
      },
      "pause(uint256)": {
        "notice": "This function is used to pause an BinLayer contract's functionality. It is permissioned to the `pauser` address, which is expected to be a low threshold multisig."
      },
      "pauseAll()": {
        "notice": "Alias for `pause(type(uint256).max)`."
      },
      "paused()": {
        "notice": "Returns the current paused status as a uint256."
      },
      "paused(uint8)": {
        "notice": "Returns 'true' if the `indexed`th bit of `_paused` is 1, and 'false' otherwise"
      },
      "pauserRegistry()": {
        "notice": "Address of the `PauserRegistry` contract that this contract defers to for determining access control (for pausing)."
      },
      "registerOperatorToAVS(address,(bytes,bytes32,uint256))": {
        "notice": "Called by the AVS's service manager contract to register an operator with the avs."
      },
      "setPauserRegistry(address)": {
        "notice": "Allows the unpauser to set a new pauser registry"
      },
      "unpause(uint256)": {
        "notice": "This function is used to unpause an BinLayer contract's functionality. It is permissioned to the `unpauser` address, which is expected to be a high threshold multisig or governance contract."
      },
      "updateAVSMetadataURI(string)": {
        "notice": "Called by an avs to emit an `AVSMetadataURIUpdated` event indicating the information has updated."
      }
    },
    "version": 1
  },
  "storageLayout": {
    "storage": [
      {
        "astId": 139,
        "contract": "contracts/core/AVSDirectory.sol:AVSDirectory",
        "label": "_initialized",
        "offset": 0,
        "slot": "0",
        "type": "t_uint8"
      },
      {
        "astId": 142,
        "contract": "contracts/core/AVSDirectory.sol:AVSDirectory",
        "label": "_initializing",
        "offset": 1,
        "slot": "0",
        "type": "t_bool"
      },
      {
        "astId": 766,
        "contract": "contracts/core/AVSDirectory.sol:AVSDirectory",
        "label": "__gap",
        "offset": 0,
        "slot": "1",
        "type": "t_array(t_uint256)50_storage"
      },
      {
        "astId": 11,
        "contract": "contracts/core/AVSDirectory.sol:AVSDirectory",
        "label": "_owner",
        "offset": 0,
        "slot": "51",
        "type": "t_address"
      },
      {
        "astId": 131,
        "contract": "contracts/core/AVSDirectory.sol:AVSDirectory",
        "label": "__gap",
        "offset": 0,
        "slot": "52",
        "type": "t_array(t_uint256)49_storage"
      },
      {
        "astId": 13271,
        "contract": "contracts/core/AVSDirectory.sol:AVSDirectory",
        "label": "pauserRegistry",
        "offset": 0,
        "slot": "101",
        "type": "t_contract(IPauserRegistry)10193"
      },
      {
        "astId": 13274,
        "contract": "contracts/core/AVSDirectory.sol:AVSDirectory",
        "label": "_paused",
        "offset": 0,
        "slot": "102",
        "type": "t_uint256"
      },
      {
        "astId": 13564,
        "contract": "contracts/core/AVSDirectory.sol:AVSDirectory",
        "label": "__gap",
        "offset": 0,
        "slot": "103",
        "type": "t_array(t_uint256)49_storage"
      },
      {
        "astId": 4296,
        "contract": "contracts/core/AVSDirectory.sol:AVSDirectory",
        "label": "_DOMAIN_SEPARATOR",
        "offset": 0,
        "slot": "152",
        "type": "t_bytes32"
      },
      {
        "astId": 4304,
        "contract": "contracts/core/AVSDirectory.sol:AVSDirectory",
        "label": "avsOperatorStatus",
        "offset": 0,
        "slot": "153",
        "type": "t_mapping(t_address,t_mapping(t_address,t_enum(OperatorAVSRegistrationStatus)9473))"
      },
      {
        "astId": 4311,
        "contract": "contracts/core/AVSDirectory.sol:AVSDirectory",
        "label": "operatorSaltIsSpent",
        "offset": 0,
        "slot": "154",
        "type": "t_mapping(t_address,t_mapping(t_bytes32,t_bool))"
      },
      {
        "astId": 4327,
        "contract": "contracts/core/AVSDirectory.sol:AVSDirectory",
        "label": "__gap",
        "offset": 0,
        "slot": "155",
        "type": "t_array(t_uint256)49_storage"
      },
      {
        "astId": 316,
        "contract": "contracts/core/AVSDirectory.sol:AVSDirectory",
        "label": "_status",
        "offset": 0,
        "slot": "204",
        "type": "t_uint256"
      },
      {
        "astId": 385,
        "contract": "contracts/core/AVSDirectory.sol:AVSDirectory",
        "label": "__gap",
        "offset": 0,
        "slot": "205",
        "type": "t_array(t_uint256)49_storage"
      }
    ],
    "types": {
      "t_address": {
        "encoding": "inplace",
        "label": "address",
        "numberOfBytes": "20"
      },
      "t_array(t_uint256)49_storage": {
        "base": "t_uint256",
        "encoding": "inplace",
        "label": "uint256[49]",
        "numberOfBytes": "1568"
      },
      "t_array(t_uint256)50_storage": {
        "base": "t_uint256",
        "encoding": "inplace",
        "label": "uint256[50]",
        "numberOfBytes": "1600"
      },
      "t_bool": {
        "encoding": "inplace",
        "label": "bool",
        "numberOfBytes": "1"
      },
      "t_bytes32": {
        "encoding": "inplace",
        "label": "bytes32",
        "numberOfBytes": "32"
      },
      "t_contract(IPauserRegistry)10193": {
        "encoding": "inplace",
        "label": "contract IPauserRegistry",
        "numberOfBytes": "20"
      },
      "t_enum(OperatorAVSRegistrationStatus)9473": {
        "encoding": "inplace",
        "label": "enum IAVSDirectory.OperatorAVSRegistrationStatus",
        "numberOfBytes": "1"
      },
      "t_mapping(t_address,t_enum(OperatorAVSRegistrationStatus)9473)": {
        "encoding": "mapping",
        "key": "t_address",
        "label": "mapping(address => enum IAVSDirectory.OperatorAVSRegistrationStatus)",
        "numberOfBytes": "32",
        "value": "t_enum(OperatorAVSRegistrationStatus)9473"
      },
      "t_mapping(t_address,t_mapping(t_address,t_enum(OperatorAVSRegistrationStatus)9473))": {
        "encoding": "mapping",
        "key": "t_address",
        "label": "mapping(address => mapping(address => enum IAVSDirectory.OperatorAVSRegistrationStatus))",
        "numberOfBytes": "32",
        "value": "t_mapping(t_address,t_enum(OperatorAVSRegistrationStatus)9473)"
      },
      "t_mapping(t_address,t_mapping(t_bytes32,t_bool))": {
        "encoding": "mapping",
        "key": "t_address",
        "label": "mapping(address => mapping(bytes32 => bool))",
        "numberOfBytes": "32",
        "value": "t_mapping(t_bytes32,t_bool)"
      },
      "t_mapping(t_bytes32,t_bool)": {
        "encoding": "mapping",
        "key": "t_bytes32",
        "label": "mapping(bytes32 => bool)",
        "numberOfBytes": "32",
        "value": "t_bool"
      },
      "t_uint256": {
        "encoding": "inplace",
        "label": "uint256",
        "numberOfBytes": "32"
      },
      "t_uint8": {
        "encoding": "inplace",
        "label": "uint8",
        "numberOfBytes": "1"
      }
    }
  }
}