{
  "address": "0xc442a3598947Da34baC42bE34586675C215f57dE",
  "abi": [
    {
      "inputs": [
        {
          "internalType": "address[]",
          "name": "_pausers",
          "type": "address[]"
        },
        {
          "internalType": "address",
          "name": "_unpauser",
          "type": "address"
        }
      ],
      "stateMutability": "nonpayable",
      "type": "constructor"
    },
    {
      "anonymous": false,
      "inputs": [
        {
          "indexed": false,
          "internalType": "address",
          "name": "pauser",
          "type": "address"
        },
        {
          "indexed": false,
          "internalType": "bool",
          "name": "canPause",
          "type": "bool"
        }
      ],
      "name": "PauserStatusChanged",
      "type": "event"
    },
    {
      "anonymous": false,
      "inputs": [
        {
          "indexed": false,
          "internalType": "address",
          "name": "previousUnpauser",
          "type": "address"
        },
        {
          "indexed": false,
          "internalType": "address",
          "name": "newUnpauser",
          "type": "address"
        }
      ],
      "name": "UnpauserChanged",
      "type": "event"
    },
    {
      "inputs": [
        {
          "internalType": "address",
          "name": "",
          "type": "address"
        }
      ],
      "name": "isPauser",
      "outputs": [
        {
          "internalType": "bool",
          "name": "",
          "type": "bool"
        }
      ],
      "stateMutability": "view",
      "type": "function"
    },
    {
      "inputs": [
        {
          "internalType": "address",
          "name": "newPauser",
          "type": "address"
        },
        {
          "internalType": "bool",
          "name": "canPause",
          "type": "bool"
        }
      ],
      "name": "setIsPauser",
      "outputs": [],
      "stateMutability": "nonpayable",
      "type": "function"
    },
    {
      "inputs": [
        {
          "internalType": "address",
          "name": "newUnpauser",
          "type": "address"
        }
      ],
      "name": "setUnpauser",
      "outputs": [],
      "stateMutability": "nonpayable",
      "type": "function"
    },
    {
      "inputs": [],
      "name": "unpauser",
      "outputs": [
        {
          "internalType": "address",
          "name": "",
          "type": "address"
        }
      ],
      "stateMutability": "view",
      "type": "function"
    }
  ],
  "transactionHash": "0xef593267eef04de92ad49040d2d0530a8f8034f781a606dabd98492c6a625c9c",
  "args": [
    [
      "0x8F2CfED2bac25D698bC66BE1E67d6A96DEEDca76"
    ],
    "0x8F2CfED2bac25D698bC66BE1E67d6A96DEEDca76"
  ],
  "numDeployments": 1,
  "solcInputHash": "73a843c7df9a0737c5f562139718a87a",
  "bytecode": "0x608060405234801561001057600080fd5b5060405161080a38038061080a83398101604081905261002f91610263565b60005b82518110156100775761006583828151811061005057610050610339565b6020026020010151600161008860201b60201c565b8061006f8161034f565b915050610032565b506100818161015a565b5050610376565b6001600160a01b0382166100f95760405162461bcd60e51b815260206004820152602d60248201527f50617573657252656769737472792e5f7365745061757365723a207a65726f2060448201526c1859191c995cdcc81a5b9c1d5d609a1b60648201526084015b60405180910390fd5b6001600160a01b03821660008181526020818152604091829020805460ff19168515159081179091558251938452908301527f65d3a1fd4c13f05cba164f80d03ce90fb4b5e21946bfc3ab7dbd434c2d0b9152910160405180910390a15050565b6001600160a01b0381166101c85760405162461bcd60e51b815260206004820152602f60248201527f50617573657252656769737472792e5f736574556e7061757365723a207a657260448201526e1bc81859191c995cdcc81a5b9c1d5d608a1b60648201526084016100f0565b600154604080516001600160a01b03928316815291831660208301527f06b4167a2528887a1e97a366eefe8549bfbf1ea3e6ac81cb2564a934d20e8892910160405180910390a1600180546001600160a01b0319166001600160a01b0392909216919091179055565b634e487b7160e01b600052604160045260246000fd5b80516001600160a01b038116811461025e57600080fd5b919050565b6000806040838503121561027657600080fd5b82516001600160401b038082111561028d57600080fd5b818501915085601f8301126102a157600080fd5b81516020828211156102b5576102b5610231565b8160051b604051601f19603f830116810181811086821117156102da576102da610231565b6040529283528183019350848101820192898411156102f857600080fd5b948201945b8386101561031d5761030e86610247565b855294820194938201936102fd565b965061032c9050878201610247565b9450505050509250929050565b634e487b7160e01b600052603260045260246000fd5b60006001820161036f57634e487b7160e01b600052601160045260246000fd5b5060010190565b610485806103856000396000f3fe608060405234801561001057600080fd5b506004361061004c5760003560e01c806346fbf68e146100515780638568520614610089578063ce5484281461009e578063eab66d7a146100b1575b600080fd5b61007461005f3660046103f1565b60006020819052908152604090205460ff1681565b60405190151581526020015b60405180910390f35b61009c610097366004610413565b6100dc565b005b61009c6100ac3660046103f1565b61016f565b6001546100c4906001600160a01b031681565b6040516001600160a01b039091168152602001610080565b6001546001600160a01b031633146101615760405162461bcd60e51b815260206004820152602a60248201527f6d73672e73656e646572206973206e6f74207065726d697373696f6e6564206160448201527f7320756e7061757365720000000000000000000000000000000000000000000060648201526084015b60405180910390fd5b61016b82826101fb565b5050565b6001546001600160a01b031633146101ef5760405162461bcd60e51b815260206004820152602a60248201527f6d73672e73656e646572206973206e6f74207065726d697373696f6e6564206160448201527f7320756e706175736572000000000000000000000000000000000000000000006064820152608401610158565b6101f8816102d8565b50565b6001600160a01b0382166102775760405162461bcd60e51b815260206004820152602d60248201527f50617573657252656769737472792e5f7365745061757365723a207a65726f2060448201527f6164647265737320696e707574000000000000000000000000000000000000006064820152608401610158565b6001600160a01b03821660008181526020818152604091829020805460ff19168515159081179091558251938452908301527f65d3a1fd4c13f05cba164f80d03ce90fb4b5e21946bfc3ab7dbd434c2d0b9152910160405180910390a15050565b6001600160a01b0381166103545760405162461bcd60e51b815260206004820152602f60248201527f50617573657252656769737472792e5f736574556e7061757365723a207a657260448201527f6f206164647265737320696e70757400000000000000000000000000000000006064820152608401610158565b600154604080516001600160a01b03928316815291831660208301527f06b4167a2528887a1e97a366eefe8549bfbf1ea3e6ac81cb2564a934d20e8892910160405180910390a1600180547fffffffffffffffffffffffff0000000000000000000000000000000000000000166001600160a01b0392909216919091179055565b80356001600160a01b03811681146103ec57600080fd5b919050565b60006020828403121561040357600080fd5b61040c826103d5565b9392505050565b6000806040838503121561042657600080fd5b61042f836103d5565b91506020830135801515811461044457600080fd5b80915050925092905056fea2646970667358221220f3258a9c47c7600ae22b56cd52971dcc5fa824456606513f176760f22ee5a38f64736f6c63430008140033",
  "devdoc": {
    "kind": "dev",
    "methods": {
      "setIsPauser(address,bool)": {
        "params": {
          "canPause": "Whether the address should be added or removed as pauser",
          "newPauser": "Address to be added/removed as pauser"
        }
      }
    },
    "title": "Defines pauser & unpauser roles + modifiers to be used elsewhere.",
    "version": 1
  },
  "userdoc": {
    "kind": "user",
    "methods": {
      "isPauser(address)": {
        "notice": "Mapping of addresses to whether they hold the pauser role."
      },
      "setIsPauser(address,bool)": {
        "notice": "Sets new pauser - only callable by unpauser, as the unpauser is expected to be kept more secure, e.g. being a multisig with a higher threshold"
      },
      "setUnpauser(address)": {
        "notice": "Sets new unpauser - only callable by unpauser, as the unpauser is expected to be kept more secure, e.g. being a multisig with a higher threshold"
      },
      "unpauser()": {
        "notice": "Unique address that holds the unpauser role. Capable of changing *both* the pauser and unpauser addresses."
      }
    },
    "version": 1
  },
  "storageLayout": {
    "storage": [
      {
        "astId": 10605,
        "contract": "contracts/permissions/PauserRegistry.sol:PauserRegistry",
        "label": "isPauser",
        "offset": 0,
        "slot": "0",
        "type": "t_mapping(t_address,t_bool)"
      },
      {
        "astId": 10608,
        "contract": "contracts/permissions/PauserRegistry.sol:PauserRegistry",
        "label": "unpauser",
        "offset": 0,
        "slot": "1",
        "type": "t_address"
      }
    ],
    "types": {
      "t_address": {
        "encoding": "inplace",
        "label": "address",
        "numberOfBytes": "20"
      },
      "t_bool": {
        "encoding": "inplace",
        "label": "bool",
        "numberOfBytes": "1"
      },
      "t_mapping(t_address,t_bool)": {
        "encoding": "mapping",
        "key": "t_address",
        "label": "mapping(address => bool)",
        "numberOfBytes": "32",
        "value": "t_bool"
      }
    }
  }
}