{
  "address": "0xD5dbA71698E52271438B90E1fC658cB94F637aa1",
  "abi": [
    {
      "inputs": [
        {
          "internalType": "contract IStrategyManager",
          "name": "_strategyManager",
          "type": "address"
        }
      ],
      "stateMutability": "nonpayable",
      "type": "constructor"
    },
    {
      "anonymous": false,
      "inputs": [
        {
          "indexed": false,
          "internalType": "uint8",
          "name": "version",
          "type": "uint8"
        }
      ],
      "name": "Initialized",
      "type": "event"
    },
    {
      "anonymous": false,
      "inputs": [
        {
          "indexed": false,
          "internalType": "uint256",
          "name": "previousValue",
          "type": "uint256"
        },
        {
          "indexed": false,
          "internalType": "uint256",
          "name": "newValue",
          "type": "uint256"
        }
      ],
      "name": "MaxPerDepositUpdated",
      "type": "event"
    },
    {
      "anonymous": false,
      "inputs": [
        {
          "indexed": false,
          "internalType": "uint256",
          "name": "previousValue",
          "type": "uint256"
        },
        {
          "indexed": false,
          "internalType": "uint256",
          "name": "newValue",
          "type": "uint256"
        }
      ],
      "name": "MaxTotalDepositsUpdated",
      "type": "event"
    },
    {
      "anonymous": false,
      "inputs": [
        {
          "indexed": true,
          "internalType": "address",
          "name": "account",
          "type": "address"
        },
        {
          "indexed": false,
          "internalType": "uint256",
          "name": "newPausedStatus",
          "type": "uint256"
        }
      ],
      "name": "Paused",
      "type": "event"
    },
    {
      "anonymous": false,
      "inputs": [
        {
          "indexed": false,
          "internalType": "contract IPauserRegistry",
          "name": "pauserRegistry",
          "type": "address"
        },
        {
          "indexed": false,
          "internalType": "contract IPauserRegistry",
          "name": "newPauserRegistry",
          "type": "address"
        }
      ],
      "name": "PauserRegistrySet",
      "type": "event"
    },
    {
      "anonymous": false,
      "inputs": [
        {
          "indexed": true,
          "internalType": "address",
          "name": "account",
          "type": "address"
        },
        {
          "indexed": false,
          "internalType": "uint256",
          "name": "newPausedStatus",
          "type": "uint256"
        }
      ],
      "name": "Unpaused",
      "type": "event"
    },
    {
      "inputs": [
        {
          "internalType": "contract IERC20",
          "name": "token",
          "type": "address"
        },
        {
          "internalType": "uint256",
          "name": "amount",
          "type": "uint256"
        }
      ],
      "name": "deposit",
      "outputs": [
        {
          "internalType": "uint256",
          "name": "newShares",
          "type": "uint256"
        }
      ],
      "stateMutability": "nonpayable",
      "type": "function"
    },
    {
      "inputs": [],
      "name": "explanation",
      "outputs": [
        {
          "internalType": "string",
          "name": "",
          "type": "string"
        }
      ],
      "stateMutability": "pure",
      "type": "function"
    },
    {
      "inputs": [],
      "name": "getTVLLimits",
      "outputs": [
        {
          "internalType": "uint256",
          "name": "",
          "type": "uint256"
        },
        {
          "internalType": "uint256",
          "name": "",
          "type": "uint256"
        }
      ],
      "stateMutability": "view",
      "type": "function"
    },
    {
      "inputs": [
        {
          "internalType": "uint256",
          "name": "_maxPerDeposit",
          "type": "uint256"
        },
        {
          "internalType": "uint256",
          "name": "_maxTotalDeposits",
          "type": "uint256"
        },
        {
          "internalType": "contract IERC20",
          "name": "_underlyingToken",
          "type": "address"
        },
        {
          "internalType": "contract IPauserRegistry",
          "name": "_pauserRegistry",
          "type": "address"
        }
      ],
      "name": "initialize",
      "outputs": [],
      "stateMutability": "nonpayable",
      "type": "function"
    },
    {
      "inputs": [
        {
          "internalType": "contract IERC20",
          "name": "_underlyingToken",
          "type": "address"
        },
        {
          "internalType": "contract IPauserRegistry",
          "name": "_pauserRegistry",
          "type": "address"
        }
      ],
      "name": "initializeBase",
      "outputs": [],
      "stateMutability": "nonpayable",
      "type": "function"
    },
    {
      "inputs": [],
      "name": "maxPerDeposit",
      "outputs": [
        {
          "internalType": "uint256",
          "name": "",
          "type": "uint256"
        }
      ],
      "stateMutability": "view",
      "type": "function"
    },
    {
      "inputs": [],
      "name": "maxTotalDeposits",
      "outputs": [
        {
          "internalType": "uint256",
          "name": "",
          "type": "uint256"
        }
      ],
      "stateMutability": "view",
      "type": "function"
    },
    {
      "inputs": [
        {
          "internalType": "uint256",
          "name": "newPausedStatus",
          "type": "uint256"
        }
      ],
      "name": "pause",
      "outputs": [],
      "stateMutability": "nonpayable",
      "type": "function"
    },
    {
      "inputs": [],
      "name": "pauseAll",
      "outputs": [],
      "stateMutability": "nonpayable",
      "type": "function"
    },
    {
      "inputs": [
        {
          "internalType": "uint8",
          "name": "index",
          "type": "uint8"
        }
      ],
      "name": "paused",
      "outputs": [
        {
          "internalType": "bool",
          "name": "",
          "type": "bool"
        }
      ],
      "stateMutability": "view",
      "type": "function"
    },
    {
      "inputs": [],
      "name": "paused",
      "outputs": [
        {
          "internalType": "uint256",
          "name": "",
          "type": "uint256"
        }
      ],
      "stateMutability": "view",
      "type": "function"
    },
    {
      "inputs": [],
      "name": "pauserRegistry",
      "outputs": [
        {
          "internalType": "contract IPauserRegistry",
          "name": "",
          "type": "address"
        }
      ],
      "stateMutability": "view",
      "type": "function"
    },
    {
      "inputs": [
        {
          "internalType": "contract IPauserRegistry",
          "name": "newPauserRegistry",
          "type": "address"
        }
      ],
      "name": "setPauserRegistry",
      "outputs": [],
      "stateMutability": "nonpayable",
      "type": "function"
    },
    {
      "inputs": [
        {
          "internalType": "uint256",
          "name": "newMaxPerDeposit",
          "type": "uint256"
        },
        {
          "internalType": "uint256",
          "name": "newMaxTotalDeposits",
          "type": "uint256"
        }
      ],
      "name": "setTVLLimits",
      "outputs": [],
      "stateMutability": "nonpayable",
      "type": "function"
    },
    {
      "inputs": [
        {
          "internalType": "address",
          "name": "user",
          "type": "address"
        }
      ],
      "name": "shares",
      "outputs": [
        {
          "internalType": "uint256",
          "name": "",
          "type": "uint256"
        }
      ],
      "stateMutability": "view",
      "type": "function"
    },
    {
      "inputs": [
        {
          "internalType": "uint256",
          "name": "amountShares",
          "type": "uint256"
        }
      ],
      "name": "sharesToUnderlying",
      "outputs": [
        {
          "internalType": "uint256",
          "name": "",
          "type": "uint256"
        }
      ],
      "stateMutability": "view",
      "type": "function"
    },
    {
      "inputs": [
        {
          "internalType": "uint256",
          "name": "amountShares",
          "type": "uint256"
        }
      ],
      "name": "sharesToUnderlyingView",
      "outputs": [
        {
          "internalType": "uint256",
          "name": "",
          "type": "uint256"
        }
      ],
      "stateMutability": "view",
      "type": "function"
    },
    {
      "inputs": [],
      "name": "strategyManager",
      "outputs": [
        {
          "internalType": "contract IStrategyManager",
          "name": "",
          "type": "address"
        }
      ],
      "stateMutability": "view",
      "type": "function"
    },
    {
      "inputs": [],
      "name": "totalShares",
      "outputs": [
        {
          "internalType": "uint256",
          "name": "",
          "type": "uint256"
        }
      ],
      "stateMutability": "view",
      "type": "function"
    },
    {
      "inputs": [
        {
          "internalType": "uint256",
          "name": "amountUnderlying",
          "type": "uint256"
        }
      ],
      "name": "underlyingToShares",
      "outputs": [
        {
          "internalType": "uint256",
          "name": "",
          "type": "uint256"
        }
      ],
      "stateMutability": "view",
      "type": "function"
    },
    {
      "inputs": [
        {
          "internalType": "uint256",
          "name": "amountUnderlying",
          "type": "uint256"
        }
      ],
      "name": "underlyingToSharesView",
      "outputs": [
        {
          "internalType": "uint256",
          "name": "",
          "type": "uint256"
        }
      ],
      "stateMutability": "view",
      "type": "function"
    },
    {
      "inputs": [],
      "name": "underlyingToken",
      "outputs": [
        {
          "internalType": "contract IERC20",
          "name": "",
          "type": "address"
        }
      ],
      "stateMutability": "view",
      "type": "function"
    },
    {
      "inputs": [
        {
          "internalType": "uint256",
          "name": "newPausedStatus",
          "type": "uint256"
        }
      ],
      "name": "unpause",
      "outputs": [],
      "stateMutability": "nonpayable",
      "type": "function"
    },
    {
      "inputs": [
        {
          "internalType": "address",
          "name": "user",
          "type": "address"
        }
      ],
      "name": "userUnderlying",
      "outputs": [
        {
          "internalType": "uint256",
          "name": "",
          "type": "uint256"
        }
      ],
      "stateMutability": "nonpayable",
      "type": "function"
    },
    {
      "inputs": [
        {
          "internalType": "address",
          "name": "user",
          "type": "address"
        }
      ],
      "name": "userUnderlyingView",
      "outputs": [
        {
          "internalType": "uint256",
          "name": "",
          "type": "uint256"
        }
      ],
      "stateMutability": "view",
      "type": "function"
    },
    {
      "inputs": [
        {
          "internalType": "address",
          "name": "recipient",
          "type": "address"
        },
        {
          "internalType": "contract IERC20",
          "name": "token",
          "type": "address"
        },
        {
          "internalType": "uint256",
          "name": "amountShares",
          "type": "uint256"
        }
      ],
      "name": "withdraw",
      "outputs": [],
      "stateMutability": "nonpayable",
      "type": "function"
    }
  ],
  "transactionHash": "0x40e9ba4e6ff6d72dadc4cdc5f7cc599883abee791866dfbf1d3f8d23bbca8cb4",
  "args": [
    "0xd914b20BcFcdBb396697a957fc28a77947593bE5"
  ],
  "numDeployments": 1,
  "solcInputHash": "73a843c7df9a0737c5f562139718a87a",
  "bytecode": "0x60a06040523480156200001157600080fd5b5060405162001f8238038062001f82833981016040819052620000349162000115565b6001600160a01b038116608052806200004c62000054565b505062000147565b600054610100900460ff1615620000c15760405162461bcd60e51b815260206004820152602760248201527f496e697469616c697a61626c653a20636f6e747261637420697320696e697469604482015266616c697a696e6760c81b606482015260840160405180910390fd5b60005460ff9081161462000113576000805460ff191660ff9081179091556040519081527f7f26b83ff96e1f2b6a682f133852f6798a09c465da95921460cefb38474024989060200160405180910390a15b565b6000602082840312156200012857600080fd5b81516001600160a01b03811681146200014057600080fd5b9392505050565b608051611e0a6200017860003960008181610236015281816108fa01528181610d6f0152610e3d0152611e0a6000f3fe608060405234801561001057600080fd5b50600436106101ae5760003560e01c806361b01b5d116100ee578063c4e01fa411610097578063df6fadc111610071578063df6fadc114610386578063e3dae51c146103a1578063f3e73875146103b4578063fabc1cbc146103c757600080fd5b8063c4e01fa41461034d578063ce7c2ac214610360578063d9caed121461037357600080fd5b80638c871019116100c85780638c871019146103125780638f6a624014610325578063ab5921e11461033857600080fd5b806361b01b5d146102dd5780637a8b2637146102e6578063886f1195146102f957600080fd5b80633a98ef391161015b578063553ca5f811610135578063553ca5f81461028b578063595c6a671461029e5780635ac86ab7146102a65780635c975abb146102d557600080fd5b80633a98ef391461025857806343fe08b01461026f57806347e7ef241461027857600080fd5b8063136439dd1161018c578063136439dd146101ee5780632495a5991461020157806339b70e381461023157600080fd5b8063019e2729146101b357806310d67a2f146101c857806311c70c9d146101db575b600080fd5b6101c66101c1366004611ad5565b6103da565b005b6101c66101d6366004611b1f565b61050f565b6101c66101e9366004611b43565b610605565b6101c66101fc366004611b65565b6106fd565b603354610214906001600160a01b031681565b6040516001600160a01b0390911681526020015b60405180910390f35b6102147f000000000000000000000000000000000000000000000000000000000000000081565b61026160345481565b604051908152602001610228565b61026160665481565b610261610286366004611b7e565b610897565b610261610299366004611b1f565b610a50565b6101c6610a64565b6102c56102b4366004611baa565b6001805460ff9092161b9081161490565b6040519015158152602001610228565b600154610261565b61026160675481565b6102616102f4366004611b65565b610b86565b600054610214906201000090046001600160a01b031681565b610261610320366004611b65565b610bd1565b610261610333366004611b1f565b610bdc565b610340610bea565b6040516102289190611bf1565b6101c661035b366004611c24565b610c0a565b61026161036e366004611b1f565b610d2e565b6101c6610381366004611c5d565b610ddc565b60665460675460408051928352602083019190915201610228565b6102616103af366004611b65565b610fb8565b6102616103c2366004611b65565b610ff1565b6101c66103d5366004611b65565b610ffc565b600054610100900460ff16158080156103fa5750600054600160ff909116105b806104145750303b158015610414575060005460ff166001145b61048b5760405162461bcd60e51b815260206004820152602e60248201527f496e697469616c697a61626c653a20636f6e747261637420697320616c72656160448201527f647920696e697469616c697a656400000000000000000000000000000000000060648201526084015b60405180910390fd5b6000805460ff1916600117905580156104ae576000805461ff0019166101001790555b6104b8858561119b565b6104c283836112ba565b8015610508576000805461ff0019169055604051600181527f7f26b83ff96e1f2b6a682f133852f6798a09c465da95921460cefb38474024989060200160405180910390a15b5050505050565b600060029054906101000a90046001600160a01b03166001600160a01b031663eab66d7a6040518163ffffffff1660e01b8152600401602060405180830381865afa158015610562573d6000803e3d6000fd5b505050506040513d601f19601f820116820180604052508101906105869190611c9e565b6001600160a01b0316336001600160a01b0316146105f95760405162461bcd60e51b815260206004820152602a60248201527f6d73672e73656e646572206973206e6f74207065726d697373696f6e6564206160448201526939903ab73830bab9b2b960b11b6064820152608401610482565b61060281611375565b50565b600060029054906101000a90046001600160a01b03166001600160a01b031663eab66d7a6040518163ffffffff1660e01b8152600401602060405180830381865afa158015610658573d6000803e3d6000fd5b505050506040513d601f19601f8201168201806040525081019061067c9190611c9e565b6001600160a01b0316336001600160a01b0316146106ef5760405162461bcd60e51b815260206004820152602a60248201527f6d73672e73656e646572206973206e6f74207065726d697373696f6e6564206160448201526939903ab73830bab9b2b960b11b6064820152608401610482565b6106f9828261119b565b5050565b60005460405163237dfb4760e11b8152336004820152620100009091046001600160a01b0316906346fbf68e90602401602060405180830381865afa15801561074a573d6000803e3d6000fd5b505050506040513d601f19601f8201168201806040525081019061076e9190611cbb565b6107e05760405162461bcd60e51b815260206004820152602860248201527f6d73672e73656e646572206973206e6f74207065726d697373696f6e6564206160448201527f73207061757365720000000000000000000000000000000000000000000000006064820152608401610482565b600154818116146108595760405162461bcd60e51b815260206004820152603860248201527f5061757361626c652e70617573653a20696e76616c696420617474656d70742060448201527f746f20756e70617573652066756e6374696f6e616c69747900000000000000006064820152608401610482565b600181905560405181815233907fab40a374bc51de372200a8bc981af8c9ecdc08dfdaef0bb6e09f88f3c616ef3d906020015b60405180910390a250565b6001805460009182918116036108ef5760405162461bcd60e51b815260206004820152601960248201527f5061757361626c653a20696e64657820697320706175736564000000000000006044820152606401610482565b336001600160a01b037f000000000000000000000000000000000000000000000000000000000000000016146109675760405162461bcd60e51b815260206004820181905260248201527f5374726174656779426173652e6f6e6c7953747261746567794d616e616765726044820152606401610482565b61097184846114a4565b60345460006109826103e883611cf3565b905060006103e86109916115a5565b61099b9190611cf3565b905060006109a98783611d06565b9050806109b68489611d19565b6109c09190611d30565b955085600003610a385760405162461bcd60e51b815260206004820152602e60248201527f5374726174656779426173652e6465706f7369743a206e65775368617265732060448201527f63616e6e6f74206265207a65726f0000000000000000000000000000000000006064820152608401610482565b610a428685611cf3565b603455505050505092915050565b6000610a5e6102f483610d2e565b92915050565b60005460405163237dfb4760e11b8152336004820152620100009091046001600160a01b0316906346fbf68e90602401602060405180830381865afa158015610ab1573d6000803e3d6000fd5b505050506040513d601f19601f82011682018060405250810190610ad59190611cbb565b610b475760405162461bcd60e51b815260206004820152602860248201527f6d73672e73656e646572206973206e6f74207065726d697373696f6e6564206160448201527f73207061757365720000000000000000000000000000000000000000000000006064820152608401610482565b600019600181905560405190815233907fab40a374bc51de372200a8bc981af8c9ecdc08dfdaef0bb6e09f88f3c616ef3d9060200160405180910390a2565b6000806103e8603454610b999190611cf3565b905060006103e8610ba86115a5565b610bb29190611cf3565b905081610bbf8583611d19565b610bc99190611d30565b949350505050565b6000610a5e82610fb8565b6000610a5e6103c283610d2e565b60606040518060800160405280604d8152602001611d88604d9139905090565b600054610100900460ff1615808015610c2a5750600054600160ff909116105b80610c445750303b158015610c44575060005460ff166001145b610cb65760405162461bcd60e51b815260206004820152602e60248201527f496e697469616c697a61626c653a20636f6e747261637420697320616c72656160448201527f647920696e697469616c697a65640000000000000000000000000000000000006064820152608401610482565b6000805460ff191660011790558015610cd9576000805461ff0019166101001790555b610ce383836112ba565b8015610d29576000805461ff0019169055604051600181527f7f26b83ff96e1f2b6a682f133852f6798a09c465da95921460cefb38474024989060200160405180910390a15b505050565b6040517f7a7e0d920000000000000000000000000000000000000000000000000000000081526001600160a01b0382811660048301523060248301526000917f000000000000000000000000000000000000000000000000000000000000000090911690637a7e0d9290604401602060405180830381865afa158015610db8573d6000803e3d6000fd5b505050506040513d601f19601f82011682018060405250810190610a5e9190611d52565b60018054600290811603610e325760405162461bcd60e51b815260206004820152601960248201527f5061757361626c653a20696e64657820697320706175736564000000000000006044820152606401610482565b336001600160a01b037f00000000000000000000000000000000000000000000000000000000000000001614610eaa5760405162461bcd60e51b815260206004820181905260248201527f5374726174656779426173652e6f6e6c7953747261746567794d616e616765726044820152606401610482565b610eb5848484611630565b60345480831115610f545760405162461bcd60e51b815260206004820152604d60248201527f5374726174656779426173652e77697468647261773a20616d6f756e7453686160448201527f726573206d757374206265206c657373207468616e206f7220657175616c207460648201527f6f20746f74616c53686172657300000000000000000000000000000000000000608482015260a401610482565b6000610f626103e883611cf3565b905060006103e8610f716115a5565b610f7b9190611cf3565b9050600082610f8a8784611d19565b610f949190611d30565b9050610fa08685611d06565b603455610fae8888836116b3565b5050505050505050565b6000806103e8603454610fcb9190611cf3565b905060006103e8610fda6115a5565b610fe49190611cf3565b905080610bbf8386611d19565b6000610a5e82610b86565b600060029054906101000a90046001600160a01b03166001600160a01b031663eab66d7a6040518163ffffffff1660e01b8152600401602060405180830381865afa15801561104f573d6000803e3d6000fd5b505050506040513d601f19601f820116820180604052508101906110739190611c9e565b6001600160a01b0316336001600160a01b0316146110e65760405162461bcd60e51b815260206004820152602a60248201527f6d73672e73656e646572206973206e6f74207065726d697373696f6e6564206160448201526939903ab73830bab9b2b960b11b6064820152608401610482565b6001541981196001541916146111645760405162461bcd60e51b815260206004820152603860248201527f5061757361626c652e756e70617573653a20696e76616c696420617474656d7060448201527f7420746f2070617573652066756e6374696f6e616c69747900000000000000006064820152608401610482565b600181905560405181815233907f3582d1828e26bf56bd801502bc021ac0bc8afb57c826e4986b45593c8fad389c9060200161088c565b60665460408051918252602082018490527ff97ed4e083acac67830025ecbc756d8fe847cdbdca4cee3fe1e128e98b54ecb5910160405180910390a160675460408051918252602082018390527f6ab181e0440bfbf4bacdf2e99674735ce6638005490688c5f994f5399353e452910160405180910390a1808211156112af5760405162461bcd60e51b815260206004820152604b60248201527f53747261746567794261736554564c4c696d6974732e5f73657454564c4c696d60448201527f6974733a206d61785065724465706f7369742065786365656473206d6178546f60648201527f74616c4465706f73697473000000000000000000000000000000000000000000608482015260a401610482565b606691909155606755565b600054610100900460ff166113375760405162461bcd60e51b815260206004820152602b60248201527f496e697469616c697a61626c653a20636f6e7472616374206973206e6f74206960448201527f6e697469616c697a696e670000000000000000000000000000000000000000006064820152608401610482565b603380547fffffffffffffffffffffffff0000000000000000000000000000000000000000166001600160a01b0384161790556106f98160006116c7565b6001600160a01b0381166114175760405162461bcd60e51b815260206004820152604960248201527f5061757361626c652e5f73657450617573657252656769737472793a206e657760448201527f50617573657252656769737472792063616e6e6f7420626520746865207a657260648201527f6f20616464726573730000000000000000000000000000000000000000000000608482015260a401610482565b600054604080516001600160a01b03620100009093048316815291831660208301527f6e9fcd539896fca60e8b0f01dd580233e48a6b0f7df013b89ba7f565869acdb6910160405180910390a1600080546001600160a01b0390921662010000027fffffffffffffffffffff0000000000000000000000000000000000000000ffff909216919091179055565b60665481111561151c5760405162461bcd60e51b815260206004820152602f60248201527f53747261746567794261736554564c4c696d6974733a206d617820706572206460448201527f65706f73697420657863656564656400000000000000000000000000000000006064820152608401610482565b6067546115276115a5565b111561159b5760405162461bcd60e51b815260206004820152602c60248201527f53747261746567794261736554564c4c696d6974733a206d6178206465706f7360448201527f69747320657863656564656400000000000000000000000000000000000000006064820152608401610482565b6106f982826117c9565b6033546040517f70a082310000000000000000000000000000000000000000000000000000000081523060048201526000916001600160a01b0316906370a0823190602401602060405180830381865afa158015611607573d6000803e3d6000fd5b505050506040513d601f19601f8201168201806040525081019061162b9190611d52565b905090565b6033546001600160a01b03838116911614610d295760405162461bcd60e51b815260206004820152603b60248201527f5374726174656779426173652e77697468647261773a2043616e206f6e6c792060448201527f77697468647261772074686520737472617465677920746f6b656e00000000006064820152608401610482565b610d296001600160a01b038316848361184c565b6000546201000090046001600160a01b03161580156116ee57506001600160a01b03821615155b6117865760405162461bcd60e51b815260206004820152604760248201527f5061757361626c652e5f696e697469616c697a655061757365723a205f696e6960448201527f7469616c697a6550617573657228292063616e206f6e6c792062652063616c6c60648201527f6564206f6e636500000000000000000000000000000000000000000000000000608482015260a401610482565b600181905560405181815233907fab40a374bc51de372200a8bc981af8c9ecdc08dfdaef0bb6e09f88f3c616ef3d9060200160405180910390a26106f982611375565b6033546001600160a01b038381169116146106f95760405162461bcd60e51b815260206004820152603660248201527f5374726174656779426173652e6465706f7369743a2043616e206f6e6c79206460448201527f65706f73697420756e6465726c79696e67546f6b656e000000000000000000006064820152608401610482565b604080516001600160a01b03848116602483015260448083018590528351808403909101815260649092018352602080830180517bffffffffffffffffffffffffffffffffffffffffffffffffffffffff167fa9059cbb0000000000000000000000000000000000000000000000000000000017905283518085019094528084527f5361666545524332303a206c6f772d6c6576656c2063616c6c206661696c656490840152610d299286929160009161190a91851690849061199d565b905080516000148061192b57508080602001905181019061192b9190611cbb565b610d295760405162461bcd60e51b815260206004820152602a60248201527f5361666545524332303a204552433230206f7065726174696f6e20646964206e60448201527f6f742073756363656564000000000000000000000000000000000000000000006064820152608401610482565b6060610bc9848460008585600080866001600160a01b031685876040516119c49190611d6b565b60006040518083038185875af1925050503d8060008114611a01576040519150601f19603f3d011682016040523d82523d6000602084013e611a06565b606091505b5091509150611a1787838387611a22565b979650505050505050565b60608315611a91578251600003611a8a576001600160a01b0385163b611a8a5760405162461bcd60e51b815260206004820152601d60248201527f416464726573733a2063616c6c20746f206e6f6e2d636f6e74726163740000006044820152606401610482565b5081610bc9565b610bc98383815115611aa65781518083602001fd5b8060405162461bcd60e51b81526004016104829190611bf1565b6001600160a01b038116811461060257600080fd5b60008060008060808587031215611aeb57600080fd5b84359350602085013592506040850135611b0481611ac0565b91506060850135611b1481611ac0565b939692955090935050565b600060208284031215611b3157600080fd5b8135611b3c81611ac0565b9392505050565b60008060408385031215611b5657600080fd5b50508035926020909101359150565b600060208284031215611b7757600080fd5b5035919050565b60008060408385031215611b9157600080fd5b8235611b9c81611ac0565b946020939093013593505050565b600060208284031215611bbc57600080fd5b813560ff81168114611b3c57600080fd5b60005b83811015611be8578181015183820152602001611bd0565b50506000910152565b6020815260008251806020840152611c10816040850160208701611bcd565b601f01601f19169190910160400192915050565b60008060408385031215611c3757600080fd5b8235611c4281611ac0565b91506020830135611c5281611ac0565b809150509250929050565b600080600060608486031215611c7257600080fd5b8335611c7d81611ac0565b92506020840135611c8d81611ac0565b929592945050506040919091013590565b600060208284031215611cb057600080fd5b8151611b3c81611ac0565b600060208284031215611ccd57600080fd5b81518015158114611b3c57600080fd5b634e487b7160e01b600052601160045260246000fd5b80820180821115610a5e57610a5e611cdd565b81810381811115610a5e57610a5e611cdd565b8082028115828204841417610a5e57610a5e611cdd565b600082611d4d57634e487b7160e01b600052601260045260246000fd5b500490565b600060208284031215611d6457600080fd5b5051919050565b60008251611d7d818460208701611bcd565b919091019291505056fe4261736520537472617465677920696d706c656d656e746174696f6e20746f20696e68657269742066726f6d20666f72206d6f726520636f6d706c657820696d706c656d656e746174696f6e73a26469706673582212202c33436acb611987f4751218a55f67c48bfa32b1ab9cd5f54cd40b7d29df031364736f6c63430008140033",
  "devdoc": {
    "details": "Note that this implementation still converts between any amount of shares or underlying tokens in its view functions; these functions purposefully do not take the TVL limit into account.",
    "events": {
      "Initialized(uint8)": {
        "details": "Triggered when the contract has been initialized or reinitialized."
      }
    },
    "kind": "dev",
    "methods": {
      "constructor": {
        "custom:oz-upgrades-unsafe-allow": "constructor"
      },
      "deposit(address,uint256)": {
        "details": "This function is only callable by the strategyManager contract. It is invoked inside of the strategyManager's `depositIntoStrategy` function, and individual share balances are recorded in the strategyManager as well.Note that the assumption is made that `amount` of `token` has already been transferred directly to this contract (as performed in the StrategyManager's deposit functions). In particular, setting the `underlyingToken` of this contract to be a fee-on-transfer token will break the assumption that the amount this contract *received* of the token is equal to the amount that was input when the transfer was performed (i.e. the amount transferred 'out' of the depositor's balance).Note that any validation of `token` is done inside `_beforeDeposit`. This can be overridden if needed.",
        "params": {
          "amount": "is the amount of token being deposited",
          "token": "is the ERC20 token being deposited"
        },
        "returns": {
          "newShares": "is the number of new shares issued at the current exchange ratio."
        }
      },
      "pause(uint256)": {
        "details": "This function can only pause functionality, and thus cannot 'unflip' any bit in `_paused` from 1 to 0.",
        "params": {
          "newPausedStatus": "represents the new value for `_paused` to take, which means it may flip several bits at once."
        }
      },
      "setTVLLimits(uint256,uint256)": {
        "details": "Callable only by the unpauser of this contractWe note that there is a potential race condition between a call to this function that lowers either or both of these limits and call(s) to `deposit`, that may result in some calls to `deposit` reverting.",
        "params": {
          "newMaxTotalDeposits": "The new maximum deposits"
        }
      },
      "sharesToUnderlying(uint256)": {
        "details": "Implementation for these functions in particular may vary significantly for different strategies",
        "params": {
          "amountShares": "is the amount of shares to calculate its conversion into the underlying token"
        },
        "returns": {
          "_0": "The amount of underlying tokens corresponding to the input `amountShares`"
        }
      },
      "sharesToUnderlyingView(uint256)": {
        "details": "Implementation for these functions in particular may vary significantly for different strategies",
        "params": {
          "amountShares": "is the amount of shares to calculate its conversion into the underlying token"
        },
        "returns": {
          "_0": "The amount of underlying tokens corresponding to the input `amountShares`"
        }
      },
      "underlyingToShares(uint256)": {
        "details": "Implementation for these functions in particular may vary significantly for different strategies",
        "params": {
          "amountUnderlying": "is the amount of `underlyingToken` to calculate its conversion into strategy shares"
        },
        "returns": {
          "_0": "The amount of shares corresponding to the input `amountUnderlying`"
        }
      },
      "underlyingToSharesView(uint256)": {
        "details": "Implementation for these functions in particular may vary significantly for different strategies",
        "params": {
          "amountUnderlying": "is the amount of `underlyingToken` to calculate its conversion into strategy shares"
        },
        "returns": {
          "_0": "The amount of shares corresponding to the input `amountUnderlying`"
        }
      },
      "unpause(uint256)": {
        "details": "This function can only unpause functionality, and thus cannot 'flip' any bit in `_paused` from 0 to 1.",
        "params": {
          "newPausedStatus": "represents the new value for `_paused` to take, which means it may flip several bits at once."
        }
      },
      "withdraw(address,address,uint256)": {
        "details": "This function is only callable by the strategyManager contract. It is invoked inside of the strategyManager's other functions, and individual share balances are recorded in the strategyManager as well.Note that any validation of `token` is done inside `_beforeWithdrawal`. This can be overridden if needed.",
        "params": {
          "amountShares": "is the amount of shares being withdrawn",
          "recipient": "is the address to receive the withdrawn funds",
          "token": "is the ERC20 token being transferred out"
        }
      }
    },
    "stateVariables": {
      "__gap": {
        "details": "This empty reserved space is put in place to allow future versions to add new variables without shifting down storage in the inheritance chain. See https://docs.openzeppelin.com/contracts/4.x/upgradeable#storage_gaps"
      }
    },
    "title": "A Strategy implementation inheriting from `StrategyBase` that limits the total amount of deposits it will accept.",
    "version": 1
  },
  "userdoc": {
    "events": {
      "MaxPerDepositUpdated(uint256,uint256)": {
        "notice": "Emitted when `maxPerDeposit` value is updated from `previousValue` to `newValue`"
      },
      "MaxTotalDepositsUpdated(uint256,uint256)": {
        "notice": "Emitted when `maxTotalDeposits` value is updated from `previousValue` to `newValue`"
      },
      "Paused(address,uint256)": {
        "notice": "Emitted when the pause is triggered by `account`, and changed to `newPausedStatus`."
      },
      "PauserRegistrySet(address,address)": {
        "notice": "Emitted when the `pauserRegistry` is set to `newPauserRegistry`."
      },
      "Unpaused(address,uint256)": {
        "notice": "Emitted when the pause is lifted by `account`, and changed to `newPausedStatus`."
      }
    },
    "kind": "user",
    "methods": {
      "constructor": {
        "notice": "solhint-disable-next-line no-empty-blocks"
      },
      "deposit(address,uint256)": {
        "notice": "Used to deposit tokens into this Strategy"
      },
      "explanation()": {
        "notice": "Currently returns a brief string explaining the strategy's goal & purpose, but for more complex strategies, may be a link to metadata that explains in more detail."
      },
      "getTVLLimits()": {
        "notice": "Simple getter function that returns the current values of `maxPerDeposit` and `maxTotalDeposits`."
      },
      "maxPerDeposit()": {
        "notice": "The maximum deposit (in underlyingToken) that this strategy will accept per deposit"
      },
      "maxTotalDeposits()": {
        "notice": "The maximum deposits (in underlyingToken) that this strategy will hold"
      },
      "pause(uint256)": {
        "notice": "This function is used to pause an BinLayer contract's functionality. It is permissioned to the `pauser` address, which is expected to be a low threshold multisig."
      },
      "pauseAll()": {
        "notice": "Alias for `pause(type(uint256).max)`."
      },
      "paused()": {
        "notice": "Returns the current paused status as a uint256."
      },
      "paused(uint8)": {
        "notice": "Returns 'true' if the `indexed`th bit of `_paused` is 1, and 'false' otherwise"
      },
      "pauserRegistry()": {
        "notice": "Address of the `PauserRegistry` contract that this contract defers to for determining access control (for pausing)."
      },
      "setPauserRegistry(address)": {
        "notice": "Allows the unpauser to set a new pauser registry"
      },
      "setTVLLimits(uint256,uint256)": {
        "notice": "Sets the maximum deposits (in underlyingToken) that this strategy will hold and accept per deposit"
      },
      "shares(address)": {
        "notice": "convenience function for fetching the current total shares of `user` in this strategy, by querying the `strategyManager` contract"
      },
      "sharesToUnderlying(uint256)": {
        "notice": "Used to convert a number of shares to the equivalent amount of underlying tokens for this strategy.In contrast to `sharesToUnderlyingView`, this function **may** make state modifications"
      },
      "sharesToUnderlyingView(uint256)": {
        "notice": "Used to convert a number of shares to the equivalent amount of underlying tokens for this strategy.In contrast to `sharesToUnderlying`, this function guarantees no state modifications"
      },
      "strategyManager()": {
        "notice": "BinLayer's StrategyManager contract"
      },
      "totalShares()": {
        "notice": "The total number of extant shares in this Strategy"
      },
      "underlyingToShares(uint256)": {
        "notice": "Used to convert an amount of underlying tokens to the equivalent amount of shares in this strategy.In contrast to `underlyingToSharesView`, this function **may** make state modifications"
      },
      "underlyingToSharesView(uint256)": {
        "notice": "Used to convert an amount of underlying tokens to the equivalent amount of shares in this strategy.In contrast to `underlyingToShares`, this function guarantees no state modifications"
      },
      "underlyingToken()": {
        "notice": "The underlying token for shares in this Strategy"
      },
      "unpause(uint256)": {
        "notice": "This function is used to unpause an BinLayer contract's functionality. It is permissioned to the `unpauser` address, which is expected to be a high threshold multisig or governance contract."
      },
      "userUnderlying(address)": {
        "notice": "convenience function for fetching the current underlying value of all of the `user`'s shares in this strategy. In contrast to `userUnderlyingView`, this function **may** make state modifications"
      },
      "userUnderlyingView(address)": {
        "notice": "convenience function for fetching the current underlying value of all of the `user`'s shares in this strategy. In contrast to `userUnderlying`, this function guarantees no state modifications"
      },
      "withdraw(address,address,uint256)": {
        "notice": "Used to withdraw tokens from this Strategy, to the `recipient`'s address"
      }
    },
    "version": 1
  },
  "storageLayout": {
    "storage": [
      {
        "astId": 139,
        "contract": "contracts/strategies/StrategyBaseTVLLimits.sol:StrategyBaseTVLLimits",
        "label": "_initialized",
        "offset": 0,
        "slot": "0",
        "type": "t_uint8"
      },
      {
        "astId": 142,
        "contract": "contracts/strategies/StrategyBaseTVLLimits.sol:StrategyBaseTVLLimits",
        "label": "_initializing",
        "offset": 1,
        "slot": "0",
        "type": "t_bool"
      },
      {
        "astId": 10308,
        "contract": "contracts/strategies/StrategyBaseTVLLimits.sol:StrategyBaseTVLLimits",
        "label": "pauserRegistry",
        "offset": 2,
        "slot": "0",
        "type": "t_contract(IPauserRegistry)7893"
      },
      {
        "astId": 10311,
        "contract": "contracts/strategies/StrategyBaseTVLLimits.sol:StrategyBaseTVLLimits",
        "label": "_paused",
        "offset": 0,
        "slot": "1",
        "type": "t_uint256"
      },
      {
        "astId": 10593,
        "contract": "contracts/strategies/StrategyBaseTVLLimits.sol:StrategyBaseTVLLimits",
        "label": "__gap",
        "offset": 0,
        "slot": "2",
        "type": "t_array(t_uint256)49_storage"
      },
      {
        "astId": 10777,
        "contract": "contracts/strategies/StrategyBaseTVLLimits.sol:StrategyBaseTVLLimits",
        "label": "underlyingToken",
        "offset": 0,
        "slot": "51",
        "type": "t_contract(IERC20)1559"
      },
      {
        "astId": 10780,
        "contract": "contracts/strategies/StrategyBaseTVLLimits.sol:StrategyBaseTVLLimits",
        "label": "totalShares",
        "offset": 0,
        "slot": "52",
        "type": "t_uint256"
      },
      {
        "astId": 11212,
        "contract": "contracts/strategies/StrategyBaseTVLLimits.sol:StrategyBaseTVLLimits",
        "label": "__gap",
        "offset": 0,
        "slot": "53",
        "type": "t_array(t_uint256)49_storage"
      },
      {
        "astId": 11222,
        "contract": "contracts/strategies/StrategyBaseTVLLimits.sol:StrategyBaseTVLLimits",
        "label": "maxPerDeposit",
        "offset": 0,
        "slot": "102",
        "type": "t_uint256"
      },
      {
        "astId": 11225,
        "contract": "contracts/strategies/StrategyBaseTVLLimits.sol:StrategyBaseTVLLimits",
        "label": "maxTotalDeposits",
        "offset": 0,
        "slot": "103",
        "type": "t_uint256"
      },
      {
        "astId": 11377,
        "contract": "contracts/strategies/StrategyBaseTVLLimits.sol:StrategyBaseTVLLimits",
        "label": "__gap",
        "offset": 0,
        "slot": "104",
        "type": "t_array(t_uint256)49_storage"
      }
    ],
    "types": {
      "t_array(t_uint256)49_storage": {
        "base": "t_uint256",
        "encoding": "inplace",
        "label": "uint256[49]",
        "numberOfBytes": "1568"
      },
      "t_bool": {
        "encoding": "inplace",
        "label": "bool",
        "numberOfBytes": "1"
      },
      "t_contract(IERC20)1559": {
        "encoding": "inplace",
        "label": "contract IERC20",
        "numberOfBytes": "20"
      },
      "t_contract(IPauserRegistry)7893": {
        "encoding": "inplace",
        "label": "contract IPauserRegistry",
        "numberOfBytes": "20"
      },
      "t_uint256": {
        "encoding": "inplace",
        "label": "uint256",
        "numberOfBytes": "32"
      },
      "t_uint8": {
        "encoding": "inplace",
        "label": "uint8",
        "numberOfBytes": "1"
      }
    }
  }
}