{
  "address": "0xAA7281C7365d2788A019dF36a254Dc51aE968Cb8",
  "abi": [
    {
      "inputs": [
        {
          "internalType": "contract IPoolController",
          "name": "_poolController",
          "type": "address"
        },
        {
          "internalType": "contract ISlasher",
          "name": "_slasher",
          "type": "address"
        }
      ],
      "stateMutability": "nonpayable",
      "type": "constructor"
    },
    {
      "anonymous": false,
      "inputs": [
        {
          "indexed": false,
          "internalType": "uint8",
          "name": "version",
          "type": "uint8"
        }
      ],
      "name": "Initialized",
      "type": "event"
    },
    {
      "anonymous": false,
      "inputs": [
        {
          "indexed": false,
          "internalType": "uint256",
          "name": "previousValue",
          "type": "uint256"
        },
        {
          "indexed": false,
          "internalType": "uint256",
          "name": "newValue",
          "type": "uint256"
        }
      ],
      "name": "MinWithdrawalDelaySet",
      "type": "event"
    },
    {
      "anonymous": false,
      "inputs": [
        {
          "indexed": true,
          "internalType": "address",
          "name": "operator",
          "type": "address"
        },
        {
          "components": [
            {
              "internalType": "address",
              "name": "__deprecated_earningsReceiver",
              "type": "address"
            },
            {
              "internalType": "address",
              "name": "delegationApprover",
              "type": "address"
            },
            {
              "internalType": "uint32",
              "name": "stakerOptOutWindow",
              "type": "uint32"
            }
          ],
          "indexed": false,
          "internalType": "struct IDelegationController.OperatorDetails",
          "name": "newOperatorDetails",
          "type": "tuple"
        }
      ],
      "name": "OperatorDetailsModified",
      "type": "event"
    },
    {
      "anonymous": false,
      "inputs": [
        {
          "indexed": true,
          "internalType": "address",
          "name": "operator",
          "type": "address"
        },
        {
          "indexed": false,
          "internalType": "string",
          "name": "metadataURI",
          "type": "string"
        }
      ],
      "name": "OperatorMetadataURIUpdated",
      "type": "event"
    },
    {
      "anonymous": false,
      "inputs": [
        {
          "indexed": true,
          "internalType": "address",
          "name": "operator",
          "type": "address"
        },
        {
          "components": [
            {
              "internalType": "address",
              "name": "__deprecated_earningsReceiver",
              "type": "address"
            },
            {
              "internalType": "address",
              "name": "delegationApprover",
              "type": "address"
            },
            {
              "internalType": "uint32",
              "name": "stakerOptOutWindow",
              "type": "uint32"
            }
          ],
          "indexed": false,
          "internalType": "struct IDelegationController.OperatorDetails",
          "name": "operatorDetails",
          "type": "tuple"
        }
      ],
      "name": "OperatorRegistered",
      "type": "event"
    },
    {
      "anonymous": false,
      "inputs": [
        {
          "indexed": true,
          "internalType": "address",
          "name": "operator",
          "type": "address"
        },
        {
          "indexed": false,
          "internalType": "address",
          "name": "staker",
          "type": "address"
        },
        {
          "indexed": false,
          "internalType": "contract IPool",
          "name": "pool",
          "type": "address"
        },
        {
          "indexed": false,
          "internalType": "uint256",
          "name": "shares",
          "type": "uint256"
        }
      ],
      "name": "OperatorSharesDecreased",
      "type": "event"
    },
    {
      "anonymous": false,
      "inputs": [
        {
          "indexed": true,
          "internalType": "address",
          "name": "operator",
          "type": "address"
        },
        {
          "indexed": false,
          "internalType": "address",
          "name": "staker",
          "type": "address"
        },
        {
          "indexed": false,
          "internalType": "contract IPool",
          "name": "pool",
          "type": "address"
        },
        {
          "indexed": false,
          "internalType": "uint256",
          "name": "shares",
          "type": "uint256"
        }
      ],
      "name": "OperatorSharesIncreased",
      "type": "event"
    },
    {
      "anonymous": false,
      "inputs": [
        {
          "indexed": true,
          "internalType": "address",
          "name": "previousOwner",
          "type": "address"
        },
        {
          "indexed": true,
          "internalType": "address",
          "name": "newOwner",
          "type": "address"
        }
      ],
      "name": "OwnershipTransferred",
      "type": "event"
    },
    {
      "anonymous": false,
      "inputs": [
        {
          "indexed": true,
          "internalType": "address",
          "name": "account",
          "type": "address"
        },
        {
          "indexed": false,
          "internalType": "uint256",
          "name": "newPausedStatus",
          "type": "uint256"
        }
      ],
      "name": "Paused",
      "type": "event"
    },
    {
      "anonymous": false,
      "inputs": [
        {
          "indexed": false,
          "internalType": "contract IPauserRegistry",
          "name": "pauserRegistry",
          "type": "address"
        },
        {
          "indexed": false,
          "internalType": "contract IPauserRegistry",
          "name": "newPauserRegistry",
          "type": "address"
        }
      ],
      "name": "PauserRegistrySet",
      "type": "event"
    },
    {
      "anonymous": false,
      "inputs": [
        {
          "indexed": false,
          "internalType": "contract IPool",
          "name": "pool",
          "type": "address"
        },
        {
          "indexed": false,
          "internalType": "uint256",
          "name": "previousValue",
          "type": "uint256"
        },
        {
          "indexed": false,
          "internalType": "uint256",
          "name": "newValue",
          "type": "uint256"
        }
      ],
      "name": "PoolWithdrawalDelaySet",
      "type": "event"
    },
    {
      "anonymous": false,
      "inputs": [
        {
          "indexed": true,
          "internalType": "address",
          "name": "staker",
          "type": "address"
        },
        {
          "indexed": true,
          "internalType": "address",
          "name": "operator",
          "type": "address"
        }
      ],
      "name": "StakerDelegated",
      "type": "event"
    },
    {
      "anonymous": false,
      "inputs": [
        {
          "indexed": true,
          "internalType": "address",
          "name": "staker",
          "type": "address"
        },
        {
          "indexed": true,
          "internalType": "address",
          "name": "operator",
          "type": "address"
        }
      ],
      "name": "StakerForceUndelegated",
      "type": "event"
    },
    {
      "anonymous": false,
      "inputs": [
        {
          "indexed": true,
          "internalType": "address",
          "name": "staker",
          "type": "address"
        },
        {
          "indexed": true,
          "internalType": "address",
          "name": "operator",
          "type": "address"
        }
      ],
      "name": "StakerUndelegated",
      "type": "event"
    },
    {
      "anonymous": false,
      "inputs": [
        {
          "indexed": true,
          "internalType": "address",
          "name": "account",
          "type": "address"
        },
        {
          "indexed": false,
          "internalType": "uint256",
          "name": "newPausedStatus",
          "type": "uint256"
        }
      ],
      "name": "Unpaused",
      "type": "event"
    },
    {
      "anonymous": false,
      "inputs": [
        {
          "indexed": false,
          "internalType": "address",
          "name": "previousGateway",
          "type": "address"
        },
        {
          "indexed": false,
          "internalType": "address",
          "name": "currentGateway",
          "type": "address"
        }
      ],
      "name": "UpdateWrappedTokenGateway",
      "type": "event"
    },
    {
      "anonymous": false,
      "inputs": [
        {
          "indexed": false,
          "internalType": "bytes32",
          "name": "withdrawalRoot",
          "type": "bytes32"
        }
      ],
      "name": "WithdrawalCompleted",
      "type": "event"
    },
    {
      "anonymous": false,
      "inputs": [
        {
          "indexed": false,
          "internalType": "bytes32",
          "name": "withdrawalRoot",
          "type": "bytes32"
        },
        {
          "components": [
            {
              "internalType": "address",
              "name": "staker",
              "type": "address"
            },
            {
              "internalType": "address",
              "name": "delegatedTo",
              "type": "address"
            },
            {
              "internalType": "address",
              "name": "withdrawer",
              "type": "address"
            },
            {
              "internalType": "uint256",
              "name": "nonce",
              "type": "uint256"
            },
            {
              "internalType": "uint32",
              "name": "startTimestamp",
              "type": "uint32"
            },
            {
              "internalType": "contract IPool[]",
              "name": "pools",
              "type": "address[]"
            },
            {
              "internalType": "uint256[]",
              "name": "shares",
              "type": "uint256[]"
            }
          ],
          "indexed": false,
          "internalType": "struct IDelegationController.Withdrawal",
          "name": "withdrawal",
          "type": "tuple"
        }
      ],
      "name": "WithdrawalQueued",
      "type": "event"
    },
    {
      "inputs": [],
      "name": "DELEGATION_APPROVAL_TYPEHASH",
      "outputs": [
        {
          "internalType": "bytes32",
          "name": "",
          "type": "bytes32"
        }
      ],
      "stateMutability": "view",
      "type": "function"
    },
    {
      "inputs": [],
      "name": "DOMAIN_TYPEHASH",
      "outputs": [
        {
          "internalType": "bytes32",
          "name": "",
          "type": "bytes32"
        }
      ],
      "stateMutability": "view",
      "type": "function"
    },
    {
      "inputs": [],
      "name": "MAX_STAKER_OPT_OUT_WINDOW",
      "outputs": [
        {
          "internalType": "uint256",
          "name": "",
          "type": "uint256"
        }
      ],
      "stateMutability": "view",
      "type": "function"
    },
    {
      "inputs": [],
      "name": "MAX_WITHDRAWAL_DELAY",
      "outputs": [
        {
          "internalType": "uint256",
          "name": "",
          "type": "uint256"
        }
      ],
      "stateMutability": "view",
      "type": "function"
    },
    {
      "inputs": [],
      "name": "STAKER_DELEGATION_TYPEHASH",
      "outputs": [
        {
          "internalType": "bytes32",
          "name": "",
          "type": "bytes32"
        }
      ],
      "stateMutability": "view",
      "type": "function"
    },
    {
      "inputs": [
        {
          "internalType": "address",
          "name": "staker",
          "type": "address"
        },
        {
          "internalType": "address",
          "name": "operator",
          "type": "address"
        },
        {
          "internalType": "uint256",
          "name": "expiry",
          "type": "uint256"
        }
      ],
      "name": "calculateCurrentStakerDelegationDigestHash",
      "outputs": [
        {
          "internalType": "bytes32",
          "name": "",
          "type": "bytes32"
        }
      ],
      "stateMutability": "view",
      "type": "function"
    },
    {
      "inputs": [
        {
          "internalType": "address",
          "name": "staker",
          "type": "address"
        },
        {
          "internalType": "address",
          "name": "operator",
          "type": "address"
        },
        {
          "internalType": "address",
          "name": "_delegationApprover",
          "type": "address"
        },
        {
          "internalType": "bytes32",
          "name": "approverSalt",
          "type": "bytes32"
        },
        {
          "internalType": "uint256",
          "name": "expiry",
          "type": "uint256"
        }
      ],
      "name": "calculateDelegationApprovalDigestHash",
      "outputs": [
        {
          "internalType": "bytes32",
          "name": "",
          "type": "bytes32"
        }
      ],
      "stateMutability": "view",
      "type": "function"
    },
    {
      "inputs": [
        {
          "internalType": "address",
          "name": "staker",
          "type": "address"
        },
        {
          "internalType": "uint256",
          "name": "_stakerNonce",
          "type": "uint256"
        },
        {
          "internalType": "address",
          "name": "operator",
          "type": "address"
        },
        {
          "internalType": "uint256",
          "name": "expiry",
          "type": "uint256"
        }
      ],
      "name": "calculateStakerDelegationDigestHash",
      "outputs": [
        {
          "internalType": "bytes32",
          "name": "",
          "type": "bytes32"
        }
      ],
      "stateMutability": "view",
      "type": "function"
    },
    {
      "inputs": [
        {
          "components": [
            {
              "internalType": "address",
              "name": "staker",
              "type": "address"
            },
            {
              "internalType": "address",
              "name": "delegatedTo",
              "type": "address"
            },
            {
              "internalType": "address",
              "name": "withdrawer",
              "type": "address"
            },
            {
              "internalType": "uint256",
              "name": "nonce",
              "type": "uint256"
            },
            {
              "internalType": "uint32",
              "name": "startTimestamp",
              "type": "uint32"
            },
            {
              "internalType": "contract IPool[]",
              "name": "pools",
              "type": "address[]"
            },
            {
              "internalType": "uint256[]",
              "name": "shares",
              "type": "uint256[]"
            }
          ],
          "internalType": "struct IDelegationController.Withdrawal",
          "name": "withdrawal",
          "type": "tuple"
        }
      ],
      "name": "calculateWithdrawalRoot",
      "outputs": [
        {
          "internalType": "bytes32",
          "name": "",
          "type": "bytes32"
        }
      ],
      "stateMutability": "pure",
      "type": "function"
    },
    {
      "inputs": [
        {
          "internalType": "address",
          "name": "",
          "type": "address"
        }
      ],
      "name": "cumulativeWithdrawalsQueued",
      "outputs": [
        {
          "internalType": "uint256",
          "name": "",
          "type": "uint256"
        }
      ],
      "stateMutability": "view",
      "type": "function"
    },
    {
      "inputs": [
        {
          "internalType": "address",
          "name": "staker",
          "type": "address"
        },
        {
          "internalType": "contract IPool",
          "name": "pool",
          "type": "address"
        },
        {
          "internalType": "uint256",
          "name": "shares",
          "type": "uint256"
        }
      ],
      "name": "decreaseDelegatedShares",
      "outputs": [],
      "stateMutability": "nonpayable",
      "type": "function"
    },
    {
      "inputs": [
        {
          "internalType": "address",
          "name": "operator",
          "type": "address"
        },
        {
          "components": [
            {
              "internalType": "bytes",
              "name": "signature",
              "type": "bytes"
            },
            {
              "internalType": "uint256",
              "name": "expiry",
              "type": "uint256"
            }
          ],
          "internalType": "struct ISignatureUtils.SignatureWithExpiry",
          "name": "approverSignatureAndExpiry",
          "type": "tuple"
        },
        {
          "internalType": "bytes32",
          "name": "approverSalt",
          "type": "bytes32"
        }
      ],
      "name": "delegateTo",
      "outputs": [],
      "stateMutability": "nonpayable",
      "type": "function"
    },
    {
      "inputs": [
        {
          "internalType": "address",
          "name": "staker",
          "type": "address"
        },
        {
          "internalType": "address",
          "name": "operator",
          "type": "address"
        },
        {
          "components": [
            {
              "internalType": "bytes",
              "name": "signature",
              "type": "bytes"
            },
            {
              "internalType": "uint256",
              "name": "expiry",
              "type": "uint256"
            }
          ],
          "internalType": "struct ISignatureUtils.SignatureWithExpiry",
          "name": "stakerSignatureAndExpiry",
          "type": "tuple"
        },
        {
          "components": [
            {
              "internalType": "bytes",
              "name": "signature",
              "type": "bytes"
            },
            {
              "internalType": "uint256",
              "name": "expiry",
              "type": "uint256"
            }
          ],
          "internalType": "struct ISignatureUtils.SignatureWithExpiry",
          "name": "approverSignatureAndExpiry",
          "type": "tuple"
        },
        {
          "internalType": "bytes32",
          "name": "approverSalt",
          "type": "bytes32"
        }
      ],
      "name": "delegateToBySignature",
      "outputs": [],
      "stateMutability": "nonpayable",
      "type": "function"
    },
    {
      "inputs": [
        {
          "internalType": "address",
          "name": "",
          "type": "address"
        }
      ],
      "name": "delegatedTo",
      "outputs": [
        {
          "internalType": "address",
          "name": "",
          "type": "address"
        }
      ],
      "stateMutability": "view",
      "type": "function"
    },
    {
      "inputs": [
        {
          "internalType": "address",
          "name": "operator",
          "type": "address"
        }
      ],
      "name": "delegationApprover",
      "outputs": [
        {
          "internalType": "address",
          "name": "",
          "type": "address"
        }
      ],
      "stateMutability": "view",
      "type": "function"
    },
    {
      "inputs": [
        {
          "internalType": "address",
          "name": "",
          "type": "address"
        },
        {
          "internalType": "bytes32",
          "name": "",
          "type": "bytes32"
        }
      ],
      "name": "delegationApproverSaltIsSpent",
      "outputs": [
        {
          "internalType": "bool",
          "name": "",
          "type": "bool"
        }
      ],
      "stateMutability": "view",
      "type": "function"
    },
    {
      "inputs": [],
      "name": "domainSeparator",
      "outputs": [
        {
          "internalType": "bytes32",
          "name": "",
          "type": "bytes32"
        }
      ],
      "stateMutability": "view",
      "type": "function"
    },
    {
      "inputs": [
        {
          "internalType": "address",
          "name": "staker",
          "type": "address"
        }
      ],
      "name": "getDelegatableShares",
      "outputs": [
        {
          "internalType": "contract IPool[]",
          "name": "",
          "type": "address[]"
        },
        {
          "internalType": "uint256[]",
          "name": "",
          "type": "uint256[]"
        }
      ],
      "stateMutability": "view",
      "type": "function"
    },
    {
      "inputs": [
        {
          "internalType": "address",
          "name": "operator",
          "type": "address"
        },
        {
          "internalType": "contract IPool[]",
          "name": "pools",
          "type": "address[]"
        }
      ],
      "name": "getOperatorShares",
      "outputs": [
        {
          "internalType": "uint256[]",
          "name": "",
          "type": "uint256[]"
        }
      ],
      "stateMutability": "view",
      "type": "function"
    },
    {
      "inputs": [
        {
          "internalType": "contract IPool[]",
          "name": "pools",
          "type": "address[]"
        }
      ],
      "name": "getWithdrawalDelay",
      "outputs": [
        {
          "internalType": "uint256",
          "name": "",
          "type": "uint256"
        }
      ],
      "stateMutability": "view",
      "type": "function"
    },
    {
      "inputs": [
        {
          "internalType": "address",
          "name": "staker",
          "type": "address"
        },
        {
          "internalType": "contract IPool",
          "name": "pool",
          "type": "address"
        },
        {
          "internalType": "uint256",
          "name": "shares",
          "type": "uint256"
        }
      ],
      "name": "increaseDelegatedShares",
      "outputs": [],
      "stateMutability": "nonpayable",
      "type": "function"
    },
    {
      "inputs": [
        {
          "internalType": "address",
          "name": "initialOwner",
          "type": "address"
        },
        {
          "internalType": "contract IPauserRegistry",
          "name": "_pauserRegistry",
          "type": "address"
        },
        {
          "internalType": "uint256",
          "name": "initialPausedStatus",
          "type": "uint256"
        },
        {
          "internalType": "uint256",
          "name": "_minWithdrawalDelay",
          "type": "uint256"
        },
        {
          "internalType": "contract IPool[]",
          "name": "_pools",
          "type": "address[]"
        },
        {
          "internalType": "uint256[]",
          "name": "_withdrawalDelay",
          "type": "uint256[]"
        }
      ],
      "name": "initialize",
      "outputs": [],
      "stateMutability": "nonpayable",
      "type": "function"
    },
    {
      "inputs": [
        {
          "internalType": "address",
          "name": "staker",
          "type": "address"
        }
      ],
      "name": "isDelegated",
      "outputs": [
        {
          "internalType": "bool",
          "name": "",
          "type": "bool"
        }
      ],
      "stateMutability": "view",
      "type": "function"
    },
    {
      "inputs": [
        {
          "internalType": "address",
          "name": "operator",
          "type": "address"
        }
      ],
      "name": "isOperator",
      "outputs": [
        {
          "internalType": "bool",
          "name": "",
          "type": "bool"
        }
      ],
      "stateMutability": "view",
      "type": "function"
    },
    {
      "inputs": [],
      "name": "minWithdrawalDelay",
      "outputs": [
        {
          "internalType": "uint256",
          "name": "",
          "type": "uint256"
        }
      ],
      "stateMutability": "view",
      "type": "function"
    },
    {
      "inputs": [
        {
          "components": [
            {
              "internalType": "address",
              "name": "__deprecated_earningsReceiver",
              "type": "address"
            },
            {
              "internalType": "address",
              "name": "delegationApprover",
              "type": "address"
            },
            {
              "internalType": "uint32",
              "name": "stakerOptOutWindow",
              "type": "uint32"
            }
          ],
          "internalType": "struct IDelegationController.OperatorDetails",
          "name": "newOperatorDetails",
          "type": "tuple"
        }
      ],
      "name": "modifyOperatorDetails",
      "outputs": [],
      "stateMutability": "nonpayable",
      "type": "function"
    },
    {
      "inputs": [
        {
          "internalType": "address",
          "name": "operator",
          "type": "address"
        }
      ],
      "name": "operatorDetails",
      "outputs": [
        {
          "components": [
            {
              "internalType": "address",
              "name": "__deprecated_earningsReceiver",
              "type": "address"
            },
            {
              "internalType": "address",
              "name": "delegationApprover",
              "type": "address"
            },
            {
              "internalType": "uint32",
              "name": "stakerOptOutWindow",
              "type": "uint32"
            }
          ],
          "internalType": "struct IDelegationController.OperatorDetails",
          "name": "",
          "type": "tuple"
        }
      ],
      "stateMutability": "view",
      "type": "function"
    },
    {
      "inputs": [
        {
          "internalType": "address",
          "name": "",
          "type": "address"
        },
        {
          "internalType": "contract IPool",
          "name": "",
          "type": "address"
        }
      ],
      "name": "operatorShares",
      "outputs": [
        {
          "internalType": "uint256",
          "name": "",
          "type": "uint256"
        }
      ],
      "stateMutability": "view",
      "type": "function"
    },
    {
      "inputs": [],
      "name": "owner",
      "outputs": [
        {
          "internalType": "address",
          "name": "",
          "type": "address"
        }
      ],
      "stateMutability": "view",
      "type": "function"
    },
    {
      "inputs": [
        {
          "internalType": "uint256",
          "name": "newPausedStatus",
          "type": "uint256"
        }
      ],
      "name": "pause",
      "outputs": [],
      "stateMutability": "nonpayable",
      "type": "function"
    },
    {
      "inputs": [],
      "name": "pauseAll",
      "outputs": [],
      "stateMutability": "nonpayable",
      "type": "function"
    },
    {
      "inputs": [
        {
          "internalType": "uint8",
          "name": "index",
          "type": "uint8"
        }
      ],
      "name": "paused",
      "outputs": [
        {
          "internalType": "bool",
          "name": "",
          "type": "bool"
        }
      ],
      "stateMutability": "view",
      "type": "function"
    },
    {
      "inputs": [],
      "name": "paused",
      "outputs": [
        {
          "internalType": "uint256",
          "name": "",
          "type": "uint256"
        }
      ],
      "stateMutability": "view",
      "type": "function"
    },
    {
      "inputs": [],
      "name": "pauserRegistry",
      "outputs": [
        {
          "internalType": "contract IPauserRegistry",
          "name": "",
          "type": "address"
        }
      ],
      "stateMutability": "view",
      "type": "function"
    },
    {
      "inputs": [
        {
          "internalType": "bytes32",
          "name": "",
          "type": "bytes32"
        }
      ],
      "name": "pendingWithdrawals",
      "outputs": [
        {
          "internalType": "bool",
          "name": "",
          "type": "bool"
        }
      ],
      "stateMutability": "view",
      "type": "function"
    },
    {
      "inputs": [],
      "name": "poolController",
      "outputs": [
        {
          "internalType": "contract IPoolController",
          "name": "",
          "type": "address"
        }
      ],
      "stateMutability": "view",
      "type": "function"
    },
    {
      "inputs": [
        {
          "internalType": "contract IPool",
          "name": "",
          "type": "address"
        }
      ],
      "name": "poolWithdrawalDelay",
      "outputs": [
        {
          "internalType": "uint256",
          "name": "",
          "type": "uint256"
        }
      ],
      "stateMutability": "view",
      "type": "function"
    },
    {
      "inputs": [
        {
          "components": [
            {
              "internalType": "address",
              "name": "__deprecated_earningsReceiver",
              "type": "address"
            },
            {
              "internalType": "address",
              "name": "delegationApprover",
              "type": "address"
            },
            {
              "internalType": "uint32",
              "name": "stakerOptOutWindow",
              "type": "uint32"
            }
          ],
          "internalType": "struct IDelegationController.OperatorDetails",
          "name": "registeringOperatorDetails",
          "type": "tuple"
        },
        {
          "internalType": "string",
          "name": "metadataURI",
          "type": "string"
        }
      ],
      "name": "registerAsOperator",
      "outputs": [],
      "stateMutability": "nonpayable",
      "type": "function"
    },
    {
      "inputs": [],
      "name": "renounceOwnership",
      "outputs": [],
      "stateMutability": "nonpayable",
      "type": "function"
    },
    {
      "inputs": [
        {
          "internalType": "uint256",
          "name": "newMinWithdrawalDelay",
          "type": "uint256"
        }
      ],
      "name": "setMinWithdrawalDelay",
      "outputs": [],
      "stateMutability": "nonpayable",
      "type": "function"
    },
    {
      "inputs": [
        {
          "internalType": "contract IPauserRegistry",
          "name": "newPauserRegistry",
          "type": "address"
        }
      ],
      "name": "setPauserRegistry",
      "outputs": [],
      "stateMutability": "nonpayable",
      "type": "function"
    },
    {
      "inputs": [
        {
          "internalType": "contract IPool[]",
          "name": "pools",
          "type": "address[]"
        },
        {
          "internalType": "uint256[]",
          "name": "withdrawalDelay",
          "type": "uint256[]"
        }
      ],
      "name": "setPoolWithdrawalDelay",
      "outputs": [],
      "stateMutability": "nonpayable",
      "type": "function"
    },
    {
      "inputs": [],
      "name": "slasher",
      "outputs": [
        {
          "internalType": "contract ISlasher",
          "name": "",
          "type": "address"
        }
      ],
      "stateMutability": "view",
      "type": "function"
    },
    {
      "inputs": [
        {
          "internalType": "address",
          "name": "",
          "type": "address"
        }
      ],
      "name": "stakerNonce",
      "outputs": [
        {
          "internalType": "uint256",
          "name": "",
          "type": "uint256"
        }
      ],
      "stateMutability": "view",
      "type": "function"
    },
    {
      "inputs": [
        {
          "internalType": "address",
          "name": "operator",
          "type": "address"
        }
      ],
      "name": "stakerOptOutWindow",
      "outputs": [
        {
          "internalType": "uint256",
          "name": "",
          "type": "uint256"
        }
      ],
      "stateMutability": "view",
      "type": "function"
    },
    {
      "inputs": [
        {
          "internalType": "address",
          "name": "newOwner",
          "type": "address"
        }
      ],
      "name": "transferOwnership",
      "outputs": [],
      "stateMutability": "nonpayable",
      "type": "function"
    },
    {
      "inputs": [
        {
          "internalType": "address",
          "name": "staker",
          "type": "address"
        }
      ],
      "name": "undelegate",
      "outputs": [
        {
          "internalType": "bytes32[]",
          "name": "withdrawalRoots",
          "type": "bytes32[]"
        }
      ],
      "stateMutability": "nonpayable",
      "type": "function"
    },
    {
      "inputs": [
        {
          "internalType": "uint256",
          "name": "newPausedStatus",
          "type": "uint256"
        }
      ],
      "name": "unpause",
      "outputs": [],
      "stateMutability": "nonpayable",
      "type": "function"
    },
    {
      "inputs": [
        {
          "components": [
            {
              "internalType": "contract IPool[]",
              "name": "pools",
              "type": "address[]"
            },
            {
              "internalType": "uint256[]",
              "name": "shares",
              "type": "uint256[]"
            },
            {
              "internalType": "address",
              "name": "withdrawer",
              "type": "address"
            }
          ],
          "internalType": "struct IDelegationController.UnstakeParams[]",
          "name": "unstakeParams",
          "type": "tuple[]"
        }
      ],
      "name": "unstakes",
      "outputs": [
        {
          "internalType": "bytes32[]",
          "name": "",
          "type": "bytes32[]"
        }
      ],
      "stateMutability": "nonpayable",
      "type": "function"
    },
    {
      "inputs": [
        {
          "internalType": "string",
          "name": "metadataURI",
          "type": "string"
        }
      ],
      "name": "updateOperatorMetadataURI",
      "outputs": [],
      "stateMutability": "nonpayable",
      "type": "function"
    },
    {
      "inputs": [
        {
          "internalType": "address",
          "name": "_newWrappedTokenGateway",
          "type": "address"
        }
      ],
      "name": "updateWrappedTokenGateway",
      "outputs": [],
      "stateMutability": "nonpayable",
      "type": "function"
    },
    {
      "inputs": [
        {
          "components": [
            {
              "internalType": "address",
              "name": "staker",
              "type": "address"
            },
            {
              "internalType": "address",
              "name": "delegatedTo",
              "type": "address"
            },
            {
              "internalType": "address",
              "name": "withdrawer",
              "type": "address"
            },
            {
              "internalType": "uint256",
              "name": "nonce",
              "type": "uint256"
            },
            {
              "internalType": "uint32",
              "name": "startTimestamp",
              "type": "uint32"
            },
            {
              "internalType": "contract IPool[]",
              "name": "pools",
              "type": "address[]"
            },
            {
              "internalType": "uint256[]",
              "name": "shares",
              "type": "uint256[]"
            }
          ],
          "internalType": "struct IDelegationController.Withdrawal",
          "name": "withdrawal",
          "type": "tuple"
        },
        {
          "internalType": "contract IERC20[]",
          "name": "tokens",
          "type": "address[]"
        },
        {
          "internalType": "uint256",
          "name": "middlewareTimesIndex",
          "type": "uint256"
        },
        {
          "internalType": "bool",
          "name": "receiveAsTokens",
          "type": "bool"
        }
      ],
      "name": "withdraw",
      "outputs": [],
      "stateMutability": "nonpayable",
      "type": "function"
    },
    {
      "inputs": [
        {
          "components": [
            {
              "internalType": "address",
              "name": "staker",
              "type": "address"
            },
            {
              "internalType": "address",
              "name": "delegatedTo",
              "type": "address"
            },
            {
              "internalType": "address",
              "name": "withdrawer",
              "type": "address"
            },
            {
              "internalType": "uint256",
              "name": "nonce",
              "type": "uint256"
            },
            {
              "internalType": "uint32",
              "name": "startTimestamp",
              "type": "uint32"
            },
            {
              "internalType": "contract IPool[]",
              "name": "pools",
              "type": "address[]"
            },
            {
              "internalType": "uint256[]",
              "name": "shares",
              "type": "uint256[]"
            }
          ],
          "internalType": "struct IDelegationController.Withdrawal[]",
          "name": "withdrawals",
          "type": "tuple[]"
        },
        {
          "internalType": "contract IERC20[][]",
          "name": "tokens",
          "type": "address[][]"
        },
        {
          "internalType": "uint256[]",
          "name": "middlewareTimesIndexes",
          "type": "uint256[]"
        },
        {
          "internalType": "bool[]",
          "name": "receiveAsTokens",
          "type": "bool[]"
        }
      ],
      "name": "withdraws",
      "outputs": [],
      "stateMutability": "nonpayable",
      "type": "function"
    },
    {
      "inputs": [],
      "name": "wrappedTokenGateway",
      "outputs": [
        {
          "internalType": "address",
          "name": "",
          "type": "address"
        }
      ],
      "stateMutability": "view",
      "type": "function"
    }
  ],
  "transactionHash": "0x24db11ebb8c2ce688b4cbd67799af84b5f6a1b61507b5fb78f2c28d554f4bd01",
  "args": [
    "0xd914b20BcFcdBb396697a957fc28a77947593bE5",
    "0x9Cf182755a5F974B896590e1DaD99219217C2Da8"
  ],
  "numDeployments": 2,
  "solcInputHash": "1fc6261cb3ad84ab8707ef74ea464afa",
  "bytecode": "0x60e06040523480156200001157600080fd5b506040516200509c3803806200509c833981016040819052620000349162000137565b6001600160a01b03808316608052811660a052620000516200005d565b50504660c05262000176565b600054610100900460ff1615620000ca5760405162461bcd60e51b815260206004820152602760248201527f496e697469616c697a61626c653a20636f6e747261637420697320696e697469604482015266616c697a696e6760c81b606482015260840160405180910390fd5b60005460ff908116146200011c576000805460ff191660ff9081179091556040519081527f7f26b83ff96e1f2b6a682f133852f6798a09c465da95921460cefb38474024989060200160405180910390a15b565b6001600160a01b03811681146200013457600080fd5b50565b600080604083850312156200014b57600080fd5b825162000158816200011e565b60208401519092506200016b816200011e565b809150509250929050565b60805160a05160c051614ec5620001d760003960006122ad015260006107770152600081816105ae01528181610dfc0152818161121101528181611c090152818161295a0152818161356a015281816136760152613b0b0152614ec56000f3fe608060405234801561001057600080fd5b50600436106103625760003560e01c80636d70f7ae116101c8578063b6d65ea311610104578063da8be864116100a2578063f16172b01161007c578063f16172b014610943578063f2fde38b14610956578063f698da2514610969578063fabc1cbc1461097157600080fd5b8063da8be8641461090a578063eafe9f311461091d578063eea9064b1461093057600080fd5b8063be0525d7116100de578063be0525d71461081d578063c5e480db14610830578063c94b5111146108d6578063cf80873e146108e957600080fd5b8063b6d65ea3146107b9578063b7f06ebe146107cc578063bb45fef2146107ef57600080fd5b80639004134711610171578063a17884841161014b578063a178848414610748578063a238f9df14610768578063b134427114610772578063b6805c541461079957600080fd5b8063900413471461070b578063973a67961461072b57806399be81c81461073557600080fd5b80637f548071116101a25780637f548071146106d4578063886f1195146106e75780638da5cb5b146106fa57600080fd5b80636d70f7ae14610672578063715018a6146106a1578063778e55f3146106a957600080fd5b806322bf40e4116102a2578063595c6a67116102405780635c975abb1161021a5780635c975abb1461060e57806363152b131461061657806365108e921461063657806365da12641461064957600080fd5b8063595c6a67146105d0578063597b36da146105d85780635ac86ab7146105eb57600080fd5b80633cdeb5e01161027c5780633cdeb5e0146105155780633e28391d1461054457806343377382146105825780634aa9d585146105a957600080fd5b806322bf40e4146104cf57806328a573ae146104e257806329c77d4f146104f557600080fd5b806310d67a2f1161030f5780631bbce091116102e95780631bbce091146104315780631d1bf7f2146104445780631e1198381461047d57806320606b70146104a857600080fd5b806310d67a2f146103f8578063132d49671461040b578063136439dd1461041e57600080fd5b80630b9f487a116103405780630b9f487a146103c95780630d5b0067146103dc5780630f589e59146103e557600080fd5b80630449ca391461036757806304a4f9791461038d5780630af71b77146103b4575b600080fd5b61037a610375366004613eaf565b610984565b6040519081526020015b60405180910390f35b61037a7f14bde674c9f64b2ad00eaaee4a8bed1fabef35c7507e3c5b9cfc9436909a2dad81565b6103c76103c2366004613ee5565b610a0b565b005b61037a6103d7366004613fce565b610b1f565b61037a609e5481565b6103c76103f3366004614083565b610be1565b6103c76104063660046140d7565b610d08565b6103c76104193660046140fb565b610dd8565b6103c761042c36600461413c565b610e89565b61037a61043f3660046140fb565b610fc6565b61037a6104523660046140d7565b6001600160a01b03166000908152609a6020526040902060010154600160a01b900463ffffffff1690565b60a254610490906001600160a01b031681565b6040516001600160a01b039091168152602001610384565b61037a7f8cad95687ba82c2ce50e74f7b754645e5117c3a5bec8151c0726d5857980a86681565b6103c76104dd366004614155565b610ff4565b6103c76104f03660046140fb565b6111ed565b61037a6105033660046140d7565b609c6020526000908152604090205481565b6104906105233660046140d7565b6001600160a01b039081166000908152609a60205260409020600101541690565b6105726105523660046140d7565b6001600160a01b039081166000908152609b602052604090205416151590565b6040519015158152602001610384565b61037a7f39111bc4a4d688e1f685123d7497d4615370152a8ee4a0593e647bd06ad8bb0b81565b6104907f000000000000000000000000000000000000000000000000000000000000000081565b6103c7611297565b61037a6105e636600461443c565b61137b565b6105726105f9366004614479565b606654600160ff9092169190911b9081161490565b60665461037a565b610629610624366004613eaf565b6113ab565b604051610384919061449c565b6103c76106443660046140d7565b611726565b6104906106573660046140d7565b609b602052600090815260409020546001600160a01b031681565b6105726106803660046140d7565b6001600160a01b039081166000818152609b60205260409020549091161490565b6103c7611797565b61037a6106b73660046144e0565b609960209081526000928352604080842090915290825290205481565b6103c76106e23660046145c2565b6117ab565b606554610490906001600160a01b031681565b6033546001600160a01b0316610490565b61071e610719366004614653565b61191e565b60405161038491906146de565b61037a62ed4e0081565b6103c76107433660046146f1565b6119f9565b61037a6107563660046140d7565b60a06020526000908152604090205481565b61037a62278d0081565b6104907f000000000000000000000000000000000000000000000000000000000000000081565b61037a6107a73660046140d7565b60a16020526000908152604090205481565b6103c76107c7366004614735565b611a94565b6105726107da36600461413c565b609f6020526000908152604090205460ff1681565b6105726107fd3660046147c5565b609d60209081526000928352604080842090915290825290205460ff1681565b6103c761082b36600461413c565b611afd565b6108a061083e3660046140d7565b6040805160608082018352600080835260208084018290529284018190526001600160a01b039485168152609a8352839020835191820184528054851682526001015493841691810191909152600160a01b90920463ffffffff169082015290565b6040805182516001600160a01b039081168252602080850151909116908201529181015163ffffffff1690820152606001610384565b61037a6108e43660046147f1565b611b0e565b6108fc6108f73660046140d7565b611bc7565b604051610384929190614872565b6106296109183660046140d7565b611c84565b6103c761092b366004614897565b6120f0565b6103c761093e366004614903565b612104565b6103c761095136600461495c565b6121be565b6103c76109643660046140d7565b61221c565b61037a6122a9565b6103c761097f36600461413c565b612384565b609e54600090815b83811015610a0157600060a160008787858181106109ac576109ac614978565b90506020020160208101906109c191906140d7565b6001600160a01b03166001600160a01b03168152602001908152602001600020549050828111156109f0578092505b506109fa816149a4565b905061098c565b5090505b92915050565b6066546040805180820190915260018152603560f81b6020820152600291600490811603610a555760405162461bcd60e51b8152600401610a4c9190614a03565b60405180910390fd5b50610a5e6124e0565b60005b88811015610b0957610af98a8a83818110610a7e57610a7e614978565b9050602002810190610a909190614a16565b898984818110610aa257610aa2614978565b9050602002810190610ab49190614a36565b898986818110610ac657610ac6614978565b90506020020135888887818110610adf57610adf614978565b9050602002016020810190610af49190614a80565b612539565b610b02816149a4565b9050610a61565b50610b14600160d455565b505050505050505050565b604080517f14bde674c9f64b2ad00eaaee4a8bed1fabef35c7507e3c5b9cfc9436909a2dad6020808301919091526001600160a01b038681168385015288811660608401528716608083015260a0820185905260c08083018590528351808403909101815260e0909201909252805191012060009081610b9d6122a9565b60405161190160f01b602082015260228101919091526042810183905260620160408051808303601f19018152919052805160209091012098975050505050505050565b336000908152609b60205260409020546001600160a01b03161515156040518060400160405280600281526020017f323000000000000000000000000000000000000000000000000000000000000081525090610c515760405162461bcd60e51b8152600401610a4c9190614a03565b50610c5c3384612b4a565b604080518082019091526060815260006020820152610c7e3380836000612cac565b336001600160a01b03167f8e8485583a2310d41f7c82b9427d0bd49bad74bb9cff9d3402a29d8f9b28a0e285604051610cb79190614a9d565b60405180910390a2336001600160a01b03167f02a919ed0e2acad1dd90f17ef2fa4ae5462ee1339170034a8531cca4b67080908484604051610cfa929190614aef565b60405180910390a250505050565b606560009054906101000a90046001600160a01b03166001600160a01b031663eab66d7a6040518163ffffffff1660e01b8152600401602060405180830381865afa158015610d5b573d6000803e3d6000fd5b505050506040513d601f19601f82011682018060405250810190610d7f9190614b1e565b6001600160a01b0316336001600160a01b031614604051806040016040528060018152602001601960f91b81525090610dcb5760405162461bcd60e51b8152600401610a4c9190614a03565b50610dd581612f02565b50565b604080518082019091526002815261313960f01b6020820152336001600160a01b037f00000000000000000000000000000000000000000000000000000000000000001614610e3a5760405162461bcd60e51b8152600401610a4c9190614a03565b506001600160a01b038084166000908152609b60205260409020541615610e84576001600160a01b038084166000908152609b602052604090205416610e8281858585612fab565b505b505050565b60655460405163237dfb4760e11b81523360048201526001600160a01b03909116906346fbf68e90602401602060405180830381865afa158015610ed1573d6000803e3d6000fd5b505050506040513d601f19601f82011682018060405250810190610ef59190614b3b565b604051806040016040528060018152602001603160f81b81525090610f2d5760405162461bcd60e51b8152600401610a4c9190614a03565b5060665460408051808201909152600181527f370000000000000000000000000000000000000000000000000000000000000060208201529082811614610f875760405162461bcd60e51b8152600401610a4c9190614a03565b50606681905560405181815233907fab40a374bc51de372200a8bc981af8c9ecdc08dfdaef0bb6e09f88f3c616ef3d906020015b60405180910390a250565b6001600160a01b0383166000908152609c6020526040812054610feb85828686611b0e565b95945050505050565b600054610100900460ff16158080156110145750600054600160ff909116105b8061102e5750303b15801561102e575060005460ff166001145b6110a05760405162461bcd60e51b815260206004820152602e60248201527f496e697469616c697a61626c653a20636f6e747261637420697320616c72656160448201527f647920696e697469616c697a65640000000000000000000000000000000000006064820152608401610a4c565b6000805460ff1916600117905580156110c3576000805461ff0019166101001790555b6110cd8888613034565b604080518082018252600881527f42696e4c6179657200000000000000000000000000000000000000000000000060209182015281517f8cad95687ba82c2ce50e74f7b754645e5117c3a5bec8151c0726d5857980a866818301527fc3e1ab4858383d79d3a0e54f9365ec1da08f828fcebd1952f7ea695e26718a6081840152466060820152306080808301919091528351808303909101815260a0909101909252815191012060985561117f6130f1565b61118889613176565b611191866131c8565b61119d85858585613262565b8015610b14576000805461ff0019169055604051600181527f7f26b83ff96e1f2b6a682f133852f6798a09c465da95921460cefb38474024989060200160405180910390a1505050505050505050565b604080518082019091526002815261313960f01b6020820152336001600160a01b037f0000000000000000000000000000000000000000000000000000000000000000161461124f5760405162461bcd60e51b8152600401610a4c9190614a03565b506001600160a01b038084166000908152609b60205260409020541615610e84576001600160a01b038084166000908152609b602052604090205416610e82818585856133d3565b60655460405163237dfb4760e11b81523360048201526001600160a01b03909116906346fbf68e90602401602060405180830381865afa1580156112df573d6000803e3d6000fd5b505050506040513d601f19601f820116820180604052508101906113039190614b3b565b604051806040016040528060018152602001603160f81b8152509061133b5760405162461bcd60e51b8152600401610a4c9190614a03565b50600019606681905560405190815233907fab40a374bc51de372200a8bc981af8c9ecdc08dfdaef0bb6e09f88f3c616ef3d9060200160405180910390a2565b60008160405160200161138e9190614bcd565b604051602081830303815290604052805190602001209050919050565b60665460609060019060029081161415604051806040016040528060018152602001603560f81b815250906113f35760405162461bcd60e51b8152600401610a4c9190614a03565b5060008367ffffffffffffffff81111561140f5761140f6141dc565b604051908082528060200260200182016040528015611438578160200160208202803683370190505b50336000908152609b60205260408120549192506001600160a01b03909116905b8581101561171b5786868281811061147357611473614978565b90506020028101906114859190614be0565b611493906020810190614a36565b90508787838181106114a7576114a7614978565b90506020028101906114b99190614be0565b6114c39080614a36565b90501460405180604001604052806002815260200161323560f01b815250906114ff5760405162461bcd60e51b8152600401610a4c9190614a03565b503387878381811061151357611513614978565b90506020028101906115259190614be0565b6115369060608101906040016140d7565b6001600160a01b03161480611592575060a2546001600160a01b031687878381811061156457611564614978565b90506020028101906115769190614be0565b6115879060608101906040016140d7565b6001600160a01b0316145b6040518060400160405280600281526020017f3236000000000000000000000000000000000000000000000000000000000000815250906115e65760405162461bcd60e51b8152600401610a4c9190614a03565b506116ec33838989858181106115fe576115fe614978565b90506020028101906116109190614be0565b6116219060608101906040016140d7565b8a8a8681811061163357611633614978565b90506020028101906116459190614be0565b61164f9080614a36565b808060200260200160405190810160405280939291908181526020018383602002808284376000920191909152508e92508d915088905081811061169557611695614978565b90506020028101906116a79190614be0565b6116b5906020810190614a36565b8080602002602001604051908101604052809392919081815260200183836020028082843760009201919091525061345c92505050565b8382815181106116fe576116fe614978565b602090810291909101015280611713816149a4565b915050611459565b509095945050505050565b61172e613857565b60a254604080516001600160a01b03928316815291831660208301527f6ed22dc7330f7d5d7c2ceacb5a19323d459493561529441177421938a434815b910160405180910390a160a280546001600160a01b0319166001600160a01b0392909216919091179055565b61179f613857565b6117a96000613176565b565b428360200151101560405180604001604052806002815260200161313360f01b815250906117ec5760405162461bcd60e51b8152600401610a4c9190614a03565b506001600160a01b038086166000908152609b60205260409020541615151560405180604001604052806002815260200161323960f01b815250906118445760405162461bcd60e51b8152600401610a4c9190614a03565b506001600160a01b038085166000818152609b60205260409020549091161460405180604001604052806002815260200161033360f41b8152509061189c5760405162461bcd60e51b8152600401610a4c9190614a03565b506000609c6000876001600160a01b03166001600160a01b0316815260200190815260200160002054905060006118d98783888860200151611b0e565b6001600160a01b0388166000908152609c60205260409020600184019055855190915061190990889083906138b1565b61191587878686612cac565b50505050505050565b60606000825167ffffffffffffffff81111561193c5761193c6141dc565b604051908082528060200260200182016040528015611965578160200160208202803683370190505b50905060005b8351811015610a01576001600160a01b038516600090815260996020526040812085519091908690849081106119a3576119a3614978565b60200260200101516001600160a01b03166001600160a01b03168152602001908152602001600020548282815181106119de576119de614978565b60209081029190910101526119f2816149a4565b905061196b565b336000818152609b60205260409020546001600160a01b03161460405180604001604052806002815260200161323160f01b81525090611a4c5760405162461bcd60e51b8152600401610a4c9190614a03565b50336001600160a01b03167f02a919ed0e2acad1dd90f17ef2fa4ae5462ee1339170034a8531cca4b67080908383604051611a88929190614aef565b60405180910390a25050565b6066546040805180820190915260018152603560f81b6020820152600291600490811603611ad55760405162461bcd60e51b8152600401610a4c9190614a03565b50611ade6124e0565b611aeb8686868686612539565b611af5600160d455565b505050505050565b611b05613857565b610dd5816131c8565b604080517f39111bc4a4d688e1f685123d7497d4615370152a8ee4a0593e647bd06ad8bb0b6020808301919091526001600160a01b0387811683850152851660608301526080820186905260a08083018590528351808403909101815260c0909201909252805191012060009081611b846122a9565b60405161190160f01b602082015260228101919091526042810183905260620160408051808303601f190181529190528051602090910120979650505050505050565b6040517f94f649dd0000000000000000000000000000000000000000000000000000000081526001600160a01b038281166004830152606091829160009182917f000000000000000000000000000000000000000000000000000000000000000016906394f649dd90602401600060405180830381865afa158015611c50573d6000803e3d6000fd5b505050506040513d6000823e601f3d908101601f19168201604052611c789190810190614c51565b90969095509350505050565b60665460609060019060029081161415604051806040016040528060018152602001603560f81b81525090611ccc5760405162461bcd60e51b8152600401610a4c9190614a03565b506001600160a01b038084166000908152609b60205260409020541615156040518060400160405280600281526020017f323200000000000000000000000000000000000000000000000000000000000081525090611d3e5760405162461bcd60e51b8152600401610a4c9190614a03565b506001600160a01b038084166000818152609b602052604090205490911614156040518060400160405280600281526020017f323300000000000000000000000000000000000000000000000000000000000081525090611db25760405162461bcd60e51b8152600401610a4c9190614a03565b506040805180820190915260018152603360f81b60208201526001600160a01b038416611df25760405162461bcd60e51b8152600401610a4c9190614a03565b506001600160a01b038084166000818152609b602052604090205490911690331480611e265750336001600160a01b038216145b80611e4d57506001600160a01b038181166000908152609a60205260409020600101541633145b6040518060400160405280600281526020017f323400000000000000000000000000000000000000000000000000000000000081525090611ea15760405162461bcd60e51b8152600401610a4c9190614a03565b50600080611eae86611bc7565b9092509050336001600160a01b03871614611f0457826001600160a01b0316866001600160a01b03167ff0eddf07e6ea14f388b47e1e94a0f464ecbd9eed4171130e0fc0e99fb4030a8a60405160405180910390a35b826001600160a01b0316866001600160a01b03167ffee30966a256b71e14bc0ebfc94315e28ef4a97a7131a9e2b7a310a73af4467660405160405180910390a36001600160a01b0386166000908152609b6020526040812080546001600160a01b031916905582519003611f885760408051600081526020810190915294506120e7565b815167ffffffffffffffff811115611fa257611fa26141dc565b604051908082528060200260200182016040528015611fcb578160200160208202803683370190505b50945060005b82518110156120e55760408051600180825281830190925260009160208083019080368337505060408051600180825281830190925292935060009291506020808301908036833701905050905084838151811061203157612031614978565b60200260200101518260008151811061204c5761204c614978565b60200260200101906001600160a01b031690816001600160a01b03168152505083838151811061207e5761207e614978565b60200260200101518160008151811061209957612099614978565b6020026020010181815250506120b289878b858561345c565b8884815181106120c4576120c4614978565b602002602001018181525050505080806120dd906149a4565b915050611fd1565b505b50505050919050565b6120f8613857565b610e8284848484613262565b336000908152609b60205260409020546001600160a01b031615151560405180604001604052806002815260200161323960f01b815250906121595760405162461bcd60e51b8152600401610a4c9190614a03565b506001600160a01b038084166000818152609b60205260409020549091161460405180604001604052806002815260200161033360f41b815250906121b15760405162461bcd60e51b8152600401610a4c9190614a03565b50610e8433848484612cac565b336000818152609b60205260409020546001600160a01b03161460405180604001604052806002815260200161323160f01b815250906122115760405162461bcd60e51b8152600401610a4c9190614a03565b50610dd53382612b4a565b612224613857565b6001600160a01b0381166122a05760405162461bcd60e51b815260206004820152602660248201527f4f776e61626c653a206e6577206f776e657220697320746865207a65726f206160448201527f64647265737300000000000000000000000000000000000000000000000000006064820152608401610a4c565b610dd581613176565b60007f000000000000000000000000000000000000000000000000000000000000000046036122d9575060985490565b50604080518082018252600881527f42696e4c6179657200000000000000000000000000000000000000000000000060209182015281517f8cad95687ba82c2ce50e74f7b754645e5117c3a5bec8151c0726d5857980a866818301527fc3e1ab4858383d79d3a0e54f9365ec1da08f828fcebd1952f7ea695e26718a6081840152466060820152306080808301919091528351808303909101815260a0909101909252815191012090565b606560009054906101000a90046001600160a01b03166001600160a01b031663eab66d7a6040518163ffffffff1660e01b8152600401602060405180830381865afa1580156123d7573d6000803e3d6000fd5b505050506040513d601f19601f820116820180604052508101906123fb9190614b1e565b6001600160a01b0316336001600160a01b031614604051806040016040528060018152602001601960f91b815250906124475760405162461bcd60e51b8152600401610a4c9190614a03565b506066541981196066541916146040518060400160405280600181526020017f3800000000000000000000000000000000000000000000000000000000000000815250906124a85760405162461bcd60e51b8152600401610a4c9190614a03565b50606681905560405181815233907f3582d1828e26bf56bd801502bc021ac0bc8afb57c826e4986b45593c8fad389c90602001610fbb565b600260d454036125325760405162461bcd60e51b815260206004820152601f60248201527f5265656e7472616e637947756172643a207265656e7472616e742063616c6c006044820152606401610a4c565b600260d455565b60006125476105e687614d0c565b6000818152609f6020908152604091829020548251808401909352600283527f3332000000000000000000000000000000000000000000000000000000000000918301919091529192509060ff166125b25760405162461bcd60e51b8152600401610a4c9190614a03565b50609e5442906125c860a0890160808a01614d18565b63ffffffff166125d89190614d35565b11156040518060400160405280600281526020017f33330000000000000000000000000000000000000000000000000000000000008152509061262e5760405162461bcd60e51b8152600401610a4c9190614a03565b5061263f60608701604088016140d7565b6001600160a01b0316336001600160a01b0316146040518060400160405280600281526020017f3334000000000000000000000000000000000000000000000000000000000000815250906126a75760405162461bcd60e51b8152600401610a4c9190614a03565b5081156126f7576126bb60a0870187614a36565b604080518082019091526002815261323560f01b6020820152915085146126f55760405162461bcd60e51b8152600401610a4c9190614a03565b505b6000818152609f60205260409020805460ff19169055811561287a5760005b61272360a0880188614a36565b9050811015612874574260a1600061273e60a08b018b614a36565b8581811061274e5761274e614978565b905060200201602081019061276391906140d7565b6001600160a01b0316815260208101919091526040016000205461278d60a08a0160808b01614d18565b63ffffffff1661279d9190614d35565b111560405180604001604052806002815260200161333560f01b815250906127d85760405162461bcd60e51b8152600401610a4c9190614a03565b5061286c6127e960208901896140d7565b336127f760a08b018b614a36565b8581811061280757612807614978565b905060200201602081019061281c91906140d7565b61282960c08c018c614a36565b8681811061283957612839614978565b905060200201358a8a8781811061285257612852614978565b905060200201602081019061286791906140d7565b613abc565b600101612716565b50612b08565b336000908152609b60205260408120546001600160a01b0316905b6128a260a0890189614a36565b9050811015612b05574260a160006128bd60a08c018c614a36565b858181106128cd576128cd614978565b90506020020160208101906128e291906140d7565b6001600160a01b0316815260208101919091526040016000205461290c60a08b0160808c01614d18565b63ffffffff1661291c9190614d35565b111560405180604001604052806002815260200161333560f01b815250906129575760405162461bcd60e51b8152600401610a4c9190614a03565b507f00000000000000000000000000000000000000000000000000000000000000006001600160a01b031663c4623ea13389898581811061299a5761299a614978565b90506020020160208101906129af91906140d7565b6129bc60a08d018d614a36565b868181106129cc576129cc614978565b90506020020160208101906129e191906140d7565b6129ee60c08e018e614a36565b878181106129fe576129fe614978565b60405160e088901b7fffffffff000000000000000000000000000000000000000000000000000000001681526001600160a01b03968716600482015294861660248601529290941660448401526020909102013560648201526084019050600060405180830381600087803b158015612a7657600080fd5b505af1158015612a8a573d6000803e3d6000fd5b505050506001600160a01b03821615612afd57612afd8233612aaf60a08c018c614a36565b85818110612abf57612abf614978565b9050602002016020810190612ad491906140d7565b612ae160c08d018d614a36565b86818110612af157612af1614978565b905060200201356133d3565b600101612895565b50505b6040518181527fc97098c2f658800b4df29001527f7324bcdffcf6e8751a699ab920a1eced5b1d9060200160405180910390a1505050505050565b600160d455565b62ed4e00612b5e6060830160408401614d18565b63ffffffff1611156040518060400160405280600281526020017f323700000000000000000000000000000000000000000000000000000000000081525090612bba5760405162461bcd60e51b8152600401610a4c9190614a03565b506001600160a01b0382166000908152609a60205260409081902060010154600160a01b900463ffffffff1690612bf79060608401908401614d18565b63ffffffff1610156040518060400160405280600281526020017f323800000000000000000000000000000000000000000000000000000000000081525090612c535760405162461bcd60e51b8152600401610a4c9190614a03565b506001600160a01b0382166000908152609a602052604090208190612c788282614d48565b505060405133907ffebe5cd24b2cbc7b065b9d0fdeb904461e4afcff57dd57acda1e7832031ba7ac90611a88908490614a9d565b606654604080518082019091526001808252603560f81b6020830152600092811603612ceb5760405162461bcd60e51b8152600401610a4c9190614a03565b506001600160a01b038085166000908152609a6020526040902060010154168015801590612d225750336001600160a01b03821614155b8015612d375750336001600160a01b03861614155b15612e4d57428460200151101560405180604001604052806002815260200161313360f01b81525090612d7d5760405162461bcd60e51b8152600401610a4c9190614a03565b506001600160a01b0381166000908152609d60209081526040808320868452825291829020548251808401909352600283527f33310000000000000000000000000000000000000000000000000000000000009183019190915260ff1615612df85760405162461bcd60e51b8152600401610a4c9190614a03565b506001600160a01b0381166000908152609d6020908152604080832086845282528220805460ff19166001179055850151612e3a908890889085908890610b1f565b9050612e4b828287600001516138b1565b505b6001600160a01b038681166000818152609b602052604080822080546001600160a01b031916948a169485179055517fc3ee9f2e5fda98e8066a1f745b2df9285f416fe98cf2559cd21484b3d87433049190a3600080612eac88611bc7565b9150915060005b8251811015610b1457612efa888a858481518110612ed357612ed3614978565b6020026020010151858581518110612eed57612eed614978565b60200260200101516133d3565b600101612eb3565b6040805180820190915260018152603360f81b60208201526001600160a01b038216612f415760405162461bcd60e51b8152600401610a4c9190614a03565b50606554604080516001600160a01b03928316815291831660208301527f6e9fcd539896fca60e8b0f01dd580233e48a6b0f7df013b89ba7f565869acdb6910160405180910390a1606580546001600160a01b0319166001600160a01b0392909216919091179055565b6001600160a01b03808516600090815260996020908152604080832093861683529290529081208054839290612fe2908490614df2565b9091555050604080516001600160a01b0385811682528481166020830152918101839052908516907f6909600037b75d7b4733aedd815442b5ec018a827751c832aaff64eba5d6d2dd90606001610cfa565b6065546001600160a01b031615801561305557506001600160a01b03821615155b6040518060400160405280600181526020017f3600000000000000000000000000000000000000000000000000000000000000815250906130a95760405162461bcd60e51b8152600401610a4c9190614a03565b50606681905560405181815233907fab40a374bc51de372200a8bc981af8c9ecdc08dfdaef0bb6e09f88f3c616ef3d9060200160405180910390a26130ed82612f02565b5050565b600054610100900460ff1661316e5760405162461bcd60e51b815260206004820152602b60248201527f496e697469616c697a61626c653a20636f6e7472616374206973206e6f74206960448201527f6e697469616c697a696e670000000000000000000000000000000000000000006064820152608401610a4c565b6117a9613b63565b603380546001600160a01b038381166001600160a01b0319831681179093556040519116919082907f8be0079c531659141344cd1fd0a4f28419497f9722a3daafe3b4186f6b6457e090600090a35050565b60408051808201909152600281527f3338000000000000000000000000000000000000000000000000000000000000602082015262278d008211156132205760405162461bcd60e51b8152600401610a4c9190614a03565b50609e5460408051918252602082018390527f338caf1431dddfb34caa16bfc51573f97922fa2f8eb6d70d27476d8b4a89d5c3910160405180910390a1609e55565b604080518082019091526002815261323560f01b602082015283821461329b5760405162461bcd60e51b8152600401610a4c9190614a03565b508260005b81811015611af55760008686838181106132bc576132bc614978565b90506020020160208101906132d191906140d7565b6001600160a01b038116600090815260a160205260408120549192508686858181106132ff576132ff614978565b90506020020135905062278d008111156040518060400160405280600281526020017f3339000000000000000000000000000000000000000000000000000000000000815250906133635760405162461bcd60e51b8152600401610a4c9190614a03565b506001600160a01b038316600081815260a160209081526040918290208490558151928352820184905281018290527f108376441269231310d8eb7d2c786779cb19c9b7f967e2e95ab366f0fde46dc29060600160405180910390a1505050806133cc906149a4565b90506132a0565b6001600160a01b0380851660009081526099602090815260408083209386168352929052908120805483929061340a908490614d35565b9091555050604080516001600160a01b0385811682528481166020830152918101839052908516907f1ec042c965e2edd7107b51188ee0f383e22e76179041ab3a9d18ff151405166c90606001610cfa565b6040805180820190915260018152603360f81b60208201526000906001600160a01b03871661349e5760405162461bcd60e51b8152600401610a4c9190614a03565b50825160408051808201909152600281527f33360000000000000000000000000000000000000000000000000000000000006020820152906134f35760405162461bcd60e51b8152600401610a4c9190614a03565b5060005b8351811015613765576001600160a01b0386161561354d5761354d868886848151811061352657613526614978565b602002602001015186858151811061354057613540614978565b6020026020010151612fab565b846001600160a01b0316876001600160a01b0316148061361f57507f00000000000000000000000000000000000000000000000000000000000000006001600160a01b0316639b4da03d8583815181106135a9576135a9614978565b60200260200101516040518263ffffffff1660e01b81526004016135dc91906001600160a01b0391909116815260200190565b602060405180830381865afa1580156135f9573d6000803e3d6000fd5b505050506040513d601f19601f8201168201806040525081019061361d9190614b3b565b155b6040518060400160405280600281526020017f3337000000000000000000000000000000000000000000000000000000000000815250906136735760405162461bcd60e51b8152600401610a4c9190614a03565b507f00000000000000000000000000000000000000000000000000000000000000006001600160a01b0316638c80d4e5888684815181106136b6576136b6614978565b60200260200101518685815181106136d0576136d0614978565b60209081029190910101516040517fffffffff0000000000000000000000000000000000000000000000000000000060e086901b1681526001600160a01b0393841660048201529290911660248301526044820152606401600060405180830381600087803b15801561374257600080fd5b505af1158015613756573d6000803e3d6000fd5b505050508060010190506134f7565b506001600160a01b038616600090815260a06020526040812080549182919061378d836149a4565b919050555060006040518060e00160405280896001600160a01b03168152602001886001600160a01b03168152602001876001600160a01b031681526020018381526020014263ffffffff16815260200186815260200185815250905060006137f58261137b565b6000818152609f602052604090819020805460ff19166001179055519091507f9009ab153e8014fbfb02f2217f5cde7aa7f9ad734ae85ca3ee3f4ca2fdd499f9906138439083908590614e05565b60405180910390a198975050505050505050565b6033546001600160a01b031633146117a95760405162461bcd60e51b815260206004820181905260248201527f4f776e61626c653a2063616c6c6572206973206e6f7420746865206f776e65726044820152606401610a4c565b6001600160a01b0383163b15613a06576040517f1626ba7e00000000000000000000000000000000000000000000000000000000808252906001600160a01b03851690631626ba7e9061390a9086908690600401614e1e565b602060405180830381865afa158015613927573d6000803e3d6000fd5b505050506040513d601f19601f8201168201806040525081019061394b9190614e37565b7fffffffff000000000000000000000000000000000000000000000000000000001614610e845760405162461bcd60e51b815260206004820152605360248201527f454950313237315369676e61747572655574696c732e636865636b5369676e6160448201527f747572655f454950313237313a2045524331323731207369676e61747572652060648201527f766572696669636174696f6e206661696c656400000000000000000000000000608482015260a401610a4c565b826001600160a01b0316613a1a8383613be0565b6001600160a01b031614610e845760405162461bcd60e51b815260206004820152604760248201527f454950313237315369676e61747572655574696c732e636865636b5369676e6160448201527f747572655f454950313237313a207369676e6174757265206e6f742066726f6d60648201527f207369676e657200000000000000000000000000000000000000000000000000608482015260a401610a4c565b6040517fc608c7f30000000000000000000000000000000000000000000000000000000081526001600160a01b03858116600483015284811660248301526044820184905282811660648301527f0000000000000000000000000000000000000000000000000000000000000000169063c608c7f390608401600060405180830381600087803b158015613b4f57600080fd5b505af1158015610b14573d6000803e3d6000fd5b600054610100900460ff16612b435760405162461bcd60e51b815260206004820152602b60248201527f496e697469616c697a61626c653a20636f6e7472616374206973206e6f74206960448201527f6e697469616c697a696e670000000000000000000000000000000000000000006064820152608401610a4c565b6000806000613bef8585613bfc565b91509150610a0181613c41565b6000808251604103613c325760208301516040840151606085015160001a613c2687828585613da6565b94509450505050613c3a565b506000905060025b9250929050565b6000816004811115613c5557613c55614e79565b03613c5d5750565b6001816004811115613c7157613c71614e79565b03613cbe5760405162461bcd60e51b815260206004820152601860248201527f45434453413a20696e76616c6964207369676e617475726500000000000000006044820152606401610a4c565b6002816004811115613cd257613cd2614e79565b03613d1f5760405162461bcd60e51b815260206004820152601f60248201527f45434453413a20696e76616c6964207369676e6174757265206c656e677468006044820152606401610a4c565b6003816004811115613d3357613d33614e79565b03610dd55760405162461bcd60e51b815260206004820152602260248201527f45434453413a20696e76616c6964207369676e6174757265202773272076616c60448201527f75650000000000000000000000000000000000000000000000000000000000006064820152608401610a4c565b6000807f7fffffffffffffffffffffffffffffff5d576e7357a4501ddfe92f46681b20a0831115613ddd5750600090506003613e61565b6040805160008082526020820180845289905260ff881692820192909252606081018690526080810185905260019060a0016020604051602081039080840390855afa158015613e31573d6000803e3d6000fd5b5050604051601f1901519150506001600160a01b038116613e5a57600060019250925050613e61565b9150600090505b94509492505050565b60008083601f840112613e7c57600080fd5b50813567ffffffffffffffff811115613e9457600080fd5b6020830191508360208260051b8501011115613c3a57600080fd5b60008060208385031215613ec257600080fd5b823567ffffffffffffffff811115613ed957600080fd5b611c7885828601613e6a565b6000806000806000806000806080898b031215613f0157600080fd5b883567ffffffffffffffff80821115613f1957600080fd5b613f258c838d01613e6a565b909a50985060208b0135915080821115613f3e57600080fd5b613f4a8c838d01613e6a565b909850965060408b0135915080821115613f6357600080fd5b613f6f8c838d01613e6a565b909650945060608b0135915080821115613f8857600080fd5b50613f958b828c01613e6a565b999c989b5096995094979396929594505050565b6001600160a01b0381168114610dd557600080fd5b8035613fc981613fa9565b919050565b600080600080600060a08688031215613fe657600080fd5b8535613ff181613fa9565b9450602086013561400181613fa9565b9350604086013561401181613fa9565b94979396509394606081013594506080013592915050565b60006060828403121561403b57600080fd5b50919050565b60008083601f84011261405357600080fd5b50813567ffffffffffffffff81111561406b57600080fd5b602083019150836020828501011115613c3a57600080fd5b60008060006080848603121561409857600080fd5b6140a28585614029565b9250606084013567ffffffffffffffff8111156140be57600080fd5b6140ca86828701614041565b9497909650939450505050565b6000602082840312156140e957600080fd5b81356140f481613fa9565b9392505050565b60008060006060848603121561411057600080fd5b833561411b81613fa9565b9250602084013561412b81613fa9565b929592945050506040919091013590565b60006020828403121561414e57600080fd5b5035919050565b60008060008060008060008060c0898b03121561417157600080fd5b883561417c81613fa9565b9750602089013561418c81613fa9565b96506040890135955060608901359450608089013567ffffffffffffffff808211156141b757600080fd5b6141c38c838d01613e6a565b909650945060a08b0135915080821115613f8857600080fd5b634e487b7160e01b600052604160045260246000fd5b60405160e0810167ffffffffffffffff81118282101715614215576142156141dc565b60405290565b6040805190810167ffffffffffffffff81118282101715614215576142156141dc565b604051601f8201601f1916810167ffffffffffffffff81118282101715614267576142676141dc565b604052919050565b63ffffffff81168114610dd557600080fd5b8035613fc98161426f565b600067ffffffffffffffff8211156142a6576142a66141dc565b5060051b60200190565b600082601f8301126142c157600080fd5b813560206142d66142d18361428c565b61423e565b82815260059290921b840181019181810190868411156142f557600080fd5b8286015b8481101561431957803561430c81613fa9565b83529183019183016142f9565b509695505050505050565b600082601f83011261433557600080fd5b813560206143456142d18361428c565b82815260059290921b8401810191818101908684111561436457600080fd5b8286015b848110156143195780358352918301918301614368565b600060e0828403121561439157600080fd5b6143996141f2565b90506143a482613fbe565b81526143b260208301613fbe565b60208201526143c360408301613fbe565b6040820152606082013560608201526143de60808301614281565b608082015260a082013567ffffffffffffffff808211156143fe57600080fd5b61440a858386016142b0565b60a084015260c084013591508082111561442357600080fd5b5061443084828501614324565b60c08301525092915050565b60006020828403121561444e57600080fd5b813567ffffffffffffffff81111561446557600080fd5b6144718482850161437f565b949350505050565b60006020828403121561448b57600080fd5b813560ff811681146140f457600080fd5b6020808252825182820181905260009190848201906040850190845b818110156144d4578351835292840192918401916001016144b8565b50909695505050505050565b600080604083850312156144f357600080fd5b82356144fe81613fa9565b9150602083013561450e81613fa9565b809150509250929050565b60006040828403121561452b57600080fd5b61453361421b565b9050813567ffffffffffffffff8082111561454d57600080fd5b818401915084601f83011261456157600080fd5b8135602082821115614575576145756141dc565b614587601f8301601f1916820161423e565b9250818352868183860101111561459d57600080fd5b8181850182850137600081838501015282855280860135818601525050505092915050565b600080600080600060a086880312156145da57600080fd5b85356145e581613fa9565b945060208601356145f581613fa9565b9350604086013567ffffffffffffffff8082111561461257600080fd5b61461e89838a01614519565b9450606088013591508082111561463457600080fd5b5061464188828901614519565b95989497509295608001359392505050565b6000806040838503121561466657600080fd5b823561467181613fa9565b9150602083013567ffffffffffffffff81111561468d57600080fd5b614699858286016142b0565b9150509250929050565b600081518084526020808501945080840160005b838110156146d3578151875295820195908201906001016146b7565b509495945050505050565b6020815260006140f460208301846146a3565b6000806020838503121561470457600080fd5b823567ffffffffffffffff81111561471b57600080fd5b611c7885828601614041565b8015158114610dd557600080fd5b60008060008060006080868803121561474d57600080fd5b853567ffffffffffffffff8082111561476557600080fd5b9087019060e0828a03121561477957600080fd5b9095506020870135908082111561478f57600080fd5b5061479c88828901613e6a565b9095509350506040860135915060608601356147b781614727565b809150509295509295909350565b600080604083850312156147d857600080fd5b82356147e381613fa9565b946020939093013593505050565b6000806000806080858703121561480757600080fd5b843561481281613fa9565b935060208501359250604085013561482981613fa9565b9396929550929360600135925050565b600081518084526020808501945080840160005b838110156146d35781516001600160a01b03168752958201959082019060010161484d565b6040815260006148856040830185614839565b8281036020840152610feb81856146a3565b600080600080604085870312156148ad57600080fd5b843567ffffffffffffffff808211156148c557600080fd5b6148d188838901613e6a565b909650945060208701359150808211156148ea57600080fd5b506148f787828801613e6a565b95989497509550505050565b60008060006060848603121561491857600080fd5b833561492381613fa9565b9250602084013567ffffffffffffffff81111561493f57600080fd5b61494b86828701614519565b925050604084013590509250925092565b60006060828403121561496e57600080fd5b6140f48383614029565b634e487b7160e01b600052603260045260246000fd5b634e487b7160e01b600052601160045260246000fd5b6000600182016149b6576149b661498e565b5060010190565b6000815180845260005b818110156149e3576020818501810151868301820152016149c7565b506000602082860101526020601f19601f83011685010191505092915050565b6020815260006140f460208301846149bd565b6000823560de19833603018112614a2c57600080fd5b9190910192915050565b6000808335601e19843603018112614a4d57600080fd5b83018035915067ffffffffffffffff821115614a6857600080fd5b6020019150600581901b3603821315613c3a57600080fd5b600060208284031215614a9257600080fd5b81356140f481614727565b606081018235614aac81613fa9565b6001600160a01b039081168352602084013590614ac882613fa9565b1660208301526040830135614adc8161426f565b63ffffffff811660408401525092915050565b60208152816020820152818360408301376000818301604090810191909152601f909201601f19160101919050565b600060208284031215614b3057600080fd5b81516140f481613fa9565b600060208284031215614b4d57600080fd5b81516140f481614727565b60006001600160a01b03808351168452806020840151166020850152806040840151166040850152506060820151606084015263ffffffff608083015116608084015260a082015160e060a0850152614bb460e0850182614839565b905060c083015184820360c0860152610feb82826146a3565b6020815260006140f46020830184614b58565b60008235605e19833603018112614a2c57600080fd5b600082601f830112614c0757600080fd5b81516020614c176142d18361428c565b82815260059290921b84018101918181019086841115614c3657600080fd5b8286015b848110156143195780518352918301918301614c3a565b60008060408385031215614c6457600080fd5b825167ffffffffffffffff80821115614c7c57600080fd5b818501915085601f830112614c9057600080fd5b81516020614ca06142d18361428c565b82815260059290921b84018101918181019089841115614cbf57600080fd5b948201945b83861015614ce6578551614cd781613fa9565b82529482019490820190614cc4565b91880151919650909350505080821115614cff57600080fd5b5061469985828601614bf6565b6000610a05368361437f565b600060208284031215614d2a57600080fd5b81356140f48161426f565b80820180821115610a0557610a0561498e565b8135614d5381613fa9565b81546001600160a01b0319166001600160a01b03821617825550600181016020830135614d7f81613fa9565b81546001600160a01b0319166001600160a01b038216178255506040830135614da78161426f565b81547fffffffffffffffff00000000ffffffffffffffffffffffffffffffffffffffff1660a09190911b77ffffffff0000000000000000000000000000000000000000161790555050565b81810381811115610a0557610a0561498e565b8281526040602082015260006144716040830184614b58565b82815260406020820152600061447160408301846149bd565b600060208284031215614e4957600080fd5b81517fffffffff00000000000000000000000000000000000000000000000000000000811681146140f457600080fd5b634e487b7160e01b600052602160045260246000fdfea264697066735822122067d5a923194a546008a93396f6bdaba01a1c803ee659ae0c1a368a7cf7f4fcb764736f6c63430008140033",
  "devdoc": {
    "events": {
      "Initialized(uint8)": {
        "details": "Triggered when the contract has been initialized or reinitialized."
      },
      "OperatorMetadataURIUpdated(address,string)": {
        "details": "Note that these strings are *never stored in storage* and are instead purely emitted in events for off-chain indexing"
      },
      "WithdrawalQueued(bytes32,(address,address,address,uint256,uint32,address[],uint256[]))": {
        "params": {
          "withdrawal": "Is the withdrawal itself.",
          "withdrawalRoot": "Is the hash of the `withdrawal`."
        }
      }
    },
    "kind": "dev",
    "methods": {
      "calculateCurrentStakerDelegationDigestHash(address,address,uint256)": {
        "params": {
          "expiry": "The desired expiry time of the staker's signature",
          "operator": "The operator who is being delegated to",
          "staker": "The signing staker"
        }
      },
      "calculateDelegationApprovalDigestHash(address,address,address,bytes32,uint256)": {
        "params": {
          "_delegationApprover": "the operator's `delegationApprover` who will be signing the delegationHash (in general)",
          "approverSalt": "A unique and single use value associated with the approver signature.",
          "expiry": "Time after which the approver's signature becomes invalid",
          "operator": "The account receiving delegated stake",
          "staker": "The account delegating their stake"
        }
      },
      "calculateStakerDelegationDigestHash(address,uint256,address,uint256)": {
        "params": {
          "_stakerNonce": "The nonce of the staker. In practice we use the staker's current nonce, stored at `stakerNonce[staker]`",
          "expiry": "The desired expiry time of the staker's signature",
          "operator": "The operator who is being delegated to",
          "staker": "The signing staker"
        }
      },
      "constructor": {
        "details": "Initializes the immutable addresses of the pool mananger and slasher."
      },
      "decreaseDelegatedShares(address,address,uint256)": {
        "details": "*If the staker is actively delegated*, then decreases the `staker`'s delegated shares in `pool` by `shares`. Otherwise does nothing.Callable only by the PoolController.sol.",
        "params": {
          "pool": "The pool in which to decrease the delegated shares.",
          "shares": "The number of shares to decrease.",
          "staker": "The address to increase the delegated shares for their operator."
        }
      },
      "delegateTo(address,(bytes,uint256),bytes32)": {
        "details": "The approverSignatureAndExpiry is used in the event that:          1) the operator's `delegationApprover` address is set to a non-zero value.                  AND          2) neither the operator nor their `delegationApprover` is the `msg.sender`, since in the event that the operator             or their delegationApprover is the `msg.sender`, then approval is assumed.In the event that `approverSignatureAndExpiry` is not checked, its content is ignored entirely; it's recommended to use an empty input in this case to save on complexity + gas costs",
        "params": {
          "approverSalt": "A unique single use value tied to an individual signature.",
          "approverSignatureAndExpiry": "Verifies the operator approves of this delegation",
          "operator": "The account (`msg.sender`) is delegating its assets to for use in serving applications built on BinLayer."
        }
      },
      "delegateToBySignature(address,address,(bytes,uint256),(bytes,uint256),bytes32)": {
        "details": "If `staker` is an EOA, then `stakerSignature` is verified to be a valid ECDSA stakerSignature from `staker`, indicating their intention for this action.If `staker` is a contract, then `stakerSignature` will be checked according to EIP-1271.the operator's `delegationApprover` address is set to a non-zero value.neither the operator nor their `delegationApprover` is the `msg.sender`, since in the event that the operator or their delegationApprover is the `msg.sender`, then approval is assumed.This function will revert if the current `block.timestamp` is equal to or exceeds the expiryIn the case that `approverSignatureAndExpiry` is not checked, its content is ignored entirely; it's recommended to use an empty input in this case to save on complexity + gas costs",
        "params": {
          "approverSalt": "Is a salt used to help guarantee signature uniqueness. Each salt can only be used once by a given approver.",
          "approverSignatureAndExpiry": "is a parameter that will be used for verifying that the operator approves of this delegation action in the event that:",
          "operator": "The account (`staker`) is delegating its assets to for use in serving applications built on BinLayer.",
          "staker": "The account delegating stake to an `operator` account",
          "stakerSignatureAndExpiry": "Signed data from the staker authorizing delegating stake to an operator"
        }
      },
      "domainSeparator()": {
        "details": "The domain separator will change in the event of a fork that changes the ChainID.By introducing a domain separator the DApp developers are guaranteed that there can be no signature collision. for more detailed information please read EIP-712."
      },
      "getDelegatableShares(address)": {
        "details": "Returns two empty arrays in the case that the Staker has no actively-delegateable shares."
      },
      "getWithdrawalDelay(address[])": {
        "params": {
          "pools": "The pools to check withdrawal delays for"
        }
      },
      "increaseDelegatedShares(address,address,uint256)": {
        "details": "*If the staker is actively delegated*, then increases the `staker`'s delegated shares in `pool` by `shares`. Otherwise does nothing.Callable only by the PoolController.sol.",
        "params": {
          "pool": "The pool in which to increase the delegated shares.",
          "shares": "The number of shares to increase.",
          "staker": "The address to increase the delegated shares for their operator."
        }
      },
      "initialize(address,address,uint256,uint256,address[],uint256[])": {
        "details": "Initializes the addresses of the initial owner, pauser registry, and paused status. minWithdrawalDelay is set only once here"
      },
      "modifyOperatorDetails((address,address,uint32))": {
        "details": "The caller must have previously registered as an operator in BinLayer.",
        "params": {
          "newOperatorDetails": "is the updated `OperatorDetails` for the operator, to replace their current OperatorDetails`."
        }
      },
      "owner()": {
        "details": "Returns the address of the current owner."
      },
      "pause(uint256)": {
        "details": "This function can only pause functionality, and thus cannot 'unflip' any bit in `_paused` from 1 to 0.",
        "params": {
          "newPausedStatus": "represents the new value for `_paused` to take, which means it may flip several bits at once."
        }
      },
      "registerAsOperator((address,address,uint32),string)": {
        "details": "Once an operator is registered, they cannot 'deregister' as an operator, and they will forever be considered \"delegated to themself\".This function will revert if the caller is already delegated to an operator.Note that the `metadataURI` is *never stored * and is only emitted in the `OperatorMetadataURIUpdated` event",
        "params": {
          "metadataURI": "is a URI for the operator's metadata, i.e. a link providing more details on the operator.",
          "registeringOperatorDetails": "is the `OperatorDetails` for the operator."
        }
      },
      "renounceOwnership()": {
        "details": "Leaves the contract without owner. It will not be possible to call `onlyOwner` functions. Can only be called by the current owner. NOTE: Renouncing ownership will leave the contract without an owner, thereby disabling any functionality that is only available to the owner."
      },
      "setMinWithdrawalDelay(uint256)": {
        "params": {
          "newMinWithdrawalDelay": "new value of `minWithdrawalDelay`."
        }
      },
      "setPoolWithdrawalDelay(address[],uint256[])": {
        "params": {
          "pools": "The pools to set the minimum withdrawal delay for",
          "withdrawalDelay": "The minimum withdrawal delay to set for each pool"
        }
      },
      "transferOwnership(address)": {
        "details": "Transfers ownership of the contract to a new account (`newOwner`). Can only be called by the current owner."
      },
      "unpause(uint256)": {
        "details": "This function can only unpause functionality, and thus cannot 'flip' any bit in `_paused` from 0 to 1.",
        "params": {
          "newPausedStatus": "represents the new value for `_paused` to take, which means it may flip several bits at once."
        }
      },
      "updateOperatorMetadataURI(string)": {
        "params": {
          "metadataURI": "The URI for metadata associated with an operator"
        }
      },
      "updateWrappedTokenGateway(address)": {
        "params": {
          "_newWrappedTokenGateway": "New wrapped token gateway address"
        }
      },
      "withdraw((address,address,address,uint256,uint32,address[],uint256[]),address[],uint256,bool)": {
        "details": "middlewareTimesIndex is unused, but will be used in the Slasher eventuallybeaconChainETHPool shares are non-transferrable, so if `receiveAsTokens = false` and `withdrawal.withdrawer != withdrawal.staker`, note that any beaconChainETHPool shares in the `withdrawal` will be _returned to the staker_, rather than transferred to the withdrawer, unlike shares in any other pools, which will be transferred to the withdrawer.",
        "params": {
          "middlewareTimesIndex": "is the index in the operator that the staker who triggered the withdrawal was delegated to's middleware times array",
          "receiveAsTokens": "If true, the shares specified in the withdrawal will be withdrawn from the specified pools themselves and sent to the caller, through calls to `withdrawal.pools[i].withdraw`. If false, then the shares in the specified pools will simply be transferred to the caller directly.",
          "tokens": "Array in which the i-th entry specifies the `token` input to the 'withdraw' function of the i-th Pool in the `withdrawal.pools` array. This input can be provided with zero length if `receiveAsTokens` is set to 'false' (since in that case, this input will be unused)",
          "withdrawal": "The Withdrawal to complete."
        }
      },
      "withdraws((address,address,address,uint256,uint32,address[],uint256[])[],address[][],uint256[],bool[])": {
        "details": "See `withdraw` for relevant dev tags",
        "params": {
          "middlewareTimesIndexes": "One index to reference per Withdrawal. See `withdraw` for the usage of a single index.",
          "receiveAsTokens": "Whether or not to complete each withdrawal as tokens. See `withdraw` for the usage of a single boolean.",
          "tokens": "Array of tokens for each Withdrawal. See `withdraw` for the usage of a single array.",
          "withdrawals": "The Withdrawals to complete."
        }
      }
    },
    "title": "DelegationController.sol",
    "version": 1
  },
  "userdoc": {
    "events": {
      "MinWithdrawalDelaySet(uint256,uint256)": {
        "notice": "Emitted when the `minWithdrawalDelay` variable is modified from `previousValue` to `newValue`."
      },
      "OperatorDetailsModified(address,(address,address,uint32))": {
        "notice": "Emitted when an operator updates their OperatorDetails to @param newOperatorDetails"
      },
      "OperatorMetadataURIUpdated(address,string)": {
        "notice": "Emitted when @param operator indicates that they are updating their MetadataURI string"
      },
      "OperatorSharesDecreased(address,address,address,uint256)": {
        "notice": "Emitted whenever an operator's shares are decreased for a given pool. Note that shares is the delta in the operator's shares."
      },
      "OperatorSharesIncreased(address,address,address,uint256)": {
        "notice": "Emitted whenever an operator's shares are increased for a given pool. Note that shares is the delta in the operator's shares."
      },
      "Paused(address,uint256)": {
        "notice": "Emitted when the pause is triggered by `account`, and changed to `newPausedStatus`."
      },
      "PauserRegistrySet(address,address)": {
        "notice": "Emitted when the `pauserRegistry` is set to `newPauserRegistry`."
      },
      "PoolWithdrawalDelaySet(address,uint256,uint256)": {
        "notice": "Emitted when the `poolWithdrawalDelay` variable is modified from `previousValue` to `newValue`."
      },
      "StakerDelegated(address,address)": {
        "notice": "Emitted when @param staker delegates to @param operator."
      },
      "StakerForceUndelegated(address,address)": {
        "notice": "Emitted when @param staker is undelegated via a call not originating from the staker themself"
      },
      "StakerUndelegated(address,address)": {
        "notice": "Emitted when @param staker undelegates from @param operator."
      },
      "Unpaused(address,uint256)": {
        "notice": "Emitted when the pause is lifted by `account`, and changed to `newPausedStatus`."
      },
      "WithdrawalCompleted(bytes32)": {
        "notice": "Emitted when a queued withdrawal is completed"
      },
      "WithdrawalQueued(bytes32,(address,address,address,uint256,uint32,address[],uint256[]))": {
        "notice": "Emitted when a new withdrawal is queued."
      }
    },
    "kind": "user",
    "methods": {
      "DELEGATION_APPROVAL_TYPEHASH()": {
        "notice": "The EIP-712 typehash for the `DelegationApproval` struct used by the contract"
      },
      "DOMAIN_TYPEHASH()": {
        "notice": "The EIP-712 typehash for the contract's domain"
      },
      "STAKER_DELEGATION_TYPEHASH()": {
        "notice": "The EIP-712 typehash for the `StakerDelegation` struct used by the contract"
      },
      "calculateCurrentStakerDelegationDigestHash(address,address,uint256)": {
        "notice": "Calculates the digestHash for a `staker` to sign to delegate to an `operator`"
      },
      "calculateDelegationApprovalDigestHash(address,address,address,bytes32,uint256)": {
        "notice": "Calculates the digest hash to be signed by the operator's delegationApprove and used in the `delegateTo` and `delegateToBySignature` functions."
      },
      "calculateStakerDelegationDigestHash(address,uint256,address,uint256)": {
        "notice": "Calculates the digest hash to be signed and used in the `delegateToBySignature` function"
      },
      "calculateWithdrawalRoot((address,address,address,uint256,uint32,address[],uint256[]))": {
        "notice": "Returns the keccak256 hash of `withdrawal`."
      },
      "cumulativeWithdrawalsQueued(address)": {
        "notice": "Mapping: staker => cumulative number of queued withdrawals they have ever initiated."
      },
      "decreaseDelegatedShares(address,address,uint256)": {
        "notice": "Decreases a staker's delegated share balance in a pool."
      },
      "delegateTo(address,(bytes,uint256),bytes32)": {
        "notice": "Caller delegates their stake to an operator."
      },
      "delegateToBySignature(address,address,(bytes,uint256),(bytes,uint256),bytes32)": {
        "notice": "Caller delegates a staker's stake to an operator with valid signatures from both parties."
      },
      "delegatedTo(address)": {
        "notice": "Mapping: staker => operator whom the staker is currently delegated to."
      },
      "delegationApprover(address)": {
        "notice": "Returns the delegationApprover account for an operator"
      },
      "delegationApproverSaltIsSpent(address,bytes32)": {
        "notice": "Mapping: delegationApprover => 32-byte salt => whether or not the salt has already been used by the delegationApprover."
      },
      "domainSeparator()": {
        "notice": "Getter function for the current EIP-712 domain separator for this contract."
      },
      "getDelegatableShares(address)": {
        "notice": "Returns the number of actively-delegatable shares a staker has across all pools."
      },
      "getOperatorShares(address,address[])": {
        "notice": "Given array of pools, returns array of shares for the operator"
      },
      "getWithdrawalDelay(address[])": {
        "notice": "Given a list of pools, return the minimum cooldown that must pass to withdraw from all the inputted pools. Return value is >= minWithdrawalDelay as this is the global min withdrawal delay."
      },
      "increaseDelegatedShares(address,address,uint256)": {
        "notice": "Increases a staker's delegated share balance in a pool."
      },
      "isDelegated(address)": {
        "notice": "Returns 'true' if `staker` *is* actively delegated, and 'false' otherwise."
      },
      "isOperator(address)": {
        "notice": "Returns true is an operator has previously registered for delegation."
      },
      "minWithdrawalDelay()": {
        "notice": "Global minimum withdrawal delay for all pool withdrawals. In a prior Goerli release, we only had a global min withdrawal delay across all strategies. In addition, we now also configure withdrawal delays on a per-pool basis. To withdraw from a pool, max(minWithdrawalDelay, poolWithdrawalDelay[pool]) number of timestamp must have passed. See mapping poolWithdrawalDelay below for per-pool withdrawal delays."
      },
      "modifyOperatorDetails((address,address,uint32))": {
        "notice": "Updates an operator's stored `OperatorDetails`."
      },
      "operatorDetails(address)": {
        "notice": "Returns the OperatorDetails struct associated with an `operator`."
      },
      "operatorShares(address,address)": {
        "notice": "returns the total number of shares in `pool` that are delegated to `operator`.Mapping: operator => pool => total number of shares in the pool delegated to the operator."
      },
      "pause(uint256)": {
        "notice": "This function is used to pause an BinLayer contract's functionality. It is permissioned to the `pauser` address, which is expected to be a low threshold multisig."
      },
      "pauseAll()": {
        "notice": "Alias for `pause(type(uint256).max)`."
      },
      "paused()": {
        "notice": "Returns the current paused status as a uint256."
      },
      "paused(uint8)": {
        "notice": "Returns 'true' if the `indexed`th bit of `_paused` is 1, and 'false' otherwise"
      },
      "pauserRegistry()": {
        "notice": "Address of the `PauserRegistry` contract that this contract defers to for determining access control (for pausing)."
      },
      "pendingWithdrawals(bytes32)": {
        "notice": "Mapping: hash of withdrawal inputs, aka 'withdrawalRoot' => whether the withdrawal is pending"
      },
      "poolController()": {
        "notice": "The PoolController.sol contract for BinLayer"
      },
      "poolWithdrawalDelay(address)": {
        "notice": "Minimum delay enforced by this contract per Pool for completing queued withdrawals. Measured in timestamp, and adjustable by this contract's owner, up to a maximum of `MAX_WITHDRAWAL_DELAY`. Minimum value is 0 (i.e. no delay enforced)."
      },
      "registerAsOperator((address,address,uint32),string)": {
        "notice": "Registers the caller as an operator in BinLayer."
      },
      "setMinWithdrawalDelay(uint256)": {
        "notice": "Owner-only function for modifying the value of the `minWithdrawalDelay` variable."
      },
      "setPauserRegistry(address)": {
        "notice": "Allows the unpauser to set a new pauser registry"
      },
      "setPoolWithdrawalDelay(address[],uint256[])": {
        "notice": "Called by owner to set the minimum withdrawal delay for each passed in pool Note that the min cooldown to complete a withdrawal of a pool is MAX(minWithdrawalDelay, poolWithdrawalDelay[pool])"
      },
      "slasher()": {
        "notice": "The Slasher contract for BinLayer"
      },
      "stakerNonce(address)": {
        "notice": "Mapping: staker => number of signed messages (used in `delegateToBySignature`) from the staker that this contract has already checked."
      },
      "stakerOptOutWindow(address)": {
        "notice": "Returns the stakerOptOutWindow for an operator"
      },
      "undelegate(address)": {
        "notice": "Allows the staker, the staker's operator, or that operator's delegationApprover to undelegate a staker from their operator. Undelegation immediately removes ALL active shares/pools from both the staker and operator, and places the shares and pools in the unstake"
      },
      "unpause(uint256)": {
        "notice": "This function is used to unpause an BinLayer contract's functionality. It is permissioned to the `unpauser` address, which is expected to be a high threshold multisig or governance contract."
      },
      "unstakes((address[],uint256[],address)[])": {
        "notice": "Enables a staker to withdraw a portion of shares. Withdrawn shares/pools are promptly removed. from the staker. If the staker is delegated, withdrawn shares/pools are also removed from their operator. All withdrawn shares/pools are placed in a queue and can be fully withdrawn after a delay."
      },
      "updateOperatorMetadataURI(string)": {
        "notice": "Called by an operator to emit an `OperatorMetadataURIUpdated` event indicating the information has updated."
      },
      "updateWrappedTokenGateway(address)": {
        "notice": "Called by owner to update the wrapped token gateway"
      },
      "withdraw((address,address,address,uint256,uint32,address[],uint256[]),address[],uint256,bool)": {
        "notice": "Used to complete the specified `withdrawal`. The caller must match `withdrawal.withdrawer`"
      },
      "withdraws((address,address,address,uint256,uint32,address[],uint256[])[],address[][],uint256[],bool[])": {
        "notice": "Array-ified version of `withdraw`. Used to complete the specified `withdrawals`. The function caller must match `withdrawals[...].withdrawer`"
      },
      "wrappedTokenGateway()": {
        "notice": "Wrapped token gateway"
      }
    },
    "notice": "this is the delegation contract for BinLayer. The primary functions of this contract are: - allowing anyone to register as an operator in BinLayer - enabling operators to set parameters for stakers who delegate to them - allowing any staker to delegate their stake to the operator of their choice (each staker can only delegate to one operator at a time) - allowing a staker to undelegate their assets from the operator they are delegated to (done as part of the withdrawal process, initiated through the PoolController)",
    "version": 1
  },
  "storageLayout": {
    "storage": [
      {
        "astId": 139,
        "contract": "contracts/core/DelegationController.sol:DelegationController",
        "label": "_initialized",
        "offset": 0,
        "slot": "0",
        "type": "t_uint8"
      },
      {
        "astId": 142,
        "contract": "contracts/core/DelegationController.sol:DelegationController",
        "label": "_initializing",
        "offset": 1,
        "slot": "0",
        "type": "t_bool"
      },
      {
        "astId": 766,
        "contract": "contracts/core/DelegationController.sol:DelegationController",
        "label": "__gap",
        "offset": 0,
        "slot": "1",
        "type": "t_array(t_uint256)50_storage"
      },
      {
        "astId": 11,
        "contract": "contracts/core/DelegationController.sol:DelegationController",
        "label": "_owner",
        "offset": 0,
        "slot": "51",
        "type": "t_address"
      },
      {
        "astId": 131,
        "contract": "contracts/core/DelegationController.sol:DelegationController",
        "label": "__gap",
        "offset": 0,
        "slot": "52",
        "type": "t_array(t_uint256)49_storage"
      },
      {
        "astId": 12709,
        "contract": "contracts/core/DelegationController.sol:DelegationController",
        "label": "pauserRegistry",
        "offset": 0,
        "slot": "101",
        "type": "t_contract(IPauserRegistry)10133"
      },
      {
        "astId": 12712,
        "contract": "contracts/core/DelegationController.sol:DelegationController",
        "label": "_paused",
        "offset": 0,
        "slot": "102",
        "type": "t_uint256"
      },
      {
        "astId": 13002,
        "contract": "contracts/core/DelegationController.sol:DelegationController",
        "label": "__gap",
        "offset": 0,
        "slot": "103",
        "type": "t_array(t_uint256)49_storage"
      },
      {
        "astId": 6302,
        "contract": "contracts/core/DelegationController.sol:DelegationController",
        "label": "_DOMAIN_SEPARATOR",
        "offset": 0,
        "slot": "152",
        "type": "t_bytes32"
      },
      {
        "astId": 6321,
        "contract": "contracts/core/DelegationController.sol:DelegationController",
        "label": "operatorShares",
        "offset": 0,
        "slot": "153",
        "type": "t_mapping(t_address,t_mapping(t_contract(IPool)10235,t_uint256))"
      },
      {
        "astId": 6327,
        "contract": "contracts/core/DelegationController.sol:DelegationController",
        "label": "_operatorDetails",
        "offset": 0,
        "slot": "154",
        "type": "t_mapping(t_address,t_struct(OperatorDetails)9542_storage)"
      },
      {
        "astId": 6332,
        "contract": "contracts/core/DelegationController.sol:DelegationController",
        "label": "delegatedTo",
        "offset": 0,
        "slot": "155",
        "type": "t_mapping(t_address,t_address)"
      },
      {
        "astId": 6337,
        "contract": "contracts/core/DelegationController.sol:DelegationController",
        "label": "stakerNonce",
        "offset": 0,
        "slot": "156",
        "type": "t_mapping(t_address,t_uint256)"
      },
      {
        "astId": 6344,
        "contract": "contracts/core/DelegationController.sol:DelegationController",
        "label": "delegationApproverSaltIsSpent",
        "offset": 0,
        "slot": "157",
        "type": "t_mapping(t_address,t_mapping(t_bytes32,t_bool))"
      },
      {
        "astId": 6347,
        "contract": "contracts/core/DelegationController.sol:DelegationController",
        "label": "minWithdrawalDelay",
        "offset": 0,
        "slot": "158",
        "type": "t_uint256"
      },
      {
        "astId": 6352,
        "contract": "contracts/core/DelegationController.sol:DelegationController",
        "label": "pendingWithdrawals",
        "offset": 0,
        "slot": "159",
        "type": "t_mapping(t_bytes32,t_bool)"
      },
      {
        "astId": 6357,
        "contract": "contracts/core/DelegationController.sol:DelegationController",
        "label": "cumulativeWithdrawalsQueued",
        "offset": 0,
        "slot": "160",
        "type": "t_mapping(t_address,t_uint256)"
      },
      {
        "astId": 6363,
        "contract": "contracts/core/DelegationController.sol:DelegationController",
        "label": "poolWithdrawalDelay",
        "offset": 0,
        "slot": "161",
        "type": "t_mapping(t_contract(IPool)10235,t_uint256)"
      },
      {
        "astId": 6366,
        "contract": "contracts/core/DelegationController.sol:DelegationController",
        "label": "wrappedTokenGateway",
        "offset": 0,
        "slot": "162",
        "type": "t_address"
      },
      {
        "astId": 6389,
        "contract": "contracts/core/DelegationController.sol:DelegationController",
        "label": "__gap",
        "offset": 0,
        "slot": "163",
        "type": "t_array(t_uint256)49_storage"
      },
      {
        "astId": 316,
        "contract": "contracts/core/DelegationController.sol:DelegationController",
        "label": "_status",
        "offset": 0,
        "slot": "212",
        "type": "t_uint256"
      },
      {
        "astId": 385,
        "contract": "contracts/core/DelegationController.sol:DelegationController",
        "label": "__gap",
        "offset": 0,
        "slot": "213",
        "type": "t_array(t_uint256)49_storage"
      }
    ],
    "types": {
      "t_address": {
        "encoding": "inplace",
        "label": "address",
        "numberOfBytes": "20"
      },
      "t_array(t_uint256)49_storage": {
        "base": "t_uint256",
        "encoding": "inplace",
        "label": "uint256[49]",
        "numberOfBytes": "1568"
      },
      "t_array(t_uint256)50_storage": {
        "base": "t_uint256",
        "encoding": "inplace",
        "label": "uint256[50]",
        "numberOfBytes": "1600"
      },
      "t_bool": {
        "encoding": "inplace",
        "label": "bool",
        "numberOfBytes": "1"
      },
      "t_bytes32": {
        "encoding": "inplace",
        "label": "bytes32",
        "numberOfBytes": "32"
      },
      "t_contract(IPauserRegistry)10133": {
        "encoding": "inplace",
        "label": "contract IPauserRegistry",
        "numberOfBytes": "20"
      },
      "t_contract(IPool)10235": {
        "encoding": "inplace",
        "label": "contract IPool",
        "numberOfBytes": "20"
      },
      "t_mapping(t_address,t_address)": {
        "encoding": "mapping",
        "key": "t_address",
        "label": "mapping(address => address)",
        "numberOfBytes": "32",
        "value": "t_address"
      },
      "t_mapping(t_address,t_mapping(t_bytes32,t_bool))": {
        "encoding": "mapping",
        "key": "t_address",
        "label": "mapping(address => mapping(bytes32 => bool))",
        "numberOfBytes": "32",
        "value": "t_mapping(t_bytes32,t_bool)"
      },
      "t_mapping(t_address,t_mapping(t_contract(IPool)10235,t_uint256))": {
        "encoding": "mapping",
        "key": "t_address",
        "label": "mapping(address => mapping(contract IPool => uint256))",
        "numberOfBytes": "32",
        "value": "t_mapping(t_contract(IPool)10235,t_uint256)"
      },
      "t_mapping(t_address,t_struct(OperatorDetails)9542_storage)": {
        "encoding": "mapping",
        "key": "t_address",
        "label": "mapping(address => struct IDelegationController.OperatorDetails)",
        "numberOfBytes": "32",
        "value": "t_struct(OperatorDetails)9542_storage"
      },
      "t_mapping(t_address,t_uint256)": {
        "encoding": "mapping",
        "key": "t_address",
        "label": "mapping(address => uint256)",
        "numberOfBytes": "32",
        "value": "t_uint256"
      },
      "t_mapping(t_bytes32,t_bool)": {
        "encoding": "mapping",
        "key": "t_bytes32",
        "label": "mapping(bytes32 => bool)",
        "numberOfBytes": "32",
        "value": "t_bool"
      },
      "t_mapping(t_contract(IPool)10235,t_uint256)": {
        "encoding": "mapping",
        "key": "t_contract(IPool)10235",
        "label": "mapping(contract IPool => uint256)",
        "numberOfBytes": "32",
        "value": "t_uint256"
      },
      "t_struct(OperatorDetails)9542_storage": {
        "encoding": "inplace",
        "label": "struct IDelegationController.OperatorDetails",
        "members": [
          {
            "astId": 9535,
            "contract": "contracts/core/DelegationController.sol:DelegationController",
            "label": "__deprecated_earningsReceiver",
            "offset": 0,
            "slot": "0",
            "type": "t_address"
          },
          {
            "astId": 9538,
            "contract": "contracts/core/DelegationController.sol:DelegationController",
            "label": "delegationApprover",
            "offset": 0,
            "slot": "1",
            "type": "t_address"
          },
          {
            "astId": 9541,
            "contract": "contracts/core/DelegationController.sol:DelegationController",
            "label": "stakerOptOutWindow",
            "offset": 20,
            "slot": "1",
            "type": "t_uint32"
          }
        ],
        "numberOfBytes": "64"
      },
      "t_uint256": {
        "encoding": "inplace",
        "label": "uint256",
        "numberOfBytes": "32"
      },
      "t_uint32": {
        "encoding": "inplace",
        "label": "uint32",
        "numberOfBytes": "4"
      },
      "t_uint8": {
        "encoding": "inplace",
        "label": "uint8",
        "numberOfBytes": "1"
      }
    }
  }
}