{
  "address": "0x9dAcA0771D2CAE3348256F12cE584E38D919fB31",
  "abi": [
    {
      "inputs": [
        {
          "internalType": "address",
          "name": "_slisBNB",
          "type": "address"
        },
        {
          "internalType": "address",
          "name": "_owner",
          "type": "address"
        },
        {
          "internalType": "contract IListaStakeManager",
          "name": "_listaStakeManager",
          "type": "address"
        },
        {
          "internalType": "contract IPool",
          "name": "_pool",
          "type": "address"
        },
        {
          "internalType": "contract IPoolController",
          "name": "_poolController",
          "type": "address"
        }
      ],
      "stateMutability": "nonpayable",
      "type": "constructor"
    },
    {
      "anonymous": false,
      "inputs": [
        {
          "indexed": true,
          "internalType": "address",
          "name": "previousOwner",
          "type": "address"
        },
        {
          "indexed": true,
          "internalType": "address",
          "name": "newOwner",
          "type": "address"
        }
      ],
      "name": "OwnershipTransferred",
      "type": "event"
    },
    {
      "stateMutability": "payable",
      "type": "fallback"
    },
    {
      "inputs": [],
      "name": "depositNativeToken",
      "outputs": [],
      "stateMutability": "payable",
      "type": "function"
    },
    {
      "inputs": [
        {
          "internalType": "address",
          "name": "to",
          "type": "address"
        },
        {
          "internalType": "uint256",
          "name": "amount",
          "type": "uint256"
        }
      ],
      "name": "emergencyNativeTransfer",
      "outputs": [],
      "stateMutability": "nonpayable",
      "type": "function"
    },
    {
      "inputs": [
        {
          "internalType": "address",
          "name": "token",
          "type": "address"
        },
        {
          "internalType": "address",
          "name": "to",
          "type": "address"
        },
        {
          "internalType": "uint256",
          "name": "amount",
          "type": "uint256"
        }
      ],
      "name": "emergencyTokenTransfer",
      "outputs": [],
      "stateMutability": "nonpayable",
      "type": "function"
    },
    {
      "inputs": [],
      "name": "getListaContracts",
      "outputs": [
        {
          "internalType": "contract IListaStakeManager",
          "name": "_listaStakeManager",
          "type": "address"
        },
        {
          "internalType": "contract IERC20",
          "name": "_slisBNB",
          "type": "address"
        }
      ],
      "stateMutability": "view",
      "type": "function"
    },
    {
      "inputs": [],
      "name": "getPoolAddress",
      "outputs": [
        {
          "internalType": "address",
          "name": "",
          "type": "address"
        }
      ],
      "stateMutability": "view",
      "type": "function"
    },
    {
      "inputs": [],
      "name": "owner",
      "outputs": [
        {
          "internalType": "address",
          "name": "",
          "type": "address"
        }
      ],
      "stateMutability": "view",
      "type": "function"
    },
    {
      "inputs": [],
      "name": "renounceOwnership",
      "outputs": [],
      "stateMutability": "nonpayable",
      "type": "function"
    },
    {
      "inputs": [
        {
          "internalType": "address",
          "name": "newOwner",
          "type": "address"
        }
      ],
      "name": "transferOwnership",
      "outputs": [],
      "stateMutability": "nonpayable",
      "type": "function"
    },
    {
      "stateMutability": "payable",
      "type": "receive"
    }
  ],
  "transactionHash": "0x4e0253eee062eaf7291d085a43506f94498befcb363de595f908b5733bc233c7",
  "args": [
    "0x96F124Ce690F082f469066aFE90AF633F93d94d8",
    "0x8F2CfED2bac25D698bC66BE1E67d6A96DEEDca76",
    "0x3A2231E023296bbc177d7587DdFd60B0A96F3A29",
    "0xFbA63a28d7CEbF397dC9D5F6a5fA44eE83597001",
    "0xd914b20BcFcdBb396697a957fc28a77947593bE5"
  ],
  "numDeployments": 1,
  "solcInputHash": "ec9ec5098c5cbac6ea24657050d64207",
  "bytecode": "0x6101006040523480156200001257600080fd5b5060405162000ebe38038062000ebe83398101604081905262000035916200015a565b6200004033620000f1565b6001600160a01b0380861660805283811660a05282811660c052811660e0526200006a84620000f1565b60e05160405163095ea7b360e01b81526001600160a01b03918216600482015260001960248201529086169063095ea7b3906044016020604051808303816000875af1158015620000bf573d6000803e3d6000fd5b505050506040513d601f19601f82011682018060405250810190620000e59190620001da565b50505050505062000205565b600080546001600160a01b038381166001600160a01b0319831681178455604051919092169283917f8be0079c531659141344cd1fd0a4f28419497f9722a3daafe3b4186f6b6457e09190a35050565b6001600160a01b03811681146200015757600080fd5b50565b600080600080600060a086880312156200017357600080fd5b8551620001808162000141565b6020870151909550620001938162000141565b6040870151909450620001a68162000141565b6060870151909350620001b98162000141565b6080870151909250620001cc8162000141565b809150509295509295909350565b600060208284031215620001ed57600080fd5b81518015158114620001fe57600080fd5b9392505050565b60805160a05160c05160e051610c566200026860003960006104f10152600081816102790152610497015260008181608f015281816101fa015261035601526000818161021f015281816102df015281816103de01526104bf0152610c566000f3fe60806040526004361061007f5760003560e01c8063a3d5b2551161004e578063a3d5b255146101bf578063bafe6e87146101df578063f2fde38b1461024a578063f586c6d91461026a57610103565b80631653a0c71461014b578063715018a61461016b57806379433d8b146101805780638da5cb5b1461018857610103565b3661010357336001600160a01b037f000000000000000000000000000000000000000000000000000000000000000016146101015760405162461bcd60e51b815260206004820152601360248201527f52656365697665206e6f7420616c6c6f7765640000000000000000000000000060448201526064015b60405180910390fd5b005b60405162461bcd60e51b815260206004820152601460248201527f46616c6c6261636b206e6f7420616c6c6f77656400000000000000000000000060448201526064016100f8565b34801561015757600080fd5b50610101610166366004610aaa565b61029d565b34801561017757600080fd5b506101016102b3565b6101016102c7565b34801561019457600080fd5b506000546001600160a01b03165b6040516001600160a01b0390911681526020015b60405180910390f35b3480156101cb57600080fd5b506101016101da366004610ad4565b610566565b3480156101eb57600080fd5b50604080516001600160a01b037f0000000000000000000000000000000000000000000000000000000000000000811682527f0000000000000000000000000000000000000000000000000000000000000000166020820152016101b6565b34801561025657600080fd5b50610101610265366004610b10565b610587565b34801561027657600080fd5b507f00000000000000000000000000000000000000000000000000000000000000006101a2565b6102a5610617565b6102af8282610671565b5050565b6102bb610617565b6102c5600061072e565b565b6040516370a0823160e01b81523060048201526000907f00000000000000000000000000000000000000000000000000000000000000006001600160a01b0316906370a0823190602401602060405180830381865afa15801561032e573d6000803e3d6000fd5b505050506040513d601f19601f820116820180604052508101906103529190610b32565b90507f00000000000000000000000000000000000000000000000000000000000000006001600160a01b031663d0e30db0346040518263ffffffff1660e01b81526004016000604051808303818588803b1580156103af57600080fd5b505af11580156103c3573d6000803e3d6000fd5b50506040516370a0823160e01b8152306004820152600093507f00000000000000000000000000000000000000000000000000000000000000006001600160a01b031692506370a082319150602401602060405180830381865afa15801561042f573d6000803e3d6000fd5b505050506040513d601f19601f820116820180604052508101906104539190610b32565b905060006104618383610b4b565b6040517f856abb290000000000000000000000000000000000000000000000000000000081523360048201526001600160a01b037f0000000000000000000000000000000000000000000000000000000000000000811660248301527f000000000000000000000000000000000000000000000000000000000000000081166044830152606482018390529192507f00000000000000000000000000000000000000000000000000000000000000009091169063856abb29906084016020604051808303816000875af115801561053c573d6000803e3d6000fd5b505050506040513d601f19601f820116820180604052508101906105609190610b32565b50505050565b61056e610617565b6105826001600160a01b0384168383610796565b505050565b61058f610617565b6001600160a01b03811661060b5760405162461bcd60e51b815260206004820152602660248201527f4f776e61626c653a206e6577206f776e657220697320746865207a65726f206160448201527f646472657373000000000000000000000000000000000000000000000000000060648201526084016100f8565b6106148161072e565b50565b6000546001600160a01b031633146102c55760405162461bcd60e51b815260206004820181905260248201527f4f776e61626c653a2063616c6c6572206973206e6f7420746865206f776e657260448201526064016100f8565b604080516000808252602082019092526001600160a01b03841690839060405161069b9190610baf565b60006040518083038185875af1925050503d80600081146106d8576040519150601f19603f3d011682016040523d82523d6000602084013e6106dd565b606091505b50509050806105825760405162461bcd60e51b815260206004820152601660248201527f4e41544956455f5452414e534645525f4641494c45440000000000000000000060448201526064016100f8565b600080546001600160a01b038381167fffffffffffffffffffffffff0000000000000000000000000000000000000000831681178455604051919092169283917f8be0079c531659141344cd1fd0a4f28419497f9722a3daafe3b4186f6b6457e09190a35050565b604080516001600160a01b03848116602483015260448083018590528351808403909101815260649092018352602080830180517bffffffffffffffffffffffffffffffffffffffffffffffffffffffff167fa9059cbb0000000000000000000000000000000000000000000000000000000017905283518085019094528084527f5361666545524332303a206c6f772d6c6576656c2063616c6c206661696c656490840152610582928692916000916108549185169084906108e7565b90508051600014806108755750808060200190518101906108759190610bcb565b6105825760405162461bcd60e51b815260206004820152602a60248201527f5361666545524332303a204552433230206f7065726174696f6e20646964206e60448201527f6f7420737563636565640000000000000000000000000000000000000000000060648201526084016100f8565b60606108f684846000856108fe565b949350505050565b6060824710156109765760405162461bcd60e51b815260206004820152602660248201527f416464726573733a20696e73756666696369656e742062616c616e636520666f60448201527f722063616c6c000000000000000000000000000000000000000000000000000060648201526084016100f8565b600080866001600160a01b031685876040516109929190610baf565b60006040518083038185875af1925050503d80600081146109cf576040519150601f19603f3d011682016040523d82523d6000602084013e6109d4565b606091505b50915091506109e5878383876109f0565b979650505050505050565b60608315610a5f578251600003610a58576001600160a01b0385163b610a585760405162461bcd60e51b815260206004820152601d60248201527f416464726573733a2063616c6c20746f206e6f6e2d636f6e747261637400000060448201526064016100f8565b50816108f6565b6108f68383815115610a745781518083602001fd5b8060405162461bcd60e51b81526004016100f89190610bed565b80356001600160a01b0381168114610aa557600080fd5b919050565b60008060408385031215610abd57600080fd5b610ac683610a8e565b946020939093013593505050565b600080600060608486031215610ae957600080fd5b610af284610a8e565b9250610b0060208501610a8e565b9150604084013590509250925092565b600060208284031215610b2257600080fd5b610b2b82610a8e565b9392505050565b600060208284031215610b4457600080fd5b5051919050565b81810381811115610b85577f4e487b7100000000000000000000000000000000000000000000000000000000600052601160045260246000fd5b92915050565b60005b83811015610ba6578181015183820152602001610b8e565b50506000910152565b60008251610bc1818460208701610b8b565b9190910192915050565b600060208284031215610bdd57600080fd5b81518015158114610b2b57600080fd5b6020815260008251806020840152610c0c816040850160208701610b8b565b601f01601f1916919091016040019291505056fea26469706673582212206a6709ec753adb0f750e58429b599eeed29497a4b067138abb76a8068cbdbdef64736f6c63430008140033",
  "devdoc": {
    "kind": "dev",
    "methods": {
      "emergencyNativeTransfer(address,uint256)": {
        "details": "transfer native token from the utility contract, for native token recovery in case of stuck native due to selfdestructs or Native transfers to the pre-computed contract address before deployment.",
        "params": {
          "amount": "amount to send",
          "to": "recipient of the transfer"
        }
      },
      "emergencyTokenTransfer(address,address,uint256)": {
        "details": "transfer ERC20 from the utility contract, for ERC20 recovery in case of stuck tokens due direct transfers to the contract address.",
        "params": {
          "amount": "amount to send",
          "to": "recipient of the transfer",
          "token": "token to transfer"
        }
      },
      "getListaContracts()": {
        "details": "Get Lista contracts address used by ListaGateway"
      },
      "getPoolAddress()": {
        "details": "Get slisBNB pool address used by ListaGateway"
      },
      "owner()": {
        "details": "Returns the address of the current owner."
      },
      "renounceOwnership()": {
        "details": "Leaves the contract without owner. It will not be possible to call `onlyOwner` functions. Can only be called by the current owner. NOTE: Renouncing ownership will leave the contract without an owner, thereby disabling any functionality that is only available to the owner."
      },
      "transferOwnership(address)": {
        "details": "Transfers ownership of the contract to a new account (`newOwner`). Can only be called by the current owner."
      }
    },
    "version": 1
  },
  "userdoc": {
    "kind": "user",
    "methods": {},
    "version": 1
  },
  "storageLayout": {
    "storage": [
      {
        "astId": 775,
        "contract": "contracts/periphery/ListaGateway.sol:ListaGateway",
        "label": "_owner",
        "offset": 0,
        "slot": "0",
        "type": "t_address"
      }
    ],
    "types": {
      "t_address": {
        "encoding": "inplace",
        "label": "address",
        "numberOfBytes": "20"
      }
    }
  }
}