{
  "address": "0xEBA280618C9748D56985a50B0134b823a0738B8F",
  "abi": [
    {
      "inputs": [
        {
          "internalType": "address",
          "name": "_wrappedToken",
          "type": "address"
        },
        {
          "internalType": "address",
          "name": "_owner",
          "type": "address"
        },
        {
          "internalType": "contract IPool",
          "name": "_pool",
          "type": "address"
        },
        {
          "internalType": "contract IPoolController",
          "name": "_poolController",
          "type": "address"
        },
        {
          "internalType": "contract IDelegationController",
          "name": "_delegationController",
          "type": "address"
        }
      ],
      "stateMutability": "nonpayable",
      "type": "constructor"
    },
    {
      "anonymous": false,
      "inputs": [
        {
          "indexed": true,
          "internalType": "address",
          "name": "previousOwner",
          "type": "address"
        },
        {
          "indexed": true,
          "internalType": "address",
          "name": "newOwner",
          "type": "address"
        }
      ],
      "name": "OwnershipTransferred",
      "type": "event"
    },
    {
      "stateMutability": "payable",
      "type": "fallback"
    },
    {
      "inputs": [
        {
          "internalType": "address",
          "name": "staker",
          "type": "address"
        }
      ],
      "name": "depositNativeToken",
      "outputs": [],
      "stateMutability": "payable",
      "type": "function"
    },
    {
      "inputs": [
        {
          "internalType": "address",
          "name": "to",
          "type": "address"
        },
        {
          "internalType": "uint256",
          "name": "amount",
          "type": "uint256"
        }
      ],
      "name": "emergencyNativeTransfer",
      "outputs": [],
      "stateMutability": "nonpayable",
      "type": "function"
    },
    {
      "inputs": [
        {
          "internalType": "address",
          "name": "token",
          "type": "address"
        },
        {
          "internalType": "address",
          "name": "to",
          "type": "address"
        },
        {
          "internalType": "uint256",
          "name": "amount",
          "type": "uint256"
        }
      ],
      "name": "emergencyTokenTransfer",
      "outputs": [],
      "stateMutability": "nonpayable",
      "type": "function"
    },
    {
      "inputs": [],
      "name": "getPoolAddress",
      "outputs": [
        {
          "internalType": "address",
          "name": "",
          "type": "address"
        }
      ],
      "stateMutability": "view",
      "type": "function"
    },
    {
      "inputs": [],
      "name": "getWrappedTokenAddress",
      "outputs": [
        {
          "internalType": "address",
          "name": "",
          "type": "address"
        }
      ],
      "stateMutability": "view",
      "type": "function"
    },
    {
      "inputs": [],
      "name": "owner",
      "outputs": [
        {
          "internalType": "address",
          "name": "",
          "type": "address"
        }
      ],
      "stateMutability": "view",
      "type": "function"
    },
    {
      "inputs": [],
      "name": "renounceOwnership",
      "outputs": [],
      "stateMutability": "nonpayable",
      "type": "function"
    },
    {
      "inputs": [
        {
          "internalType": "address",
          "name": "newOwner",
          "type": "address"
        }
      ],
      "name": "transferOwnership",
      "outputs": [],
      "stateMutability": "nonpayable",
      "type": "function"
    },
    {
      "inputs": [
        {
          "components": [
            {
              "internalType": "address",
              "name": "staker",
              "type": "address"
            },
            {
              "internalType": "address",
              "name": "delegatedTo",
              "type": "address"
            },
            {
              "internalType": "address",
              "name": "withdrawer",
              "type": "address"
            },
            {
              "internalType": "uint256",
              "name": "nonce",
              "type": "uint256"
            },
            {
              "internalType": "uint32",
              "name": "startTimestamp",
              "type": "uint32"
            },
            {
              "internalType": "contract IPool[]",
              "name": "pools",
              "type": "address[]"
            },
            {
              "internalType": "uint256[]",
              "name": "shares",
              "type": "uint256[]"
            }
          ],
          "internalType": "struct IDelegationController.Withdrawal[]",
          "name": "withdrawals",
          "type": "tuple[]"
        },
        {
          "internalType": "contract IERC20[][]",
          "name": "tokens",
          "type": "address[][]"
        },
        {
          "internalType": "uint256[]",
          "name": "middlewareTimesIndexs",
          "type": "uint256[]"
        },
        {
          "internalType": "bool[]",
          "name": "receiveAsTokens",
          "type": "bool[]"
        }
      ],
      "name": "withdrawNativeTokens",
      "outputs": [],
      "stateMutability": "nonpayable",
      "type": "function"
    },
    {
      "stateMutability": "payable",
      "type": "receive"
    }
  ],
  "transactionHash": "0x3993b027f58313778d15fc317f76f5cde995e0e0e69a3a2a5a1f2d2d556f4b46",
  "args": [
    "0xae13d989daC2f0dEbFf460aC112a837C89BAa7cd",
    "0x8F2CfED2bac25D698bC66BE1E67d6A96DEEDca76",
    "0xE72A7b6bf9bEAA55449986e402329c262954a675",
    "0xd914b20BcFcdBb396697a957fc28a77947593bE5",
    "0xcC4b428124C226c87872d0932b7549DA0531e364"
  ],
  "numDeployments": 1,
  "solcInputHash": "ec9ec5098c5cbac6ea24657050d64207",
  "bytecode": "0x6101006040523480156200001257600080fd5b50604051620016c3380380620016c383398101604081905262000035916200015a565b6200004033620000f1565b6001600160a01b0380861660805283811660a05282811660c052811660e0526200006a84620000f1565b60c05160405163095ea7b360e01b81526001600160a01b03918216600482015260001960248201529086169063095ea7b3906044016020604051808303816000875af1158015620000bf573d6000803e3d6000fd5b505050506040513d601f19601f82011682018060405250810190620000e59190620001da565b50505050505062000205565b600080546001600160a01b038381166001600160a01b0319831681178455604051919092169283917f8be0079c531659141344cd1fd0a4f28419497f9722a3daafe3b4186f6b6457e09190a35050565b6001600160a01b03811681146200015757600080fd5b50565b600080600080600060a086880312156200017357600080fd5b8551620001808162000141565b6020870151909550620001938162000141565b6040870151909450620001a68162000141565b6060870151909350620001b98162000141565b6080870151909250620001cc8162000141565b809150509295509295909350565b600060208284031215620001ed57600080fd5b81518015158114620001fe57600080fd5b9392505050565b60805160a05160c05160e05161144d620002766000396000610704015260006103bf01526000818161028601528181610369015261054201526000818160aa01528181610195015281816102c2015281816103910152818161065e015281816107900152610844015261144d6000f3fe60806040526004361061009a5760003560e01c80638da5cb5b11610069578063d9d468161161004e578063d9d4681614610237578063f2fde38b14610257578063f586c6d9146102775761011e565b80638da5cb5b146101f9578063a3d5b255146102175761011e565b80631653a0c7146101665780631dceb71f1461018657806320e2d818146101d1578063715018a6146101e45761011e565b3661011e57336001600160a01b037f0000000000000000000000000000000000000000000000000000000000000000161461011c5760405162461bcd60e51b815260206004820152601360248201527f52656365697665206e6f7420616c6c6f7765640000000000000000000000000060448201526064015b60405180910390fd5b005b60405162461bcd60e51b815260206004820152601460248201527f46616c6c6261636b206e6f7420616c6c6f7765640000000000000000000000006044820152606401610113565b34801561017257600080fd5b5061011c610181366004610deb565b6102aa565b34801561019257600080fd5b507f00000000000000000000000000000000000000000000000000000000000000005b6040516001600160a01b03909116815260200160405180910390f35b61011c6101df366004610e17565b6102c0565b3480156101f057600080fd5b5061011c610430565b34801561020557600080fd5b506000546001600160a01b03166101b5565b34801561022357600080fd5b5061011c610232366004610e3b565b610444565b34801561024357600080fd5b5061011c610252366004610ec8565b610465565b34801561026357600080fd5b5061011c610272366004610e17565b6108bf565b34801561028357600080fd5b507f00000000000000000000000000000000000000000000000000000000000000006101b5565b6102b261094f565b6102bc82826109a9565b5050565b7f00000000000000000000000000000000000000000000000000000000000000006001600160a01b031663d0e30db0346040518263ffffffff1660e01b81526004016000604051808303818588803b15801561031b57600080fd5b505af115801561032f573d6000803e3d6000fd5b50506040517f856abb290000000000000000000000000000000000000000000000000000000081526001600160a01b0385811660048301527f0000000000000000000000000000000000000000000000000000000000000000811660248301527f0000000000000000000000000000000000000000000000000000000000000000811660448301523460648301527f000000000000000000000000000000000000000000000000000000000000000016935063856abb29925060840190506020604051808303816000875af115801561040c573d6000803e3d6000fd5b505050506040513d601f19601f820116820180604052508101906102bc9190610f8c565b61043861094f565b6104426000610a66565b565b61044c61094f565b6104606001600160a01b0384168383610ace565b505050565b60005b87811015610645573389898381811061048357610483610fa5565b90506020028101906104959190610fbb565b6104a3906020810190610e17565b6001600160a01b0316146040518060400160405280600281526020017f3430000000000000000000000000000000000000000000000000000000000000815250906105015760405162461bcd60e51b81526004016101139190610fff565b5060005b89898381811061051757610517610fa5565b90506020028101906105299190610fbb565b6105379060a0810190611032565b9050811015610632577f00000000000000000000000000000000000000000000000000000000000000006001600160a01b03168a8a8481811061057c5761057c610fa5565b905060200281019061058e9190610fbb565b61059c9060a0810190611032565b838181106105ac576105ac610fa5565b90506020020160208101906105c19190610e17565b6001600160a01b0316146040518060400160405280600281526020017f34310000000000000000000000000000000000000000000000000000000000008152509061061f5760405162461bcd60e51b81526004016101139190610fff565b508061062a81611092565b915050610505565b508061063d81611092565b915050610468565b506040516370a0823160e01b81523060048201526000907f00000000000000000000000000000000000000000000000000000000000000006001600160a01b0316906370a0823190602401602060405180830381865afa1580156106ad573d6000803e3d6000fd5b505050506040513d601f19601f820116820180604052508101906106d19190610f8c565b6040517f0af71b770000000000000000000000000000000000000000000000000000000081529091506001600160a01b037f00000000000000000000000000000000000000000000000000000000000000001690630af71b7790610747908c908c908c908c908c908c908c908c9060040161126f565b600060405180830381600087803b15801561076157600080fd5b505af1158015610775573d6000803e3d6000fd5b50506040516370a0823160e01b8152306004820152600092507f00000000000000000000000000000000000000000000000000000000000000006001600160a01b031691506370a0823190602401602060405180830381865afa1580156107e0573d6000803e3d6000fd5b505050506040513d601f19601f820116820180604052508101906108049190610f8c565b9050600061081283836113cf565b6040517f2e1a7d4d000000000000000000000000000000000000000000000000000000008152600481018290529091507f00000000000000000000000000000000000000000000000000000000000000006001600160a01b031690632e1a7d4d90602401600060405180830381600087803b15801561089057600080fd5b505af11580156108a4573d6000803e3d6000fd5b505050506108b233826109a9565b5050505050505050505050565b6108c761094f565b6001600160a01b0381166109435760405162461bcd60e51b815260206004820152602660248201527f4f776e61626c653a206e6577206f776e657220697320746865207a65726f206160448201527f64647265737300000000000000000000000000000000000000000000000000006064820152608401610113565b61094c81610a66565b50565b6000546001600160a01b031633146104425760405162461bcd60e51b815260206004820181905260248201527f4f776e61626c653a2063616c6c6572206973206e6f7420746865206f776e65726044820152606401610113565b604080516000808252602082019092526001600160a01b0384169083906040516109d391906113e8565b60006040518083038185875af1925050503d8060008114610a10576040519150601f19603f3d011682016040523d82523d6000602084013e610a15565b606091505b50509050806104605760405162461bcd60e51b815260206004820152601660248201527f4e41544956455f5452414e534645525f4641494c4544000000000000000000006044820152606401610113565b600080546001600160a01b038381167fffffffffffffffffffffffff0000000000000000000000000000000000000000831681178455604051919092169283917f8be0079c531659141344cd1fd0a4f28419497f9722a3daafe3b4186f6b6457e09190a35050565b604080516001600160a01b03848116602483015260448083018590528351808403909101815260649092018352602080830180517bffffffffffffffffffffffffffffffffffffffffffffffffffffffff167fa9059cbb0000000000000000000000000000000000000000000000000000000017905283518085019094528084527f5361666545524332303a206c6f772d6c6576656c2063616c6c206661696c65649084015261046092869291600091610b8c918516908490610c1f565b9050805160001480610bad575080806020019051810190610bad91906113fa565b6104605760405162461bcd60e51b815260206004820152602a60248201527f5361666545524332303a204552433230206f7065726174696f6e20646964206e60448201527f6f742073756363656564000000000000000000000000000000000000000000006064820152608401610113565b6060610c2e8484600085610c36565b949350505050565b606082471015610cae5760405162461bcd60e51b815260206004820152602660248201527f416464726573733a20696e73756666696369656e742062616c616e636520666f60448201527f722063616c6c00000000000000000000000000000000000000000000000000006064820152608401610113565b600080866001600160a01b03168587604051610cca91906113e8565b60006040518083038185875af1925050503d8060008114610d07576040519150601f19603f3d011682016040523d82523d6000602084013e610d0c565b606091505b5091509150610d1d87838387610d28565b979650505050505050565b60608315610d97578251600003610d90576001600160a01b0385163b610d905760405162461bcd60e51b815260206004820152601d60248201527f416464726573733a2063616c6c20746f206e6f6e2d636f6e74726163740000006044820152606401610113565b5081610c2e565b610c2e8383815115610dac5781518083602001fd5b8060405162461bcd60e51b81526004016101139190610fff565b6001600160a01b038116811461094c57600080fd5b8035610de681610dc6565b919050565b60008060408385031215610dfe57600080fd5b8235610e0981610dc6565b946020939093013593505050565b600060208284031215610e2957600080fd5b8135610e3481610dc6565b9392505050565b600080600060608486031215610e5057600080fd5b8335610e5b81610dc6565b92506020840135610e6b81610dc6565b929592945050506040919091013590565b60008083601f840112610e8e57600080fd5b50813567ffffffffffffffff811115610ea657600080fd5b6020830191508360208260051b8501011115610ec157600080fd5b9250929050565b6000806000806000806000806080898b031215610ee457600080fd5b883567ffffffffffffffff80821115610efc57600080fd5b610f088c838d01610e7c565b909a50985060208b0135915080821115610f2157600080fd5b610f2d8c838d01610e7c565b909850965060408b0135915080821115610f4657600080fd5b610f528c838d01610e7c565b909650945060608b0135915080821115610f6b57600080fd5b50610f788b828c01610e7c565b999c989b5096995094979396929594505050565b600060208284031215610f9e57600080fd5b5051919050565b634e487b7160e01b600052603260045260246000fd5b6000823560de19833603018112610fd157600080fd5b9190910192915050565b60005b83811015610ff6578181015183820152602001610fde565b50506000910152565b602081526000825180602084015261101e816040850160208701610fdb565b601f01601f19169190910160400192915050565b6000808335601e1984360301811261104957600080fd5b83018035915067ffffffffffffffff82111561106457600080fd5b6020019150600581901b3603821315610ec157600080fd5b634e487b7160e01b600052601160045260246000fd5b6000600182016110a4576110a461107c565b5060010190565b803563ffffffff81168114610de657600080fd5b6000808335601e198436030181126110d657600080fd5b830160208101925035905067ffffffffffffffff8111156110f657600080fd5b8060051b3603821315610ec157600080fd5b8183526000602080850194508260005b8581101561114657813561112b81610dc6565b6001600160a01b031687529582019590820190600101611118565b509495945050505050565b81835260007f07ffffffffffffffffffffffffffffffffffffffffffffffffffffffffffffff83111561118357600080fd5b8260051b80836020870137939093016020019392505050565b60008383855260208086019550808560051b830101846000805b8881101561121c57858403601f19018a526111d183896110bf565b808652868601845b828110156112075783356111ec81610dc6565b6001600160a01b0316825292880192908801906001016111d9565b509b87019b95505050918401916001016111b6565b509198975050505050505050565b801515811461094c57600080fd5b8183526000602080850194508260005b8581101561114657813561125b8161122a565b151587529582019590820190600101611248565b60808082528101889052600060a060058a901b830181019083018b835b8c81101561138057858403609f190183528135368f900360de190181126112b257600080fd5b8e0160e081356112c181610dc6565b6001600160a01b031686526020828101356112db81610dc6565b6001600160a01b03168188015260406112f5848201610ddb565b6001600160a01b03169088015260608381013590880152611318608084016110ab565b63ffffffff16608088015261133060a08401846110bf565b8360a08a0152611343848a018284611108565b9350505060c0611355818501856110bf565b9450888403828a0152611369848683611151565b98505050948501949390930192505060010161128c565b505050828103602084015261139681898b61119c565b905082810360408401526113ab818789611151565b905082810360608401526113c0818587611238565b9b9a5050505050505050505050565b818103818111156113e2576113e261107c565b92915050565b60008251610fd1818460208701610fdb565b60006020828403121561140c57600080fd5b8151610e348161122a56fea2646970667358221220e811b86315b43f74ce52e61fce092aac43a3624292fb590ce062812ca12d3e2864736f6c63430008140033",
  "devdoc": {
    "kind": "dev",
    "methods": {
      "emergencyNativeTransfer(address,uint256)": {
        "details": "transfer native token from the utility contract, for native token recovery in case of stuck native due to selfdestructs or Native transfers to the pre-computed contract address before deployment.",
        "params": {
          "amount": "amount to send",
          "to": "recipient of the transfer"
        }
      },
      "emergencyTokenTransfer(address,address,uint256)": {
        "details": "transfer ERC20 from the utility contract, for ERC20 recovery in case of stuck tokens due direct transfers to the contract address.",
        "params": {
          "amount": "amount to send",
          "to": "recipient of the transfer",
          "token": "token to transfer"
        }
      },
      "getPoolAddress()": {
        "details": "Get WrappedToken pool address used by WrappedTokenGateway"
      },
      "getWrappedTokenAddress()": {
        "details": "Get WrappedToken address used by WrappedTokenGateway"
      },
      "owner()": {
        "details": "Returns the address of the current owner."
      },
      "renounceOwnership()": {
        "details": "Leaves the contract without owner. It will not be possible to call `onlyOwner` functions. Can only be called by the current owner. NOTE: Renouncing ownership will leave the contract without an owner, thereby disabling any functionality that is only available to the owner."
      },
      "transferOwnership(address)": {
        "details": "Transfers ownership of the contract to a new account (`newOwner`). Can only be called by the current owner."
      }
    },
    "version": 1
  },
  "userdoc": {
    "kind": "user",
    "methods": {},
    "version": 1
  },
  "storageLayout": {
    "storage": [
      {
        "astId": 775,
        "contract": "contracts/periphery/WrappedTokenGateway.sol:WrappedTokenGateway",
        "label": "_owner",
        "offset": 0,
        "slot": "0",
        "type": "t_address"
      }
    ],
    "types": {
      "t_address": {
        "encoding": "inplace",
        "label": "address",
        "numberOfBytes": "20"
      }
    }
  }
}