{
  "address": "0xB12699f228cE32f74DCd46b5265D16B9e1B25DfD",
  "abi": [
    {
      "inputs": [
        {
          "internalType": "address",
          "name": "_wrappedToken",
          "type": "address"
        },
        {
          "internalType": "address",
          "name": "_owner",
          "type": "address"
        },
        {
          "internalType": "contract IStrategy",
          "name": "_strategy",
          "type": "address"
        },
        {
          "internalType": "contract IStrategyManager",
          "name": "_strategyManager",
          "type": "address"
        },
        {
          "internalType": "contract IDelegationManager",
          "name": "_delegationManager",
          "type": "address"
        }
      ],
      "stateMutability": "nonpayable",
      "type": "constructor"
    },
    {
      "anonymous": false,
      "inputs": [
        {
          "indexed": true,
          "internalType": "address",
          "name": "previousOwner",
          "type": "address"
        },
        {
          "indexed": true,
          "internalType": "address",
          "name": "newOwner",
          "type": "address"
        }
      ],
      "name": "OwnershipTransferred",
      "type": "event"
    },
    {
      "stateMutability": "payable",
      "type": "fallback"
    },
    {
      "inputs": [
        {
          "internalType": "address",
          "name": "staker",
          "type": "address"
        }
      ],
      "name": "depositNativeToken",
      "outputs": [],
      "stateMutability": "payable",
      "type": "function"
    },
    {
      "inputs": [
        {
          "internalType": "address",
          "name": "to",
          "type": "address"
        },
        {
          "internalType": "uint256",
          "name": "amount",
          "type": "uint256"
        }
      ],
      "name": "emergencyNativeTransfer",
      "outputs": [],
      "stateMutability": "nonpayable",
      "type": "function"
    },
    {
      "inputs": [
        {
          "internalType": "address",
          "name": "token",
          "type": "address"
        },
        {
          "internalType": "address",
          "name": "to",
          "type": "address"
        },
        {
          "internalType": "uint256",
          "name": "amount",
          "type": "uint256"
        }
      ],
      "name": "emergencyTokenTransfer",
      "outputs": [],
      "stateMutability": "nonpayable",
      "type": "function"
    },
    {
      "inputs": [],
      "name": "getStrategyAddress",
      "outputs": [
        {
          "internalType": "address",
          "name": "",
          "type": "address"
        }
      ],
      "stateMutability": "view",
      "type": "function"
    },
    {
      "inputs": [],
      "name": "getWrappedTokenAddress",
      "outputs": [
        {
          "internalType": "address",
          "name": "",
          "type": "address"
        }
      ],
      "stateMutability": "view",
      "type": "function"
    },
    {
      "inputs": [],
      "name": "owner",
      "outputs": [
        {
          "internalType": "address",
          "name": "",
          "type": "address"
        }
      ],
      "stateMutability": "view",
      "type": "function"
    },
    {
      "inputs": [],
      "name": "renounceOwnership",
      "outputs": [],
      "stateMutability": "nonpayable",
      "type": "function"
    },
    {
      "inputs": [
        {
          "internalType": "address",
          "name": "newOwner",
          "type": "address"
        }
      ],
      "name": "transferOwnership",
      "outputs": [],
      "stateMutability": "nonpayable",
      "type": "function"
    },
    {
      "inputs": [
        {
          "components": [
            {
              "internalType": "address",
              "name": "staker",
              "type": "address"
            },
            {
              "internalType": "address",
              "name": "delegatedTo",
              "type": "address"
            },
            {
              "internalType": "address",
              "name": "withdrawer",
              "type": "address"
            },
            {
              "internalType": "uint256",
              "name": "nonce",
              "type": "uint256"
            },
            {
              "internalType": "uint32",
              "name": "startTimestamp",
              "type": "uint32"
            },
            {
              "internalType": "contract IStrategy[]",
              "name": "strategies",
              "type": "address[]"
            },
            {
              "internalType": "uint256[]",
              "name": "shares",
              "type": "uint256[]"
            }
          ],
          "internalType": "struct IDelegationManager.Withdrawal[]",
          "name": "withdrawals",
          "type": "tuple[]"
        },
        {
          "internalType": "contract IERC20[][]",
          "name": "tokens",
          "type": "address[][]"
        },
        {
          "internalType": "uint256[]",
          "name": "middlewareTimesIndexs",
          "type": "uint256[]"
        },
        {
          "internalType": "bool[]",
          "name": "receiveAsTokens",
          "type": "bool[]"
        }
      ],
      "name": "withdrawNativeTokens",
      "outputs": [],
      "stateMutability": "nonpayable",
      "type": "function"
    },
    {
      "stateMutability": "payable",
      "type": "receive"
    }
  ],
  "transactionHash": "0xeda6497cc5ba4ad516682ca6ebb5defcdb60d19a50493939474795d0fb54c88b",
  "args": [
    "0xae13d989daC2f0dEbFf460aC112a837C89BAa7cd",
    "0x8F2CfED2bac25D698bC66BE1E67d6A96DEEDca76",
    "0xE72A7b6bf9bEAA55449986e402329c262954a675",
    "0xd914b20BcFcdBb396697a957fc28a77947593bE5",
    "0xcC4b428124C226c87872d0932b7549DA0531e364"
  ],
  "numDeployments": 1,
  "solcInputHash": "73a843c7df9a0737c5f562139718a87a",
  "bytecode": "0x6101006040523480156200001257600080fd5b50604051620017b2380380620017b2833981016040819052620000359162000238565b6200004033620000f1565b6001600160a01b0380861660805283811660a05282811660c052811660e0526200006a8462000141565b60c05160405163095ea7b360e01b81526001600160a01b03918216600482015260001960248201529086169063095ea7b3906044016020604051808303816000875af1158015620000bf573d6000803e3d6000fd5b505050506040513d601f19601f82011682018060405250810190620000e59190620002b8565b505050505050620002e3565b600080546001600160a01b038381166001600160a01b0319831681178455604051919092169283917f8be0079c531659141344cd1fd0a4f28419497f9722a3daafe3b4186f6b6457e09190a35050565b6200014b620001c4565b6001600160a01b038116620001b65760405162461bcd60e51b815260206004820152602660248201527f4f776e61626c653a206e6577206f776e657220697320746865207a65726f206160448201526564647265737360d01b60648201526084015b60405180910390fd5b620001c181620000f1565b50565b6000546001600160a01b03163314620002205760405162461bcd60e51b815260206004820181905260248201527f4f776e61626c653a2063616c6c6572206973206e6f7420746865206f776e65726044820152606401620001ad565b565b6001600160a01b0381168114620001c157600080fd5b600080600080600060a086880312156200025157600080fd5b85516200025e8162000222565b6020870151909550620002718162000222565b6040870151909450620002848162000222565b6060870151909350620002978162000222565b6080870151909250620002aa8162000222565b809150509295509295909350565b600060208284031215620002cb57600080fd5b81518015158114620002dc57600080fd5b9392505050565b60805160a05160c05160e05161145e620003546000396000610718015260006103bf01526000818161024601528181610369015261053901526000818160aa01528181610195015281816102c20152818161039101528181610672015281816107a40152610858015261145e6000f3fe60806040526004361061009a5760003560e01c80638da5cb5b11610069578063c14f54d71161004e578063c14f54d714610237578063d9d468161461026a578063f2fde38b1461028a5761011e565b80638da5cb5b146101f9578063a3d5b255146102175761011e565b80631653a0c7146101665780631dceb71f1461018657806320e2d818146101d1578063715018a6146101e45761011e565b3661011e57336001600160a01b037f0000000000000000000000000000000000000000000000000000000000000000161461011c5760405162461bcd60e51b815260206004820152601360248201527f52656365697665206e6f7420616c6c6f7765640000000000000000000000000060448201526064015b60405180910390fd5b005b60405162461bcd60e51b815260206004820152601460248201527f46616c6c6261636b206e6f7420616c6c6f7765640000000000000000000000006044820152606401610113565b34801561017257600080fd5b5061011c610181366004610dff565b6102aa565b34801561019257600080fd5b507f00000000000000000000000000000000000000000000000000000000000000005b6040516001600160a01b03909116815260200160405180910390f35b61011c6101df366004610e2b565b6102c0565b3480156101f057600080fd5b5061011c610430565b34801561020557600080fd5b506000546001600160a01b03166101b5565b34801561022357600080fd5b5061011c610232366004610e4f565b610444565b34801561024357600080fd5b507f00000000000000000000000000000000000000000000000000000000000000006101b5565b34801561027657600080fd5b5061011c610285366004610edc565b610465565b34801561029657600080fd5b5061011c6102a5366004610e2b565b6108d3565b6102b2610963565b6102bc82826109bd565b5050565b7f00000000000000000000000000000000000000000000000000000000000000006001600160a01b031663d0e30db0346040518263ffffffff1660e01b81526004016000604051808303818588803b15801561031b57600080fd5b505af115801561032f573d6000803e3d6000fd5b50506040517fe46842b70000000000000000000000000000000000000000000000000000000081526001600160a01b0385811660048301527f0000000000000000000000000000000000000000000000000000000000000000811660248301527f0000000000000000000000000000000000000000000000000000000000000000811660448301523460648301527f000000000000000000000000000000000000000000000000000000000000000016935063e46842b7925060840190506020604051808303816000875af115801561040c573d6000803e3d6000fd5b505050506040513d601f19601f820116820180604052508101906102bc9190610fa0565b610438610963565b6104426000610a7a565b565b61044c610963565b6104606001600160a01b0384168383610ae2565b505050565b60005b87811015610659573389898381811061048357610483610fb9565b90506020028101906104959190610fcf565b6104a3906020810190610e2b565b6001600160a01b0316146104f95760405162461bcd60e51b815260206004820152601960248201527f57697468647261776572206d757374206265207374616b6572000000000000006044820152606401610113565b60005b89898381811061050e5761050e610fb9565b90506020028101906105209190610fcf565b61052e9060a0810190610fef565b9050811015610646577f00000000000000000000000000000000000000000000000000000000000000006001600160a01b03168a8a8481811061057357610573610fb9565b90506020028101906105859190610fcf565b6105939060a0810190610fef565b838181106105a3576105a3610fb9565b90506020020160208101906105b89190610e2b565b6001600160a01b0316146106345760405162461bcd60e51b815260206004820152602360248201527f4f6e6c7920737570706f7274207772617070656420746f6b656e20737472617460448201527f65677900000000000000000000000000000000000000000000000000000000006064820152608401610113565b8061063e8161104f565b9150506104fc565b50806106518161104f565b915050610468565b506040516370a0823160e01b81523060048201526000907f00000000000000000000000000000000000000000000000000000000000000006001600160a01b0316906370a0823190602401602060405180830381865afa1580156106c1573d6000803e3d6000fd5b505050506040513d601f19601f820116820180604052508101906106e59190610fa0565b6040517f334043960000000000000000000000000000000000000000000000000000000081529091506001600160a01b037f0000000000000000000000000000000000000000000000000000000000000000169063334043969061075b908c908c908c908c908c908c908c908c90600401611229565b600060405180830381600087803b15801561077557600080fd5b505af1158015610789573d6000803e3d6000fd5b50506040516370a0823160e01b8152306004820152600092507f00000000000000000000000000000000000000000000000000000000000000006001600160a01b031691506370a0823190602401602060405180830381865afa1580156107f4573d6000803e3d6000fd5b505050506040513d601f19601f820116820180604052508101906108189190610fa0565b905060006108268383611389565b6040517f2e1a7d4d000000000000000000000000000000000000000000000000000000008152600481018290529091507f00000000000000000000000000000000000000000000000000000000000000006001600160a01b031690632e1a7d4d90602401600060405180830381600087803b1580156108a457600080fd5b505af11580156108b8573d6000803e3d6000fd5b505050506108c633826109bd565b5050505050505050505050565b6108db610963565b6001600160a01b0381166109575760405162461bcd60e51b815260206004820152602660248201527f4f776e61626c653a206e6577206f776e657220697320746865207a65726f206160448201527f64647265737300000000000000000000000000000000000000000000000000006064820152608401610113565b61096081610a7a565b50565b6000546001600160a01b031633146104425760405162461bcd60e51b815260206004820181905260248201527f4f776e61626c653a2063616c6c6572206973206e6f7420746865206f776e65726044820152606401610113565b604080516000808252602082019092526001600160a01b0384169083906040516109e791906113c6565b60006040518083038185875af1925050503d8060008114610a24576040519150601f19603f3d011682016040523d82523d6000602084013e610a29565b606091505b50509050806104605760405162461bcd60e51b815260206004820152601660248201527f4e41544956455f5452414e534645525f4641494c4544000000000000000000006044820152606401610113565b600080546001600160a01b038381167fffffffffffffffffffffffff0000000000000000000000000000000000000000831681178455604051919092169283917f8be0079c531659141344cd1fd0a4f28419497f9722a3daafe3b4186f6b6457e09190a35050565b604080516001600160a01b03848116602483015260448083018590528351808403909101815260649092018352602080830180517bffffffffffffffffffffffffffffffffffffffffffffffffffffffff167fa9059cbb0000000000000000000000000000000000000000000000000000000017905283518085019094528084527f5361666545524332303a206c6f772d6c6576656c2063616c6c206661696c65649084015261046092869291600091610ba0918516908490610c33565b9050805160001480610bc1575080806020019051810190610bc191906113d8565b6104605760405162461bcd60e51b815260206004820152602a60248201527f5361666545524332303a204552433230206f7065726174696f6e20646964206e60448201527f6f742073756363656564000000000000000000000000000000000000000000006064820152608401610113565b6060610c428484600085610c4a565b949350505050565b606082471015610cc25760405162461bcd60e51b815260206004820152602660248201527f416464726573733a20696e73756666696369656e742062616c616e636520666f60448201527f722063616c6c00000000000000000000000000000000000000000000000000006064820152608401610113565b600080866001600160a01b03168587604051610cde91906113c6565b60006040518083038185875af1925050503d8060008114610d1b576040519150601f19603f3d011682016040523d82523d6000602084013e610d20565b606091505b5091509150610d3187838387610d3c565b979650505050505050565b60608315610dab578251600003610da4576001600160a01b0385163b610da45760405162461bcd60e51b815260206004820152601d60248201527f416464726573733a2063616c6c20746f206e6f6e2d636f6e74726163740000006044820152606401610113565b5081610c42565b610c428383815115610dc05781518083602001fd5b8060405162461bcd60e51b815260040161011391906113f5565b6001600160a01b038116811461096057600080fd5b8035610dfa81610dda565b919050565b60008060408385031215610e1257600080fd5b8235610e1d81610dda565b946020939093013593505050565b600060208284031215610e3d57600080fd5b8135610e4881610dda565b9392505050565b600080600060608486031215610e6457600080fd5b8335610e6f81610dda565b92506020840135610e7f81610dda565b929592945050506040919091013590565b60008083601f840112610ea257600080fd5b50813567ffffffffffffffff811115610eba57600080fd5b6020830191508360208260051b8501011115610ed557600080fd5b9250929050565b6000806000806000806000806080898b031215610ef857600080fd5b883567ffffffffffffffff80821115610f1057600080fd5b610f1c8c838d01610e90565b909a50985060208b0135915080821115610f3557600080fd5b610f418c838d01610e90565b909850965060408b0135915080821115610f5a57600080fd5b610f668c838d01610e90565b909650945060608b0135915080821115610f7f57600080fd5b50610f8c8b828c01610e90565b999c989b5096995094979396929594505050565b600060208284031215610fb257600080fd5b5051919050565b634e487b7160e01b600052603260045260246000fd5b6000823560de19833603018112610fe557600080fd5b9190910192915050565b6000808335601e1984360301811261100657600080fd5b83018035915067ffffffffffffffff82111561102157600080fd5b6020019150600581901b3603821315610ed557600080fd5b634e487b7160e01b600052601160045260246000fd5b60006001820161106157611061611039565b5060010190565b803563ffffffff81168114610dfa57600080fd5b6000808335601e1984360301811261109357600080fd5b830160208101925035905067ffffffffffffffff8111156110b357600080fd5b8060051b3603821315610ed557600080fd5b8183526000602080850194508260005b858110156111035781356110e881610dda565b6001600160a01b0316875295820195908201906001016110d5565b509495945050505050565b81835260007f07ffffffffffffffffffffffffffffffffffffffffffffffffffffffffffffff83111561114057600080fd5b8260051b80836020870137939093016020019392505050565b81835260006020808501808196508560051b81019150846000805b888110156111d6578385038a5261118b838961107c565b808752878701845b828110156111c15783356111a681610dda565b6001600160a01b031682529289019290890190600101611193565b509b88019b9650505091850191600101611174565b509298975050505050505050565b801515811461096057600080fd5b8183526000602080850194508260005b85811015611103578135611215816111e4565b151587529582019590820190600101611202565b60808082528101889052600060a060058a901b830181019083018b835b8c81101561133a57858403609f190183528135368f900360de1901811261126c57600080fd5b8e0160e0813561127b81610dda565b6001600160a01b0316865260208281013561129581610dda565b6001600160a01b03168188015260406112af848201610def565b6001600160a01b031690880152606083810135908801526112d260808401611068565b63ffffffff1660808801526112ea60a084018461107c565b8360a08a01526112fd848a0182846110c5565b9350505060c061130f8185018561107c565b9450888403828a015261132384868361110e565b985050509485019493909301925050600101611246565b505050828103602084015261135081898b611159565b9050828103604084015261136581878961110e565b9050828103606084015261137a8185876111f2565b9b9a5050505050505050505050565b8181038181111561139c5761139c611039565b92915050565b60005b838110156113bd5781810151838201526020016113a5565b50506000910152565b60008251610fe58184602087016113a2565b6000602082840312156113ea57600080fd5b8151610e48816111e4565b60208152600082518060208401526114148160408501602087016113a2565b601f01601f1916919091016040019291505056fea2646970667358221220415a76f2d8d0a3a543cd82a33736ec09104a2b5d78ab8bf47d371c8e0ac3942364736f6c63430008140033",
  "devdoc": {
    "kind": "dev",
    "methods": {
      "emergencyNativeTransfer(address,uint256)": {
        "details": "transfer native token from the utility contract, for native token recovery in case of stuck native due to selfdestructs or Native transfers to the pre-computed contract address before deployment.",
        "params": {
          "amount": "amount to send",
          "to": "recipient of the transfer"
        }
      },
      "emergencyTokenTransfer(address,address,uint256)": {
        "details": "transfer ERC20 from the utility contract, for ERC20 recovery in case of stuck tokens due direct transfers to the contract address.",
        "params": {
          "amount": "amount to send",
          "to": "recipient of the transfer",
          "token": "token to transfer"
        }
      },
      "getStrategyAddress()": {
        "details": "Get WrappedToken strategy address used by WrappedTokenGateway"
      },
      "getWrappedTokenAddress()": {
        "details": "Get WrappedToken address used by WrappedTokenGateway"
      },
      "owner()": {
        "details": "Returns the address of the current owner."
      },
      "renounceOwnership()": {
        "details": "Leaves the contract without owner. It will not be possible to call `onlyOwner` functions. Can only be called by the current owner. NOTE: Renouncing ownership will leave the contract without an owner, thereby disabling any functionality that is only available to the owner."
      },
      "transferOwnership(address)": {
        "details": "Transfers ownership of the contract to a new account (`newOwner`). Can only be called by the current owner."
      }
    },
    "version": 1
  },
  "userdoc": {
    "kind": "user",
    "methods": {},
    "version": 1
  },
  "storageLayout": {
    "storage": [
      {
        "astId": 775,
        "contract": "contracts/periphery/WrappedTokenGateway.sol:WrappedTokenGateway",
        "label": "_owner",
        "offset": 0,
        "slot": "0",
        "type": "t_address"
      }
    ],
    "types": {
      "t_address": {
        "encoding": "inplace",
        "label": "address",
        "numberOfBytes": "20"
      }
    }
  }
}